{
  "_format": "hh-sol-artifact-1",
  "contractName": "FundingContract",
  "sourceName": "contracts/FundingContract.sol",
  "abi": [
    {
      "inputs": [
        {
          "internalType": "uint256",
          "name": "totalFunding",
          "type": "uint256"
        },
        {
          "internalType": "uint256",
          "name": "withdrawalFee",
          "type": "uint256"
        },
        {
          "internalType": "uint256",
          "name": "vestingPeriod",
          "type": "uint256"
        },
        {
          "internalType": "bool",
          "name": "isGroupWithdrawal",
          "type": "bool"
        }
      ],
      "stateMutability": "nonpayable",
      "type": "constructor"
    },
    {
      "inputs": [],
      "name": "FundingContract__NotEnoughETH",
      "type": "error"
    },
    {
      "inputs": [],
      "name": "FundingContract__NotGroupFunding",
      "type": "error"
    },
    {
      "inputs": [],
      "name": "FundingContract__TransferFailed",
      "type": "error"
    },
    {
      "anonymous": false,
      "inputs": [
        {
          "indexed": true,
          "internalType": "address",
          "name": "owner",
          "type": "address"
        },
        {
          "indexed": true,
          "internalType": "address",
          "name": "approved",
          "type": "address"
        },
        {
          "indexed": true,
          "internalType": "uint256",
          "name": "tokenId",
          "type": "uint256"
        }
      ],
      "name": "Approval",
      "type": "event"
    },
    {
      "anonymous": false,
      "inputs": [
        {
          "indexed": true,
          "internalType": "address",
          "name": "owner",
          "type": "address"
        },
        {
          "indexed": true,
          "internalType": "address",
          "name": "operator",
          "type": "address"
        },
        {
          "indexed": false,
          "internalType": "bool",
          "name": "approved",
          "type": "bool"
        }
      ],
      "name": "ApprovalForAll",
      "type": "event"
    },
    {
      "anonymous": false,
      "inputs": [
        {
          "indexed": true,
          "internalType": "address",
          "name": "previousOwner",
          "type": "address"
        },
        {
          "indexed": true,
          "internalType": "address",
          "name": "newOwner",
          "type": "address"
        }
      ],
      "name": "OwnershipTransferred",
      "type": "event"
    },
    {
      "anonymous": false,
      "inputs": [
        {
          "indexed": true,
          "internalType": "address",
          "name": "from",
          "type": "address"
        },
        {
          "indexed": true,
          "internalType": "address",
          "name": "to",
          "type": "address"
        },
        {
          "indexed": true,
          "internalType": "uint256",
          "name": "tokenId",
          "type": "uint256"
        }
      ],
      "name": "Transfer",
      "type": "event"
    },
    {
      "inputs": [
        {
          "internalType": "address",
          "name": "to",
          "type": "address"
        },
        {
          "internalType": "uint256",
          "name": "tokenId",
          "type": "uint256"
        }
      ],
      "name": "approve",
      "outputs": [],
      "stateMutability": "nonpayable",
      "type": "function"
    },
    {
      "inputs": [
        {
          "internalType": "address",
          "name": "owner",
          "type": "address"
        }
      ],
      "name": "balanceOf",
      "outputs": [
        {
          "internalType": "uint256",
          "name": "",
          "type": "uint256"
        }
      ],
      "stateMutability": "view",
      "type": "function"
    },
    {
      "inputs": [],
      "name": "depositFunds",
      "outputs": [],
      "stateMutability": "payable",
      "type": "function"
    },
    {
      "inputs": [
        {
          "internalType": "uint256",
          "name": "tokenId",
          "type": "uint256"
        }
      ],
      "name": "getApproved",
      "outputs": [
        {
          "internalType": "address",
          "name": "",
          "type": "address"
        }
      ],
      "stateMutability": "view",
      "type": "function"
    },
    {
      "inputs": [],
      "name": "getMinimumFundingAmount",
      "outputs": [
        {
          "internalType": "uint256",
          "name": "",
          "type": "uint256"
        }
      ],
      "stateMutability": "view",
      "type": "function"
    },
    {
      "inputs": [
        {
          "internalType": "address",
          "name": "owner",
          "type": "address"
        },
        {
          "internalType": "address",
          "name": "operator",
          "type": "address"
        }
      ],
      "name": "isApprovedForAll",
      "outputs": [
        {
          "internalType": "bool",
          "name": "",
          "type": "bool"
        }
      ],
      "stateMutability": "view",
      "type": "function"
    },
    {
      "inputs": [],
      "name": "name",
      "outputs": [
        {
          "internalType": "string",
          "name": "",
          "type": "string"
        }
      ],
      "stateMutability": "view",
      "type": "function"
    },
    {
      "inputs": [],
      "name": "owner",
      "outputs": [
        {
          "internalType": "address",
          "name": "",
          "type": "address"
        }
      ],
      "stateMutability": "view",
      "type": "function"
    },
    {
      "inputs": [
        {
          "internalType": "uint256",
          "name": "tokenId",
          "type": "uint256"
        }
      ],
      "name": "ownerOf",
      "outputs": [
        {
          "internalType": "address",
          "name": "",
          "type": "address"
        }
      ],
      "stateMutability": "view",
      "type": "function"
    },
    {
      "inputs": [],
      "name": "renounceOwnership",
      "outputs": [],
      "stateMutability": "nonpayable",
      "type": "function"
    },
    {
      "inputs": [],
      "name": "requestForWithdrawal",
      "outputs": [
        {
          "internalType": "bool",
          "name": "",
          "type": "bool"
        }
      ],
      "stateMutability": "nonpayable",
      "type": "function"
    },
    {
      "inputs": [
        {
          "internalType": "address",
          "name": "from",
          "type": "address"
        },
        {
          "internalType": "address",
          "name": "to",
          "type": "address"
        },
        {
          "internalType": "uint256",
          "name": "tokenId",
          "type": "uint256"
        }
      ],
      "name": "safeTransferFrom",
      "outputs": [],
      "stateMutability": "nonpayable",
      "type": "function"
    },
    {
      "inputs": [
        {
          "internalType": "address",
          "name": "from",
          "type": "address"
        },
        {
          "internalType": "address",
          "name": "to",
          "type": "address"
        },
        {
          "internalType": "uint256",
          "name": "tokenId",
          "type": "uint256"
        },
        {
          "internalType": "bytes",
          "name": "data",
          "type": "bytes"
        }
      ],
      "name": "safeTransferFrom",
      "outputs": [],
      "stateMutability": "nonpayable",
      "type": "function"
    },
    {
      "inputs": [
        {
          "internalType": "address",
          "name": "operator",
          "type": "address"
        },
        {
          "internalType": "bool",
          "name": "approved",
          "type": "bool"
        }
      ],
      "name": "setApprovalForAll",
      "outputs": [],
      "stateMutability": "nonpayable",
      "type": "function"
    },
    {
      "inputs": [
        {
          "internalType": "bytes4",
          "name": "interfaceId",
          "type": "bytes4"
        }
      ],
      "name": "supportsInterface",
      "outputs": [
        {
          "internalType": "bool",
          "name": "",
          "type": "bool"
        }
      ],
      "stateMutability": "view",
      "type": "function"
    },
    {
      "inputs": [],
      "name": "symbol",
      "outputs": [
        {
          "internalType": "string",
          "name": "",
          "type": "string"
        }
      ],
      "stateMutability": "view",
      "type": "function"
    },
    {
      "inputs": [
        {
          "internalType": "uint256",
          "name": "tokenId",
          "type": "uint256"
        }
      ],
      "name": "tokenURI",
      "outputs": [
        {
          "internalType": "string",
          "name": "",
          "type": "string"
        }
      ],
      "stateMutability": "view",
      "type": "function"
    },
    {
      "inputs": [
        {
          "internalType": "address",
          "name": "from",
          "type": "address"
        },
        {
          "internalType": "address",
          "name": "to",
          "type": "address"
        },
        {
          "internalType": "uint256",
          "name": "tokenId",
          "type": "uint256"
        }
      ],
      "name": "transferFrom",
      "outputs": [],
      "stateMutability": "nonpayable",
      "type": "function"
    },
    {
      "inputs": [
        {
          "internalType": "address",
          "name": "newOwner",
          "type": "address"
        }
      ],
      "name": "transferOwnership",
      "outputs": [],
      "stateMutability": "nonpayable",
      "type": "function"
    },
    {
      "inputs": [],
      "name": "withdrawFunds",
      "outputs": [],
      "stateMutability": "nonpayable",
      "type": "function"
    }
  ],
  "bytecode": "0x60806040523480156200001157600080fd5b506040516200316d3803806200316d83398181016040528101906200003791906200026d565b6040518060400160405280601481526020017f46756e64696e67436f6e7472616374546f6b656e0000000000000000000000008152506040518060400160405280600381526020017f46435400000000000000000000000000000000000000000000000000000000008152508160009081620000b491906200054f565b508060019081620000c691906200054f565b505050620000e9620000dd6200012260201b60201c565b6200012a60201b60201c565b836008819055508260098190555081600a8190555080600b60006101000a81548160ff0219169083151502179055505050505062000636565b600033905090565b6000600660009054906101000a900473ffffffffffffffffffffffffffffffffffffffff16905081600660006101000a81548173ffffffffffffffffffffffffffffffffffffffff021916908373ffffffffffffffffffffffffffffffffffffffff1602179055508173ffffffffffffffffffffffffffffffffffffffff168173ffffffffffffffffffffffffffffffffffffffff167f8be0079c531659141344cd1fd0a4f28419497f9722a3daafe3b4186f6b6457e060405160405180910390a35050565b600080fd5b6000819050919050565b6200020a81620001f5565b81146200021657600080fd5b50565b6000815190506200022a81620001ff565b92915050565b60008115159050919050565b620002478162000230565b81146200025357600080fd5b50565b60008151905062000267816200023c565b92915050565b600080600080608085870312156200028a5762000289620001f0565b5b60006200029a8782880162000219565b9450506020620002ad8782880162000219565b9350506040620002c08782880162000219565b9250506060620002d38782880162000256565b91505092959194509250565b600081519050919050565b7f4e487b7100000000000000000000000000000000000000000000000000000000600052604160045260246000fd5b7f4e487b7100000000000000000000000000000000000000000000000000000000600052602260045260246000fd5b600060028204905060018216806200036157607f821691505b60208210810362000377576200037662000319565b5b50919050565b60008190508160005260206000209050919050565b60006020601f8301049050919050565b600082821b905092915050565b600060088302620003e17fffffffffffffffffffffffffffffffffffffffffffffffffffffffffffffffff82620003a2565b620003ed8683620003a2565b95508019841693508086168417925050509392505050565b6000819050919050565b6000620004306200042a6200042484620001f5565b62000405565b620001f5565b9050919050565b6000819050919050565b6200044c836200040f565b620004646200045b8262000437565b848454620003af565b825550505050565b600090565b6200047b6200046c565b6200048881848462000441565b505050565b5b81811015620004b057620004a460008262000471565b6001810190506200048e565b5050565b601f821115620004ff57620004c9816200037d565b620004d48462000392565b81016020851015620004e4578190505b620004fc620004f38562000392565b8301826200048d565b50505b505050565b600082821c905092915050565b6000620005246000198460080262000504565b1980831691505092915050565b60006200053f838362000511565b9150826002028217905092915050565b6200055a82620002df565b67ffffffffffffffff811115620005765762000575620002ea565b5b62000582825462000348565b6200058f828285620004b4565b600060209050601f831160018114620005c75760008415620005b2578287015190505b620005be858262000531565b8655506200062e565b601f198416620005d7866200037d565b60005b828110156200060157848901518255600182019150602085019450602081019050620005da565b868310156200062157848901516200061d601f89168262000511565b8355505b6001600288020188555050505b505050505050565b612b2780620006466000396000f3fe60806040526004361061011f5760003560e01c8063715018a6116100a0578063c87b56dd11610064578063c87b56dd146103bf578063db06941e146103fc578063e2c41dbc14610427578063e985e9c514610431578063f2fde38b1461046e5761011f565b8063715018a6146103005780638da5cb5b1461031757806395d89b4114610342578063a22cb4651461036d578063b88d4fde146103965761011f565b806324600fc3116100e757806324600fc31461021b57806342842e0e146102325780636352211e1461025b578063669296581461029857806370a08231146102c35761011f565b806301ffc9a71461012457806306fdde0314610161578063081812fc1461018c578063095ea7b3146101c957806323b872dd146101f2575b600080fd5b34801561013057600080fd5b5061014b60048036038101906101469190611c5d565b610497565b6040516101589190611ca5565b60405180910390f35b34801561016d57600080fd5b50610176610579565b6040516101839190611d50565b60405180910390f35b34801561019857600080fd5b506101b360048036038101906101ae9190611da8565b61060b565b6040516101c09190611e16565b60405180910390f35b3480156101d557600080fd5b506101f060048036038101906101eb9190611e5d565b610651565b005b3480156101fe57600080fd5b5061021960048036038101906102149190611e9d565b610768565b005b34801561022757600080fd5b506102306107c8565b005b34801561023e57600080fd5b5061025960048036038101906102549190611e9d565b6108c3565b005b34801561026757600080fd5b50610282600480360381019061027d9190611da8565b6108e3565b60405161028f9190611e16565b60405180910390f35b3480156102a457600080fd5b506102ad610969565b6040516102ba9190611ca5565b60405180910390f35b3480156102cf57600080fd5b506102ea60048036038101906102e59190611ef0565b6109b4565b6040516102f79190611f2c565b60405180910390f35b34801561030c57600080fd5b50610315610a6b565b005b34801561032357600080fd5b5061032c610a7f565b6040516103399190611e16565b60405180910390f35b34801561034e57600080fd5b50610357610aa9565b6040516103649190611d50565b60405180910390f35b34801561037957600080fd5b50610394600480360381019061038f9190611f73565b610b3b565b005b3480156103a257600080fd5b506103bd60048036038101906103b891906120e8565b610b51565b005b3480156103cb57600080fd5b506103e660048036038101906103e19190611da8565b610bb3565b6040516103f39190611d50565b60405180910390f35b34801561040857600080fd5b50610411610c1b565b60405161041e9190611f2c565b60405180910390f35b61042f610c39565b005b34801561043d57600080fd5b506104586004803603810190610453919061216b565b610d28565b6040516104659190611ca5565b60405180910390f35b34801561047a57600080fd5b5061049560048036038101906104909190611ef0565b610dbc565b005b60007f80ac58cd000000000000000000000000000000000000000000000000000000007bffffffffffffffffffffffffffffffffffffffffffffffffffffffff1916827bffffffffffffffffffffffffffffffffffffffffffffffffffffffff1916148061056257507f5b5e139f000000000000000000000000000000000000000000000000000000007bffffffffffffffffffffffffffffffffffffffffffffffffffffffff1916827bffffffffffffffffffffffffffffffffffffffffffffffffffffffff1916145b80610572575061057182610e3f565b5b9050919050565b606060008054610588906121da565b80601f01602080910402602001604051908101604052809291908181526020018280546105b4906121da565b80156106015780601f106105d657610100808354040283529160200191610601565b820191906000526020600020905b8154815290600101906020018083116105e457829003601f168201915b5050505050905090565b600061061682610ea9565b6004600083815260200190815260200160002060009054906101000a900473ffffffffffffffffffffffffffffffffffffffff169050919050565b600061065c826108e3565b90508073ffffffffffffffffffffffffffffffffffffffff168373ffffffffffffffffffffffffffffffffffffffff16036106cc576040517f08c379a00000000000000000000000000000000000000000000000000000000081526004016106c39061227d565b60405180910390fd5b8073ffffffffffffffffffffffffffffffffffffffff166106eb610ef4565b73ffffffffffffffffffffffffffffffffffffffff16148061071a575061071981610714610ef4565b610d28565b5b610759576040517f08c379a00000000000000000000000000000000000000000000000000000000081526004016107509061230f565b60405180910390fd5b6107638383610efc565b505050565b610779610773610ef4565b82610fb5565b6107b8576040517f08c379a00000000000000000000000000000000000000000000000000000000081526004016107af906123a1565b60405180910390fd5b6107c383838361104a565b505050565b6107d0611343565b6107d8610969565b610817576040517f08c379a000000000000000000000000000000000000000000000000000000000815260040161080e90612433565b60405180910390fd5b600047905060003373ffffffffffffffffffffffffffffffffffffffff168260405161084290612484565b60006040518083038185875af1925050503d806000811461087f576040519150601f19603f3d011682016040523d82523d6000602084013e610884565b606091505b50509050806108bf576040517f9af25e5d00000000000000000000000000000000000000000000000000000000815260040160405180910390fd5b5050565b6108de83838360405180602001604052806000815250610b51565b505050565b6000806108ef836113c1565b9050600073ffffffffffffffffffffffffffffffffffffffff168173ffffffffffffffffffffffffffffffffffffffff1603610960576040517f08c379a0000000000000000000000000000000000000000000000000000000008152600401610957906124e5565b60405180910390fd5b80915050919050565b6000600b60009054906101000a900460ff166109b1576040517fad1faa7200000000000000000000000000000000000000000000000000000000815260040160405180910390fd5b90565b60008073ffffffffffffffffffffffffffffffffffffffff168273ffffffffffffffffffffffffffffffffffffffff1603610a24576040517f08c379a0000000000000000000000000000000000000000000000000000000008152600401610a1b90612577565b60405180910390fd5b600360008373ffffffffffffffffffffffffffffffffffffffff1673ffffffffffffffffffffffffffffffffffffffff168152602001908152602001600020549050919050565b610a73611343565b610a7d60006113fe565b565b6000600660009054906101000a900473ffffffffffffffffffffffffffffffffffffffff16905090565b606060018054610ab8906121da565b80601f0160208091040260200160405190810160405280929190818152602001828054610ae4906121da565b8015610b315780601f10610b0657610100808354040283529160200191610b31565b820191906000526020600020905b815481529060010190602001808311610b1457829003601f168201915b5050505050905090565b610b4d610b46610ef4565b83836114c4565b5050565b610b62610b5c610ef4565b83610fb5565b610ba1576040517f08c379a0000000000000000000000000000000000000000000000000000000008152600401610b98906123a1565b60405180910390fd5b610bad84848484611630565b50505050565b6060610bbe82610ea9565b6000610bc861168c565b90506000815111610be85760405180602001604052806000815250610c13565b80610bf2846116a3565b604051602001610c039291906125d3565b6040516020818303038152906040525b915050919050565b6000610c34600a5460085461177190919063ffffffff16565b905090565b6000610c43610c1b565b9050803411610c7e576040517fcf463cf900000000000000000000000000000000000000000000000000000000815260040160405180910390fd5b34600c60003373ffffffffffffffffffffffffffffffffffffffff1673ffffffffffffffffffffffffffffffffffffffff16815260200190815260200160002081905550600d339080600181540180825580915050600190039060005260206000200160009091909190916101000a81548173ffffffffffffffffffffffffffffffffffffffff021916908373ffffffffffffffffffffffffffffffffffffffff16021790555050565b6000600560008473ffffffffffffffffffffffffffffffffffffffff1673ffffffffffffffffffffffffffffffffffffffff16815260200190815260200160002060008373ffffffffffffffffffffffffffffffffffffffff1673ffffffffffffffffffffffffffffffffffffffff16815260200190815260200160002060009054906101000a900460ff16905092915050565b610dc4611343565b600073ffffffffffffffffffffffffffffffffffffffff168173ffffffffffffffffffffffffffffffffffffffff1603610e33576040517f08c379a0000000000000000000000000000000000000000000000000000000008152600401610e2a90612669565b60405180910390fd5b610e3c816113fe565b50565b60007f01ffc9a7000000000000000000000000000000000000000000000000000000007bffffffffffffffffffffffffffffffffffffffffffffffffffffffff1916827bffffffffffffffffffffffffffffffffffffffffffffffffffffffff1916149050919050565b610eb281611787565b610ef1576040517f08c379a0000000000000000000000000000000000000000000000000000000008152600401610ee8906124e5565b60405180910390fd5b50565b600033905090565b816004600083815260200190815260200160002060006101000a81548173ffffffffffffffffffffffffffffffffffffffff021916908373ffffffffffffffffffffffffffffffffffffffff160217905550808273ffffffffffffffffffffffffffffffffffffffff16610f6f836108e3565b73ffffffffffffffffffffffffffffffffffffffff167f8c5be1e5ebec7d5bd14f71427d1e84f3dd0314c0f7b2291e5b200ac8c7c3b92560405160405180910390a45050565b600080610fc1836108e3565b90508073ffffffffffffffffffffffffffffffffffffffff168473ffffffffffffffffffffffffffffffffffffffff16148061100357506110028185610d28565b5b8061104157508373ffffffffffffffffffffffffffffffffffffffff166110298461060b565b73ffffffffffffffffffffffffffffffffffffffff16145b91505092915050565b8273ffffffffffffffffffffffffffffffffffffffff1661106a826108e3565b73ffffffffffffffffffffffffffffffffffffffff16146110c0576040517f08c379a00000000000000000000000000000000000000000000000000000000081526004016110b7906126fb565b60405180910390fd5b600073ffffffffffffffffffffffffffffffffffffffff168273ffffffffffffffffffffffffffffffffffffffff160361112f576040517f08c379a00000000000000000000000000000000000000000000000000000000081526004016111269061278d565b60405180910390fd5b61113c83838360016117c8565b8273ffffffffffffffffffffffffffffffffffffffff1661115c826108e3565b73ffffffffffffffffffffffffffffffffffffffff16146111b2576040517f08c379a00000000000000000000000000000000000000000000000000000000081526004016111a9906126fb565b60405180910390fd5b6004600082815260200190815260200160002060006101000a81549073ffffffffffffffffffffffffffffffffffffffff02191690556001600360008573ffffffffffffffffffffffffffffffffffffffff1673ffffffffffffffffffffffffffffffffffffffff168152602001908152602001600020600082825403925050819055506001600360008473ffffffffffffffffffffffffffffffffffffffff1673ffffffffffffffffffffffffffffffffffffffff16815260200190815260200160002060008282540192505081905550816002600083815260200190815260200160002060006101000a81548173ffffffffffffffffffffffffffffffffffffffff021916908373ffffffffffffffffffffffffffffffffffffffff160217905550808273ffffffffffffffffffffffffffffffffffffffff168473ffffffffffffffffffffffffffffffffffffffff167fddf252ad1be2c89b69c2b068fc378daa952ba7f163c4a11628f55a4df523b3ef60405160405180910390a461133e83838360016118ee565b505050565b61134b610ef4565b73ffffffffffffffffffffffffffffffffffffffff16611369610a7f565b73ffffffffffffffffffffffffffffffffffffffff16146113bf576040517f08c379a00000000000000000000000000000000000000000000000000000000081526004016113b6906127f9565b60405180910390fd5b565b60006002600083815260200190815260200160002060009054906101000a900473ffffffffffffffffffffffffffffffffffffffff169050919050565b6000600660009054906101000a900473ffffffffffffffffffffffffffffffffffffffff16905081600660006101000a81548173ffffffffffffffffffffffffffffffffffffffff021916908373ffffffffffffffffffffffffffffffffffffffff1602179055508173ffffffffffffffffffffffffffffffffffffffff168173ffffffffffffffffffffffffffffffffffffffff167f8be0079c531659141344cd1fd0a4f28419497f9722a3daafe3b4186f6b6457e060405160405180910390a35050565b8173ffffffffffffffffffffffffffffffffffffffff168373ffffffffffffffffffffffffffffffffffffffff1603611532576040517f08c379a000000000000000000000000000000000000000000000000000000000815260040161152990612865565b60405180910390fd5b80600560008573ffffffffffffffffffffffffffffffffffffffff1673ffffffffffffffffffffffffffffffffffffffff16815260200190815260200160002060008473ffffffffffffffffffffffffffffffffffffffff1673ffffffffffffffffffffffffffffffffffffffff16815260200190815260200160002060006101000a81548160ff0219169083151502179055508173ffffffffffffffffffffffffffffffffffffffff168373ffffffffffffffffffffffffffffffffffffffff167f17307eab39ab6107e8899845ad3d59bd9653f200f220920489ca2b5937696c31836040516116239190611ca5565b60405180910390a3505050565b61163b84848461104a565b611647848484846118f4565b611686576040517f08c379a000000000000000000000000000000000000000000000000000000000815260040161167d906128f7565b60405180910390fd5b50505050565b606060405180602001604052806000815250905090565b6060600060016116b284611a7b565b01905060008167ffffffffffffffff8111156116d1576116d0611fbd565b5b6040519080825280601f01601f1916602001820160405280156117035781602001600182028036833780820191505090505b509050600082602001820190505b600115611766578080600190039150507f3031323334353637383961626364656600000000000000000000000000000000600a86061a8153600a858161175a57611759612917565b5b04945060008503611711575b819350505050919050565b6000818361177f9190612975565b905092915050565b60008073ffffffffffffffffffffffffffffffffffffffff166117a9836113c1565b73ffffffffffffffffffffffffffffffffffffffff1614159050919050565b60018111156118e857600073ffffffffffffffffffffffffffffffffffffffff168473ffffffffffffffffffffffffffffffffffffffff161461185c5780600360008673ffffffffffffffffffffffffffffffffffffffff1673ffffffffffffffffffffffffffffffffffffffff168152602001908152602001600020600082825461185491906129a6565b925050819055505b600073ffffffffffffffffffffffffffffffffffffffff168373ffffffffffffffffffffffffffffffffffffffff16146118e75780600360008573ffffffffffffffffffffffffffffffffffffffff1673ffffffffffffffffffffffffffffffffffffffff16815260200190815260200160002060008282546118df91906129da565b925050819055505b5b50505050565b50505050565b60006119158473ffffffffffffffffffffffffffffffffffffffff16611bce565b15611a6e578373ffffffffffffffffffffffffffffffffffffffff1663150b7a0261193e610ef4565b8786866040518563ffffffff1660e01b81526004016119609493929190612a63565b6020604051808303816000875af192505050801561199c57506040513d601f19601f820116820180604052508101906119999190612ac4565b60015b611a1e573d80600081146119cc576040519150601f19603f3d011682016040523d82523d6000602084013e6119d1565b606091505b506000815103611a16576040517f08c379a0000000000000000000000000000000000000000000000000000000008152600401611a0d906128f7565b60405180910390fd5b805181602001fd5b63150b7a0260e01b7bffffffffffffffffffffffffffffffffffffffffffffffffffffffff1916817bffffffffffffffffffffffffffffffffffffffffffffffffffffffff191614915050611a73565b600190505b949350505050565b600080600090507a184f03e93ff9f4daa797ed6e38ed64bf6a1f0100000000000000008310611ad9577a184f03e93ff9f4daa797ed6e38ed64bf6a1f0100000000000000008381611acf57611ace612917565b5b0492506040810190505b6d04ee2d6d415b85acef81000000008310611b16576d04ee2d6d415b85acef81000000008381611b0c57611b0b612917565b5b0492506020810190505b662386f26fc100008310611b4557662386f26fc100008381611b3b57611b3a612917565b5b0492506010810190505b6305f5e1008310611b6e576305f5e1008381611b6457611b63612917565b5b0492506008810190505b6127108310611b93576127108381611b8957611b88612917565b5b0492506004810190505b60648310611bb65760648381611bac57611bab612917565b5b0492506002810190505b600a8310611bc5576001810190505b80915050919050565b6000808273ffffffffffffffffffffffffffffffffffffffff163b119050919050565b6000604051905090565b600080fd5b600080fd5b60007fffffffff0000000000000000000000000000000000000000000000000000000082169050919050565b611c3a81611c05565b8114611c4557600080fd5b50565b600081359050611c5781611c31565b92915050565b600060208284031215611c7357611c72611bfb565b5b6000611c8184828501611c48565b91505092915050565b60008115159050919050565b611c9f81611c8a565b82525050565b6000602082019050611cba6000830184611c96565b92915050565b600081519050919050565b600082825260208201905092915050565b60005b83811015611cfa578082015181840152602081019050611cdf565b60008484015250505050565b6000601f19601f8301169050919050565b6000611d2282611cc0565b611d2c8185611ccb565b9350611d3c818560208601611cdc565b611d4581611d06565b840191505092915050565b60006020820190508181036000830152611d6a8184611d17565b905092915050565b6000819050919050565b611d8581611d72565b8114611d9057600080fd5b50565b600081359050611da281611d7c565b92915050565b600060208284031215611dbe57611dbd611bfb565b5b6000611dcc84828501611d93565b91505092915050565b600073ffffffffffffffffffffffffffffffffffffffff82169050919050565b6000611e0082611dd5565b9050919050565b611e1081611df5565b82525050565b6000602082019050611e2b6000830184611e07565b92915050565b611e3a81611df5565b8114611e4557600080fd5b50565b600081359050611e5781611e31565b92915050565b60008060408385031215611e7457611e73611bfb565b5b6000611e8285828601611e48565b9250506020611e9385828601611d93565b9150509250929050565b600080600060608486031215611eb657611eb5611bfb565b5b6000611ec486828701611e48565b9350506020611ed586828701611e48565b9250506040611ee686828701611d93565b9150509250925092565b600060208284031215611f0657611f05611bfb565b5b6000611f1484828501611e48565b91505092915050565b611f2681611d72565b82525050565b6000602082019050611f416000830184611f1d565b92915050565b611f5081611c8a565b8114611f5b57600080fd5b50565b600081359050611f6d81611f47565b92915050565b60008060408385031215611f8a57611f89611bfb565b5b6000611f9885828601611e48565b9250506020611fa985828601611f5e565b9150509250929050565b600080fd5b600080fd5b7f4e487b7100000000000000000000000000000000000000000000000000000000600052604160045260246000fd5b611ff582611d06565b810181811067ffffffffffffffff8211171561201457612013611fbd565b5b80604052505050565b6000612027611bf1565b90506120338282611fec565b919050565b600067ffffffffffffffff82111561205357612052611fbd565b5b61205c82611d06565b9050602081019050919050565b82818337600083830152505050565b600061208b61208684612038565b61201d565b9050828152602081018484840111156120a7576120a6611fb8565b5b6120b2848285612069565b509392505050565b600082601f8301126120cf576120ce611fb3565b5b81356120df848260208601612078565b91505092915050565b6000806000806080858703121561210257612101611bfb565b5b600061211087828801611e48565b945050602061212187828801611e48565b935050604061213287828801611d93565b925050606085013567ffffffffffffffff81111561215357612152611c00565b5b61215f878288016120ba565b91505092959194509250565b6000806040838503121561218257612181611bfb565b5b600061219085828601611e48565b92505060206121a185828601611e48565b9150509250929050565b7f4e487b7100000000000000000000000000000000000000000000000000000000600052602260045260246000fd5b600060028204905060018216806121f257607f821691505b602082108103612205576122046121ab565b5b50919050565b7f4552433732313a20617070726f76616c20746f2063757272656e74206f776e6560008201527f7200000000000000000000000000000000000000000000000000000000000000602082015250565b6000612267602183611ccb565b91506122728261220b565b604082019050919050565b600060208201905081810360008301526122968161225a565b9050919050565b7f4552433732313a20617070726f76652063616c6c6572206973206e6f7420746f60008201527f6b656e206f776e6572206f7220617070726f76656420666f7220616c6c000000602082015250565b60006122f9603d83611ccb565b91506123048261229d565b604082019050919050565b60006020820190508181036000830152612328816122ec565b9050919050565b7f4552433732313a2063616c6c6572206973206e6f7420746f6b656e206f776e6560008201527f72206f7220617070726f76656400000000000000000000000000000000000000602082015250565b600061238b602d83611ccb565b91506123968261232f565b604082019050919050565b600060208201905081810360008301526123ba8161237e565b9050919050565b7f596f7520646f206e6f742068617665207065726d697373696f6e20746f20776960008201527f746864726177207468652066756e647300000000000000000000000000000000602082015250565b600061241d603083611ccb565b9150612428826123c1565b604082019050919050565b6000602082019050818103600083015261244c81612410565b9050919050565b600081905092915050565b50565b600061246e600083612453565b91506124798261245e565b600082019050919050565b600061248f82612461565b9150819050919050565b7f4552433732313a20696e76616c696420746f6b656e2049440000000000000000600082015250565b60006124cf601883611ccb565b91506124da82612499565b602082019050919050565b600060208201905081810360008301526124fe816124c2565b9050919050565b7f4552433732313a2061646472657373207a65726f206973206e6f74206120766160008201527f6c6964206f776e65720000000000000000000000000000000000000000000000602082015250565b6000612561602983611ccb565b915061256c82612505565b604082019050919050565b6000602082019050818103600083015261259081612554565b9050919050565b600081905092915050565b60006125ad82611cc0565b6125b78185612597565b93506125c7818560208601611cdc565b80840191505092915050565b60006125df82856125a2565b91506125eb82846125a2565b91508190509392505050565b7f4f776e61626c653a206e6577206f776e657220697320746865207a65726f206160008201527f6464726573730000000000000000000000000000000000000000000000000000602082015250565b6000612653602683611ccb565b915061265e826125f7565b604082019050919050565b6000602082019050818103600083015261268281612646565b9050919050565b7f4552433732313a207472616e736665722066726f6d20696e636f72726563742060008201527f6f776e6572000000000000000000000000000000000000000000000000000000602082015250565b60006126e5602583611ccb565b91506126f082612689565b604082019050919050565b60006020820190508181036000830152612714816126d8565b9050919050565b7f4552433732313a207472616e7366657220746f20746865207a65726f2061646460008201527f7265737300000000000000000000000000000000000000000000000000000000602082015250565b6000612777602483611ccb565b91506127828261271b565b604082019050919050565b600060208201905081810360008301526127a68161276a565b9050919050565b7f4f776e61626c653a2063616c6c6572206973206e6f7420746865206f776e6572600082015250565b60006127e3602083611ccb565b91506127ee826127ad565b602082019050919050565b60006020820190508181036000830152612812816127d6565b9050919050565b7f4552433732313a20617070726f766520746f2063616c6c657200000000000000600082015250565b600061284f601983611ccb565b915061285a82612819565b602082019050919050565b6000602082019050818103600083015261287e81612842565b9050919050565b7f4552433732313a207472616e7366657220746f206e6f6e20455243373231526560008201527f63656976657220696d706c656d656e7465720000000000000000000000000000602082015250565b60006128e1603283611ccb565b91506128ec82612885565b604082019050919050565b60006020820190508181036000830152612910816128d4565b9050919050565b7f4e487b7100000000000000000000000000000000000000000000000000000000600052601260045260246000fd5b7f4e487b7100000000000000000000000000000000000000000000000000000000600052601160045260246000fd5b600061298082611d72565b915061298b83611d72565b92508261299b5761299a612917565b5b828204905092915050565b60006129b182611d72565b91506129bc83611d72565b92508282039050818111156129d4576129d3612946565b5b92915050565b60006129e582611d72565b91506129f083611d72565b9250828201905080821115612a0857612a07612946565b5b92915050565b600081519050919050565b600082825260208201905092915050565b6000612a3582612a0e565b612a3f8185612a19565b9350612a4f818560208601611cdc565b612a5881611d06565b840191505092915050565b6000608082019050612a786000830187611e07565b612a856020830186611e07565b612a926040830185611f1d565b8181036060830152612aa48184612a2a565b905095945050505050565b600081519050612abe81611c31565b92915050565b600060208284031215612ada57612ad9611bfb565b5b6000612ae884828501612aaf565b9150509291505056fea2646970667358221220c07fb5204c0d999506dc3f8b512be32bc3ffa5b281ffd5db3926f70dcf3fb40164736f6c63430008110033",
  "linkReferences": {},
  "deployedLinkReferences": {}
}