{
  "_format": "hh-sol-artifact-1",
  "contractName": "FundingContract",
  "sourceName": "contracts/FundingContract.sol",
  "abi": [
    {
      "inputs": [
        {
          "internalType": "uint256",
          "name": "totalFunding",
          "type": "uint256"
        },
        {
          "internalType": "uint256",
          "name": "withdrawalFee",
          "type": "uint256"
        },
        {
          "internalType": "bool",
          "name": "isGroupWithdrawal",
          "type": "bool"
        },
        {
          "internalType": "string",
          "name": "tokenUri",
          "type": "string"
        },
        {
          "internalType": "uint64",
          "name": "startTimestamp",
          "type": "uint64"
        },
        {
          "internalType": "uint64",
          "name": "vestingPeriodInSeconds",
          "type": "uint64"
        }
      ],
      "stateMutability": "nonpayable",
      "type": "constructor"
    },
    {
      "inputs": [],
      "name": "FundingContract__NotEnoughETH",
      "type": "error"
    },
    {
      "inputs": [],
      "name": "FundingContract__NotGroupFunding",
      "type": "error"
    },
    {
      "inputs": [],
      "name": "FundingContract__TransferFailed",
      "type": "error"
    },
    {
      "anonymous": false,
      "inputs": [
        {
          "indexed": true,
          "internalType": "address",
          "name": "owner",
          "type": "address"
        },
        {
          "indexed": true,
          "internalType": "address",
          "name": "approved",
          "type": "address"
        },
        {
          "indexed": true,
          "internalType": "uint256",
          "name": "tokenId",
          "type": "uint256"
        }
      ],
      "name": "Approval",
      "type": "event"
    },
    {
      "anonymous": false,
      "inputs": [
        {
          "indexed": true,
          "internalType": "address",
          "name": "owner",
          "type": "address"
        },
        {
          "indexed": true,
          "internalType": "address",
          "name": "operator",
          "type": "address"
        },
        {
          "indexed": false,
          "internalType": "bool",
          "name": "approved",
          "type": "bool"
        }
      ],
      "name": "ApprovalForAll",
      "type": "event"
    },
    {
      "anonymous": false,
      "inputs": [
        {
          "indexed": true,
          "internalType": "address",
          "name": "contractor",
          "type": "address"
        },
        {
          "indexed": true,
          "internalType": "uint256",
          "name": "releasedFunds",
          "type": "uint256"
        }
      ],
      "name": "ContractorClaimedFunds",
      "type": "event"
    },
    {
      "anonymous": false,
      "inputs": [
        {
          "indexed": true,
          "internalType": "address",
          "name": "token",
          "type": "address"
        },
        {
          "indexed": false,
          "internalType": "uint256",
          "name": "amount",
          "type": "uint256"
        }
      ],
      "name": "ERC20Released",
      "type": "event"
    },
    {
      "anonymous": false,
      "inputs": [
        {
          "indexed": false,
          "internalType": "uint256",
          "name": "amount",
          "type": "uint256"
        }
      ],
      "name": "EtherReleased",
      "type": "event"
    },
    {
      "anonymous": false,
      "inputs": [
        {
          "indexed": true,
          "internalType": "uint256",
          "name": "tokenId",
          "type": "uint256"
        },
        {
          "indexed": true,
          "internalType": "address",
          "name": "funder",
          "type": "address"
        },
        {
          "indexed": true,
          "internalType": "uint256",
          "name": "amount",
          "type": "uint256"
        }
      ],
      "name": "FundsDeposited",
      "type": "event"
    },
    {
      "anonymous": false,
      "inputs": [
        {
          "indexed": true,
          "internalType": "address",
          "name": "withdrawer",
          "type": "address"
        },
        {
          "indexed": true,
          "internalType": "uint256",
          "name": "withDrawedFunds",
          "type": "uint256"
        }
      ],
      "name": "FundsWithdrawed",
      "type": "event"
    },
    {
      "anonymous": false,
      "inputs": [
        {
          "indexed": true,
          "internalType": "bytes32",
          "name": "role",
          "type": "bytes32"
        },
        {
          "indexed": true,
          "internalType": "bytes32",
          "name": "previousAdminRole",
          "type": "bytes32"
        },
        {
          "indexed": true,
          "internalType": "bytes32",
          "name": "newAdminRole",
          "type": "bytes32"
        }
      ],
      "name": "RoleAdminChanged",
      "type": "event"
    },
    {
      "anonymous": false,
      "inputs": [
        {
          "indexed": true,
          "internalType": "bytes32",
          "name": "role",
          "type": "bytes32"
        },
        {
          "indexed": true,
          "internalType": "address",
          "name": "account",
          "type": "address"
        },
        {
          "indexed": true,
          "internalType": "address",
          "name": "sender",
          "type": "address"
        }
      ],
      "name": "RoleGranted",
      "type": "event"
    },
    {
      "anonymous": false,
      "inputs": [
        {
          "indexed": true,
          "internalType": "bytes32",
          "name": "role",
          "type": "bytes32"
        },
        {
          "indexed": true,
          "internalType": "address",
          "name": "account",
          "type": "address"
        },
        {
          "indexed": true,
          "internalType": "address",
          "name": "sender",
          "type": "address"
        }
      ],
      "name": "RoleRevoked",
      "type": "event"
    },
    {
      "anonymous": false,
      "inputs": [
        {
          "indexed": true,
          "internalType": "address",
          "name": "from",
          "type": "address"
        },
        {
          "indexed": true,
          "internalType": "address",
          "name": "to",
          "type": "address"
        },
        {
          "indexed": true,
          "internalType": "uint256",
          "name": "tokenId",
          "type": "uint256"
        }
      ],
      "name": "Transfer",
      "type": "event"
    },
    {
      "anonymous": false,
      "inputs": [
        {
          "indexed": true,
          "internalType": "uint256",
          "name": "tokenId",
          "type": "uint256"
        },
        {
          "indexed": true,
          "internalType": "address",
          "name": "withdrawer",
          "type": "address"
        }
      ],
      "name": "WithdrawalRequest",
      "type": "event"
    },
    {
      "inputs": [],
      "name": "CONTRACTOR_ROLE",
      "outputs": [
        {
          "internalType": "bytes32",
          "name": "",
          "type": "bytes32"
        }
      ],
      "stateMutability": "view",
      "type": "function"
    },
    {
      "inputs": [],
      "name": "DEFAULT_ADMIN_ROLE",
      "outputs": [
        {
          "internalType": "bytes32",
          "name": "",
          "type": "bytes32"
        }
      ],
      "stateMutability": "view",
      "type": "function"
    },
    {
      "inputs": [],
      "name": "FUNDER_ROLE",
      "outputs": [
        {
          "internalType": "bytes32",
          "name": "",
          "type": "bytes32"
        }
      ],
      "stateMutability": "view",
      "type": "function"
    },
    {
      "inputs": [
        {
          "internalType": "address",
          "name": "to",
          "type": "address"
        },
        {
          "internalType": "uint256",
          "name": "tokenId",
          "type": "uint256"
        }
      ],
      "name": "approve",
      "outputs": [],
      "stateMutability": "nonpayable",
      "type": "function"
    },
    {
      "inputs": [
        {
          "internalType": "address",
          "name": "owner",
          "type": "address"
        }
      ],
      "name": "balanceOf",
      "outputs": [
        {
          "internalType": "uint256",
          "name": "",
          "type": "uint256"
        }
      ],
      "stateMutability": "view",
      "type": "function"
    },
    {
      "inputs": [],
      "name": "beneficiary",
      "outputs": [
        {
          "internalType": "address",
          "name": "",
          "type": "address"
        }
      ],
      "stateMutability": "view",
      "type": "function"
    },
    {
      "inputs": [],
      "name": "claim",
      "outputs": [],
      "stateMutability": "nonpayable",
      "type": "function"
    },
    {
      "inputs": [],
      "name": "depositFunds",
      "outputs": [],
      "stateMutability": "payable",
      "type": "function"
    },
    {
      "inputs": [],
      "name": "duration",
      "outputs": [
        {
          "internalType": "uint256",
          "name": "",
          "type": "uint256"
        }
      ],
      "stateMutability": "view",
      "type": "function"
    },
    {
      "inputs": [
        {
          "internalType": "address",
          "name": "funder",
          "type": "address"
        }
      ],
      "name": "getAmountFundedByAddress",
      "outputs": [
        {
          "internalType": "uint256",
          "name": "",
          "type": "uint256"
        }
      ],
      "stateMutability": "view",
      "type": "function"
    },
    {
      "inputs": [
        {
          "internalType": "uint256",
          "name": "tokenId",
          "type": "uint256"
        }
      ],
      "name": "getApproved",
      "outputs": [
        {
          "internalType": "address",
          "name": "",
          "type": "address"
        }
      ],
      "stateMutability": "view",
      "type": "function"
    },
    {
      "inputs": [],
      "name": "getContractBalance",
      "outputs": [
        {
          "internalType": "uint256",
          "name": "",
          "type": "uint256"
        }
      ],
      "stateMutability": "view",
      "type": "function"
    },
    {
      "inputs": [
        {
          "internalType": "uint256",
          "name": "index",
          "type": "uint256"
        }
      ],
      "name": "getFunder",
      "outputs": [
        {
          "internalType": "address",
          "name": "",
          "type": "address"
        }
      ],
      "stateMutability": "view",
      "type": "function"
    },
    {
      "inputs": [],
      "name": "getIsGroupWithdrawal",
      "outputs": [
        {
          "internalType": "bool",
          "name": "",
          "type": "bool"
        }
      ],
      "stateMutability": "view",
      "type": "function"
    },
    {
      "inputs": [],
      "name": "getMinimumFundingAmount",
      "outputs": [
        {
          "internalType": "uint256",
          "name": "",
          "type": "uint256"
        }
      ],
      "stateMutability": "view",
      "type": "function"
    },
    {
      "inputs": [
        {
          "internalType": "bytes32",
          "name": "role",
          "type": "bytes32"
        }
      ],
      "name": "getRoleAdmin",
      "outputs": [
        {
          "internalType": "bytes32",
          "name": "",
          "type": "bytes32"
        }
      ],
      "stateMutability": "view",
      "type": "function"
    },
    {
      "inputs": [],
      "name": "getStartTimestamp",
      "outputs": [
        {
          "internalType": "uint256",
          "name": "",
          "type": "uint256"
        }
      ],
      "stateMutability": "view",
      "type": "function"
    },
    {
      "inputs": [],
      "name": "getTokenCounter",
      "outputs": [
        {
          "internalType": "uint256",
          "name": "",
          "type": "uint256"
        }
      ],
      "stateMutability": "view",
      "type": "function"
    },
    {
      "inputs": [],
      "name": "getTotalAmount",
      "outputs": [
        {
          "internalType": "uint256",
          "name": "",
          "type": "uint256"
        }
      ],
      "stateMutability": "view",
      "type": "function"
    },
    {
      "inputs": [],
      "name": "getTotalFunders",
      "outputs": [
        {
          "internalType": "uint256",
          "name": "",
          "type": "uint256"
        }
      ],
      "stateMutability": "view",
      "type": "function"
    },
    {
      "inputs": [],
      "name": "getVestingPeriod",
      "outputs": [
        {
          "internalType": "uint256",
          "name": "",
          "type": "uint256"
        }
      ],
      "stateMutability": "view",
      "type": "function"
    },
    {
      "inputs": [],
      "name": "getWithdrawalFee",
      "outputs": [
        {
          "internalType": "uint256",
          "name": "",
          "type": "uint256"
        }
      ],
      "stateMutability": "view",
      "type": "function"
    },
    {
      "inputs": [],
      "name": "getWithdrawerCounter",
      "outputs": [
        {
          "internalType": "uint256",
          "name": "",
          "type": "uint256"
        }
      ],
      "stateMutability": "view",
      "type": "function"
    },
    {
      "inputs": [
        {
          "internalType": "bytes32",
          "name": "role",
          "type": "bytes32"
        },
        {
          "internalType": "address",
          "name": "account",
          "type": "address"
        }
      ],
      "name": "grantRole",
      "outputs": [],
      "stateMutability": "nonpayable",
      "type": "function"
    },
    {
      "inputs": [
        {
          "internalType": "bytes32",
          "name": "role",
          "type": "bytes32"
        },
        {
          "internalType": "address",
          "name": "account",
          "type": "address"
        }
      ],
      "name": "hasRole",
      "outputs": [
        {
          "internalType": "bool",
          "name": "",
          "type": "bool"
        }
      ],
      "stateMutability": "view",
      "type": "function"
    },
    {
      "inputs": [
        {
          "internalType": "address",
          "name": "owner",
          "type": "address"
        },
        {
          "internalType": "address",
          "name": "operator",
          "type": "address"
        }
      ],
      "name": "isApprovedForAll",
      "outputs": [
        {
          "internalType": "bool",
          "name": "",
          "type": "bool"
        }
      ],
      "stateMutability": "view",
      "type": "function"
    },
    {
      "inputs": [],
      "name": "name",
      "outputs": [
        {
          "internalType": "string",
          "name": "",
          "type": "string"
        }
      ],
      "stateMutability": "view",
      "type": "function"
    },
    {
      "inputs": [
        {
          "internalType": "uint256",
          "name": "tokenId",
          "type": "uint256"
        }
      ],
      "name": "ownerOf",
      "outputs": [
        {
          "internalType": "address",
          "name": "",
          "type": "address"
        }
      ],
      "stateMutability": "view",
      "type": "function"
    },
    {
      "inputs": [
        {
          "internalType": "address",
          "name": "token",
          "type": "address"
        }
      ],
      "name": "releasable",
      "outputs": [
        {
          "internalType": "uint256",
          "name": "",
          "type": "uint256"
        }
      ],
      "stateMutability": "view",
      "type": "function"
    },
    {
      "inputs": [],
      "name": "releasable",
      "outputs": [
        {
          "internalType": "uint256",
          "name": "",
          "type": "uint256"
        }
      ],
      "stateMutability": "view",
      "type": "function"
    },
    {
      "inputs": [
        {
          "internalType": "address",
          "name": "token",
          "type": "address"
        }
      ],
      "name": "release",
      "outputs": [],
      "stateMutability": "nonpayable",
      "type": "function"
    },
    {
      "inputs": [],
      "name": "release",
      "outputs": [],
      "stateMutability": "nonpayable",
      "type": "function"
    },
    {
      "inputs": [],
      "name": "released",
      "outputs": [
        {
          "internalType": "uint256",
          "name": "",
          "type": "uint256"
        }
      ],
      "stateMutability": "view",
      "type": "function"
    },
    {
      "inputs": [
        {
          "internalType": "address",
          "name": "token",
          "type": "address"
        }
      ],
      "name": "released",
      "outputs": [
        {
          "internalType": "uint256",
          "name": "",
          "type": "uint256"
        }
      ],
      "stateMutability": "view",
      "type": "function"
    },
    {
      "inputs": [
        {
          "internalType": "bytes32",
          "name": "role",
          "type": "bytes32"
        },
        {
          "internalType": "address",
          "name": "account",
          "type": "address"
        }
      ],
      "name": "renounceRole",
      "outputs": [],
      "stateMutability": "nonpayable",
      "type": "function"
    },
    {
      "inputs": [
        {
          "internalType": "uint256",
          "name": "tokenId",
          "type": "uint256"
        }
      ],
      "name": "requestForWithdrawal",
      "outputs": [],
      "stateMutability": "nonpayable",
      "type": "function"
    },
    {
      "inputs": [
        {
          "internalType": "bytes32",
          "name": "role",
          "type": "bytes32"
        },
        {
          "internalType": "address",
          "name": "account",
          "type": "address"
        }
      ],
      "name": "revokeRole",
      "outputs": [],
      "stateMutability": "nonpayable",
      "type": "function"
    },
    {
      "inputs": [
        {
          "internalType": "address",
          "name": "from",
          "type": "address"
        },
        {
          "internalType": "address",
          "name": "to",
          "type": "address"
        },
        {
          "internalType": "uint256",
          "name": "tokenId",
          "type": "uint256"
        }
      ],
      "name": "safeTransferFrom",
      "outputs": [],
      "stateMutability": "nonpayable",
      "type": "function"
    },
    {
      "inputs": [
        {
          "internalType": "address",
          "name": "from",
          "type": "address"
        },
        {
          "internalType": "address",
          "name": "to",
          "type": "address"
        },
        {
          "internalType": "uint256",
          "name": "tokenId",
          "type": "uint256"
        },
        {
          "internalType": "bytes",
          "name": "data",
          "type": "bytes"
        }
      ],
      "name": "safeTransferFrom",
      "outputs": [],
      "stateMutability": "nonpayable",
      "type": "function"
    },
    {
      "inputs": [
        {
          "internalType": "address",
          "name": "operator",
          "type": "address"
        },
        {
          "internalType": "bool",
          "name": "approved",
          "type": "bool"
        }
      ],
      "name": "setApprovalForAll",
      "outputs": [],
      "stateMutability": "nonpayable",
      "type": "function"
    },
    {
      "inputs": [],
      "name": "start",
      "outputs": [
        {
          "internalType": "uint256",
          "name": "",
          "type": "uint256"
        }
      ],
      "stateMutability": "view",
      "type": "function"
    },
    {
      "inputs": [
        {
          "internalType": "bytes4",
          "name": "interfaceId",
          "type": "bytes4"
        }
      ],
      "name": "supportsInterface",
      "outputs": [
        {
          "internalType": "bool",
          "name": "",
          "type": "bool"
        }
      ],
      "stateMutability": "view",
      "type": "function"
    },
    {
      "inputs": [],
      "name": "symbol",
      "outputs": [
        {
          "internalType": "string",
          "name": "",
          "type": "string"
        }
      ],
      "stateMutability": "view",
      "type": "function"
    },
    {
      "inputs": [
        {
          "internalType": "uint256",
          "name": "",
          "type": "uint256"
        }
      ],
      "name": "tokenURI",
      "outputs": [
        {
          "internalType": "string",
          "name": "",
          "type": "string"
        }
      ],
      "stateMutability": "view",
      "type": "function"
    },
    {
      "inputs": [
        {
          "internalType": "address",
          "name": "from",
          "type": "address"
        },
        {
          "internalType": "address",
          "name": "to",
          "type": "address"
        },
        {
          "internalType": "uint256",
          "name": "tokenId",
          "type": "uint256"
        }
      ],
      "name": "transferFrom",
      "outputs": [],
      "stateMutability": "nonpayable",
      "type": "function"
    },
    {
      "inputs": [
        {
          "internalType": "bytes32[]",
          "name": "proof",
          "type": "bytes32[]"
        },
        {
          "internalType": "bytes32",
          "name": "root",
          "type": "bytes32"
        }
      ],
      "name": "verifyMerkleTree",
      "outputs": [
        {
          "internalType": "bool",
          "name": "",
          "type": "bool"
        }
      ],
      "stateMutability": "view",
      "type": "function"
    },
    {
      "inputs": [
        {
          "internalType": "uint64",
          "name": "timestamp",
          "type": "uint64"
        }
      ],
      "name": "vestedAmount",
      "outputs": [
        {
          "internalType": "uint256",
          "name": "",
          "type": "uint256"
        }
      ],
      "stateMutability": "view",
      "type": "function"
    },
    {
      "inputs": [
        {
          "internalType": "address",
          "name": "token",
          "type": "address"
        },
        {
          "internalType": "uint64",
          "name": "timestamp",
          "type": "uint64"
        }
      ],
      "name": "vestedAmount",
      "outputs": [
        {
          "internalType": "uint256",
          "name": "",
          "type": "uint256"
        }
      ],
      "stateMutability": "view",
      "type": "function"
    },
    {
      "inputs": [],
      "name": "withdrawFunds",
      "outputs": [],
      "stateMutability": "nonpayable",
      "type": "function"
    },
    {
      "inputs": [],
      "name": "withdrawalCheck",
      "outputs": [
        {
          "internalType": "bool",
          "name": "",
          "type": "bool"
        }
      ],
      "stateMutability": "view",
      "type": "function"
    },
    {
      "stateMutability": "payable",
      "type": "receive"
    }
  ],
  "bytecode": "0x6101406040523480156200001257600080fd5b50604051620031bb380380620031bb833981016040819052620000359162000254565b3382826040518060400160405280601481526020017f46756e64696e67436f6e7472616374546f6b656e000000000000000000000000815250604051806040016040528060038152602001621190d560ea1b81525081600090816200009b919062000408565b506001620000aa828262000408565b5050506001600160a01b0383166200011b5760405162461bcd60e51b815260206004820152602a60248201527f56657374696e6757616c6c65743a2062656e6566696369617279206973207a65604482015269726f206164647265737360b01b606482015260840160405180910390fd5b6001600160a01b039092166080526001600160401b0390811660a05290811660c05260e0879052610100869052841515610120528216600b55600c62000162848262000408565b50620001706000336200017c565b505050505050620004d4565b60008281526006602090815260408083206001600160a01b038516845290915290205460ff166200021d5760008281526006602090815260408083206001600160a01b03851684529091529020805460ff19166001179055620001dc3390565b6001600160a01b0316816001600160a01b0316837f2f8788117e7eff1d82e926ec794901d17c78024a50270940304540a733656f0d60405160405180910390a45b5050565b634e487b7160e01b600052604160045260246000fd5b80516001600160401b03811681146200024f57600080fd5b919050565b60008060008060008060c087890312156200026e57600080fd5b865195506020808801519550604088015180151581146200028e57600080fd5b60608901519095506001600160401b0380821115620002ac57600080fd5b818a0191508a601f830112620002c157600080fd5b815181811115620002d657620002d662000221565b604051601f8201601f19908116603f0116810190838211818310171562000301576200030162000221565b816040528281528d868487010111156200031a57600080fd5b600093505b828410156200033e57848401860151818501870152928501926200031f565b60008684830101528098505050505050506200035d6080880162000237565b91506200036d60a0880162000237565b90509295509295509295565b600181811c908216806200038e57607f821691505b602082108103620003af57634e487b7160e01b600052602260045260246000fd5b50919050565b601f8211156200040357600081815260208120601f850160051c81016020861015620003de5750805b601f850160051c820191505b81811015620003ff57828155600101620003ea565b5050505b505050565b81516001600160401b0381111562000424576200042462000221565b6200043c8162000435845462000379565b84620003b5565b602080601f8311600181146200047457600084156200045b5750858301515b600019600386901b1c1916600185901b178555620003ff565b600085815260208120601f198616915b82811015620004a55788860151825594840194600190910190840162000484565b5085821015620004c45787850151600019600388901b60f8161c191681555b5050505050600190811b01905550565b60805160a05160c05160e0516101005161012051612c7462000547600039600081816106ce01528181610b1001528181610cab01526110ff0152600061083501526000818161056901528181610f2501526114ee01526000610aeb015260006113be01526000610ebc0152612c746000f3fe6080604052600436106102ad5760003560e01c8063810ec23b11610165578063b121d483116100cc578063d7b4750c11610085578063d7b4750c14610806578063d8e159f814610826578063db06941e14610859578063e2c41dbc1461086e578063e985e9c514610876578063f88e320414610896578063fbccedae146108ca57600080fd5b8063b121d4831461075c578063b88d4fde1461077c578063be9a65551461079c578063c87b56dd146107b1578063d4c0ced2146107d1578063d547741f146107e657600080fd5b80639b23b0c91161011e5780639b23b0c9146106895780639c885eb3146106bf578063a217fddf146106f2578063a22cb46514610707578063a3f8eace14610727578063aa0fc5131461074757600080fd5b8063810ec23b146105ea57806386d1a69f1461060a57806391d148541461061f57806395d89b411461063f57806396132521146106545780639852595c1461066957600080fd5b8063248a9ca3116102145780634e71d92d116101cd5780634e71d92d146105255780636352211e1461053a57806365ac43411461055a5780636e02007d1461058d5780636f9fb98a146105a257806370a08231146105b55780637dc4c2ba146105d557600080fd5b8063248a9ca31461044c5780632f2ff15d1461047c57806334aedecd1461049c57806336568abe146104d057806338af3eed146104f057806342842e0e1461050557600080fd5b80631095941e116102665780631095941e146103ad5780631096cb79146103cd57806319165587146103e25780631f89f25e1461040257806323b872dd1461041757806324600fc31461043757600080fd5b806301ffc9a7146102b957806306fdde03146102ee578063081812fc14610310578063095ea7b3146103485780630a17b06b1461036a5780630fb5a6b41461039857600080fd5b366102b457005b600080fd5b3480156102c557600080fd5b506102d96102d4366004612549565b6108df565b60405190151581526020015b60405180910390f35b3480156102fa57600080fd5b506103036108f0565b6040516102e591906125b6565b34801561031c57600080fd5b5061033061032b3660046125c9565b610982565b6040516001600160a01b0390911681526020016102e5565b34801561035457600080fd5b506103686103633660046125fe565b6109a9565b005b34801561037657600080fd5b5061038a61038536600461263f565b610ac3565b6040519081526020016102e5565b3480156103a457600080fd5b5061038a610ae1565b3480156103b957600080fd5b506103686103c83660046125c9565b610b0e565b3480156103d957600080fd5b5061038a610bae565b3480156103ee57600080fd5b506103686103fd36600461265a565b610bbd565b34801561040e57600080fd5b50600b5461038a565b34801561042357600080fd5b50610368610432366004612675565b610c4e565b34801561044357600080fd5b50610368610c7f565b34801561045857600080fd5b5061038a6104673660046125c9565b60009081526006602052604090206001015490565b34801561048857600080fd5b506103686104973660046126b1565b610e1b565b3480156104a857600080fd5b5061038a7f0914bb97ca83e85ef385857d9d418f187ff630589e0c9f44db92976d8e4519cb81565b3480156104dc57600080fd5b506103686104eb3660046126b1565b610e40565b3480156104fc57600080fd5b50610330610eba565b34801561051157600080fd5b50610368610520366004612675565b610ede565b34801561053157600080fd5b50610368610ef9565b34801561054657600080fd5b506103306105553660046125c9565b611036565b34801561056657600080fd5b507f000000000000000000000000000000000000000000000000000000000000000061038a565b34801561059957600080fd5b5061038a61106a565b3480156105ae57600080fd5b504761038a565b3480156105c157600080fd5b5061038a6105d036600461265a565b611075565b3480156105e157600080fd5b506102d96110fb565b3480156105f657600080fd5b5061038a6106053660046126dd565b611182565b34801561061657600080fd5b50610368611209565b34801561062b57600080fd5b506102d961063a3660046126b1565b611273565b34801561064b57600080fd5b5061030361129e565b34801561066057600080fd5b5060075461038a565b34801561067557600080fd5b5061038a61068436600461265a565b6112ad565b34801561069557600080fd5b5061038a6106a436600461265a565b6001600160a01b03166000908152600d602052604090205490565b3480156106cb57600080fd5b507f00000000000000000000000000000000000000000000000000000000000000006102d9565b3480156106fe57600080fd5b5061038a600081565b34801561071357600080fd5b50610368610722366004612715565b6112c8565b34801561073357600080fd5b5061038a61074236600461265a565b6112d3565b34801561075357600080fd5b5061038a6112f2565b34801561076857600080fd5b506102d961077736600461274c565b6112fd565b34801561078857600080fd5b506103686107973660046127dc565b61137c565b3480156107a857600080fd5b5061038a6113b4565b3480156107bd57600080fd5b506103036107cc3660046125c9565b6113e1565b3480156107dd57600080fd5b50600e5461038a565b3480156107f257600080fd5b506103686108013660046126b1565b611475565b34801561081257600080fd5b506103306108213660046125c9565b61149a565b34801561083257600080fd5b507f000000000000000000000000000000000000000000000000000000000000000061038a565b34801561086557600080fd5b5061038a6114ca565b61036861151b565b34801561088257600080fd5b506102d96108913660046128b7565b6115ef565b3480156108a257600080fd5b5061038a7fef28dcbf06eb73add8f77665c46a6263e719f928f9c34710ec1097573ba6e20c81565b3480156108d657600080fd5b5061038a61161d565b60006108ea8261163b565b92915050565b6060600080546108ff906128e1565b80601f016020809104026020016040519081016040528092919081815260200182805461092b906128e1565b80156109785780601f1061094d57610100808354040283529160200191610978565b820191906000526020600020905b81548152906001019060200180831161095b57829003601f168201915b5050505050905090565b600061098d82611660565b506000908152600460205260409020546001600160a01b031690565b60006109b482611036565b9050806001600160a01b0316836001600160a01b031603610a265760405162461bcd60e51b815260206004820152602160248201527f4552433732313a20617070726f76616c20746f2063757272656e74206f776e656044820152603960f91b60648201526084015b60405180910390fd5b336001600160a01b0382161480610a425750610a4281336115ef565b610ab45760405162461bcd60e51b815260206004820152603d60248201527f4552433732313a20617070726f76652063616c6c6572206973206e6f7420746f60448201527f6b656e206f776e6572206f7220617070726f76656420666f7220616c6c0000006064820152608401610a1d565b610abe8383611685565b505050565b60006108ea610ad160075490565b610adb9047612931565b836116f3565b6001600160401b037f00000000000000000000000000000000000000000000000000000000000000001690565b7f0000000000000000000000000000000000000000000000000000000000000000610b4c5760405163568fd53960e11b815260040160405180910390fd5b6000818152600f602090815260408083203384529091529020805460ff19166001179055610b7e600a80546001019055565b604051339082907f0fc8b6fcb2f497709c22d28a739a7c1af51a838def68b9e27ed2dabec6fc60ea90600090a350565b6000610bb8610ae1565b905090565b6000610bc8826112d3565b6001600160a01b038316600090815260086020526040812080549293508392909190610bf5908490612931565b90915550506040518181526001600160a01b038316907fc0e523490dd523c33b1878c9eb14ff46991e3f5b2cd33710918618f2a39cba1b9060200160405180910390a2610c4a82610c44610eba565b83611784565b5050565b610c5833826117d6565b610c745760405162461bcd60e51b8152600401610a1d90612944565b610abe838383611835565b7f0914bb97ca83e85ef385857d9d418f187ff630589e0c9f44db92976d8e4519cb610ca9816119a6565b7f000000000000000000000000000000000000000000000000000000000000000015610d3557610cd76110fb565b610d355760405162461bcd60e51b815260206004820152602960248201527f5468657265206973206e6f206d616a6f7269747920617070726f76616c20746f60448201526820776974686472617760b81b6064820152608401610a1d565b6000610d3f6113b4565b610d499042612991565b9050610d53610ae1565b816001600160401b03161115610d6857600080fd5b6000610d7261161d565b610d7c9047612991565b604051909150600090339083908381818185875af1925050503d8060008114610dc1576040519150601f19603f3d011682016040523d82523d6000602084013e610dc6565b606091505b5050905080610de857604051639af25e5d60e01b815260040160405180910390fd5b604051829033907fd7d7cc3c005efe228d9482e7be336bc7174fd6097c03fe43d13655005bbd46f790600090a350505050565b600082815260066020526040902060010154610e36816119a6565b610abe83836119b0565b6001600160a01b0381163314610eb05760405162461bcd60e51b815260206004820152602f60248201527f416363657373436f6e74726f6c3a2063616e206f6e6c792072656e6f756e636560448201526e103937b632b9903337b91039b2b63360891b6064820152608401610a1d565b610c4a8282611a36565b7f000000000000000000000000000000000000000000000000000000000000000090565b610abe8383836040518060200160405280600081525061137c565b7fef28dcbf06eb73add8f77665c46a6263e719f928f9c34710ec1097573ba6e20c610f23816119a6565b7f0000000000000000000000000000000000000000000000000000000000000000610f4d60075490565b03610fa55760405162461bcd60e51b815260206004820152602260248201527f596f75206861766520636c61696d65642074686520656e7469726520616d6f756044820152611b9d60f21b6064820152608401610a1d565b6000610faf61161d565b1015610ffd5760405162461bcd60e51b815260206004820181905260248201527f596f7520646f206e6f7420686176652072656c65617361626c652066756e64736044820152606401610a1d565b611005611209565b60075460405133907fcebf6e87c3f2bd4df41bc6e2e842495680906affd0e429f056fba0989a08537c90600090a350565b60008061104283611a9d565b90506001600160a01b0381166108ea5760405162461bcd60e51b8152600401610a1d906129a4565b6000610bb860095490565b60006001600160a01b0382166110df5760405162461bcd60e51b815260206004820152602960248201527f4552433732313a2061646472657373207a65726f206973206e6f7420612076616044820152683634b21037bbb732b960b91b6064820152608401610a1d565b506001600160a01b031660009081526003602052604090205490565b60007f000000000000000000000000000000000000000000000000000000000000000061113b5760405163568fd53960e11b815260040160405180910390fd5b6000611146600a5490565b600e549091506000906111679060649061116190603c611ab8565b90611ac4565b90508082106111795760019250505090565b60009250505090565b6000611202611190846112ad565b6040516370a0823160e01b81523060048201526001600160a01b038616906370a0823190602401602060405180830381865afa1580156111d4573d6000803e3d6000fd5b505050506040513d601f19601f820116820180604052508101906111f891906129d6565b610adb9190612931565b9392505050565b600061121361161d565b905080600760008282546112279190612931565b90915550506040518181527fda9d4e5f101b8b9b1c5b76d0c5a9f7923571acfc02376aa076b75a8c080c956b9060200160405180910390a161127061126a610eba565b82611ad0565b50565b60009182526006602090815260408084206001600160a01b0393909316845291905290205460ff1690565b6060600180546108ff906128e1565b6001600160a01b031660009081526008602052604090205490565b610c4a338383611be6565b60006112de826112ad565b6112e88342611182565b6108ea9190612991565b6000610bb8600a5490565b6040516001600160601b03193360601b1660208201526000908190603401604051602081830303815290604052805190602001209050611373858580806020026020016040519081016040528093929190818152602001838360200280828437600092019190915250879250859150611cb09050565b95945050505050565b61138633836117d6565b6113a25760405162461bcd60e51b8152600401610a1d90612944565b6113ae84848484611cc6565b50505050565b6001600160401b037f00000000000000000000000000000000000000000000000000000000000000001690565b6060600c80546113f0906128e1565b80601f016020809104026020016040519081016040528092919081815260200182805461141c906128e1565b80156114695780601f1061143e57610100808354040283529160200191611469565b820191906000526020600020905b81548152906001019060200180831161144c57829003601f168201915b50505050509050919050565b600082815260066020526040902060010154611490816119a6565b610abe8383611a36565b6000600e82815481106114af576114af6129ef565b6000918252602090912001546001600160a01b031692915050565b6000806114d5610ae1565b905062278d0060006114e78383611ac4565b90506115137f000000000000000000000000000000000000000000000000000000000000000082611ac4565b935050505090565b60006115256114ca565b9050600061153260095490565b90508134116115545760405163cf463cf960e01b815260040160405180910390fd5b336000818152600d60205260408120349055600e805460018101825591527fbb7b4a454dc3493923482f07822329ed19e8244eff582cc204f8554c3620c3fd0180546001600160a01b031916821790556115ae9082611cf9565b6115bc600980546001019055565b6040513490339083907fe030e47e27825a2ad1b19e4cf2e70bfbfb3124af275c7727a82b114ba7b29a8590600090a45050565b6001600160a01b03918216600090815260056020908152604080832093909416825291909152205460ff1690565b600061162860075490565b61163142610ac3565b610bb89190612991565b60006001600160e01b03198216637965db0b60e01b14806108ea57506108ea82611d13565b61166981611d63565b6112705760405162461bcd60e51b8152600401610a1d906129a4565b600081815260046020526040902080546001600160a01b0319166001600160a01b03841690811790915581906116ba82611036565b6001600160a01b03167f8c5be1e5ebec7d5bd14f71427d1e84f3dd0314c0f7b2291e5b200ac8c7c3b92560405160405180910390a45050565b60006116fd6113b4565b826001600160401b03161015611715575060006108ea565b61171d610ae1565b6117256113b4565b61172f9190612931565b826001600160401b031611156117465750816108ea565b61174e610ae1565b6117566113b4565b611769906001600160401b038516612991565b6117739085612a05565b61177d9190612a1c565b90506108ea565b604080516001600160a01b038416602482015260448082018490528251808303909101815260649091019091526020810180516001600160e01b031663a9059cbb60e01b179052610abe908490611d80565b6000806117e283611036565b9050806001600160a01b0316846001600160a01b03161480611809575061180981856115ef565b8061182d5750836001600160a01b031661182284610982565b6001600160a01b0316145b949350505050565b826001600160a01b031661184882611036565b6001600160a01b03161461186e5760405162461bcd60e51b8152600401610a1d90612a3e565b6001600160a01b0382166118d05760405162461bcd60e51b8152602060048201526024808201527f4552433732313a207472616e7366657220746f20746865207a65726f206164646044820152637265737360e01b6064820152608401610a1d565b6118dd8383836001611e52565b826001600160a01b03166118f082611036565b6001600160a01b0316146119165760405162461bcd60e51b8152600401610a1d90612a3e565b600081815260046020908152604080832080546001600160a01b03199081169091556001600160a01b0387811680865260038552838620805460001901905590871680865283862080546001019055868652600290945282852080549092168417909155905184937fddf252ad1be2c89b69c2b068fc378daa952ba7f163c4a11628f55a4df523b3ef91a4505050565b6112708133611eda565b6119ba8282611273565b610c4a5760008281526006602090815260408083206001600160a01b03851684529091529020805460ff191660011790556119f23390565b6001600160a01b0316816001600160a01b0316837f2f8788117e7eff1d82e926ec794901d17c78024a50270940304540a733656f0d60405160405180910390a45050565b611a408282611273565b15610c4a5760008281526006602090815260408083206001600160a01b0385168085529252808320805460ff1916905551339285917ff6391f5c32d9c69d2a47ea670b442974b53935d1edc7fd64eb21e047a839171b9190a45050565b6000908152600260205260409020546001600160a01b031690565b60006112028284612a05565b60006112028284612a1c565b80471015611b205760405162461bcd60e51b815260206004820152601d60248201527f416464726573733a20696e73756666696369656e742062616c616e63650000006044820152606401610a1d565b6000826001600160a01b03168260405160006040518083038185875af1925050503d8060008114611b6d576040519150601f19603f3d011682016040523d82523d6000602084013e611b72565b606091505b5050905080610abe5760405162461bcd60e51b815260206004820152603a60248201527f416464726573733a20756e61626c6520746f2073656e642076616c75652c20726044820152791958da5c1a595b9d081b585e481a185d99481c995d995c9d195960321b6064820152608401610a1d565b816001600160a01b0316836001600160a01b031603611c435760405162461bcd60e51b815260206004820152601960248201527822a9219b99189d1030b8383937bb32903a379031b0b63632b960391b6044820152606401610a1d565b6001600160a01b03838116600081815260056020908152604080832094871680845294825291829020805460ff191686151590811790915591519182527f17307eab39ab6107e8899845ad3d59bd9653f200f220920489ca2b5937696c31910160405180910390a3505050565b600082611cbd8584611f33565b14949350505050565b611cd1848484611835565b611cdd84848484611f80565b6113ae5760405162461bcd60e51b8152600401610a1d90612a83565b610c4a828260405180602001604052806000815250612081565b60006001600160e01b031982166380ac58cd60e01b1480611d4457506001600160e01b03198216635b5e139f60e01b145b806108ea57506301ffc9a760e01b6001600160e01b03198316146108ea565b600080611d6f83611a9d565b6001600160a01b0316141592915050565b6000611dd5826040518060400160405280602081526020017f5361666545524332303a206c6f772d6c6576656c2063616c6c206661696c6564815250856001600160a01b03166120b49092919063ffffffff16565b805190915015610abe5780806020019051810190611df39190612ad5565b610abe5760405162461bcd60e51b815260206004820152602a60248201527f5361666545524332303a204552433230206f7065726174696f6e20646964206e6044820152691bdd081cdd58d8d9595960b21b6064820152608401610a1d565b60018111156113ae576001600160a01b03841615611e98576001600160a01b03841660009081526003602052604081208054839290611e92908490612991565b90915550505b6001600160a01b038316156113ae576001600160a01b03831660009081526003602052604081208054839290611ecf908490612931565b909155505050505050565b611ee48282611273565b610c4a57611ef1816120c3565b611efc8360206120d5565b604051602001611f0d929190612af2565b60408051601f198184030181529082905262461bcd60e51b8252610a1d916004016125b6565b600081815b8451811015611f7857611f6482868381518110611f5757611f576129ef565b6020026020010151612270565b915080611f7081612b61565b915050611f38565b509392505050565b60006001600160a01b0384163b1561207657604051630a85bd0160e11b81526001600160a01b0385169063150b7a0290611fc4903390899088908890600401612b7a565b6020604051808303816000875af1925050508015611fff575060408051601f3d908101601f19168201909252611ffc91810190612bb7565b60015b61205c573d80801561202d576040519150601f19603f3d011682016040523d82523d6000602084013e612032565b606091505b5080516000036120545760405162461bcd60e51b8152600401610a1d90612a83565b805181602001fd5b6001600160e01b031916630a85bd0160e11b14905061182d565b506001949350505050565b61208b838361229f565b6120986000848484611f80565b610abe5760405162461bcd60e51b8152600401610a1d90612a83565b606061182d84846000856123ba565b60606108ea6001600160a01b03831660145b606060006120e4836002612a05565b6120ef906002612931565b6001600160401b03811115612106576121066127c6565b6040519080825280601f01601f191660200182016040528015612130576020820181803683370190505b509050600360fc1b8160008151811061214b5761214b6129ef565b60200101906001600160f81b031916908160001a905350600f60fb1b8160018151811061217a5761217a6129ef565b60200101906001600160f81b031916908160001a905350600061219e846002612a05565b6121a9906001612931565b90505b6001811115612221576f181899199a1a9b1b9c1cb0b131b232b360811b85600f16601081106121dd576121dd6129ef565b1a60f81b8282815181106121f3576121f36129ef565b60200101906001600160f81b031916908160001a90535060049490941c9361221a81612bd4565b90506121ac565b5083156112025760405162461bcd60e51b815260206004820181905260248201527f537472696e67733a20686578206c656e67746820696e73756666696369656e746044820152606401610a1d565b600081831061228c576000828152602084905260409020611202565b6000838152602083905260409020611202565b6001600160a01b0382166122f55760405162461bcd60e51b815260206004820181905260248201527f4552433732313a206d696e7420746f20746865207a65726f20616464726573736044820152606401610a1d565b6122fe81611d63565b1561231b5760405162461bcd60e51b8152600401610a1d90612beb565b612329600083836001611e52565b61233281611d63565b1561234f5760405162461bcd60e51b8152600401610a1d90612beb565b6001600160a01b038216600081815260036020908152604080832080546001019055848352600290915280822080546001600160a01b0319168417905551839291907fddf252ad1be2c89b69c2b068fc378daa952ba7f163c4a11628f55a4df523b3ef908290a45050565b60608247101561241b5760405162461bcd60e51b815260206004820152602660248201527f416464726573733a20696e73756666696369656e742062616c616e636520666f6044820152651c8818d85b1b60d21b6064820152608401610a1d565b600080866001600160a01b031685876040516124379190612c22565b60006040518083038185875af1925050503d8060008114612474576040519150601f19603f3d011682016040523d82523d6000602084013e612479565b606091505b509150915061248a87838387612495565b979650505050505050565b606083156125045782516000036124fd576001600160a01b0385163b6124fd5760405162461bcd60e51b815260206004820152601d60248201527f416464726573733a2063616c6c20746f206e6f6e2d636f6e74726163740000006044820152606401610a1d565b508161182d565b61182d83838151156125195781518083602001fd5b8060405162461bcd60e51b8152600401610a1d91906125b6565b6001600160e01b03198116811461127057600080fd5b60006020828403121561255b57600080fd5b813561120281612533565b60005b83811015612581578181015183820152602001612569565b50506000910152565b600081518084526125a2816020860160208601612566565b601f01601f19169290920160200192915050565b602081526000611202602083018461258a565b6000602082840312156125db57600080fd5b5035919050565b80356001600160a01b03811681146125f957600080fd5b919050565b6000806040838503121561261157600080fd5b61261a836125e2565b946020939093013593505050565b80356001600160401b03811681146125f957600080fd5b60006020828403121561265157600080fd5b61120282612628565b60006020828403121561266c57600080fd5b611202826125e2565b60008060006060848603121561268a57600080fd5b612693846125e2565b92506126a1602085016125e2565b9150604084013590509250925092565b600080604083850312156126c457600080fd5b823591506126d4602084016125e2565b90509250929050565b600080604083850312156126f057600080fd5b6126f9836125e2565b91506126d460208401612628565b801515811461127057600080fd5b6000806040838503121561272857600080fd5b612731836125e2565b9150602083013561274181612707565b809150509250929050565b60008060006040848603121561276157600080fd5b83356001600160401b038082111561277857600080fd5b818601915086601f83011261278c57600080fd5b81358181111561279b57600080fd5b8760208260051b85010111156127b057600080fd5b6020928301989097509590910135949350505050565b634e487b7160e01b600052604160045260246000fd5b600080600080608085870312156127f257600080fd5b6127fb856125e2565b9350612809602086016125e2565b92506040850135915060608501356001600160401b038082111561282c57600080fd5b818701915087601f83011261284057600080fd5b813581811115612852576128526127c6565b604051601f8201601f19908116603f0116810190838211818310171561287a5761287a6127c6565b816040528281528a602084870101111561289357600080fd5b82602086016020830137600060208483010152809550505050505092959194509250565b600080604083850312156128ca57600080fd5b6128d3836125e2565b91506126d4602084016125e2565b600181811c908216806128f557607f821691505b60208210810361291557634e487b7160e01b600052602260045260246000fd5b50919050565b634e487b7160e01b600052601160045260246000fd5b808201808211156108ea576108ea61291b565b6020808252602d908201527f4552433732313a2063616c6c6572206973206e6f7420746f6b656e206f776e6560408201526c1c881bdc88185c1c1c9bdd9959609a1b606082015260800190565b818103818111156108ea576108ea61291b565b602080825260189082015277115490cdcc8c4e881a5b9d985b1a59081d1bdad95b88125160421b604082015260600190565b6000602082840312156129e857600080fd5b5051919050565b634e487b7160e01b600052603260045260246000fd5b80820281158282048414176108ea576108ea61291b565b600082612a3957634e487b7160e01b600052601260045260246000fd5b500490565b60208082526025908201527f4552433732313a207472616e736665722066726f6d20696e636f72726563742060408201526437bbb732b960d91b606082015260800190565b60208082526032908201527f4552433732313a207472616e7366657220746f206e6f6e20455243373231526560408201527131b2b4bb32b91034b6b83632b6b2b73a32b960711b606082015260800190565b600060208284031215612ae757600080fd5b815161120281612707565b76020b1b1b2b9b9a1b7b73a3937b61d1030b1b1b7bab73a1604d1b815260008351612b24816017850160208801612566565b7001034b99036b4b9b9b4b733903937b6329607d1b6017918401918201528351612b55816028840160208801612566565b01602801949350505050565b600060018201612b7357612b7361291b565b5060010190565b6001600160a01b0385811682528416602082015260408101839052608060608201819052600090612bad9083018461258a565b9695505050505050565b600060208284031215612bc957600080fd5b815161120281612533565b600081612be357612be361291b565b506000190190565b6020808252601c908201527f4552433732313a20746f6b656e20616c7265616479206d696e74656400000000604082015260600190565b60008251612c34818460208701612566565b919091019291505056fea26469706673582212206c999fbb722ad6e55855938a35f614bf8c43708572ebb37caa92fe65f71c4b1864736f6c63430008110033",
  "linkReferences": {},
  "deployedLinkReferences": {}
}