{
  "_format": "hh-sol-artifact-1",
  "contractName": "FundingContract",
  "sourceName": "contracts/FundingContract.sol",
  "abi": [
    {
      "inputs": [
        {
          "internalType": "uint256",
          "name": "totalFunding",
          "type": "uint256"
        },
        {
          "internalType": "uint256",
          "name": "withdrawalFee",
          "type": "uint256"
        },
        {
          "internalType": "bool",
          "name": "isGroupWithdrawal",
          "type": "bool"
        },
        {
          "internalType": "string",
          "name": "tokenUri",
          "type": "string"
        },
        {
          "internalType": "uint64",
          "name": "startTimestamp",
          "type": "uint64"
        },
        {
          "internalType": "uint64",
          "name": "vestingPeriodInSeconds",
          "type": "uint64"
        }
      ],
      "stateMutability": "nonpayable",
      "type": "constructor"
    },
    {
      "inputs": [],
      "name": "FundingContract__NotEnoughETH",
      "type": "error"
    },
    {
      "inputs": [],
      "name": "FundingContract__NotGroupFunding",
      "type": "error"
    },
    {
      "inputs": [],
      "name": "FundingContract__TransferFailed",
      "type": "error"
    },
    {
      "anonymous": false,
      "inputs": [
        {
          "indexed": true,
          "internalType": "address",
          "name": "owner",
          "type": "address"
        },
        {
          "indexed": true,
          "internalType": "address",
          "name": "approved",
          "type": "address"
        },
        {
          "indexed": true,
          "internalType": "uint256",
          "name": "tokenId",
          "type": "uint256"
        }
      ],
      "name": "Approval",
      "type": "event"
    },
    {
      "anonymous": false,
      "inputs": [
        {
          "indexed": true,
          "internalType": "address",
          "name": "owner",
          "type": "address"
        },
        {
          "indexed": true,
          "internalType": "address",
          "name": "operator",
          "type": "address"
        },
        {
          "indexed": false,
          "internalType": "bool",
          "name": "approved",
          "type": "bool"
        }
      ],
      "name": "ApprovalForAll",
      "type": "event"
    },
    {
      "anonymous": false,
      "inputs": [
        {
          "indexed": true,
          "internalType": "address",
          "name": "contractor",
          "type": "address"
        },
        {
          "indexed": true,
          "internalType": "uint256",
          "name": "releasedFunds",
          "type": "uint256"
        }
      ],
      "name": "ContractorClaimedFunds",
      "type": "event"
    },
    {
      "anonymous": false,
      "inputs": [
        {
          "indexed": true,
          "internalType": "address",
          "name": "token",
          "type": "address"
        },
        {
          "indexed": false,
          "internalType": "uint256",
          "name": "amount",
          "type": "uint256"
        }
      ],
      "name": "ERC20Released",
      "type": "event"
    },
    {
      "anonymous": false,
      "inputs": [
        {
          "indexed": false,
          "internalType": "uint256",
          "name": "amount",
          "type": "uint256"
        }
      ],
      "name": "EtherReleased",
      "type": "event"
    },
    {
      "anonymous": false,
      "inputs": [
        {
          "indexed": true,
          "internalType": "uint256",
          "name": "tokenId",
          "type": "uint256"
        },
        {
          "indexed": true,
          "internalType": "address",
          "name": "funder",
          "type": "address"
        },
        {
          "indexed": true,
          "internalType": "uint256",
          "name": "amount",
          "type": "uint256"
        }
      ],
      "name": "FundsDeposited",
      "type": "event"
    },
    {
      "anonymous": false,
      "inputs": [
        {
          "indexed": true,
          "internalType": "address",
          "name": "withdrawer",
          "type": "address"
        },
        {
          "indexed": true,
          "internalType": "uint256",
          "name": "withDrawedFunds",
          "type": "uint256"
        }
      ],
      "name": "FundsWithdrawed",
      "type": "event"
    },
    {
      "anonymous": false,
      "inputs": [
        {
          "indexed": true,
          "internalType": "bytes32",
          "name": "role",
          "type": "bytes32"
        },
        {
          "indexed": true,
          "internalType": "bytes32",
          "name": "previousAdminRole",
          "type": "bytes32"
        },
        {
          "indexed": true,
          "internalType": "bytes32",
          "name": "newAdminRole",
          "type": "bytes32"
        }
      ],
      "name": "RoleAdminChanged",
      "type": "event"
    },
    {
      "anonymous": false,
      "inputs": [
        {
          "indexed": true,
          "internalType": "bytes32",
          "name": "role",
          "type": "bytes32"
        },
        {
          "indexed": true,
          "internalType": "address",
          "name": "account",
          "type": "address"
        },
        {
          "indexed": true,
          "internalType": "address",
          "name": "sender",
          "type": "address"
        }
      ],
      "name": "RoleGranted",
      "type": "event"
    },
    {
      "anonymous": false,
      "inputs": [
        {
          "indexed": true,
          "internalType": "bytes32",
          "name": "role",
          "type": "bytes32"
        },
        {
          "indexed": true,
          "internalType": "address",
          "name": "account",
          "type": "address"
        },
        {
          "indexed": true,
          "internalType": "address",
          "name": "sender",
          "type": "address"
        }
      ],
      "name": "RoleRevoked",
      "type": "event"
    },
    {
      "anonymous": false,
      "inputs": [
        {
          "indexed": true,
          "internalType": "address",
          "name": "from",
          "type": "address"
        },
        {
          "indexed": true,
          "internalType": "address",
          "name": "to",
          "type": "address"
        },
        {
          "indexed": true,
          "internalType": "uint256",
          "name": "tokenId",
          "type": "uint256"
        }
      ],
      "name": "Transfer",
      "type": "event"
    },
    {
      "anonymous": false,
      "inputs": [
        {
          "indexed": true,
          "internalType": "uint256",
          "name": "tokenId",
          "type": "uint256"
        },
        {
          "indexed": true,
          "internalType": "address",
          "name": "withdrawer",
          "type": "address"
        }
      ],
      "name": "WithdrawalRequest",
      "type": "event"
    },
    {
      "inputs": [],
      "name": "CONTRACTOR_ROLE",
      "outputs": [
        {
          "internalType": "bytes32",
          "name": "",
          "type": "bytes32"
        }
      ],
      "stateMutability": "view",
      "type": "function"
    },
    {
      "inputs": [],
      "name": "DEFAULT_ADMIN_ROLE",
      "outputs": [
        {
          "internalType": "bytes32",
          "name": "",
          "type": "bytes32"
        }
      ],
      "stateMutability": "view",
      "type": "function"
    },
    {
      "inputs": [],
      "name": "FUNDER_ROLE",
      "outputs": [
        {
          "internalType": "bytes32",
          "name": "",
          "type": "bytes32"
        }
      ],
      "stateMutability": "view",
      "type": "function"
    },
    {
      "inputs": [
        {
          "internalType": "address",
          "name": "to",
          "type": "address"
        },
        {
          "internalType": "uint256",
          "name": "tokenId",
          "type": "uint256"
        }
      ],
      "name": "approve",
      "outputs": [],
      "stateMutability": "nonpayable",
      "type": "function"
    },
    {
      "inputs": [
        {
          "internalType": "address",
          "name": "owner",
          "type": "address"
        }
      ],
      "name": "balanceOf",
      "outputs": [
        {
          "internalType": "uint256",
          "name": "",
          "type": "uint256"
        }
      ],
      "stateMutability": "view",
      "type": "function"
    },
    {
      "inputs": [],
      "name": "beneficiary",
      "outputs": [
        {
          "internalType": "address",
          "name": "",
          "type": "address"
        }
      ],
      "stateMutability": "view",
      "type": "function"
    },
    {
      "inputs": [],
      "name": "claim",
      "outputs": [],
      "stateMutability": "nonpayable",
      "type": "function"
    },
    {
      "inputs": [],
      "name": "depositFunds",
      "outputs": [],
      "stateMutability": "payable",
      "type": "function"
    },
    {
      "inputs": [],
      "name": "duration",
      "outputs": [
        {
          "internalType": "uint256",
          "name": "",
          "type": "uint256"
        }
      ],
      "stateMutability": "view",
      "type": "function"
    },
    {
      "inputs": [
        {
          "internalType": "address",
          "name": "funder",
          "type": "address"
        }
      ],
      "name": "getAddressToAmountFunded",
      "outputs": [
        {
          "internalType": "uint256",
          "name": "",
          "type": "uint256"
        }
      ],
      "stateMutability": "view",
      "type": "function"
    },
    {
      "inputs": [
        {
          "internalType": "uint256",
          "name": "tokenId",
          "type": "uint256"
        }
      ],
      "name": "getApproved",
      "outputs": [
        {
          "internalType": "address",
          "name": "",
          "type": "address"
        }
      ],
      "stateMutability": "view",
      "type": "function"
    },
    {
      "inputs": [
        {
          "internalType": "uint256",
          "name": "index",
          "type": "uint256"
        }
      ],
      "name": "getFunder",
      "outputs": [
        {
          "internalType": "address",
          "name": "",
          "type": "address"
        }
      ],
      "stateMutability": "view",
      "type": "function"
    },
    {
      "inputs": [],
      "name": "getIsGroupWithdrawal",
      "outputs": [
        {
          "internalType": "bool",
          "name": "",
          "type": "bool"
        }
      ],
      "stateMutability": "view",
      "type": "function"
    },
    {
      "inputs": [],
      "name": "getMinimumFundingAmount",
      "outputs": [
        {
          "internalType": "uint256",
          "name": "",
          "type": "uint256"
        }
      ],
      "stateMutability": "view",
      "type": "function"
    },
    {
      "inputs": [
        {
          "internalType": "bytes32",
          "name": "role",
          "type": "bytes32"
        }
      ],
      "name": "getRoleAdmin",
      "outputs": [
        {
          "internalType": "bytes32",
          "name": "",
          "type": "bytes32"
        }
      ],
      "stateMutability": "view",
      "type": "function"
    },
    {
      "inputs": [],
      "name": "getTotalAmount",
      "outputs": [
        {
          "internalType": "uint256",
          "name": "",
          "type": "uint256"
        }
      ],
      "stateMutability": "view",
      "type": "function"
    },
    {
      "inputs": [],
      "name": "getVestingPeriod",
      "outputs": [
        {
          "internalType": "uint256",
          "name": "",
          "type": "uint256"
        }
      ],
      "stateMutability": "view",
      "type": "function"
    },
    {
      "inputs": [],
      "name": "getWithdrawalFee",
      "outputs": [
        {
          "internalType": "uint256",
          "name": "",
          "type": "uint256"
        }
      ],
      "stateMutability": "view",
      "type": "function"
    },
    {
      "inputs": [
        {
          "internalType": "bytes32",
          "name": "role",
          "type": "bytes32"
        },
        {
          "internalType": "address",
          "name": "account",
          "type": "address"
        }
      ],
      "name": "grantRole",
      "outputs": [],
      "stateMutability": "nonpayable",
      "type": "function"
    },
    {
      "inputs": [
        {
          "internalType": "bytes32",
          "name": "role",
          "type": "bytes32"
        },
        {
          "internalType": "address",
          "name": "account",
          "type": "address"
        }
      ],
      "name": "hasRole",
      "outputs": [
        {
          "internalType": "bool",
          "name": "",
          "type": "bool"
        }
      ],
      "stateMutability": "view",
      "type": "function"
    },
    {
      "inputs": [
        {
          "internalType": "address",
          "name": "owner",
          "type": "address"
        },
        {
          "internalType": "address",
          "name": "operator",
          "type": "address"
        }
      ],
      "name": "isApprovedForAll",
      "outputs": [
        {
          "internalType": "bool",
          "name": "",
          "type": "bool"
        }
      ],
      "stateMutability": "view",
      "type": "function"
    },
    {
      "inputs": [],
      "name": "name",
      "outputs": [
        {
          "internalType": "string",
          "name": "",
          "type": "string"
        }
      ],
      "stateMutability": "view",
      "type": "function"
    },
    {
      "inputs": [
        {
          "internalType": "uint256",
          "name": "tokenId",
          "type": "uint256"
        }
      ],
      "name": "ownerOf",
      "outputs": [
        {
          "internalType": "address",
          "name": "",
          "type": "address"
        }
      ],
      "stateMutability": "view",
      "type": "function"
    },
    {
      "inputs": [
        {
          "internalType": "address",
          "name": "token",
          "type": "address"
        }
      ],
      "name": "releasable",
      "outputs": [
        {
          "internalType": "uint256",
          "name": "",
          "type": "uint256"
        }
      ],
      "stateMutability": "view",
      "type": "function"
    },
    {
      "inputs": [],
      "name": "releasable",
      "outputs": [
        {
          "internalType": "uint256",
          "name": "",
          "type": "uint256"
        }
      ],
      "stateMutability": "view",
      "type": "function"
    },
    {
      "inputs": [
        {
          "internalType": "address",
          "name": "token",
          "type": "address"
        }
      ],
      "name": "release",
      "outputs": [],
      "stateMutability": "nonpayable",
      "type": "function"
    },
    {
      "inputs": [],
      "name": "release",
      "outputs": [],
      "stateMutability": "nonpayable",
      "type": "function"
    },
    {
      "inputs": [],
      "name": "released",
      "outputs": [
        {
          "internalType": "uint256",
          "name": "",
          "type": "uint256"
        }
      ],
      "stateMutability": "view",
      "type": "function"
    },
    {
      "inputs": [
        {
          "internalType": "address",
          "name": "token",
          "type": "address"
        }
      ],
      "name": "released",
      "outputs": [
        {
          "internalType": "uint256",
          "name": "",
          "type": "uint256"
        }
      ],
      "stateMutability": "view",
      "type": "function"
    },
    {
      "inputs": [
        {
          "internalType": "bytes32",
          "name": "role",
          "type": "bytes32"
        },
        {
          "internalType": "address",
          "name": "account",
          "type": "address"
        }
      ],
      "name": "renounceRole",
      "outputs": [],
      "stateMutability": "nonpayable",
      "type": "function"
    },
    {
      "inputs": [
        {
          "internalType": "uint256",
          "name": "tokenId",
          "type": "uint256"
        }
      ],
      "name": "requestForWithdrawal",
      "outputs": [],
      "stateMutability": "nonpayable",
      "type": "function"
    },
    {
      "inputs": [
        {
          "internalType": "bytes32",
          "name": "role",
          "type": "bytes32"
        },
        {
          "internalType": "address",
          "name": "account",
          "type": "address"
        }
      ],
      "name": "revokeRole",
      "outputs": [],
      "stateMutability": "nonpayable",
      "type": "function"
    },
    {
      "inputs": [
        {
          "internalType": "address",
          "name": "from",
          "type": "address"
        },
        {
          "internalType": "address",
          "name": "to",
          "type": "address"
        },
        {
          "internalType": "uint256",
          "name": "tokenId",
          "type": "uint256"
        }
      ],
      "name": "safeTransferFrom",
      "outputs": [],
      "stateMutability": "nonpayable",
      "type": "function"
    },
    {
      "inputs": [
        {
          "internalType": "address",
          "name": "from",
          "type": "address"
        },
        {
          "internalType": "address",
          "name": "to",
          "type": "address"
        },
        {
          "internalType": "uint256",
          "name": "tokenId",
          "type": "uint256"
        },
        {
          "internalType": "bytes",
          "name": "data",
          "type": "bytes"
        }
      ],
      "name": "safeTransferFrom",
      "outputs": [],
      "stateMutability": "nonpayable",
      "type": "function"
    },
    {
      "inputs": [
        {
          "internalType": "address",
          "name": "operator",
          "type": "address"
        },
        {
          "internalType": "bool",
          "name": "approved",
          "type": "bool"
        }
      ],
      "name": "setApprovalForAll",
      "outputs": [],
      "stateMutability": "nonpayable",
      "type": "function"
    },
    {
      "inputs": [],
      "name": "start",
      "outputs": [
        {
          "internalType": "uint256",
          "name": "",
          "type": "uint256"
        }
      ],
      "stateMutability": "view",
      "type": "function"
    },
    {
      "inputs": [
        {
          "internalType": "bytes4",
          "name": "interfaceId",
          "type": "bytes4"
        }
      ],
      "name": "supportsInterface",
      "outputs": [
        {
          "internalType": "bool",
          "name": "",
          "type": "bool"
        }
      ],
      "stateMutability": "view",
      "type": "function"
    },
    {
      "inputs": [],
      "name": "symbol",
      "outputs": [
        {
          "internalType": "string",
          "name": "",
          "type": "string"
        }
      ],
      "stateMutability": "view",
      "type": "function"
    },
    {
      "inputs": [
        {
          "internalType": "uint256",
          "name": "",
          "type": "uint256"
        }
      ],
      "name": "tokenURI",
      "outputs": [
        {
          "internalType": "string",
          "name": "",
          "type": "string"
        }
      ],
      "stateMutability": "view",
      "type": "function"
    },
    {
      "inputs": [
        {
          "internalType": "address",
          "name": "from",
          "type": "address"
        },
        {
          "internalType": "address",
          "name": "to",
          "type": "address"
        },
        {
          "internalType": "uint256",
          "name": "tokenId",
          "type": "uint256"
        }
      ],
      "name": "transferFrom",
      "outputs": [],
      "stateMutability": "nonpayable",
      "type": "function"
    },
    {
      "inputs": [
        {
          "internalType": "bytes32[]",
          "name": "proof",
          "type": "bytes32[]"
        },
        {
          "internalType": "bytes32",
          "name": "root",
          "type": "bytes32"
        }
      ],
      "name": "verifyMerkleTree",
      "outputs": [
        {
          "internalType": "bool",
          "name": "",
          "type": "bool"
        }
      ],
      "stateMutability": "view",
      "type": "function"
    },
    {
      "inputs": [
        {
          "internalType": "uint64",
          "name": "timestamp",
          "type": "uint64"
        }
      ],
      "name": "vestedAmount",
      "outputs": [
        {
          "internalType": "uint256",
          "name": "",
          "type": "uint256"
        }
      ],
      "stateMutability": "view",
      "type": "function"
    },
    {
      "inputs": [
        {
          "internalType": "address",
          "name": "token",
          "type": "address"
        },
        {
          "internalType": "uint64",
          "name": "timestamp",
          "type": "uint64"
        }
      ],
      "name": "vestedAmount",
      "outputs": [
        {
          "internalType": "uint256",
          "name": "",
          "type": "uint256"
        }
      ],
      "stateMutability": "view",
      "type": "function"
    },
    {
      "inputs": [],
      "name": "withdrawFunds",
      "outputs": [],
      "stateMutability": "nonpayable",
      "type": "function"
    },
    {
      "inputs": [],
      "name": "withdrawalCheck",
      "outputs": [
        {
          "internalType": "bool",
          "name": "",
          "type": "bool"
        }
      ],
      "stateMutability": "nonpayable",
      "type": "function"
    },
    {
      "stateMutability": "payable",
      "type": "receive"
    }
  ],
  "bytecode": "0x6101406040523480156200001257600080fd5b506040516200301c3803806200301c8339810160408190526200003591620001a2565b3382826040518060400160405280601481526020017f46756e64696e67436f6e7472616374546f6b656e000000000000000000000000815250604051806040016040528060038152602001621190d560ea1b81525081600090816200009b919062000356565b506001620000aa828262000356565b5050506001600160a01b0383166200011b5760405162461bcd60e51b815260206004820152602a60248201527f56657374696e6757616c6c65743a2062656e6566696369617279206973207a65604482015269726f206164647265737360b01b606482015260840160405180910390fd5b6001600160a01b039092166080526001600160401b0390811660a05290811660c05260e0879052610100869052841515610120528216600b55600c62000162848262000356565b5050505050505062000422565b634e487b7160e01b600052604160045260246000fd5b80516001600160401b03811681146200019d57600080fd5b919050565b60008060008060008060c08789031215620001bc57600080fd5b86519550602080880151955060408801518015158114620001dc57600080fd5b60608901519095506001600160401b0380821115620001fa57600080fd5b818a0191508a601f8301126200020f57600080fd5b8151818111156200022457620002246200016f565b604051601f8201601f19908116603f011681019083821181831017156200024f576200024f6200016f565b816040528281528d868487010111156200026857600080fd5b600093505b828410156200028c57848401860151818501870152928501926200026d565b6000868483010152809850505050505050620002ab6080880162000185565b9150620002bb60a0880162000185565b90509295509295509295565b600181811c90821680620002dc57607f821691505b602082108103620002fd57634e487b7160e01b600052602260045260246000fd5b50919050565b601f8211156200035157600081815260208120601f850160051c810160208610156200032c5750805b601f850160051c820191505b818110156200034d5782815560010162000338565b5050505b505050565b81516001600160401b038111156200037257620003726200016f565b6200038a81620003838454620002c7565b8462000303565b602080601f831160018114620003c25760008415620003a95750858301515b600019600386901b1c1916600185901b1785556200034d565b600085815260208120601f198616915b82811015620003f357888601518255948401946001909101908401620003d2565b5085821015620004125787850151600019600388901b60f8161c191681555b5050505050600190811b01905550565b60805160a05160c05160e0516101005161012051612b87620004956000396000818161062a01528181610a4201528181610bdd015261101d0152600061076701526000818161052301528181610e4e015261140101526000610a1d015260006112d101526000610de50152612b876000f3fe6080604052600436106102465760003560e01c80637dc4c2ba1161013f578063b121d483116100c1578063d8e159f81161007a578063d8e159f814610758578063db06941e1461078b578063e2c41dbc146107a0578063e985e9c5146107a8578063f88e3204146107c8578063fbccedae146107fc57600080fd5b8063b121d483146106a3578063b88d4fde146106c3578063be9a6555146106e3578063c87b56dd146106f8578063d547741f14610718578063d7b4750c1461073857600080fd5b80637dc4c2ba14610567578063810ec23b1461057c57806386d1a69f1461059c57806391d14854146105b157806395d89b41146105d157806396132521146105e65780639852595c146105fb5780639c885eb31461061b578063a217fddf1461064e578063a22cb46514610663578063a3f8eace1461068357600080fd5b806324600fc3116101c857806324600fc3146103f1578063248a9ca3146104065780632f2ff15d1461043657806334aedecd1461045657806336568abe1461048a57806338af3eed146104aa57806342842e0e146104bf5780634e71d92d146104df5780636352211e146104f457806365ac43411461051457806370a082311461054757600080fd5b806301ffc9a7146102525780630343fb251461028757806306fdde03146102cb578063081812fc146102ed578063095ea7b3146103255780630a17b06b146103475780630fb5a6b4146103675780631095941e1461037c5780631096cb791461039c57806319165587146103b157806323b872dd146103d157600080fd5b3661024d57005b600080fd5b34801561025e57600080fd5b5061027261026d36600461245c565b610811565b60405190151581526020015b60405180910390f35b34801561029357600080fd5b506102bd6102a2366004612495565b6001600160a01b03166000908152600d602052604090205490565b60405190815260200161027e565b3480156102d757600080fd5b506102e0610822565b60405161027e9190612500565b3480156102f957600080fd5b5061030d610308366004612513565b6108b4565b6040516001600160a01b03909116815260200161027e565b34801561033157600080fd5b5061034561034036600461252c565b6108db565b005b34801561035357600080fd5b506102bd61036236600461256d565b6109f5565b34801561037357600080fd5b506102bd610a13565b34801561038857600080fd5b50610345610397366004612513565b610a40565b3480156103a857600080fd5b506102bd610ae0565b3480156103bd57600080fd5b506103456103cc366004612495565b610aef565b3480156103dd57600080fd5b506103456103ec366004612588565b610b80565b3480156103fd57600080fd5b50610345610bb1565b34801561041257600080fd5b506102bd610421366004612513565b60009081526006602052604090206001015490565b34801561044257600080fd5b506103456104513660046125c4565b610d44565b34801561046257600080fd5b506102bd7f0914bb97ca83e85ef385857d9d418f187ff630589e0c9f44db92976d8e4519cb81565b34801561049657600080fd5b506103456104a53660046125c4565b610d69565b3480156104b657600080fd5b5061030d610de3565b3480156104cb57600080fd5b506103456104da366004612588565b610e07565b3480156104eb57600080fd5b50610345610e22565b34801561050057600080fd5b5061030d61050f366004612513565b610f5f565b34801561052057600080fd5b507f00000000000000000000000000000000000000000000000000000000000000006102bd565b34801561055357600080fd5b506102bd610562366004612495565b610f93565b34801561057357600080fd5b50610272611019565b34801561058857600080fd5b506102bd6105973660046125f0565b6110a0565b3480156105a857600080fd5b50610345611127565b3480156105bd57600080fd5b506102726105cc3660046125c4565b611191565b3480156105dd57600080fd5b506102e06111bc565b3480156105f257600080fd5b506007546102bd565b34801561060757600080fd5b506102bd610616366004612495565b6111cb565b34801561062757600080fd5b507f0000000000000000000000000000000000000000000000000000000000000000610272565b34801561065a57600080fd5b506102bd600081565b34801561066f57600080fd5b5061034561067e366004612628565b6111e6565b34801561068f57600080fd5b506102bd61069e366004612495565b6111f1565b3480156106af57600080fd5b506102726106be36600461265f565b611210565b3480156106cf57600080fd5b506103456106de3660046126ef565b61128f565b3480156106ef57600080fd5b506102bd6112c7565b34801561070457600080fd5b506102e0610713366004612513565b6112f4565b34801561072457600080fd5b506103456107333660046125c4565b611388565b34801561074457600080fd5b5061030d610753366004612513565b6113ad565b34801561076457600080fd5b507f00000000000000000000000000000000000000000000000000000000000000006102bd565b34801561079757600080fd5b506102bd6113dd565b61034561142e565b3480156107b457600080fd5b506102726107c33660046127ca565b611502565b3480156107d457600080fd5b506102bd7fef28dcbf06eb73add8f77665c46a6263e719f928f9c34710ec1097573ba6e20c81565b34801561080857600080fd5b506102bd611530565b600061081c8261154e565b92915050565b606060008054610831906127f4565b80601f016020809104026020016040519081016040528092919081815260200182805461085d906127f4565b80156108aa5780601f1061087f576101008083540402835291602001916108aa565b820191906000526020600020905b81548152906001019060200180831161088d57829003601f168201915b5050505050905090565b60006108bf82611573565b506000908152600460205260409020546001600160a01b031690565b60006108e682610f5f565b9050806001600160a01b0316836001600160a01b0316036109585760405162461bcd60e51b815260206004820152602160248201527f4552433732313a20617070726f76616c20746f2063757272656e74206f776e656044820152603960f91b60648201526084015b60405180910390fd5b336001600160a01b038216148061097457506109748133611502565b6109e65760405162461bcd60e51b815260206004820152603d60248201527f4552433732313a20617070726f76652063616c6c6572206973206e6f7420746f60448201527f6b656e206f776e6572206f7220617070726f76656420666f7220616c6c000000606482015260840161094f565b6109f08383611598565b505050565b600061081c610a0360075490565b610a0d9047612844565b83611606565b6001600160401b037f00000000000000000000000000000000000000000000000000000000000000001690565b7f0000000000000000000000000000000000000000000000000000000000000000610a7e5760405163568fd53960e11b815260040160405180910390fd5b6000818152600f602090815260408083203384529091529020805460ff19166001179055610ab0600a80546001019055565b604051339082907f0fc8b6fcb2f497709c22d28a739a7c1af51a838def68b9e27ed2dabec6fc60ea90600090a350565b6000610aea610a13565b905090565b6000610afa826111f1565b6001600160a01b038316600090815260086020526040812080549293508392909190610b27908490612844565b90915550506040518181526001600160a01b038316907fc0e523490dd523c33b1878c9eb14ff46991e3f5b2cd33710918618f2a39cba1b9060200160405180910390a2610b7c82610b76610de3565b83611697565b5050565b610b8a33826116e9565b610ba65760405162461bcd60e51b815260040161094f90612857565b6109f0838383611748565b7f0914bb97ca83e85ef385857d9d418f187ff630589e0c9f44db92976d8e4519cb610bdb816118b9565b7f000000000000000000000000000000000000000000000000000000000000000015610c6757610c09611019565b610c675760405162461bcd60e51b815260206004820152602960248201527f5468657265206973206e6f206d616a6f7269747920617070726f76616c20746f60448201526820776974686472617760b81b606482015260840161094f565b6000610c716112c7565b610c7b90426128a4565b9050610c85610a13565b816001600160401b03161115610c9a57600080fd5b6000610ca5826109f5565b604051909150600090339083908381818185875af1925050503d8060008114610cea576040519150601f19603f3d011682016040523d82523d6000602084013e610cef565b606091505b5050905080610d1157604051639af25e5d60e01b815260040160405180910390fd5b604051829033907fd7d7cc3c005efe228d9482e7be336bc7174fd6097c03fe43d13655005bbd46f790600090a350505050565b600082815260066020526040902060010154610d5f816118b9565b6109f083836118c3565b6001600160a01b0381163314610dd95760405162461bcd60e51b815260206004820152602f60248201527f416363657373436f6e74726f6c3a2063616e206f6e6c792072656e6f756e636560448201526e103937b632b9903337b91039b2b63360891b606482015260840161094f565b610b7c8282611949565b7f000000000000000000000000000000000000000000000000000000000000000090565b6109f08383836040518060200160405280600081525061128f565b7fef28dcbf06eb73add8f77665c46a6263e719f928f9c34710ec1097573ba6e20c610e4c816118b9565b7f0000000000000000000000000000000000000000000000000000000000000000610e7660075490565b03610ece5760405162461bcd60e51b815260206004820152602260248201527f596f75206861766520636c61696d65642074686520656e7469726520616d6f756044820152611b9d60f21b606482015260840161094f565b6000610ed8611530565b1015610f265760405162461bcd60e51b815260206004820181905260248201527f596f7520646f206e6f7420686176652072656c65617361626c652066756e6473604482015260640161094f565b610f2e611127565b60075460405133907fcebf6e87c3f2bd4df41bc6e2e842495680906affd0e429f056fba0989a08537c90600090a350565b600080610f6b836119b0565b90506001600160a01b03811661081c5760405162461bcd60e51b815260040161094f906128b7565b60006001600160a01b038216610ffd5760405162461bcd60e51b815260206004820152602960248201527f4552433732313a2061646472657373207a65726f206973206e6f7420612076616044820152683634b21037bbb732b960b91b606482015260840161094f565b506001600160a01b031660009081526003602052604090205490565b60007f00000000000000000000000000000000000000000000000000000000000000006110595760405163568fd53960e11b815260040160405180910390fd5b6000611064600a5490565b600e549091506000906110859060649061107f90603c6119cb565b906119d7565b90508082106110975760019250505090565b60009250505090565b60006111206110ae846111cb565b6040516370a0823160e01b81523060048201526001600160a01b038616906370a0823190602401602060405180830381865afa1580156110f2573d6000803e3d6000fd5b505050506040513d601f19601f8201168201806040525081019061111691906128e9565b610a0d9190612844565b9392505050565b6000611131611530565b905080600760008282546111459190612844565b90915550506040518181527fda9d4e5f101b8b9b1c5b76d0c5a9f7923571acfc02376aa076b75a8c080c956b9060200160405180910390a161118e611188610de3565b826119e3565b50565b60009182526006602090815260408084206001600160a01b0393909316845291905290205460ff1690565b606060018054610831906127f4565b6001600160a01b031660009081526008602052604090205490565b610b7c338383611af9565b60006111fc826111cb565b61120683426110a0565b61081c91906128a4565b6040516001600160601b03193360601b1660208201526000908190603401604051602081830303815290604052805190602001209050611286858580806020026020016040519081016040528093929190818152602001838360200280828437600092019190915250879250859150611bc39050565b95945050505050565b61129933836116e9565b6112b55760405162461bcd60e51b815260040161094f90612857565b6112c184848484611bd9565b50505050565b6001600160401b037f00000000000000000000000000000000000000000000000000000000000000001690565b6060600c8054611303906127f4565b80601f016020809104026020016040519081016040528092919081815260200182805461132f906127f4565b801561137c5780601f106113515761010080835404028352916020019161137c565b820191906000526020600020905b81548152906001019060200180831161135f57829003601f168201915b50505050509050919050565b6000828152600660205260409020600101546113a3816118b9565b6109f08383611949565b6000600e82815481106113c2576113c2612902565b6000918252602090912001546001600160a01b031692915050565b6000806113e8610a13565b905062278d0060006113fa83836119d7565b90506114267f0000000000000000000000000000000000000000000000000000000000000000826119d7565b935050505090565b60006114386113dd565b9050600061144560095490565b90508134116114675760405163cf463cf960e01b815260040160405180910390fd5b336000818152600d60205260408120349055600e805460018101825591527fbb7b4a454dc3493923482f07822329ed19e8244eff582cc204f8554c3620c3fd0180546001600160a01b031916821790556114c19082611c0c565b6114cf600980546001019055565b6040513490339083907fe030e47e27825a2ad1b19e4cf2e70bfbfb3124af275c7727a82b114ba7b29a8590600090a45050565b6001600160a01b03918216600090815260056020908152604080832093909416825291909152205460ff1690565b600061153b60075490565b611544426109f5565b610aea91906128a4565b60006001600160e01b03198216637965db0b60e01b148061081c575061081c82611c26565b61157c81611c76565b61118e5760405162461bcd60e51b815260040161094f906128b7565b600081815260046020526040902080546001600160a01b0319166001600160a01b03841690811790915581906115cd82610f5f565b6001600160a01b03167f8c5be1e5ebec7d5bd14f71427d1e84f3dd0314c0f7b2291e5b200ac8c7c3b92560405160405180910390a45050565b60006116106112c7565b826001600160401b031610156116285750600061081c565b611630610a13565b6116386112c7565b6116429190612844565b826001600160401b0316111561165957508161081c565b611661610a13565b6116696112c7565b61167c906001600160401b0385166128a4565b6116869085612918565b611690919061292f565b905061081c565b604080516001600160a01b038416602482015260448082018490528251808303909101815260649091019091526020810180516001600160e01b031663a9059cbb60e01b1790526109f0908490611c93565b6000806116f583610f5f565b9050806001600160a01b0316846001600160a01b0316148061171c575061171c8185611502565b806117405750836001600160a01b0316611735846108b4565b6001600160a01b0316145b949350505050565b826001600160a01b031661175b82610f5f565b6001600160a01b0316146117815760405162461bcd60e51b815260040161094f90612951565b6001600160a01b0382166117e35760405162461bcd60e51b8152602060048201526024808201527f4552433732313a207472616e7366657220746f20746865207a65726f206164646044820152637265737360e01b606482015260840161094f565b6117f08383836001611d65565b826001600160a01b031661180382610f5f565b6001600160a01b0316146118295760405162461bcd60e51b815260040161094f90612951565b600081815260046020908152604080832080546001600160a01b03199081169091556001600160a01b0387811680865260038552838620805460001901905590871680865283862080546001019055868652600290945282852080549092168417909155905184937fddf252ad1be2c89b69c2b068fc378daa952ba7f163c4a11628f55a4df523b3ef91a4505050565b61118e8133611ded565b6118cd8282611191565b610b7c5760008281526006602090815260408083206001600160a01b03851684529091529020805460ff191660011790556119053390565b6001600160a01b0316816001600160a01b0316837f2f8788117e7eff1d82e926ec794901d17c78024a50270940304540a733656f0d60405160405180910390a45050565b6119538282611191565b15610b7c5760008281526006602090815260408083206001600160a01b0385168085529252808320805460ff1916905551339285917ff6391f5c32d9c69d2a47ea670b442974b53935d1edc7fd64eb21e047a839171b9190a45050565b6000908152600260205260409020546001600160a01b031690565b60006111208284612918565b6000611120828461292f565b80471015611a335760405162461bcd60e51b815260206004820152601d60248201527f416464726573733a20696e73756666696369656e742062616c616e6365000000604482015260640161094f565b6000826001600160a01b03168260405160006040518083038185875af1925050503d8060008114611a80576040519150601f19603f3d011682016040523d82523d6000602084013e611a85565b606091505b50509050806109f05760405162461bcd60e51b815260206004820152603a60248201527f416464726573733a20756e61626c6520746f2073656e642076616c75652c20726044820152791958da5c1a595b9d081b585e481a185d99481c995d995c9d195960321b606482015260840161094f565b816001600160a01b0316836001600160a01b031603611b565760405162461bcd60e51b815260206004820152601960248201527822a9219b99189d1030b8383937bb32903a379031b0b63632b960391b604482015260640161094f565b6001600160a01b03838116600081815260056020908152604080832094871680845294825291829020805460ff191686151590811790915591519182527f17307eab39ab6107e8899845ad3d59bd9653f200f220920489ca2b5937696c31910160405180910390a3505050565b600082611bd08584611e46565b14949350505050565b611be4848484611748565b611bf084848484611e93565b6112c15760405162461bcd60e51b815260040161094f90612996565b610b7c828260405180602001604052806000815250611f94565b60006001600160e01b031982166380ac58cd60e01b1480611c5757506001600160e01b03198216635b5e139f60e01b145b8061081c57506301ffc9a760e01b6001600160e01b031983161461081c565b600080611c82836119b0565b6001600160a01b0316141592915050565b6000611ce8826040518060400160405280602081526020017f5361666545524332303a206c6f772d6c6576656c2063616c6c206661696c6564815250856001600160a01b0316611fc79092919063ffffffff16565b8051909150156109f05780806020019051810190611d0691906129e8565b6109f05760405162461bcd60e51b815260206004820152602a60248201527f5361666545524332303a204552433230206f7065726174696f6e20646964206e6044820152691bdd081cdd58d8d9595960b21b606482015260840161094f565b60018111156112c1576001600160a01b03841615611dab576001600160a01b03841660009081526003602052604081208054839290611da59084906128a4565b90915550505b6001600160a01b038316156112c1576001600160a01b03831660009081526003602052604081208054839290611de2908490612844565b909155505050505050565b611df78282611191565b610b7c57611e0481611fd6565b611e0f836020611fe8565b604051602001611e20929190612a05565b60408051601f198184030181529082905262461bcd60e51b825261094f91600401612500565b600081815b8451811015611e8b57611e7782868381518110611e6a57611e6a612902565b6020026020010151612183565b915080611e8381612a74565b915050611e4b565b509392505050565b60006001600160a01b0384163b15611f8957604051630a85bd0160e11b81526001600160a01b0385169063150b7a0290611ed7903390899088908890600401612a8d565b6020604051808303816000875af1925050508015611f12575060408051601f3d908101601f19168201909252611f0f91810190612aca565b60015b611f6f573d808015611f40576040519150601f19603f3d011682016040523d82523d6000602084013e611f45565b606091505b508051600003611f675760405162461bcd60e51b815260040161094f90612996565b805181602001fd5b6001600160e01b031916630a85bd0160e11b149050611740565b506001949350505050565b611f9e83836121b2565b611fab6000848484611e93565b6109f05760405162461bcd60e51b815260040161094f90612996565b606061174084846000856122cd565b606061081c6001600160a01b03831660145b60606000611ff7836002612918565b612002906002612844565b6001600160401b03811115612019576120196126d9565b6040519080825280601f01601f191660200182016040528015612043576020820181803683370190505b509050600360fc1b8160008151811061205e5761205e612902565b60200101906001600160f81b031916908160001a905350600f60fb1b8160018151811061208d5761208d612902565b60200101906001600160f81b031916908160001a90535060006120b1846002612918565b6120bc906001612844565b90505b6001811115612134576f181899199a1a9b1b9c1cb0b131b232b360811b85600f16601081106120f0576120f0612902565b1a60f81b82828151811061210657612106612902565b60200101906001600160f81b031916908160001a90535060049490941c9361212d81612ae7565b90506120bf565b5083156111205760405162461bcd60e51b815260206004820181905260248201527f537472696e67733a20686578206c656e67746820696e73756666696369656e74604482015260640161094f565b600081831061219f576000828152602084905260409020611120565b6000838152602083905260409020611120565b6001600160a01b0382166122085760405162461bcd60e51b815260206004820181905260248201527f4552433732313a206d696e7420746f20746865207a65726f2061646472657373604482015260640161094f565b61221181611c76565b1561222e5760405162461bcd60e51b815260040161094f90612afe565b61223c600083836001611d65565b61224581611c76565b156122625760405162461bcd60e51b815260040161094f90612afe565b6001600160a01b038216600081815260036020908152604080832080546001019055848352600290915280822080546001600160a01b0319168417905551839291907fddf252ad1be2c89b69c2b068fc378daa952ba7f163c4a11628f55a4df523b3ef908290a45050565b60608247101561232e5760405162461bcd60e51b815260206004820152602660248201527f416464726573733a20696e73756666696369656e742062616c616e636520666f6044820152651c8818d85b1b60d21b606482015260840161094f565b600080866001600160a01b0316858760405161234a9190612b35565b60006040518083038185875af1925050503d8060008114612387576040519150601f19603f3d011682016040523d82523d6000602084013e61238c565b606091505b509150915061239d878383876123a8565b979650505050505050565b60608315612417578251600003612410576001600160a01b0385163b6124105760405162461bcd60e51b815260206004820152601d60248201527f416464726573733a2063616c6c20746f206e6f6e2d636f6e7472616374000000604482015260640161094f565b5081611740565b611740838381511561242c5781518083602001fd5b8060405162461bcd60e51b815260040161094f9190612500565b6001600160e01b03198116811461118e57600080fd5b60006020828403121561246e57600080fd5b813561112081612446565b80356001600160a01b038116811461249057600080fd5b919050565b6000602082840312156124a757600080fd5b61112082612479565b60005b838110156124cb5781810151838201526020016124b3565b50506000910152565b600081518084526124ec8160208601602086016124b0565b601f01601f19169290920160200192915050565b60208152600061112060208301846124d4565b60006020828403121561252557600080fd5b5035919050565b6000806040838503121561253f57600080fd5b61254883612479565b946020939093013593505050565b80356001600160401b038116811461249057600080fd5b60006020828403121561257f57600080fd5b61112082612556565b60008060006060848603121561259d57600080fd5b6125a684612479565b92506125b460208501612479565b9150604084013590509250925092565b600080604083850312156125d757600080fd5b823591506125e760208401612479565b90509250929050565b6000806040838503121561260357600080fd5b61260c83612479565b91506125e760208401612556565b801515811461118e57600080fd5b6000806040838503121561263b57600080fd5b61264483612479565b915060208301356126548161261a565b809150509250929050565b60008060006040848603121561267457600080fd5b83356001600160401b038082111561268b57600080fd5b818601915086601f83011261269f57600080fd5b8135818111156126ae57600080fd5b8760208260051b85010111156126c357600080fd5b6020928301989097509590910135949350505050565b634e487b7160e01b600052604160045260246000fd5b6000806000806080858703121561270557600080fd5b61270e85612479565b935061271c60208601612479565b92506040850135915060608501356001600160401b038082111561273f57600080fd5b818701915087601f83011261275357600080fd5b813581811115612765576127656126d9565b604051601f8201601f19908116603f0116810190838211818310171561278d5761278d6126d9565b816040528281528a60208487010111156127a657600080fd5b82602086016020830137600060208483010152809550505050505092959194509250565b600080604083850312156127dd57600080fd5b6127e683612479565b91506125e760208401612479565b600181811c9082168061280857607f821691505b60208210810361282857634e487b7160e01b600052602260045260246000fd5b50919050565b634e487b7160e01b600052601160045260246000fd5b8082018082111561081c5761081c61282e565b6020808252602d908201527f4552433732313a2063616c6c6572206973206e6f7420746f6b656e206f776e6560408201526c1c881bdc88185c1c1c9bdd9959609a1b606082015260800190565b8181038181111561081c5761081c61282e565b602080825260189082015277115490cdcc8c4e881a5b9d985b1a59081d1bdad95b88125160421b604082015260600190565b6000602082840312156128fb57600080fd5b5051919050565b634e487b7160e01b600052603260045260246000fd5b808202811582820484141761081c5761081c61282e565b60008261294c57634e487b7160e01b600052601260045260246000fd5b500490565b60208082526025908201527f4552433732313a207472616e736665722066726f6d20696e636f72726563742060408201526437bbb732b960d91b606082015260800190565b60208082526032908201527f4552433732313a207472616e7366657220746f206e6f6e20455243373231526560408201527131b2b4bb32b91034b6b83632b6b2b73a32b960711b606082015260800190565b6000602082840312156129fa57600080fd5b81516111208161261a565b76020b1b1b2b9b9a1b7b73a3937b61d1030b1b1b7bab73a1604d1b815260008351612a378160178501602088016124b0565b7001034b99036b4b9b9b4b733903937b6329607d1b6017918401918201528351612a688160288401602088016124b0565b01602801949350505050565b600060018201612a8657612a8661282e565b5060010190565b6001600160a01b0385811682528416602082015260408101839052608060608201819052600090612ac0908301846124d4565b9695505050505050565b600060208284031215612adc57600080fd5b815161112081612446565b600081612af657612af661282e565b506000190190565b6020808252601c908201527f4552433732313a20746f6b656e20616c7265616479206d696e74656400000000604082015260600190565b60008251612b478184602087016124b0565b919091019291505056fea2646970667358221220298492cd9c3e2c06f8c2b28e6521ca25847001f67424d41a18d1f6d0df08b64a64736f6c63430008110033",
  "linkReferences": {},
  "deployedLinkReferences": {}
}