{
  "_format": "hh-sol-artifact-1",
  "contractName": "FundingContract",
  "sourceName": "contracts/FundingContract.sol",
  "abi": [
    {
      "inputs": [
        {
          "internalType": "uint256",
          "name": "totalFunding",
          "type": "uint256"
        },
        {
          "internalType": "uint256",
          "name": "withdrawalFee",
          "type": "uint256"
        },
        {
          "internalType": "bool",
          "name": "isGroupWithdrawal",
          "type": "bool"
        },
        {
          "internalType": "string",
          "name": "tokenUri",
          "type": "string"
        },
        {
          "internalType": "uint64",
          "name": "startTimestamp",
          "type": "uint64"
        },
        {
          "internalType": "uint64",
          "name": "vestingPeriodInSeconds",
          "type": "uint64"
        }
      ],
      "stateMutability": "nonpayable",
      "type": "constructor"
    },
    {
      "inputs": [],
      "name": "FundingContract__NotEnoughETH",
      "type": "error"
    },
    {
      "inputs": [],
      "name": "FundingContract__NotGroupFunding",
      "type": "error"
    },
    {
      "inputs": [],
      "name": "FundingContract__TransferFailed",
      "type": "error"
    },
    {
      "anonymous": false,
      "inputs": [
        {
          "indexed": true,
          "internalType": "address",
          "name": "owner",
          "type": "address"
        },
        {
          "indexed": true,
          "internalType": "address",
          "name": "approved",
          "type": "address"
        },
        {
          "indexed": true,
          "internalType": "uint256",
          "name": "tokenId",
          "type": "uint256"
        }
      ],
      "name": "Approval",
      "type": "event"
    },
    {
      "anonymous": false,
      "inputs": [
        {
          "indexed": true,
          "internalType": "address",
          "name": "owner",
          "type": "address"
        },
        {
          "indexed": true,
          "internalType": "address",
          "name": "operator",
          "type": "address"
        },
        {
          "indexed": false,
          "internalType": "bool",
          "name": "approved",
          "type": "bool"
        }
      ],
      "name": "ApprovalForAll",
      "type": "event"
    },
    {
      "anonymous": false,
      "inputs": [
        {
          "indexed": true,
          "internalType": "address",
          "name": "contractor",
          "type": "address"
        },
        {
          "indexed": true,
          "internalType": "uint256",
          "name": "releasedFunds",
          "type": "uint256"
        }
      ],
      "name": "ContractorClaimedFunds",
      "type": "event"
    },
    {
      "anonymous": false,
      "inputs": [
        {
          "indexed": true,
          "internalType": "address",
          "name": "token",
          "type": "address"
        },
        {
          "indexed": false,
          "internalType": "uint256",
          "name": "amount",
          "type": "uint256"
        }
      ],
      "name": "ERC20Released",
      "type": "event"
    },
    {
      "anonymous": false,
      "inputs": [
        {
          "indexed": false,
          "internalType": "uint256",
          "name": "amount",
          "type": "uint256"
        }
      ],
      "name": "EtherReleased",
      "type": "event"
    },
    {
      "anonymous": false,
      "inputs": [
        {
          "indexed": true,
          "internalType": "uint256",
          "name": "tokenId",
          "type": "uint256"
        },
        {
          "indexed": true,
          "internalType": "address",
          "name": "funder",
          "type": "address"
        },
        {
          "indexed": true,
          "internalType": "uint256",
          "name": "amount",
          "type": "uint256"
        }
      ],
      "name": "FundsDeposited",
      "type": "event"
    },
    {
      "anonymous": false,
      "inputs": [
        {
          "indexed": true,
          "internalType": "address",
          "name": "withdrawer",
          "type": "address"
        },
        {
          "indexed": true,
          "internalType": "uint256",
          "name": "withDrawedFunds",
          "type": "uint256"
        }
      ],
      "name": "FundsWithdrawed",
      "type": "event"
    },
    {
      "anonymous": false,
      "inputs": [
        {
          "indexed": true,
          "internalType": "bytes32",
          "name": "role",
          "type": "bytes32"
        },
        {
          "indexed": true,
          "internalType": "bytes32",
          "name": "previousAdminRole",
          "type": "bytes32"
        },
        {
          "indexed": true,
          "internalType": "bytes32",
          "name": "newAdminRole",
          "type": "bytes32"
        }
      ],
      "name": "RoleAdminChanged",
      "type": "event"
    },
    {
      "anonymous": false,
      "inputs": [
        {
          "indexed": true,
          "internalType": "bytes32",
          "name": "role",
          "type": "bytes32"
        },
        {
          "indexed": true,
          "internalType": "address",
          "name": "account",
          "type": "address"
        },
        {
          "indexed": true,
          "internalType": "address",
          "name": "sender",
          "type": "address"
        }
      ],
      "name": "RoleGranted",
      "type": "event"
    },
    {
      "anonymous": false,
      "inputs": [
        {
          "indexed": true,
          "internalType": "bytes32",
          "name": "role",
          "type": "bytes32"
        },
        {
          "indexed": true,
          "internalType": "address",
          "name": "account",
          "type": "address"
        },
        {
          "indexed": true,
          "internalType": "address",
          "name": "sender",
          "type": "address"
        }
      ],
      "name": "RoleRevoked",
      "type": "event"
    },
    {
      "anonymous": false,
      "inputs": [
        {
          "indexed": true,
          "internalType": "address",
          "name": "from",
          "type": "address"
        },
        {
          "indexed": true,
          "internalType": "address",
          "name": "to",
          "type": "address"
        },
        {
          "indexed": true,
          "internalType": "uint256",
          "name": "tokenId",
          "type": "uint256"
        }
      ],
      "name": "Transfer",
      "type": "event"
    },
    {
      "anonymous": false,
      "inputs": [
        {
          "indexed": true,
          "internalType": "uint256",
          "name": "tokenId",
          "type": "uint256"
        },
        {
          "indexed": true,
          "internalType": "address",
          "name": "withdrawer",
          "type": "address"
        }
      ],
      "name": "WithdrawalRequest",
      "type": "event"
    },
    {
      "inputs": [],
      "name": "CONTRACTOR_ROLE",
      "outputs": [
        {
          "internalType": "bytes32",
          "name": "",
          "type": "bytes32"
        }
      ],
      "stateMutability": "view",
      "type": "function"
    },
    {
      "inputs": [],
      "name": "DEFAULT_ADMIN_ROLE",
      "outputs": [
        {
          "internalType": "bytes32",
          "name": "",
          "type": "bytes32"
        }
      ],
      "stateMutability": "view",
      "type": "function"
    },
    {
      "inputs": [],
      "name": "FUNDER_ROLE",
      "outputs": [
        {
          "internalType": "bytes32",
          "name": "",
          "type": "bytes32"
        }
      ],
      "stateMutability": "view",
      "type": "function"
    },
    {
      "inputs": [
        {
          "internalType": "address",
          "name": "to",
          "type": "address"
        },
        {
          "internalType": "uint256",
          "name": "tokenId",
          "type": "uint256"
        }
      ],
      "name": "approve",
      "outputs": [],
      "stateMutability": "nonpayable",
      "type": "function"
    },
    {
      "inputs": [
        {
          "internalType": "address",
          "name": "owner",
          "type": "address"
        }
      ],
      "name": "balanceOf",
      "outputs": [
        {
          "internalType": "uint256",
          "name": "",
          "type": "uint256"
        }
      ],
      "stateMutability": "view",
      "type": "function"
    },
    {
      "inputs": [],
      "name": "beneficiary",
      "outputs": [
        {
          "internalType": "address",
          "name": "",
          "type": "address"
        }
      ],
      "stateMutability": "view",
      "type": "function"
    },
    {
      "inputs": [],
      "name": "claim",
      "outputs": [],
      "stateMutability": "nonpayable",
      "type": "function"
    },
    {
      "inputs": [],
      "name": "depositFunds",
      "outputs": [],
      "stateMutability": "payable",
      "type": "function"
    },
    {
      "inputs": [],
      "name": "duration",
      "outputs": [
        {
          "internalType": "uint256",
          "name": "",
          "type": "uint256"
        }
      ],
      "stateMutability": "view",
      "type": "function"
    },
    {
      "inputs": [
        {
          "internalType": "address",
          "name": "funder",
          "type": "address"
        }
      ],
      "name": "getAddressToAmountFunded",
      "outputs": [
        {
          "internalType": "uint256",
          "name": "",
          "type": "uint256"
        }
      ],
      "stateMutability": "view",
      "type": "function"
    },
    {
      "inputs": [
        {
          "internalType": "uint256",
          "name": "tokenId",
          "type": "uint256"
        }
      ],
      "name": "getApproved",
      "outputs": [
        {
          "internalType": "address",
          "name": "",
          "type": "address"
        }
      ],
      "stateMutability": "view",
      "type": "function"
    },
    {
      "inputs": [
        {
          "internalType": "uint256",
          "name": "index",
          "type": "uint256"
        }
      ],
      "name": "getFunder",
      "outputs": [
        {
          "internalType": "address",
          "name": "",
          "type": "address"
        }
      ],
      "stateMutability": "view",
      "type": "function"
    },
    {
      "inputs": [],
      "name": "getIsGroupWithdrawal",
      "outputs": [
        {
          "internalType": "bool",
          "name": "",
          "type": "bool"
        }
      ],
      "stateMutability": "view",
      "type": "function"
    },
    {
      "inputs": [],
      "name": "getMinimumFundingAmount",
      "outputs": [
        {
          "internalType": "uint256",
          "name": "",
          "type": "uint256"
        }
      ],
      "stateMutability": "view",
      "type": "function"
    },
    {
      "inputs": [
        {
          "internalType": "bytes32",
          "name": "role",
          "type": "bytes32"
        }
      ],
      "name": "getRoleAdmin",
      "outputs": [
        {
          "internalType": "bytes32",
          "name": "",
          "type": "bytes32"
        }
      ],
      "stateMutability": "view",
      "type": "function"
    },
    {
      "inputs": [],
      "name": "getTotalAmount",
      "outputs": [
        {
          "internalType": "uint256",
          "name": "",
          "type": "uint256"
        }
      ],
      "stateMutability": "view",
      "type": "function"
    },
    {
      "inputs": [],
      "name": "getVestingPeriod",
      "outputs": [
        {
          "internalType": "uint256",
          "name": "",
          "type": "uint256"
        }
      ],
      "stateMutability": "view",
      "type": "function"
    },
    {
      "inputs": [],
      "name": "getWithdrawalFee",
      "outputs": [
        {
          "internalType": "uint256",
          "name": "",
          "type": "uint256"
        }
      ],
      "stateMutability": "view",
      "type": "function"
    },
    {
      "inputs": [
        {
          "internalType": "bytes32",
          "name": "role",
          "type": "bytes32"
        },
        {
          "internalType": "address",
          "name": "account",
          "type": "address"
        }
      ],
      "name": "grantRole",
      "outputs": [],
      "stateMutability": "nonpayable",
      "type": "function"
    },
    {
      "inputs": [
        {
          "internalType": "bytes32",
          "name": "role",
          "type": "bytes32"
        },
        {
          "internalType": "address",
          "name": "account",
          "type": "address"
        }
      ],
      "name": "hasRole",
      "outputs": [
        {
          "internalType": "bool",
          "name": "",
          "type": "bool"
        }
      ],
      "stateMutability": "view",
      "type": "function"
    },
    {
      "inputs": [
        {
          "internalType": "address",
          "name": "owner",
          "type": "address"
        },
        {
          "internalType": "address",
          "name": "operator",
          "type": "address"
        }
      ],
      "name": "isApprovedForAll",
      "outputs": [
        {
          "internalType": "bool",
          "name": "",
          "type": "bool"
        }
      ],
      "stateMutability": "view",
      "type": "function"
    },
    {
      "inputs": [],
      "name": "name",
      "outputs": [
        {
          "internalType": "string",
          "name": "",
          "type": "string"
        }
      ],
      "stateMutability": "view",
      "type": "function"
    },
    {
      "inputs": [
        {
          "internalType": "uint256",
          "name": "tokenId",
          "type": "uint256"
        }
      ],
      "name": "ownerOf",
      "outputs": [
        {
          "internalType": "address",
          "name": "",
          "type": "address"
        }
      ],
      "stateMutability": "view",
      "type": "function"
    },
    {
      "inputs": [
        {
          "internalType": "address",
          "name": "token",
          "type": "address"
        }
      ],
      "name": "releasable",
      "outputs": [
        {
          "internalType": "uint256",
          "name": "",
          "type": "uint256"
        }
      ],
      "stateMutability": "view",
      "type": "function"
    },
    {
      "inputs": [],
      "name": "releasable",
      "outputs": [
        {
          "internalType": "uint256",
          "name": "",
          "type": "uint256"
        }
      ],
      "stateMutability": "view",
      "type": "function"
    },
    {
      "inputs": [
        {
          "internalType": "address",
          "name": "token",
          "type": "address"
        }
      ],
      "name": "release",
      "outputs": [],
      "stateMutability": "nonpayable",
      "type": "function"
    },
    {
      "inputs": [],
      "name": "release",
      "outputs": [],
      "stateMutability": "nonpayable",
      "type": "function"
    },
    {
      "inputs": [],
      "name": "released",
      "outputs": [
        {
          "internalType": "uint256",
          "name": "",
          "type": "uint256"
        }
      ],
      "stateMutability": "view",
      "type": "function"
    },
    {
      "inputs": [
        {
          "internalType": "address",
          "name": "token",
          "type": "address"
        }
      ],
      "name": "released",
      "outputs": [
        {
          "internalType": "uint256",
          "name": "",
          "type": "uint256"
        }
      ],
      "stateMutability": "view",
      "type": "function"
    },
    {
      "inputs": [
        {
          "internalType": "bytes32",
          "name": "role",
          "type": "bytes32"
        },
        {
          "internalType": "address",
          "name": "account",
          "type": "address"
        }
      ],
      "name": "renounceRole",
      "outputs": [],
      "stateMutability": "nonpayable",
      "type": "function"
    },
    {
      "inputs": [
        {
          "internalType": "uint256",
          "name": "tokenId",
          "type": "uint256"
        }
      ],
      "name": "requestForWithdrawal",
      "outputs": [],
      "stateMutability": "nonpayable",
      "type": "function"
    },
    {
      "inputs": [
        {
          "internalType": "bytes32",
          "name": "role",
          "type": "bytes32"
        },
        {
          "internalType": "address",
          "name": "account",
          "type": "address"
        }
      ],
      "name": "revokeRole",
      "outputs": [],
      "stateMutability": "nonpayable",
      "type": "function"
    },
    {
      "inputs": [
        {
          "internalType": "address",
          "name": "from",
          "type": "address"
        },
        {
          "internalType": "address",
          "name": "to",
          "type": "address"
        },
        {
          "internalType": "uint256",
          "name": "tokenId",
          "type": "uint256"
        }
      ],
      "name": "safeTransferFrom",
      "outputs": [],
      "stateMutability": "nonpayable",
      "type": "function"
    },
    {
      "inputs": [
        {
          "internalType": "address",
          "name": "from",
          "type": "address"
        },
        {
          "internalType": "address",
          "name": "to",
          "type": "address"
        },
        {
          "internalType": "uint256",
          "name": "tokenId",
          "type": "uint256"
        },
        {
          "internalType": "bytes",
          "name": "data",
          "type": "bytes"
        }
      ],
      "name": "safeTransferFrom",
      "outputs": [],
      "stateMutability": "nonpayable",
      "type": "function"
    },
    {
      "inputs": [
        {
          "internalType": "address",
          "name": "operator",
          "type": "address"
        },
        {
          "internalType": "bool",
          "name": "approved",
          "type": "bool"
        }
      ],
      "name": "setApprovalForAll",
      "outputs": [],
      "stateMutability": "nonpayable",
      "type": "function"
    },
    {
      "inputs": [],
      "name": "start",
      "outputs": [
        {
          "internalType": "uint256",
          "name": "",
          "type": "uint256"
        }
      ],
      "stateMutability": "view",
      "type": "function"
    },
    {
      "inputs": [
        {
          "internalType": "bytes4",
          "name": "interfaceId",
          "type": "bytes4"
        }
      ],
      "name": "supportsInterface",
      "outputs": [
        {
          "internalType": "bool",
          "name": "",
          "type": "bool"
        }
      ],
      "stateMutability": "view",
      "type": "function"
    },
    {
      "inputs": [],
      "name": "symbol",
      "outputs": [
        {
          "internalType": "string",
          "name": "",
          "type": "string"
        }
      ],
      "stateMutability": "view",
      "type": "function"
    },
    {
      "inputs": [
        {
          "internalType": "uint256",
          "name": "",
          "type": "uint256"
        }
      ],
      "name": "tokenURI",
      "outputs": [
        {
          "internalType": "string",
          "name": "",
          "type": "string"
        }
      ],
      "stateMutability": "view",
      "type": "function"
    },
    {
      "inputs": [
        {
          "internalType": "address",
          "name": "from",
          "type": "address"
        },
        {
          "internalType": "address",
          "name": "to",
          "type": "address"
        },
        {
          "internalType": "uint256",
          "name": "tokenId",
          "type": "uint256"
        }
      ],
      "name": "transferFrom",
      "outputs": [],
      "stateMutability": "nonpayable",
      "type": "function"
    },
    {
      "inputs": [
        {
          "internalType": "bytes32[]",
          "name": "proof",
          "type": "bytes32[]"
        },
        {
          "internalType": "bytes32",
          "name": "root",
          "type": "bytes32"
        },
        {
          "internalType": "bytes32",
          "name": "leaf",
          "type": "bytes32"
        }
      ],
      "name": "verifyMerkleTree",
      "outputs": [
        {
          "internalType": "bool",
          "name": "",
          "type": "bool"
        }
      ],
      "stateMutability": "nonpayable",
      "type": "function"
    },
    {
      "inputs": [
        {
          "internalType": "uint64",
          "name": "timestamp",
          "type": "uint64"
        }
      ],
      "name": "vestedAmount",
      "outputs": [
        {
          "internalType": "uint256",
          "name": "",
          "type": "uint256"
        }
      ],
      "stateMutability": "view",
      "type": "function"
    },
    {
      "inputs": [
        {
          "internalType": "address",
          "name": "token",
          "type": "address"
        },
        {
          "internalType": "uint64",
          "name": "timestamp",
          "type": "uint64"
        }
      ],
      "name": "vestedAmount",
      "outputs": [
        {
          "internalType": "uint256",
          "name": "",
          "type": "uint256"
        }
      ],
      "stateMutability": "view",
      "type": "function"
    },
    {
      "inputs": [],
      "name": "withdrawFunds",
      "outputs": [],
      "stateMutability": "nonpayable",
      "type": "function"
    },
    {
      "inputs": [],
      "name": "withdrawalCheck",
      "outputs": [
        {
          "internalType": "bool",
          "name": "",
          "type": "bool"
        }
      ],
      "stateMutability": "nonpayable",
      "type": "function"
    },
    {
      "stateMutability": "payable",
      "type": "receive"
    }
  ],
  "bytecode": "0x6101406040523480156200001257600080fd5b5060405162002efe38038062002efe8339810160408190526200003591620001a2565b3382826040518060400160405280601481526020017f46756e64696e67436f6e7472616374546f6b656e000000000000000000000000815250604051806040016040528060038152602001621190d560ea1b81525081600090816200009b919062000356565b506001620000aa828262000356565b5050506001600160a01b0383166200011b5760405162461bcd60e51b815260206004820152602a60248201527f56657374696e6757616c6c65743a2062656e6566696369617279206973207a65604482015269726f206164647265737360b01b606482015260840160405180910390fd5b6001600160a01b039092166080526001600160401b0390811660a05290811660c05260e0879052610100869052841515610120528216600b55600c62000162848262000356565b5050505050505062000422565b634e487b7160e01b600052604160045260246000fd5b80516001600160401b03811681146200019d57600080fd5b919050565b60008060008060008060c08789031215620001bc57600080fd5b86519550602080880151955060408801518015158114620001dc57600080fd5b60608901519095506001600160401b0380821115620001fa57600080fd5b818a0191508a601f8301126200020f57600080fd5b8151818111156200022457620002246200016f565b604051601f8201601f19908116603f011681019083821181831017156200024f576200024f6200016f565b816040528281528d868487010111156200026857600080fd5b600093505b828410156200028c57848401860151818501870152928501926200026d565b6000868483010152809850505050505050620002ab6080880162000185565b9150620002bb60a0880162000185565b90509295509295509295565b600181811c90821680620002dc57607f821691505b602082108103620002fd57634e487b7160e01b600052602260045260246000fd5b50919050565b601f8211156200035157600081815260208120601f850160051c810160208610156200032c5750805b601f850160051c820191505b818110156200034d5782815560010162000338565b5050505b505050565b81516001600160401b038111156200037257620003726200016f565b6200038a81620003838454620002c7565b8462000303565b602080601f831160018114620003c25760008415620003a95750858301515b600019600386901b1c1916600185901b1785556200034d565b600085815260208120601f198616915b82811015620003f357888601518255948401946001909101908401620003d2565b5085821015620004125787850151600019600388901b60f8161c191681555b5050505050600190811b01905550565b60805160a05160c05160e0516101005161012051612a69620004956000396000818161062a01528181610a4701528181610be201526110220152600061076c01526000818161052301528181610e53015261138701526000610a220152600061125701526000610dea0152612a696000f3fe6080604052600436106102465760003560e01c80637dc4c2ba1161013f578063b88d4fde116100c1578063d8e159f81161007a578063d8e159f81461075d578063db06941e14610790578063e2c41dbc146107a5578063e985e9c5146107ad578063f88e3204146107cd578063fbccedae1461080157600080fd5b8063b88d4fde146106a3578063be9a6555146106c3578063c87b56dd146106d8578063d490ed75146106f8578063d547741f1461071d578063d7b4750c1461073d57600080fd5b80637dc4c2ba14610567578063810ec23b1461057c57806386d1a69f1461059c57806391d14854146105b157806395d89b41146105d157806396132521146105e65780639852595c146105fb5780639c885eb31461061b578063a217fddf1461064e578063a22cb46514610663578063a3f8eace1461068357600080fd5b806324600fc3116101c857806324600fc3146103f1578063248a9ca3146104065780632f2ff15d1461043657806334aedecd1461045657806336568abe1461048a57806338af3eed146104aa57806342842e0e146104bf5780634e71d92d146104df5780636352211e146104f457806365ac43411461051457806370a082311461054757600080fd5b806301ffc9a7146102525780630343fb251461028757806306fdde03146102cb578063081812fc146102ed578063095ea7b3146103255780630a17b06b146103475780630fb5a6b4146103675780631095941e1461037c5780631096cb791461039c57806319165587146103b157806323b872dd146103d157600080fd5b3661024d57005b600080fd5b34801561025e57600080fd5b5061027261026d366004612350565b610816565b60405190151581526020015b60405180910390f35b34801561029357600080fd5b506102bd6102a2366004612389565b6001600160a01b03166000908152600d602052604090205490565b60405190815260200161027e565b3480156102d757600080fd5b506102e0610827565b60405161027e91906123f4565b3480156102f957600080fd5b5061030d610308366004612407565b6108b9565b6040516001600160a01b03909116815260200161027e565b34801561033157600080fd5b50610345610340366004612420565b6108e0565b005b34801561035357600080fd5b506102bd610362366004612461565b6109fa565b34801561037357600080fd5b506102bd610a18565b34801561038857600080fd5b50610345610397366004612407565b610a45565b3480156103a857600080fd5b506102bd610ae5565b3480156103bd57600080fd5b506103456103cc366004612389565b610af4565b3480156103dd57600080fd5b506103456103ec36600461247c565b610b85565b3480156103fd57600080fd5b50610345610bb6565b34801561041257600080fd5b506102bd610421366004612407565b60009081526006602052604090206001015490565b34801561044257600080fd5b506103456104513660046124b8565b610d49565b34801561046257600080fd5b506102bd7f0914bb97ca83e85ef385857d9d418f187ff630589e0c9f44db92976d8e4519cb81565b34801561049657600080fd5b506103456104a53660046124b8565b610d6e565b3480156104b657600080fd5b5061030d610de8565b3480156104cb57600080fd5b506103456104da36600461247c565b610e0c565b3480156104eb57600080fd5b50610345610e27565b34801561050057600080fd5b5061030d61050f366004612407565b610f64565b34801561052057600080fd5b507f00000000000000000000000000000000000000000000000000000000000000006102bd565b34801561055357600080fd5b506102bd610562366004612389565b610f98565b34801561057357600080fd5b5061027261101e565b34801561058857600080fd5b506102bd6105973660046124e4565b6110a5565b3480156105a857600080fd5b5061034561112c565b3480156105bd57600080fd5b506102726105cc3660046124b8565b611196565b3480156105dd57600080fd5b506102e06111c1565b3480156105f257600080fd5b506007546102bd565b34801561060757600080fd5b506102bd610616366004612389565b6111d0565b34801561062757600080fd5b507f0000000000000000000000000000000000000000000000000000000000000000610272565b34801561065a57600080fd5b506102bd600081565b34801561066f57600080fd5b5061034561067e36600461251c565b6111eb565b34801561068f57600080fd5b506102bd61069e366004612389565b6111f6565b3480156106af57600080fd5b506103456106be366004612569565b611215565b3480156106cf57600080fd5b506102bd61124d565b3480156106e457600080fd5b506102e06106f3366004612407565b61127a565b34801561070457600080fd5b50610272610713366004612644565b6000949350505050565b34801561072957600080fd5b506103456107383660046124b8565b61130e565b34801561074957600080fd5b5061030d610758366004612407565b611333565b34801561076957600080fd5b507f00000000000000000000000000000000000000000000000000000000000000006102bd565b34801561079c57600080fd5b506102bd611363565b6103456113b4565b3480156107b957600080fd5b506102726107c83660046126c5565b611488565b3480156107d957600080fd5b506102bd7fef28dcbf06eb73add8f77665c46a6263e719f928f9c34710ec1097573ba6e20c81565b34801561080d57600080fd5b506102bd6114b6565b6000610821826114d4565b92915050565b606060008054610836906126ef565b80601f0160208091040260200160405190810160405280929190818152602001828054610862906126ef565b80156108af5780601f10610884576101008083540402835291602001916108af565b820191906000526020600020905b81548152906001019060200180831161089257829003601f168201915b5050505050905090565b60006108c4826114f9565b506000908152600460205260409020546001600160a01b031690565b60006108eb82610f64565b9050806001600160a01b0316836001600160a01b03160361095d5760405162461bcd60e51b815260206004820152602160248201527f4552433732313a20617070726f76616c20746f2063757272656e74206f776e656044820152603960f91b60648201526084015b60405180910390fd5b336001600160a01b038216148061097957506109798133611488565b6109eb5760405162461bcd60e51b815260206004820152603d60248201527f4552433732313a20617070726f76652063616c6c6572206973206e6f7420746f60448201527f6b656e206f776e6572206f7220617070726f76656420666f7220616c6c0000006064820152608401610954565b6109f5838361151e565b505050565b6000610821610a0860075490565b610a12904761273f565b8361158c565b6001600160401b037f00000000000000000000000000000000000000000000000000000000000000001690565b7f0000000000000000000000000000000000000000000000000000000000000000610a835760405163568fd53960e11b815260040160405180910390fd5b6000818152600f602090815260408083203384529091529020805460ff19166001179055610ab5600a80546001019055565b604051339082907f0fc8b6fcb2f497709c22d28a739a7c1af51a838def68b9e27ed2dabec6fc60ea90600090a350565b6000610aef610a18565b905090565b6000610aff826111f6565b6001600160a01b038316600090815260086020526040812080549293508392909190610b2c90849061273f565b90915550506040518181526001600160a01b038316907fc0e523490dd523c33b1878c9eb14ff46991e3f5b2cd33710918618f2a39cba1b9060200160405180910390a2610b8182610b7b610de8565b8361161d565b5050565b610b8f338261166f565b610bab5760405162461bcd60e51b815260040161095490612752565b6109f58383836116ce565b7f0914bb97ca83e85ef385857d9d418f187ff630589e0c9f44db92976d8e4519cb610be08161183f565b7f000000000000000000000000000000000000000000000000000000000000000015610c6c57610c0e61101e565b610c6c5760405162461bcd60e51b815260206004820152602960248201527f5468657265206973206e6f206d616a6f7269747920617070726f76616c20746f60448201526820776974686472617760b81b6064820152608401610954565b6000610c7661124d565b610c80904261279f565b9050610c8a610a18565b816001600160401b03161115610c9f57600080fd5b6000610caa826109fa565b604051909150600090339083908381818185875af1925050503d8060008114610cef576040519150601f19603f3d011682016040523d82523d6000602084013e610cf4565b606091505b5050905080610d1657604051639af25e5d60e01b815260040160405180910390fd5b604051829033907fd7d7cc3c005efe228d9482e7be336bc7174fd6097c03fe43d13655005bbd46f790600090a350505050565b600082815260066020526040902060010154610d648161183f565b6109f58383611849565b6001600160a01b0381163314610dde5760405162461bcd60e51b815260206004820152602f60248201527f416363657373436f6e74726f6c3a2063616e206f6e6c792072656e6f756e636560448201526e103937b632b9903337b91039b2b63360891b6064820152608401610954565b610b8182826118cf565b7f000000000000000000000000000000000000000000000000000000000000000090565b6109f583838360405180602001604052806000815250611215565b7fef28dcbf06eb73add8f77665c46a6263e719f928f9c34710ec1097573ba6e20c610e518161183f565b7f0000000000000000000000000000000000000000000000000000000000000000610e7b60075490565b03610ed35760405162461bcd60e51b815260206004820152602260248201527f596f75206861766520636c61696d65642074686520656e7469726520616d6f756044820152611b9d60f21b6064820152608401610954565b6000610edd6114b6565b1015610f2b5760405162461bcd60e51b815260206004820181905260248201527f596f7520646f206e6f7420686176652072656c65617361626c652066756e64736044820152606401610954565b610f3361112c565b60075460405133907fcebf6e87c3f2bd4df41bc6e2e842495680906affd0e429f056fba0989a08537c90600090a350565b600080610f7083611936565b90506001600160a01b0381166108215760405162461bcd60e51b8152600401610954906127b2565b60006001600160a01b0382166110025760405162461bcd60e51b815260206004820152602960248201527f4552433732313a2061646472657373207a65726f206973206e6f7420612076616044820152683634b21037bbb732b960b91b6064820152608401610954565b506001600160a01b031660009081526003602052604090205490565b60007f000000000000000000000000000000000000000000000000000000000000000061105e5760405163568fd53960e11b815260040160405180910390fd5b6000611069600a5490565b600e5490915060009061108a9060649061108490603c611951565b9061195d565b905080821061109c5760019250505090565b60009250505090565b60006111256110b3846111d0565b6040516370a0823160e01b81523060048201526001600160a01b038616906370a0823190602401602060405180830381865afa1580156110f7573d6000803e3d6000fd5b505050506040513d601f19601f8201168201806040525081019061111b91906127e4565b610a12919061273f565b9392505050565b60006111366114b6565b9050806007600082825461114a919061273f565b90915550506040518181527fda9d4e5f101b8b9b1c5b76d0c5a9f7923571acfc02376aa076b75a8c080c956b9060200160405180910390a161119361118d610de8565b82611969565b50565b60009182526006602090815260408084206001600160a01b0393909316845291905290205460ff1690565b606060018054610836906126ef565b6001600160a01b031660009081526008602052604090205490565b610b81338383611a7f565b6000611201826111d0565b61120b83426110a5565b610821919061279f565b61121f338361166f565b61123b5760405162461bcd60e51b815260040161095490612752565b61124784848484611b49565b50505050565b6001600160401b037f00000000000000000000000000000000000000000000000000000000000000001690565b6060600c8054611289906126ef565b80601f01602080910402602001604051908101604052809291908181526020018280546112b5906126ef565b80156113025780601f106112d757610100808354040283529160200191611302565b820191906000526020600020905b8154815290600101906020018083116112e557829003601f168201915b50505050509050919050565b6000828152600660205260409020600101546113298161183f565b6109f583836118cf565b6000600e8281548110611348576113486127fd565b6000918252602090912001546001600160a01b031692915050565b60008061136e610a18565b905062278d006000611380838361195d565b90506113ac7f00000000000000000000000000000000000000000000000000000000000000008261195d565b935050505090565b60006113be611363565b905060006113cb60095490565b90508134116113ed5760405163cf463cf960e01b815260040160405180910390fd5b336000818152600d60205260408120349055600e805460018101825591527fbb7b4a454dc3493923482f07822329ed19e8244eff582cc204f8554c3620c3fd0180546001600160a01b031916821790556114479082611b7c565b611455600980546001019055565b6040513490339083907fe030e47e27825a2ad1b19e4cf2e70bfbfb3124af275c7727a82b114ba7b29a8590600090a45050565b6001600160a01b03918216600090815260056020908152604080832093909416825291909152205460ff1690565b60006114c160075490565b6114ca426109fa565b610aef919061279f565b60006001600160e01b03198216637965db0b60e01b1480610821575061082182611b96565b61150281611be6565b6111935760405162461bcd60e51b8152600401610954906127b2565b600081815260046020526040902080546001600160a01b0319166001600160a01b038416908117909155819061155382610f64565b6001600160a01b03167f8c5be1e5ebec7d5bd14f71427d1e84f3dd0314c0f7b2291e5b200ac8c7c3b92560405160405180910390a45050565b600061159661124d565b826001600160401b031610156115ae57506000610821565b6115b6610a18565b6115be61124d565b6115c8919061273f565b826001600160401b031611156115df575081610821565b6115e7610a18565b6115ef61124d565b611602906001600160401b03851661279f565b61160c9085612813565b611616919061282a565b9050610821565b604080516001600160a01b038416602482015260448082018490528251808303909101815260649091019091526020810180516001600160e01b031663a9059cbb60e01b1790526109f5908490611c03565b60008061167b83610f64565b9050806001600160a01b0316846001600160a01b031614806116a257506116a28185611488565b806116c65750836001600160a01b03166116bb846108b9565b6001600160a01b0316145b949350505050565b826001600160a01b03166116e182610f64565b6001600160a01b0316146117075760405162461bcd60e51b81526004016109549061284c565b6001600160a01b0382166117695760405162461bcd60e51b8152602060048201526024808201527f4552433732313a207472616e7366657220746f20746865207a65726f206164646044820152637265737360e01b6064820152608401610954565b6117768383836001611cd5565b826001600160a01b031661178982610f64565b6001600160a01b0316146117af5760405162461bcd60e51b81526004016109549061284c565b600081815260046020908152604080832080546001600160a01b03199081169091556001600160a01b0387811680865260038552838620805460001901905590871680865283862080546001019055868652600290945282852080549092168417909155905184937fddf252ad1be2c89b69c2b068fc378daa952ba7f163c4a11628f55a4df523b3ef91a4505050565b6111938133611d5d565b6118538282611196565b610b815760008281526006602090815260408083206001600160a01b03851684529091529020805460ff1916600117905561188b3390565b6001600160a01b0316816001600160a01b0316837f2f8788117e7eff1d82e926ec794901d17c78024a50270940304540a733656f0d60405160405180910390a45050565b6118d98282611196565b15610b815760008281526006602090815260408083206001600160a01b0385168085529252808320805460ff1916905551339285917ff6391f5c32d9c69d2a47ea670b442974b53935d1edc7fd64eb21e047a839171b9190a45050565b6000908152600260205260409020546001600160a01b031690565b60006111258284612813565b6000611125828461282a565b804710156119b95760405162461bcd60e51b815260206004820152601d60248201527f416464726573733a20696e73756666696369656e742062616c616e63650000006044820152606401610954565b6000826001600160a01b03168260405160006040518083038185875af1925050503d8060008114611a06576040519150601f19603f3d011682016040523d82523d6000602084013e611a0b565b606091505b50509050806109f55760405162461bcd60e51b815260206004820152603a60248201527f416464726573733a20756e61626c6520746f2073656e642076616c75652c20726044820152791958da5c1a595b9d081b585e481a185d99481c995d995c9d195960321b6064820152608401610954565b816001600160a01b0316836001600160a01b031603611adc5760405162461bcd60e51b815260206004820152601960248201527822a9219b99189d1030b8383937bb32903a379031b0b63632b960391b6044820152606401610954565b6001600160a01b03838116600081815260056020908152604080832094871680845294825291829020805460ff191686151590811790915591519182527f17307eab39ab6107e8899845ad3d59bd9653f200f220920489ca2b5937696c31910160405180910390a3505050565b611b548484846116ce565b611b6084848484611db6565b6112475760405162461bcd60e51b815260040161095490612891565b610b81828260405180602001604052806000815250611eb7565b60006001600160e01b031982166380ac58cd60e01b1480611bc757506001600160e01b03198216635b5e139f60e01b145b8061082157506301ffc9a760e01b6001600160e01b0319831614610821565b600080611bf283611936565b6001600160a01b0316141592915050565b6000611c58826040518060400160405280602081526020017f5361666545524332303a206c6f772d6c6576656c2063616c6c206661696c6564815250856001600160a01b0316611eea9092919063ffffffff16565b8051909150156109f55780806020019051810190611c7691906128e3565b6109f55760405162461bcd60e51b815260206004820152602a60248201527f5361666545524332303a204552433230206f7065726174696f6e20646964206e6044820152691bdd081cdd58d8d9595960b21b6064820152608401610954565b6001811115611247576001600160a01b03841615611d1b576001600160a01b03841660009081526003602052604081208054839290611d1590849061279f565b90915550505b6001600160a01b03831615611247576001600160a01b03831660009081526003602052604081208054839290611d5290849061273f565b909155505050505050565b611d678282611196565b610b8157611d7481611ef9565b611d7f836020611f0b565b604051602001611d90929190612900565b60408051601f198184030181529082905262461bcd60e51b8252610954916004016123f4565b60006001600160a01b0384163b15611eac57604051630a85bd0160e11b81526001600160a01b0385169063150b7a0290611dfa90339089908890889060040161296f565b6020604051808303816000875af1925050508015611e35575060408051601f3d908101601f19168201909252611e32918101906129ac565b60015b611e92573d808015611e63576040519150601f19603f3d011682016040523d82523d6000602084013e611e68565b606091505b508051600003611e8a5760405162461bcd60e51b815260040161095490612891565b805181602001fd5b6001600160e01b031916630a85bd0160e11b1490506116c6565b506001949350505050565b611ec183836120a6565b611ece6000848484611db6565b6109f55760405162461bcd60e51b815260040161095490612891565b60606116c684846000856121c1565b60606108216001600160a01b03831660145b60606000611f1a836002612813565b611f2590600261273f565b6001600160401b03811115611f3c57611f3c612553565b6040519080825280601f01601f191660200182016040528015611f66576020820181803683370190505b509050600360fc1b81600081518110611f8157611f816127fd565b60200101906001600160f81b031916908160001a905350600f60fb1b81600181518110611fb057611fb06127fd565b60200101906001600160f81b031916908160001a9053506000611fd4846002612813565b611fdf90600161273f565b90505b6001811115612057576f181899199a1a9b1b9c1cb0b131b232b360811b85600f1660108110612013576120136127fd565b1a60f81b828281518110612029576120296127fd565b60200101906001600160f81b031916908160001a90535060049490941c93612050816129c9565b9050611fe2565b5083156111255760405162461bcd60e51b815260206004820181905260248201527f537472696e67733a20686578206c656e67746820696e73756666696369656e746044820152606401610954565b6001600160a01b0382166120fc5760405162461bcd60e51b815260206004820181905260248201527f4552433732313a206d696e7420746f20746865207a65726f20616464726573736044820152606401610954565b61210581611be6565b156121225760405162461bcd60e51b8152600401610954906129e0565b612130600083836001611cd5565b61213981611be6565b156121565760405162461bcd60e51b8152600401610954906129e0565b6001600160a01b038216600081815260036020908152604080832080546001019055848352600290915280822080546001600160a01b0319168417905551839291907fddf252ad1be2c89b69c2b068fc378daa952ba7f163c4a11628f55a4df523b3ef908290a45050565b6060824710156122225760405162461bcd60e51b815260206004820152602660248201527f416464726573733a20696e73756666696369656e742062616c616e636520666f6044820152651c8818d85b1b60d21b6064820152608401610954565b600080866001600160a01b0316858760405161223e9190612a17565b60006040518083038185875af1925050503d806000811461227b576040519150601f19603f3d011682016040523d82523d6000602084013e612280565b606091505b50915091506122918783838761229c565b979650505050505050565b6060831561230b578251600003612304576001600160a01b0385163b6123045760405162461bcd60e51b815260206004820152601d60248201527f416464726573733a2063616c6c20746f206e6f6e2d636f6e74726163740000006044820152606401610954565b50816116c6565b6116c683838151156123205781518083602001fd5b8060405162461bcd60e51b815260040161095491906123f4565b6001600160e01b03198116811461119357600080fd5b60006020828403121561236257600080fd5b81356111258161233a565b80356001600160a01b038116811461238457600080fd5b919050565b60006020828403121561239b57600080fd5b6111258261236d565b60005b838110156123bf5781810151838201526020016123a7565b50506000910152565b600081518084526123e08160208601602086016123a4565b601f01601f19169290920160200192915050565b60208152600061112560208301846123c8565b60006020828403121561241957600080fd5b5035919050565b6000806040838503121561243357600080fd5b61243c8361236d565b946020939093013593505050565b80356001600160401b038116811461238457600080fd5b60006020828403121561247357600080fd5b6111258261244a565b60008060006060848603121561249157600080fd5b61249a8461236d565b92506124a86020850161236d565b9150604084013590509250925092565b600080604083850312156124cb57600080fd5b823591506124db6020840161236d565b90509250929050565b600080604083850312156124f757600080fd5b6125008361236d565b91506124db6020840161244a565b801515811461119357600080fd5b6000806040838503121561252f57600080fd5b6125388361236d565b915060208301356125488161250e565b809150509250929050565b634e487b7160e01b600052604160045260246000fd5b6000806000806080858703121561257f57600080fd5b6125888561236d565b93506125966020860161236d565b92506040850135915060608501356001600160401b03808211156125b957600080fd5b818701915087601f8301126125cd57600080fd5b8135818111156125df576125df612553565b604051601f8201601f19908116603f0116810190838211818310171561260757612607612553565b816040528281528a602084870101111561262057600080fd5b82602086016020830137600060208483010152809550505050505092959194509250565b6000806000806060858703121561265a57600080fd5b84356001600160401b038082111561267157600080fd5b818701915087601f83011261268557600080fd5b81358181111561269457600080fd5b8860208260051b85010111156126a957600080fd5b6020928301999098509187013596604001359550909350505050565b600080604083850312156126d857600080fd5b6126e18361236d565b91506124db6020840161236d565b600181811c9082168061270357607f821691505b60208210810361272357634e487b7160e01b600052602260045260246000fd5b50919050565b634e487b7160e01b600052601160045260246000fd5b8082018082111561082157610821612729565b6020808252602d908201527f4552433732313a2063616c6c6572206973206e6f7420746f6b656e206f776e6560408201526c1c881bdc88185c1c1c9bdd9959609a1b606082015260800190565b8181038181111561082157610821612729565b602080825260189082015277115490cdcc8c4e881a5b9d985b1a59081d1bdad95b88125160421b604082015260600190565b6000602082840312156127f657600080fd5b5051919050565b634e487b7160e01b600052603260045260246000fd5b808202811582820484141761082157610821612729565b60008261284757634e487b7160e01b600052601260045260246000fd5b500490565b60208082526025908201527f4552433732313a207472616e736665722066726f6d20696e636f72726563742060408201526437bbb732b960d91b606082015260800190565b60208082526032908201527f4552433732313a207472616e7366657220746f206e6f6e20455243373231526560408201527131b2b4bb32b91034b6b83632b6b2b73a32b960711b606082015260800190565b6000602082840312156128f557600080fd5b81516111258161250e565b76020b1b1b2b9b9a1b7b73a3937b61d1030b1b1b7bab73a1604d1b8152600083516129328160178501602088016123a4565b7001034b99036b4b9b9b4b733903937b6329607d1b60179184019182015283516129638160288401602088016123a4565b01602801949350505050565b6001600160a01b03858116825284166020820152604081018390526080606082018190526000906129a2908301846123c8565b9695505050505050565b6000602082840312156129be57600080fd5b81516111258161233a565b6000816129d8576129d8612729565b506000190190565b6020808252601c908201527f4552433732313a20746f6b656e20616c7265616479206d696e74656400000000604082015260600190565b60008251612a298184602087016123a4565b919091019291505056fea2646970667358221220d87c543700d5322984e713d193f85f2b064e061f0fc283a6ae83de421d7b5f2464736f6c63430008110033",
  "linkReferences": {},
  "deployedLinkReferences": {}
}