{
  "_format": "hh-sol-artifact-1",
  "contractName": "FundingContract",
  "sourceName": "contracts/FundingContract.sol",
  "abi": [
    {
      "inputs": [],
      "stateMutability": "nonpayable",
      "type": "constructor"
    },
    {
      "inputs": [],
      "name": "FundingContract__NotEnoughETH",
      "type": "error"
    },
    {
      "inputs": [],
      "name": "FundingContract__NotGroupFunding",
      "type": "error"
    },
    {
      "inputs": [],
      "name": "FundingContract__TransferFailed",
      "type": "error"
    },
    {
      "anonymous": false,
      "inputs": [
        {
          "indexed": true,
          "internalType": "address",
          "name": "owner",
          "type": "address"
        },
        {
          "indexed": true,
          "internalType": "address",
          "name": "approved",
          "type": "address"
        },
        {
          "indexed": true,
          "internalType": "uint256",
          "name": "tokenId",
          "type": "uint256"
        }
      ],
      "name": "Approval",
      "type": "event"
    },
    {
      "anonymous": false,
      "inputs": [
        {
          "indexed": true,
          "internalType": "address",
          "name": "owner",
          "type": "address"
        },
        {
          "indexed": true,
          "internalType": "address",
          "name": "operator",
          "type": "address"
        },
        {
          "indexed": false,
          "internalType": "bool",
          "name": "approved",
          "type": "bool"
        }
      ],
      "name": "ApprovalForAll",
      "type": "event"
    },
    {
      "anonymous": false,
      "inputs": [
        {
          "indexed": true,
          "internalType": "address",
          "name": "previousOwner",
          "type": "address"
        },
        {
          "indexed": true,
          "internalType": "address",
          "name": "newOwner",
          "type": "address"
        }
      ],
      "name": "OwnershipTransferred",
      "type": "event"
    },
    {
      "anonymous": false,
      "inputs": [
        {
          "indexed": true,
          "internalType": "address",
          "name": "from",
          "type": "address"
        },
        {
          "indexed": true,
          "internalType": "address",
          "name": "to",
          "type": "address"
        },
        {
          "indexed": true,
          "internalType": "uint256",
          "name": "tokenId",
          "type": "uint256"
        }
      ],
      "name": "Transfer",
      "type": "event"
    },
    {
      "inputs": [
        {
          "internalType": "address",
          "name": "to",
          "type": "address"
        },
        {
          "internalType": "uint256",
          "name": "tokenId",
          "type": "uint256"
        }
      ],
      "name": "approve",
      "outputs": [],
      "stateMutability": "nonpayable",
      "type": "function"
    },
    {
      "inputs": [
        {
          "internalType": "address",
          "name": "owner",
          "type": "address"
        }
      ],
      "name": "balanceOf",
      "outputs": [
        {
          "internalType": "uint256",
          "name": "",
          "type": "uint256"
        }
      ],
      "stateMutability": "view",
      "type": "function"
    },
    {
      "inputs": [],
      "name": "claim",
      "outputs": [],
      "stateMutability": "nonpayable",
      "type": "function"
    },
    {
      "inputs": [],
      "name": "depositFunds",
      "outputs": [],
      "stateMutability": "payable",
      "type": "function"
    },
    {
      "inputs": [
        {
          "internalType": "address",
          "name": "funder",
          "type": "address"
        }
      ],
      "name": "getAddressToAmountFunded",
      "outputs": [
        {
          "internalType": "uint256",
          "name": "",
          "type": "uint256"
        }
      ],
      "stateMutability": "view",
      "type": "function"
    },
    {
      "inputs": [
        {
          "internalType": "uint256",
          "name": "tokenId",
          "type": "uint256"
        }
      ],
      "name": "getApproved",
      "outputs": [
        {
          "internalType": "address",
          "name": "",
          "type": "address"
        }
      ],
      "stateMutability": "view",
      "type": "function"
    },
    {
      "inputs": [
        {
          "internalType": "uint256",
          "name": "index",
          "type": "uint256"
        }
      ],
      "name": "getFunder",
      "outputs": [
        {
          "internalType": "address",
          "name": "",
          "type": "address"
        }
      ],
      "stateMutability": "view",
      "type": "function"
    },
    {
      "inputs": [],
      "name": "getIsGroupWithdrawal",
      "outputs": [
        {
          "internalType": "bool",
          "name": "",
          "type": "bool"
        }
      ],
      "stateMutability": "view",
      "type": "function"
    },
    {
      "inputs": [],
      "name": "getMinimumFundingAmount",
      "outputs": [
        {
          "internalType": "uint256",
          "name": "",
          "type": "uint256"
        }
      ],
      "stateMutability": "view",
      "type": "function"
    },
    {
      "inputs": [],
      "name": "getTotalAmount",
      "outputs": [
        {
          "internalType": "uint256",
          "name": "",
          "type": "uint256"
        }
      ],
      "stateMutability": "view",
      "type": "function"
    },
    {
      "inputs": [],
      "name": "getVestingPeriod",
      "outputs": [
        {
          "internalType": "uint256",
          "name": "",
          "type": "uint256"
        }
      ],
      "stateMutability": "view",
      "type": "function"
    },
    {
      "inputs": [],
      "name": "getWithdrawalFee",
      "outputs": [
        {
          "internalType": "uint256",
          "name": "",
          "type": "uint256"
        }
      ],
      "stateMutability": "view",
      "type": "function"
    },
    {
      "inputs": [
        {
          "internalType": "address",
          "name": "owner",
          "type": "address"
        },
        {
          "internalType": "address",
          "name": "operator",
          "type": "address"
        }
      ],
      "name": "isApprovedForAll",
      "outputs": [
        {
          "internalType": "bool",
          "name": "",
          "type": "bool"
        }
      ],
      "stateMutability": "view",
      "type": "function"
    },
    {
      "inputs": [],
      "name": "name",
      "outputs": [
        {
          "internalType": "string",
          "name": "",
          "type": "string"
        }
      ],
      "stateMutability": "view",
      "type": "function"
    },
    {
      "inputs": [],
      "name": "owner",
      "outputs": [
        {
          "internalType": "address",
          "name": "",
          "type": "address"
        }
      ],
      "stateMutability": "view",
      "type": "function"
    },
    {
      "inputs": [
        {
          "internalType": "uint256",
          "name": "tokenId",
          "type": "uint256"
        }
      ],
      "name": "ownerOf",
      "outputs": [
        {
          "internalType": "address",
          "name": "",
          "type": "address"
        }
      ],
      "stateMutability": "view",
      "type": "function"
    },
    {
      "inputs": [],
      "name": "renounceOwnership",
      "outputs": [],
      "stateMutability": "nonpayable",
      "type": "function"
    },
    {
      "inputs": [
        {
          "internalType": "uint256",
          "name": "tokenId",
          "type": "uint256"
        }
      ],
      "name": "requestForWithdrawal",
      "outputs": [],
      "stateMutability": "nonpayable",
      "type": "function"
    },
    {
      "inputs": [
        {
          "internalType": "address",
          "name": "from",
          "type": "address"
        },
        {
          "internalType": "address",
          "name": "to",
          "type": "address"
        },
        {
          "internalType": "uint256",
          "name": "tokenId",
          "type": "uint256"
        }
      ],
      "name": "safeTransferFrom",
      "outputs": [],
      "stateMutability": "nonpayable",
      "type": "function"
    },
    {
      "inputs": [
        {
          "internalType": "address",
          "name": "from",
          "type": "address"
        },
        {
          "internalType": "address",
          "name": "to",
          "type": "address"
        },
        {
          "internalType": "uint256",
          "name": "tokenId",
          "type": "uint256"
        },
        {
          "internalType": "bytes",
          "name": "data",
          "type": "bytes"
        }
      ],
      "name": "safeTransferFrom",
      "outputs": [],
      "stateMutability": "nonpayable",
      "type": "function"
    },
    {
      "inputs": [
        {
          "internalType": "address",
          "name": "operator",
          "type": "address"
        },
        {
          "internalType": "bool",
          "name": "approved",
          "type": "bool"
        }
      ],
      "name": "setApprovalForAll",
      "outputs": [],
      "stateMutability": "nonpayable",
      "type": "function"
    },
    {
      "inputs": [
        {
          "internalType": "bytes4",
          "name": "interfaceId",
          "type": "bytes4"
        }
      ],
      "name": "supportsInterface",
      "outputs": [
        {
          "internalType": "bool",
          "name": "",
          "type": "bool"
        }
      ],
      "stateMutability": "view",
      "type": "function"
    },
    {
      "inputs": [],
      "name": "symbol",
      "outputs": [
        {
          "internalType": "string",
          "name": "",
          "type": "string"
        }
      ],
      "stateMutability": "view",
      "type": "function"
    },
    {
      "inputs": [
        {
          "internalType": "uint256",
          "name": "tokenId",
          "type": "uint256"
        }
      ],
      "name": "tokenURI",
      "outputs": [
        {
          "internalType": "string",
          "name": "",
          "type": "string"
        }
      ],
      "stateMutability": "view",
      "type": "function"
    },
    {
      "inputs": [
        {
          "internalType": "address",
          "name": "from",
          "type": "address"
        },
        {
          "internalType": "address",
          "name": "to",
          "type": "address"
        },
        {
          "internalType": "uint256",
          "name": "tokenId",
          "type": "uint256"
        }
      ],
      "name": "transferFrom",
      "outputs": [],
      "stateMutability": "nonpayable",
      "type": "function"
    },
    {
      "inputs": [
        {
          "internalType": "address",
          "name": "newOwner",
          "type": "address"
        }
      ],
      "name": "transferOwnership",
      "outputs": [],
      "stateMutability": "nonpayable",
      "type": "function"
    },
    {
      "inputs": [],
      "name": "withdrawFunds",
      "outputs": [],
      "stateMutability": "nonpayable",
      "type": "function"
    },
    {
      "inputs": [],
      "name": "withdrawalCheck",
      "outputs": [
        {
          "internalType": "bool",
          "name": "",
          "type": "bool"
        }
      ],
      "stateMutability": "nonpayable",
      "type": "function"
    },
    {
      "stateMutability": "payable",
      "type": "receive"
    }
  ],
  "bytecode": "0x60806040523480156200001157600080fd5b506040518060400160405280601481526020017f46756e64696e67436f6e7472616374546f6b656e0000000000000000000000008152506040518060400160405280600381526020017f464354000000000000000000000000000000000000000000000000000000000081525081600090816200008f919062000412565b508060019081620000a1919062000412565b505050620000c4620000b8620000ca60201b60201c565b620000d260201b60201c565b620004f9565b600033905090565b6000600660009054906101000a900473ffffffffffffffffffffffffffffffffffffffff16905081600660006101000a81548173ffffffffffffffffffffffffffffffffffffffff021916908373ffffffffffffffffffffffffffffffffffffffff1602179055508173ffffffffffffffffffffffffffffffffffffffff168173ffffffffffffffffffffffffffffffffffffffff167f8be0079c531659141344cd1fd0a4f28419497f9722a3daafe3b4186f6b6457e060405160405180910390a35050565b600081519050919050565b7f4e487b7100000000000000000000000000000000000000000000000000000000600052604160045260246000fd5b7f4e487b7100000000000000000000000000000000000000000000000000000000600052602260045260246000fd5b600060028204905060018216806200021a57607f821691505b60208210810362000230576200022f620001d2565b5b50919050565b60008190508160005260206000209050919050565b60006020601f8301049050919050565b600082821b905092915050565b6000600883026200029a7fffffffffffffffffffffffffffffffffffffffffffffffffffffffffffffffff826200025b565b620002a686836200025b565b95508019841693508086168417925050509392505050565b6000819050919050565b6000819050919050565b6000620002f3620002ed620002e784620002be565b620002c8565b620002be565b9050919050565b6000819050919050565b6200030f83620002d2565b620003276200031e82620002fa565b84845462000268565b825550505050565b600090565b6200033e6200032f565b6200034b81848462000304565b505050565b5b8181101562000373576200036760008262000334565b60018101905062000351565b5050565b601f821115620003c2576200038c8162000236565b62000397846200024b565b81016020851015620003a7578190505b620003bf620003b6856200024b565b83018262000350565b50505b505050565b600082821c905092915050565b6000620003e760001984600802620003c7565b1980831691505092915050565b6000620004028383620003d4565b9150826002028217905092915050565b6200041d8262000198565b67ffffffffffffffff811115620004395762000438620001a3565b5b62000445825462000201565b6200045282828562000377565b600060209050601f8311600181146200048a576000841562000475578287015190505b620004818582620003f4565b865550620004f1565b601f1984166200049a8662000236565b60005b82811015620004c4578489015182556001820191506020850194506020810190506200049d565b86831015620004e45784890151620004e0601f891682620003d4565b8355505b6001600288020188555050505b505050505050565b61306480620005096000396000f3fe6080604052600436106101bb5760003560e01c8063715018a6116100ec578063c87b56dd1161008a578063db06941e11610064578063db06941e14610605578063e2c41dbc14610630578063e985e9c51461063a578063f2fde38b14610677576101c2565b8063c87b56dd14610560578063d7b4750c1461059d578063d8e159f8146105da576101c2565b806395d89b41116100c657806395d89b41146104b85780639c885eb3146104e3578063a22cb4651461050e578063b88d4fde14610537576101c2565b8063715018a61461044b5780637dc4c2ba146104625780638da5cb5b1461048d576101c2565b806323b872dd116101595780634e71d92d116101335780634e71d92d1461038f5780636352211e146103a657806365ac4341146103e357806370a082311461040e576101c2565b806323b872dd1461032657806324600fc31461034f57806342842e0e14610366576101c2565b8063081812fc11610195578063081812fc1461026c578063095ea7b3146102a95780631095941e146102d25780631096cb79146102fb576101c2565b806301ffc9a7146101c75780630343fb251461020457806306fdde0314610241576101c2565b366101c257005b600080fd5b3480156101d357600080fd5b506101ee60048036038101906101e991906120b1565b6106a0565b6040516101fb91906120f9565b60405180910390f35b34801561021057600080fd5b5061022b60048036038101906102269190612172565b610782565b60405161023891906121b8565b60405180910390f35b34801561024d57600080fd5b506102566107cb565b6040516102639190612263565b60405180910390f35b34801561027857600080fd5b50610293600480360381019061028e91906122b1565b61085d565b6040516102a091906122ed565b60405180910390f35b3480156102b557600080fd5b506102d060048036038101906102cb9190612308565b6108a3565b005b3480156102de57600080fd5b506102f960048036038101906102f491906122b1565b6109ba565b005b34801561030757600080fd5b50610310610a76565b60405161031d91906121b8565b60405180910390f35b34801561033257600080fd5b5061034d60048036038101906103489190612348565b610a80565b005b34801561035b57600080fd5b50610364610ae0565b005b34801561037257600080fd5b5061038d60048036038101906103889190612348565b610bf1565b005b34801561039b57600080fd5b506103a4610c11565b005b3480156103b257600080fd5b506103cd60048036038101906103c891906122b1565b610c13565b6040516103da91906122ed565b60405180910390f35b3480156103ef57600080fd5b506103f8610c99565b60405161040591906121b8565b60405180910390f35b34801561041a57600080fd5b5061043560048036038101906104309190612172565b610ca3565b60405161044291906121b8565b60405180910390f35b34801561045757600080fd5b50610460610d5a565b005b34801561046e57600080fd5b50610477610d6e565b60405161048491906120f9565b60405180910390f35b34801561049957600080fd5b506104a2610e10565b6040516104af91906122ed565b60405180910390f35b3480156104c457600080fd5b506104cd610e3a565b6040516104da9190612263565b60405180910390f35b3480156104ef57600080fd5b506104f8610ecc565b60405161050591906120f9565b60405180910390f35b34801561051a57600080fd5b50610535600480360381019061053091906123c7565b610ee3565b005b34801561054357600080fd5b5061055e6004803603810190610559919061253c565b610ef9565b005b34801561056c57600080fd5b50610587600480360381019061058291906122b1565b610f5b565b6040516105949190612263565b60405180910390f35b3480156105a957600080fd5b506105c460048036038101906105bf91906122b1565b610f62565b6040516105d191906122ed565b60405180910390f35b3480156105e657600080fd5b506105ef610faa565b6040516105fc91906121b8565b60405180910390f35b34801561061157600080fd5b5061061a610fb4565b60405161062791906121b8565b60405180910390f35b610638610fd2565b005b34801561064657600080fd5b50610661600480360381019061065c91906125bf565b6110e4565b60405161066e91906120f9565b60405180910390f35b34801561068357600080fd5b5061069e60048036038101906106999190612172565b611178565b005b60007f80ac58cd000000000000000000000000000000000000000000000000000000007bffffffffffffffffffffffffffffffffffffffffffffffffffffffff1916827bffffffffffffffffffffffffffffffffffffffffffffffffffffffff1916148061076b57507f5b5e139f000000000000000000000000000000000000000000000000000000007bffffffffffffffffffffffffffffffffffffffffffffffffffffffff1916827bffffffffffffffffffffffffffffffffffffffffffffffffffffffff1916145b8061077b575061077a826111fb565b5b9050919050565b6000600d60008373ffffffffffffffffffffffffffffffffffffffff1673ffffffffffffffffffffffffffffffffffffffff168152602001908152602001600020549050919050565b6060600080546107da9061262e565b80601f01602080910402602001604051908101604052809291908181526020018280546108069061262e565b80156108535780601f1061082857610100808354040283529160200191610853565b820191906000526020600020905b81548152906001019060200180831161083657829003601f168201915b5050505050905090565b600061086882611265565b6004600083815260200190815260200160002060009054906101000a900473ffffffffffffffffffffffffffffffffffffffff169050919050565b60006108ae82610c13565b90508073ffffffffffffffffffffffffffffffffffffffff168373ffffffffffffffffffffffffffffffffffffffff160361091e576040517f08c379a0000000000000000000000000000000000000000000000000000000008152600401610915906126d1565b60405180910390fd5b8073ffffffffffffffffffffffffffffffffffffffff1661093d6112b0565b73ffffffffffffffffffffffffffffffffffffffff16148061096c575061096b816109666112b0565b6110e4565b5b6109ab576040517f08c379a00000000000000000000000000000000000000000000000000000000081526004016109a290612763565b60405180910390fd5b6109b583836112b8565b505050565b600c60009054906101000a900460ff16610a00576040517fad1faa7200000000000000000000000000000000000000000000000000000000815260040160405180910390fd5b6001600f600083815260200190815260200160002060003373ffffffffffffffffffffffffffffffffffffffff1673ffffffffffffffffffffffffffffffffffffffff16815260200190815260200160002060006101000a81548160ff021916908315150217905550610a736008611371565b50565b6000600b54905090565b610a91610a8b6112b0565b82611387565b610ad0576040517f08c379a0000000000000000000000000000000000000000000000000000000008152600401610ac7906127f5565b60405180910390fd5b610adb83838361141c565b505050565b610ae8611715565b600c60009054906101000a900460ff1615610b4557610b05610d6e565b610b44576040517f08c379a0000000000000000000000000000000000000000000000000000000008152600401610b3b90612887565b60405180910390fd5b5b600047905060003373ffffffffffffffffffffffffffffffffffffffff1682604051610b70906128d8565b60006040518083038185875af1925050503d8060008114610bad576040519150601f19603f3d011682016040523d82523d6000602084013e610bb2565b606091505b5050905080610bed576040517f9af25e5d00000000000000000000000000000000000000000000000000000000815260040160405180910390fd5b5050565b610c0c83838360405180602001604052806000815250610ef9565b505050565b565b600080610c1f83611793565b9050600073ffffffffffffffffffffffffffffffffffffffff168173ffffffffffffffffffffffffffffffffffffffff1603610c90576040517f08c379a0000000000000000000000000000000000000000000000000000000008152600401610c8790612939565b60405180910390fd5b80915050919050565b6000600954905090565b60008073ffffffffffffffffffffffffffffffffffffffff168273ffffffffffffffffffffffffffffffffffffffff1603610d13576040517f08c379a0000000000000000000000000000000000000000000000000000000008152600401610d0a906129cb565b60405180910390fd5b600360008373ffffffffffffffffffffffffffffffffffffffff1673ffffffffffffffffffffffffffffffffffffffff168152602001908152602001600020549050919050565b610d62611715565b610d6c60006117d0565b565b6000600c60009054906101000a900460ff16610db6576040517fad1faa7200000000000000000000000000000000000000000000000000000000815260040160405180910390fd5b6000610dc26008611896565b90506000610df26064610de4603c600e805490506118a490919063ffffffff16565b6118ba90919063ffffffff16565b9050808210610e0657600192505050610e0d565b6000925050505b90565b6000600660009054906101000a900473ffffffffffffffffffffffffffffffffffffffff16905090565b606060018054610e499061262e565b80601f0160208091040260200160405190810160405280929190818152602001828054610e759061262e565b8015610ec25780601f10610e9757610100808354040283529160200191610ec2565b820191906000526020600020905b815481529060010190602001808311610ea557829003601f168201915b5050505050905090565b6000600c60009054906101000a900460ff16905090565b610ef5610eee6112b0565b83836118d0565b5050565b610f0a610f046112b0565b83611387565b610f49576040517f08c379a0000000000000000000000000000000000000000000000000000000008152600401610f40906127f5565b60405180910390fd5b610f5584848484611a3c565b50505050565b6060919050565b6000600e8281548110610f7857610f776129eb565b5b9060005260206000200160009054906101000a900473ffffffffffffffffffffffffffffffffffffffff169050919050565b6000600a54905090565b6000610fcd600b546009546118ba90919063ffffffff16565b905090565b6000610fdc610fb4565b90506000610fea6007611896565b9050813411611025576040517fcf463cf900000000000000000000000000000000000000000000000000000000815260040160405180910390fd5b34600d60003373ffffffffffffffffffffffffffffffffffffffff1673ffffffffffffffffffffffffffffffffffffffff16815260200190815260200160002081905550600e339080600181540180825580915050600190039060005260206000200160009091909190916101000a81548173ffffffffffffffffffffffffffffffffffffffff021916908373ffffffffffffffffffffffffffffffffffffffff1602179055506110d63382611a98565b6110e06007611371565b5050565b6000600560008473ffffffffffffffffffffffffffffffffffffffff1673ffffffffffffffffffffffffffffffffffffffff16815260200190815260200160002060008373ffffffffffffffffffffffffffffffffffffffff1673ffffffffffffffffffffffffffffffffffffffff16815260200190815260200160002060009054906101000a900460ff16905092915050565b611180611715565b600073ffffffffffffffffffffffffffffffffffffffff168173ffffffffffffffffffffffffffffffffffffffff16036111ef576040517f08c379a00000000000000000000000000000000000000000000000000000000081526004016111e690612a8c565b60405180910390fd5b6111f8816117d0565b50565b60007f01ffc9a7000000000000000000000000000000000000000000000000000000007bffffffffffffffffffffffffffffffffffffffffffffffffffffffff1916827bffffffffffffffffffffffffffffffffffffffffffffffffffffffff1916149050919050565b61126e81611ab6565b6112ad576040517f08c379a00000000000000000000000000000000000000000000000000000000081526004016112a490612939565b60405180910390fd5b50565b600033905090565b816004600083815260200190815260200160002060006101000a81548173ffffffffffffffffffffffffffffffffffffffff021916908373ffffffffffffffffffffffffffffffffffffffff160217905550808273ffffffffffffffffffffffffffffffffffffffff1661132b83610c13565b73ffffffffffffffffffffffffffffffffffffffff167f8c5be1e5ebec7d5bd14f71427d1e84f3dd0314c0f7b2291e5b200ac8c7c3b92560405160405180910390a45050565b6001816000016000828254019250508190555050565b60008061139383610c13565b90508073ffffffffffffffffffffffffffffffffffffffff168473ffffffffffffffffffffffffffffffffffffffff1614806113d557506113d481856110e4565b5b8061141357508373ffffffffffffffffffffffffffffffffffffffff166113fb8461085d565b73ffffffffffffffffffffffffffffffffffffffff16145b91505092915050565b8273ffffffffffffffffffffffffffffffffffffffff1661143c82610c13565b73ffffffffffffffffffffffffffffffffffffffff1614611492576040517f08c379a000000000000000000000000000000000000000000000000000000000815260040161148990612b1e565b60405180910390fd5b600073ffffffffffffffffffffffffffffffffffffffff168273ffffffffffffffffffffffffffffffffffffffff1603611501576040517f08c379a00000000000000000000000000000000000000000000000000000000081526004016114f890612bb0565b60405180910390fd5b61150e8383836001611af7565b8273ffffffffffffffffffffffffffffffffffffffff1661152e82610c13565b73ffffffffffffffffffffffffffffffffffffffff1614611584576040517f08c379a000000000000000000000000000000000000000000000000000000000815260040161157b90612b1e565b60405180910390fd5b6004600082815260200190815260200160002060006101000a81549073ffffffffffffffffffffffffffffffffffffffff02191690556001600360008573ffffffffffffffffffffffffffffffffffffffff1673ffffffffffffffffffffffffffffffffffffffff168152602001908152602001600020600082825403925050819055506001600360008473ffffffffffffffffffffffffffffffffffffffff1673ffffffffffffffffffffffffffffffffffffffff16815260200190815260200160002060008282540192505081905550816002600083815260200190815260200160002060006101000a81548173ffffffffffffffffffffffffffffffffffffffff021916908373ffffffffffffffffffffffffffffffffffffffff160217905550808273ffffffffffffffffffffffffffffffffffffffff168473ffffffffffffffffffffffffffffffffffffffff167fddf252ad1be2c89b69c2b068fc378daa952ba7f163c4a11628f55a4df523b3ef60405160405180910390a46117108383836001611c1d565b505050565b61171d6112b0565b73ffffffffffffffffffffffffffffffffffffffff1661173b610e10565b73ffffffffffffffffffffffffffffffffffffffff1614611791576040517f08c379a000000000000000000000000000000000000000000000000000000000815260040161178890612c1c565b60405180910390fd5b565b60006002600083815260200190815260200160002060009054906101000a900473ffffffffffffffffffffffffffffffffffffffff169050919050565b6000600660009054906101000a900473ffffffffffffffffffffffffffffffffffffffff16905081600660006101000a81548173ffffffffffffffffffffffffffffffffffffffff021916908373ffffffffffffffffffffffffffffffffffffffff1602179055508173ffffffffffffffffffffffffffffffffffffffff168173ffffffffffffffffffffffffffffffffffffffff167f8be0079c531659141344cd1fd0a4f28419497f9722a3daafe3b4186f6b6457e060405160405180910390a35050565b600081600001549050919050565b600081836118b29190612c6b565b905092915050565b600081836118c89190612cdc565b905092915050565b8173ffffffffffffffffffffffffffffffffffffffff168373ffffffffffffffffffffffffffffffffffffffff160361193e576040517f08c379a000000000000000000000000000000000000000000000000000000000815260040161193590612d59565b60405180910390fd5b80600560008573ffffffffffffffffffffffffffffffffffffffff1673ffffffffffffffffffffffffffffffffffffffff16815260200190815260200160002060008473ffffffffffffffffffffffffffffffffffffffff1673ffffffffffffffffffffffffffffffffffffffff16815260200190815260200160002060006101000a81548160ff0219169083151502179055508173ffffffffffffffffffffffffffffffffffffffff168373ffffffffffffffffffffffffffffffffffffffff167f17307eab39ab6107e8899845ad3d59bd9653f200f220920489ca2b5937696c3183604051611a2f91906120f9565b60405180910390a3505050565b611a4784848461141c565b611a5384848484611c23565b611a92576040517f08c379a0000000000000000000000000000000000000000000000000000000008152600401611a8990612deb565b60405180910390fd5b50505050565b611ab2828260405180602001604052806000815250611daa565b5050565b60008073ffffffffffffffffffffffffffffffffffffffff16611ad883611793565b73ffffffffffffffffffffffffffffffffffffffff1614159050919050565b6001811115611c1757600073ffffffffffffffffffffffffffffffffffffffff168473ffffffffffffffffffffffffffffffffffffffff1614611b8b5780600360008673ffffffffffffffffffffffffffffffffffffffff1673ffffffffffffffffffffffffffffffffffffffff1681526020019081526020016000206000828254611b839190612e0b565b925050819055505b600073ffffffffffffffffffffffffffffffffffffffff168373ffffffffffffffffffffffffffffffffffffffff1614611c165780600360008573ffffffffffffffffffffffffffffffffffffffff1673ffffffffffffffffffffffffffffffffffffffff1681526020019081526020016000206000828254611c0e9190612e3f565b925050819055505b5b50505050565b50505050565b6000611c448473ffffffffffffffffffffffffffffffffffffffff16611e05565b15611d9d578373ffffffffffffffffffffffffffffffffffffffff1663150b7a02611c6d6112b0565b8786866040518563ffffffff1660e01b8152600401611c8f9493929190612ec8565b6020604051808303816000875af1925050508015611ccb57506040513d601f19601f82011682018060405250810190611cc89190612f29565b60015b611d4d573d8060008114611cfb576040519150601f19603f3d011682016040523d82523d6000602084013e611d00565b606091505b506000815103611d45576040517f08c379a0000000000000000000000000000000000000000000000000000000008152600401611d3c90612deb565b60405180910390fd5b805181602001fd5b63150b7a0260e01b7bffffffffffffffffffffffffffffffffffffffffffffffffffffffff1916817bffffffffffffffffffffffffffffffffffffffffffffffffffffffff191614915050611da2565b600190505b949350505050565b611db48383611e28565b611dc16000848484611c23565b611e00576040517f08c379a0000000000000000000000000000000000000000000000000000000008152600401611df790612deb565b60405180910390fd5b505050565b6000808273ffffffffffffffffffffffffffffffffffffffff163b119050919050565b600073ffffffffffffffffffffffffffffffffffffffff168273ffffffffffffffffffffffffffffffffffffffff1603611e97576040517f08c379a0000000000000000000000000000000000000000000000000000000008152600401611e8e90612fa2565b60405180910390fd5b611ea081611ab6565b15611ee0576040517f08c379a0000000000000000000000000000000000000000000000000000000008152600401611ed79061300e565b60405180910390fd5b611eee600083836001611af7565b611ef781611ab6565b15611f37576040517f08c379a0000000000000000000000000000000000000000000000000000000008152600401611f2e9061300e565b60405180910390fd5b6001600360008473ffffffffffffffffffffffffffffffffffffffff1673ffffffffffffffffffffffffffffffffffffffff16815260200190815260200160002060008282540192505081905550816002600083815260200190815260200160002060006101000a81548173ffffffffffffffffffffffffffffffffffffffff021916908373ffffffffffffffffffffffffffffffffffffffff160217905550808273ffffffffffffffffffffffffffffffffffffffff16600073ffffffffffffffffffffffffffffffffffffffff167fddf252ad1be2c89b69c2b068fc378daa952ba7f163c4a11628f55a4df523b3ef60405160405180910390a4612041600083836001611c1d565b5050565b6000604051905090565b600080fd5b600080fd5b60007fffffffff0000000000000000000000000000000000000000000000000000000082169050919050565b61208e81612059565b811461209957600080fd5b50565b6000813590506120ab81612085565b92915050565b6000602082840312156120c7576120c661204f565b5b60006120d58482850161209c565b91505092915050565b60008115159050919050565b6120f3816120de565b82525050565b600060208201905061210e60008301846120ea565b92915050565b600073ffffffffffffffffffffffffffffffffffffffff82169050919050565b600061213f82612114565b9050919050565b61214f81612134565b811461215a57600080fd5b50565b60008135905061216c81612146565b92915050565b6000602082840312156121885761218761204f565b5b60006121968482850161215d565b91505092915050565b6000819050919050565b6121b28161219f565b82525050565b60006020820190506121cd60008301846121a9565b92915050565b600081519050919050565b600082825260208201905092915050565b60005b8381101561220d5780820151818401526020810190506121f2565b60008484015250505050565b6000601f19601f8301169050919050565b6000612235826121d3565b61223f81856121de565b935061224f8185602086016121ef565b61225881612219565b840191505092915050565b6000602082019050818103600083015261227d818461222a565b905092915050565b61228e8161219f565b811461229957600080fd5b50565b6000813590506122ab81612285565b92915050565b6000602082840312156122c7576122c661204f565b5b60006122d58482850161229c565b91505092915050565b6122e781612134565b82525050565b600060208201905061230260008301846122de565b92915050565b6000806040838503121561231f5761231e61204f565b5b600061232d8582860161215d565b925050602061233e8582860161229c565b9150509250929050565b6000806000606084860312156123615761236061204f565b5b600061236f8682870161215d565b93505060206123808682870161215d565b92505060406123918682870161229c565b9150509250925092565b6123a4816120de565b81146123af57600080fd5b50565b6000813590506123c18161239b565b92915050565b600080604083850312156123de576123dd61204f565b5b60006123ec8582860161215d565b92505060206123fd858286016123b2565b9150509250929050565b600080fd5b600080fd5b7f4e487b7100000000000000000000000000000000000000000000000000000000600052604160045260246000fd5b61244982612219565b810181811067ffffffffffffffff8211171561246857612467612411565b5b80604052505050565b600061247b612045565b90506124878282612440565b919050565b600067ffffffffffffffff8211156124a7576124a6612411565b5b6124b082612219565b9050602081019050919050565b82818337600083830152505050565b60006124df6124da8461248c565b612471565b9050828152602081018484840111156124fb576124fa61240c565b5b6125068482856124bd565b509392505050565b600082601f83011261252357612522612407565b5b81356125338482602086016124cc565b91505092915050565b600080600080608085870312156125565761255561204f565b5b60006125648782880161215d565b94505060206125758782880161215d565b93505060406125868782880161229c565b925050606085013567ffffffffffffffff8111156125a7576125a6612054565b5b6125b38782880161250e565b91505092959194509250565b600080604083850312156125d6576125d561204f565b5b60006125e48582860161215d565b92505060206125f58582860161215d565b9150509250929050565b7f4e487b7100000000000000000000000000000000000000000000000000000000600052602260045260246000fd5b6000600282049050600182168061264657607f821691505b602082108103612659576126586125ff565b5b50919050565b7f4552433732313a20617070726f76616c20746f2063757272656e74206f776e6560008201527f7200000000000000000000000000000000000000000000000000000000000000602082015250565b60006126bb6021836121de565b91506126c68261265f565b604082019050919050565b600060208201905081810360008301526126ea816126ae565b9050919050565b7f4552433732313a20617070726f76652063616c6c6572206973206e6f7420746f60008201527f6b656e206f776e6572206f7220617070726f76656420666f7220616c6c000000602082015250565b600061274d603d836121de565b9150612758826126f1565b604082019050919050565b6000602082019050818103600083015261277c81612740565b9050919050565b7f4552433732313a2063616c6c6572206973206e6f7420746f6b656e206f776e6560008201527f72206f7220617070726f76656400000000000000000000000000000000000000602082015250565b60006127df602d836121de565b91506127ea82612783565b604082019050919050565b6000602082019050818103600083015261280e816127d2565b9050919050565b7f5468657265206973206e6f206d616a6f7269747920617070726f76616c20746f60008201527f2077697468647261770000000000000000000000000000000000000000000000602082015250565b60006128716029836121de565b915061287c82612815565b604082019050919050565b600060208201905081810360008301526128a081612864565b9050919050565b600081905092915050565b50565b60006128c26000836128a7565b91506128cd826128b2565b600082019050919050565b60006128e3826128b5565b9150819050919050565b7f4552433732313a20696e76616c696420746f6b656e2049440000000000000000600082015250565b60006129236018836121de565b915061292e826128ed565b602082019050919050565b6000602082019050818103600083015261295281612916565b9050919050565b7f4552433732313a2061646472657373207a65726f206973206e6f74206120766160008201527f6c6964206f776e65720000000000000000000000000000000000000000000000602082015250565b60006129b56029836121de565b91506129c082612959565b604082019050919050565b600060208201905081810360008301526129e4816129a8565b9050919050565b7f4e487b7100000000000000000000000000000000000000000000000000000000600052603260045260246000fd5b7f4f776e61626c653a206e6577206f776e657220697320746865207a65726f206160008201527f6464726573730000000000000000000000000000000000000000000000000000602082015250565b6000612a766026836121de565b9150612a8182612a1a565b604082019050919050565b60006020820190508181036000830152612aa581612a69565b9050919050565b7f4552433732313a207472616e736665722066726f6d20696e636f72726563742060008201527f6f776e6572000000000000000000000000000000000000000000000000000000602082015250565b6000612b086025836121de565b9150612b1382612aac565b604082019050919050565b60006020820190508181036000830152612b3781612afb565b9050919050565b7f4552433732313a207472616e7366657220746f20746865207a65726f2061646460008201527f7265737300000000000000000000000000000000000000000000000000000000602082015250565b6000612b9a6024836121de565b9150612ba582612b3e565b604082019050919050565b60006020820190508181036000830152612bc981612b8d565b9050919050565b7f4f776e61626c653a2063616c6c6572206973206e6f7420746865206f776e6572600082015250565b6000612c066020836121de565b9150612c1182612bd0565b602082019050919050565b60006020820190508181036000830152612c3581612bf9565b9050919050565b7f4e487b7100000000000000000000000000000000000000000000000000000000600052601160045260246000fd5b6000612c768261219f565b9150612c818361219f565b9250828202612c8f8161219f565b91508282048414831517612ca657612ca5612c3c565b5b5092915050565b7f4e487b7100000000000000000000000000000000000000000000000000000000600052601260045260246000fd5b6000612ce78261219f565b9150612cf28361219f565b925082612d0257612d01612cad565b5b828204905092915050565b7f4552433732313a20617070726f766520746f2063616c6c657200000000000000600082015250565b6000612d436019836121de565b9150612d4e82612d0d565b602082019050919050565b60006020820190508181036000830152612d7281612d36565b9050919050565b7f4552433732313a207472616e7366657220746f206e6f6e20455243373231526560008201527f63656976657220696d706c656d656e7465720000000000000000000000000000602082015250565b6000612dd56032836121de565b9150612de082612d79565b604082019050919050565b60006020820190508181036000830152612e0481612dc8565b9050919050565b6000612e168261219f565b9150612e218361219f565b9250828203905081811115612e3957612e38612c3c565b5b92915050565b6000612e4a8261219f565b9150612e558361219f565b9250828201905080821115612e6d57612e6c612c3c565b5b92915050565b600081519050919050565b600082825260208201905092915050565b6000612e9a82612e73565b612ea48185612e7e565b9350612eb48185602086016121ef565b612ebd81612219565b840191505092915050565b6000608082019050612edd60008301876122de565b612eea60208301866122de565b612ef760408301856121a9565b8181036060830152612f098184612e8f565b905095945050505050565b600081519050612f2381612085565b92915050565b600060208284031215612f3f57612f3e61204f565b5b6000612f4d84828501612f14565b91505092915050565b7f4552433732313a206d696e7420746f20746865207a65726f2061646472657373600082015250565b6000612f8c6020836121de565b9150612f9782612f56565b602082019050919050565b60006020820190508181036000830152612fbb81612f7f565b9050919050565b7f4552433732313a20746f6b656e20616c7265616479206d696e74656400000000600082015250565b6000612ff8601c836121de565b915061300382612fc2565b602082019050919050565b6000602082019050818103600083015261302781612feb565b905091905056fea26469706673582212202a11e1f0843a0bccf475f2b7a38cd188e8763b27256e41695c4fe7a6646ffdc864736f6c63430008110033",
  "linkReferences": {},
  "deployedLinkReferences": {}
}