{
  "_format": "hh-sol-artifact-1",
  "contractName": "FundingContract",
  "sourceName": "contracts/FundingContract.sol",
  "abi": [
    {
      "inputs": [
        {
          "internalType": "uint256",
          "name": "totalFunding",
          "type": "uint256"
        },
        {
          "internalType": "uint256",
          "name": "withdrawalFee",
          "type": "uint256"
        },
        {
          "internalType": "bool",
          "name": "isGroupWithdrawal",
          "type": "bool"
        },
        {
          "internalType": "string",
          "name": "tokenUri",
          "type": "string"
        },
        {
          "internalType": "uint64",
          "name": "startTimestamp",
          "type": "uint64"
        },
        {
          "internalType": "uint64",
          "name": "vestingPeriodInSeconds",
          "type": "uint64"
        }
      ],
      "stateMutability": "nonpayable",
      "type": "constructor"
    },
    {
      "inputs": [],
      "name": "FundingContract__NotEnoughETH",
      "type": "error"
    },
    {
      "inputs": [],
      "name": "FundingContract__NotGroupFunding",
      "type": "error"
    },
    {
      "inputs": [],
      "name": "FundingContract__TransferFailed",
      "type": "error"
    },
    {
      "anonymous": false,
      "inputs": [
        {
          "indexed": true,
          "internalType": "address",
          "name": "owner",
          "type": "address"
        },
        {
          "indexed": true,
          "internalType": "address",
          "name": "approved",
          "type": "address"
        },
        {
          "indexed": true,
          "internalType": "uint256",
          "name": "tokenId",
          "type": "uint256"
        }
      ],
      "name": "Approval",
      "type": "event"
    },
    {
      "anonymous": false,
      "inputs": [
        {
          "indexed": true,
          "internalType": "address",
          "name": "owner",
          "type": "address"
        },
        {
          "indexed": true,
          "internalType": "address",
          "name": "operator",
          "type": "address"
        },
        {
          "indexed": false,
          "internalType": "bool",
          "name": "approved",
          "type": "bool"
        }
      ],
      "name": "ApprovalForAll",
      "type": "event"
    },
    {
      "anonymous": false,
      "inputs": [
        {
          "indexed": true,
          "internalType": "address",
          "name": "contractor",
          "type": "address"
        },
        {
          "indexed": true,
          "internalType": "uint256",
          "name": "releasedFunds",
          "type": "uint256"
        }
      ],
      "name": "ContractorClaimedFunds",
      "type": "event"
    },
    {
      "anonymous": false,
      "inputs": [
        {
          "indexed": true,
          "internalType": "address",
          "name": "token",
          "type": "address"
        },
        {
          "indexed": false,
          "internalType": "uint256",
          "name": "amount",
          "type": "uint256"
        }
      ],
      "name": "ERC20Released",
      "type": "event"
    },
    {
      "anonymous": false,
      "inputs": [
        {
          "indexed": false,
          "internalType": "uint256",
          "name": "amount",
          "type": "uint256"
        }
      ],
      "name": "EtherReleased",
      "type": "event"
    },
    {
      "anonymous": false,
      "inputs": [
        {
          "indexed": true,
          "internalType": "uint256",
          "name": "tokenId",
          "type": "uint256"
        },
        {
          "indexed": true,
          "internalType": "address",
          "name": "funder",
          "type": "address"
        },
        {
          "indexed": true,
          "internalType": "uint256",
          "name": "amount",
          "type": "uint256"
        }
      ],
      "name": "FundsDeposited",
      "type": "event"
    },
    {
      "anonymous": false,
      "inputs": [
        {
          "indexed": true,
          "internalType": "address",
          "name": "withdrawer",
          "type": "address"
        },
        {
          "indexed": true,
          "internalType": "uint256",
          "name": "withDrawedFunds",
          "type": "uint256"
        }
      ],
      "name": "FundsWithdrawed",
      "type": "event"
    },
    {
      "anonymous": false,
      "inputs": [
        {
          "indexed": true,
          "internalType": "bytes32",
          "name": "role",
          "type": "bytes32"
        },
        {
          "indexed": true,
          "internalType": "bytes32",
          "name": "previousAdminRole",
          "type": "bytes32"
        },
        {
          "indexed": true,
          "internalType": "bytes32",
          "name": "newAdminRole",
          "type": "bytes32"
        }
      ],
      "name": "RoleAdminChanged",
      "type": "event"
    },
    {
      "anonymous": false,
      "inputs": [
        {
          "indexed": true,
          "internalType": "bytes32",
          "name": "role",
          "type": "bytes32"
        },
        {
          "indexed": true,
          "internalType": "address",
          "name": "account",
          "type": "address"
        },
        {
          "indexed": true,
          "internalType": "address",
          "name": "sender",
          "type": "address"
        }
      ],
      "name": "RoleGranted",
      "type": "event"
    },
    {
      "anonymous": false,
      "inputs": [
        {
          "indexed": true,
          "internalType": "bytes32",
          "name": "role",
          "type": "bytes32"
        },
        {
          "indexed": true,
          "internalType": "address",
          "name": "account",
          "type": "address"
        },
        {
          "indexed": true,
          "internalType": "address",
          "name": "sender",
          "type": "address"
        }
      ],
      "name": "RoleRevoked",
      "type": "event"
    },
    {
      "anonymous": false,
      "inputs": [
        {
          "indexed": true,
          "internalType": "address",
          "name": "from",
          "type": "address"
        },
        {
          "indexed": true,
          "internalType": "address",
          "name": "to",
          "type": "address"
        },
        {
          "indexed": true,
          "internalType": "uint256",
          "name": "tokenId",
          "type": "uint256"
        }
      ],
      "name": "Transfer",
      "type": "event"
    },
    {
      "anonymous": false,
      "inputs": [
        {
          "indexed": true,
          "internalType": "uint256",
          "name": "tokenId",
          "type": "uint256"
        },
        {
          "indexed": true,
          "internalType": "address",
          "name": "withdrawer",
          "type": "address"
        }
      ],
      "name": "WithdrawalRequest",
      "type": "event"
    },
    {
      "inputs": [],
      "name": "CONTRACTOR_ROLE",
      "outputs": [
        {
          "internalType": "bytes32",
          "name": "",
          "type": "bytes32"
        }
      ],
      "stateMutability": "view",
      "type": "function"
    },
    {
      "inputs": [],
      "name": "DEFAULT_ADMIN_ROLE",
      "outputs": [
        {
          "internalType": "bytes32",
          "name": "",
          "type": "bytes32"
        }
      ],
      "stateMutability": "view",
      "type": "function"
    },
    {
      "inputs": [],
      "name": "FUNDER_ROLE",
      "outputs": [
        {
          "internalType": "bytes32",
          "name": "",
          "type": "bytes32"
        }
      ],
      "stateMutability": "view",
      "type": "function"
    },
    {
      "inputs": [
        {
          "internalType": "address",
          "name": "to",
          "type": "address"
        },
        {
          "internalType": "uint256",
          "name": "tokenId",
          "type": "uint256"
        }
      ],
      "name": "approve",
      "outputs": [],
      "stateMutability": "nonpayable",
      "type": "function"
    },
    {
      "inputs": [
        {
          "internalType": "address",
          "name": "owner",
          "type": "address"
        }
      ],
      "name": "balanceOf",
      "outputs": [
        {
          "internalType": "uint256",
          "name": "",
          "type": "uint256"
        }
      ],
      "stateMutability": "view",
      "type": "function"
    },
    {
      "inputs": [],
      "name": "beneficiary",
      "outputs": [
        {
          "internalType": "address",
          "name": "",
          "type": "address"
        }
      ],
      "stateMutability": "view",
      "type": "function"
    },
    {
      "inputs": [],
      "name": "claim",
      "outputs": [],
      "stateMutability": "nonpayable",
      "type": "function"
    },
    {
      "inputs": [],
      "name": "depositFunds",
      "outputs": [],
      "stateMutability": "payable",
      "type": "function"
    },
    {
      "inputs": [],
      "name": "duration",
      "outputs": [
        {
          "internalType": "uint256",
          "name": "",
          "type": "uint256"
        }
      ],
      "stateMutability": "view",
      "type": "function"
    },
    {
      "inputs": [
        {
          "internalType": "address",
          "name": "funder",
          "type": "address"
        }
      ],
      "name": "getAmountFundedByAddress",
      "outputs": [
        {
          "internalType": "uint256",
          "name": "",
          "type": "uint256"
        }
      ],
      "stateMutability": "view",
      "type": "function"
    },
    {
      "inputs": [
        {
          "internalType": "uint256",
          "name": "tokenId",
          "type": "uint256"
        }
      ],
      "name": "getApproved",
      "outputs": [
        {
          "internalType": "address",
          "name": "",
          "type": "address"
        }
      ],
      "stateMutability": "view",
      "type": "function"
    },
    {
      "inputs": [
        {
          "internalType": "uint256",
          "name": "index",
          "type": "uint256"
        }
      ],
      "name": "getFunder",
      "outputs": [
        {
          "internalType": "address",
          "name": "",
          "type": "address"
        }
      ],
      "stateMutability": "view",
      "type": "function"
    },
    {
      "inputs": [],
      "name": "getIsGroupWithdrawal",
      "outputs": [
        {
          "internalType": "bool",
          "name": "",
          "type": "bool"
        }
      ],
      "stateMutability": "view",
      "type": "function"
    },
    {
      "inputs": [],
      "name": "getMinimumFundingAmount",
      "outputs": [
        {
          "internalType": "uint256",
          "name": "",
          "type": "uint256"
        }
      ],
      "stateMutability": "view",
      "type": "function"
    },
    {
      "inputs": [
        {
          "internalType": "bytes32",
          "name": "role",
          "type": "bytes32"
        }
      ],
      "name": "getRoleAdmin",
      "outputs": [
        {
          "internalType": "bytes32",
          "name": "",
          "type": "bytes32"
        }
      ],
      "stateMutability": "view",
      "type": "function"
    },
    {
      "inputs": [],
      "name": "getStartTimestamp",
      "outputs": [
        {
          "internalType": "uint256",
          "name": "",
          "type": "uint256"
        }
      ],
      "stateMutability": "view",
      "type": "function"
    },
    {
      "inputs": [],
      "name": "getTokenCounter",
      "outputs": [
        {
          "internalType": "uint256",
          "name": "",
          "type": "uint256"
        }
      ],
      "stateMutability": "view",
      "type": "function"
    },
    {
      "inputs": [],
      "name": "getTotalAmount",
      "outputs": [
        {
          "internalType": "uint256",
          "name": "",
          "type": "uint256"
        }
      ],
      "stateMutability": "view",
      "type": "function"
    },
    {
      "inputs": [],
      "name": "getTotalFunders",
      "outputs": [
        {
          "internalType": "uint256",
          "name": "",
          "type": "uint256"
        }
      ],
      "stateMutability": "view",
      "type": "function"
    },
    {
      "inputs": [],
      "name": "getVestingPeriod",
      "outputs": [
        {
          "internalType": "uint256",
          "name": "",
          "type": "uint256"
        }
      ],
      "stateMutability": "view",
      "type": "function"
    },
    {
      "inputs": [],
      "name": "getWithdrawalFee",
      "outputs": [
        {
          "internalType": "uint256",
          "name": "",
          "type": "uint256"
        }
      ],
      "stateMutability": "view",
      "type": "function"
    },
    {
      "inputs": [],
      "name": "getWithdrawerCounter",
      "outputs": [
        {
          "internalType": "uint256",
          "name": "",
          "type": "uint256"
        }
      ],
      "stateMutability": "view",
      "type": "function"
    },
    {
      "inputs": [
        {
          "internalType": "bytes32",
          "name": "role",
          "type": "bytes32"
        },
        {
          "internalType": "address",
          "name": "account",
          "type": "address"
        }
      ],
      "name": "grantRole",
      "outputs": [],
      "stateMutability": "nonpayable",
      "type": "function"
    },
    {
      "inputs": [
        {
          "internalType": "bytes32",
          "name": "role",
          "type": "bytes32"
        },
        {
          "internalType": "address",
          "name": "account",
          "type": "address"
        }
      ],
      "name": "hasRole",
      "outputs": [
        {
          "internalType": "bool",
          "name": "",
          "type": "bool"
        }
      ],
      "stateMutability": "view",
      "type": "function"
    },
    {
      "inputs": [
        {
          "internalType": "address",
          "name": "owner",
          "type": "address"
        },
        {
          "internalType": "address",
          "name": "operator",
          "type": "address"
        }
      ],
      "name": "isApprovedForAll",
      "outputs": [
        {
          "internalType": "bool",
          "name": "",
          "type": "bool"
        }
      ],
      "stateMutability": "view",
      "type": "function"
    },
    {
      "inputs": [],
      "name": "name",
      "outputs": [
        {
          "internalType": "string",
          "name": "",
          "type": "string"
        }
      ],
      "stateMutability": "view",
      "type": "function"
    },
    {
      "inputs": [
        {
          "internalType": "uint256",
          "name": "tokenId",
          "type": "uint256"
        }
      ],
      "name": "ownerOf",
      "outputs": [
        {
          "internalType": "address",
          "name": "",
          "type": "address"
        }
      ],
      "stateMutability": "view",
      "type": "function"
    },
    {
      "inputs": [
        {
          "internalType": "address",
          "name": "token",
          "type": "address"
        }
      ],
      "name": "releasable",
      "outputs": [
        {
          "internalType": "uint256",
          "name": "",
          "type": "uint256"
        }
      ],
      "stateMutability": "view",
      "type": "function"
    },
    {
      "inputs": [],
      "name": "releasable",
      "outputs": [
        {
          "internalType": "uint256",
          "name": "",
          "type": "uint256"
        }
      ],
      "stateMutability": "view",
      "type": "function"
    },
    {
      "inputs": [
        {
          "internalType": "address",
          "name": "token",
          "type": "address"
        }
      ],
      "name": "release",
      "outputs": [],
      "stateMutability": "nonpayable",
      "type": "function"
    },
    {
      "inputs": [],
      "name": "release",
      "outputs": [],
      "stateMutability": "nonpayable",
      "type": "function"
    },
    {
      "inputs": [],
      "name": "released",
      "outputs": [
        {
          "internalType": "uint256",
          "name": "",
          "type": "uint256"
        }
      ],
      "stateMutability": "view",
      "type": "function"
    },
    {
      "inputs": [
        {
          "internalType": "address",
          "name": "token",
          "type": "address"
        }
      ],
      "name": "released",
      "outputs": [
        {
          "internalType": "uint256",
          "name": "",
          "type": "uint256"
        }
      ],
      "stateMutability": "view",
      "type": "function"
    },
    {
      "inputs": [
        {
          "internalType": "bytes32",
          "name": "role",
          "type": "bytes32"
        },
        {
          "internalType": "address",
          "name": "account",
          "type": "address"
        }
      ],
      "name": "renounceRole",
      "outputs": [],
      "stateMutability": "nonpayable",
      "type": "function"
    },
    {
      "inputs": [
        {
          "internalType": "uint256",
          "name": "tokenId",
          "type": "uint256"
        }
      ],
      "name": "requestForWithdrawal",
      "outputs": [],
      "stateMutability": "nonpayable",
      "type": "function"
    },
    {
      "inputs": [
        {
          "internalType": "bytes32",
          "name": "role",
          "type": "bytes32"
        },
        {
          "internalType": "address",
          "name": "account",
          "type": "address"
        }
      ],
      "name": "revokeRole",
      "outputs": [],
      "stateMutability": "nonpayable",
      "type": "function"
    },
    {
      "inputs": [
        {
          "internalType": "address",
          "name": "from",
          "type": "address"
        },
        {
          "internalType": "address",
          "name": "to",
          "type": "address"
        },
        {
          "internalType": "uint256",
          "name": "tokenId",
          "type": "uint256"
        }
      ],
      "name": "safeTransferFrom",
      "outputs": [],
      "stateMutability": "nonpayable",
      "type": "function"
    },
    {
      "inputs": [
        {
          "internalType": "address",
          "name": "from",
          "type": "address"
        },
        {
          "internalType": "address",
          "name": "to",
          "type": "address"
        },
        {
          "internalType": "uint256",
          "name": "tokenId",
          "type": "uint256"
        },
        {
          "internalType": "bytes",
          "name": "data",
          "type": "bytes"
        }
      ],
      "name": "safeTransferFrom",
      "outputs": [],
      "stateMutability": "nonpayable",
      "type": "function"
    },
    {
      "inputs": [
        {
          "internalType": "address",
          "name": "operator",
          "type": "address"
        },
        {
          "internalType": "bool",
          "name": "approved",
          "type": "bool"
        }
      ],
      "name": "setApprovalForAll",
      "outputs": [],
      "stateMutability": "nonpayable",
      "type": "function"
    },
    {
      "inputs": [],
      "name": "start",
      "outputs": [
        {
          "internalType": "uint256",
          "name": "",
          "type": "uint256"
        }
      ],
      "stateMutability": "view",
      "type": "function"
    },
    {
      "inputs": [
        {
          "internalType": "bytes4",
          "name": "interfaceId",
          "type": "bytes4"
        }
      ],
      "name": "supportsInterface",
      "outputs": [
        {
          "internalType": "bool",
          "name": "",
          "type": "bool"
        }
      ],
      "stateMutability": "view",
      "type": "function"
    },
    {
      "inputs": [],
      "name": "symbol",
      "outputs": [
        {
          "internalType": "string",
          "name": "",
          "type": "string"
        }
      ],
      "stateMutability": "view",
      "type": "function"
    },
    {
      "inputs": [
        {
          "internalType": "uint256",
          "name": "",
          "type": "uint256"
        }
      ],
      "name": "tokenURI",
      "outputs": [
        {
          "internalType": "string",
          "name": "",
          "type": "string"
        }
      ],
      "stateMutability": "view",
      "type": "function"
    },
    {
      "inputs": [
        {
          "internalType": "address",
          "name": "from",
          "type": "address"
        },
        {
          "internalType": "address",
          "name": "to",
          "type": "address"
        },
        {
          "internalType": "uint256",
          "name": "tokenId",
          "type": "uint256"
        }
      ],
      "name": "transferFrom",
      "outputs": [],
      "stateMutability": "nonpayable",
      "type": "function"
    },
    {
      "inputs": [
        {
          "internalType": "bytes32[]",
          "name": "proof",
          "type": "bytes32[]"
        },
        {
          "internalType": "bytes32",
          "name": "root",
          "type": "bytes32"
        }
      ],
      "name": "verifyMerkleTree",
      "outputs": [
        {
          "internalType": "bool",
          "name": "",
          "type": "bool"
        }
      ],
      "stateMutability": "view",
      "type": "function"
    },
    {
      "inputs": [
        {
          "internalType": "uint64",
          "name": "timestamp",
          "type": "uint64"
        }
      ],
      "name": "vestedAmount",
      "outputs": [
        {
          "internalType": "uint256",
          "name": "",
          "type": "uint256"
        }
      ],
      "stateMutability": "view",
      "type": "function"
    },
    {
      "inputs": [
        {
          "internalType": "address",
          "name": "token",
          "type": "address"
        },
        {
          "internalType": "uint64",
          "name": "timestamp",
          "type": "uint64"
        }
      ],
      "name": "vestedAmount",
      "outputs": [
        {
          "internalType": "uint256",
          "name": "",
          "type": "uint256"
        }
      ],
      "stateMutability": "view",
      "type": "function"
    },
    {
      "inputs": [],
      "name": "withdrawFunds",
      "outputs": [],
      "stateMutability": "nonpayable",
      "type": "function"
    },
    {
      "inputs": [],
      "name": "withdrawalCheck",
      "outputs": [
        {
          "internalType": "bool",
          "name": "",
          "type": "bool"
        }
      ],
      "stateMutability": "view",
      "type": "function"
    },
    {
      "stateMutability": "payable",
      "type": "receive"
    }
  ],
  "bytecode": "0x6101406040523480156200001257600080fd5b5060405162006859380380620068598339818101604052810190620000389190620006a8565b3382826040518060400160405280601481526020017f46756e64696e67436f6e7472616374546f6b656e0000000000000000000000008152506040518060400160405280600381526020017f46435400000000000000000000000000000000000000000000000000000000008152508160009081620000b89190620009a4565b508060019081620000ca9190620009a4565b505050600073ffffffffffffffffffffffffffffffffffffffff168373ffffffffffffffffffffffffffffffffffffffff16036200013f576040517f08c379a0000000000000000000000000000000000000000000000000000000008152600401620001369062000b12565b60405180910390fd5b8273ffffffffffffffffffffffffffffffffffffffff1660808173ffffffffffffffffffffffffffffffffffffffff16815250508167ffffffffffffffff1660a08167ffffffffffffffff16815250508067ffffffffffffffff1660c08167ffffffffffffffff1681525050505050620001ca6779b46d7243b9049a60c01b620002f060201b60201c565b620001e667909226846cfdb1cd60c01b620002f060201b60201c565b8560e081815250506200020a67f37a02b8bfdcdc5660c01b620002f060201b60201c565b8461010081815250506200022f672945da1c4aba1da160c01b620002f060201b60201c565b831515610120811515815250506200025867153f585760ce607260c01b620002f060201b60201c565b8167ffffffffffffffff16600b819055506200028567d1ad57e15575232960c01b620002f060201b60201c565b82600c9081620002969190620009a4565b50620002b367450be2b45293adc860c01b620002f060201b60201c565b620002cf674f04123097c8762260c01b620002f060201b60201c565b620002e46000801b33620002f360201b60201c565b50505050505062000b34565b50565b620003058282620003e560201b60201c565b620003e15760016006600084815260200190815260200160002060000160008373ffffffffffffffffffffffffffffffffffffffff1673ffffffffffffffffffffffffffffffffffffffff16815260200190815260200160002060006101000a81548160ff021916908315150217905550620003866200045060201b60201c565b73ffffffffffffffffffffffffffffffffffffffff168173ffffffffffffffffffffffffffffffffffffffff16837f2f8788117e7eff1d82e926ec794901d17c78024a50270940304540a733656f0d60405160405180910390a45b5050565b60006006600084815260200190815260200160002060000160008373ffffffffffffffffffffffffffffffffffffffff1673ffffffffffffffffffffffffffffffffffffffff16815260200190815260200160002060009054906101000a900460ff16905092915050565b600033905090565b6000604051905090565b600080fd5b600080fd5b6000819050919050565b62000481816200046c565b81146200048d57600080fd5b50565b600081519050620004a18162000476565b92915050565b60008115159050919050565b620004be81620004a7565b8114620004ca57600080fd5b50565b600081519050620004de81620004b3565b92915050565b600080fd5b600080fd5b6000601f19601f8301169050919050565b7f4e487b7100000000000000000000000000000000000000000000000000000000600052604160045260246000fd5b6200053982620004ee565b810181811067ffffffffffffffff821117156200055b576200055a620004ff565b5b80604052505050565b60006200057062000458565b90506200057e82826200052e565b919050565b600067ffffffffffffffff821115620005a157620005a0620004ff565b5b620005ac82620004ee565b9050602081019050919050565b60005b83811015620005d9578082015181840152602081019050620005bc565b60008484015250505050565b6000620005fc620005f68462000583565b62000564565b9050828152602081018484840111156200061b576200061a620004e9565b5b62000628848285620005b9565b509392505050565b600082601f830112620006485762000647620004e4565b5b81516200065a848260208601620005e5565b91505092915050565b600067ffffffffffffffff82169050919050565b620006828162000663565b81146200068e57600080fd5b50565b600081519050620006a28162000677565b92915050565b60008060008060008060c08789031215620006c857620006c762000462565b5b6000620006d889828a0162000490565b9650506020620006eb89828a0162000490565b9550506040620006fe89828a01620004cd565b945050606087015167ffffffffffffffff81111562000722576200072162000467565b5b6200073089828a0162000630565b93505060806200074389828a0162000691565b92505060a06200075689828a0162000691565b9150509295509295509295565b600081519050919050565b7f4e487b7100000000000000000000000000000000000000000000000000000000600052602260045260246000fd5b60006002820490506001821680620007b657607f821691505b602082108103620007cc57620007cb6200076e565b5b50919050565b60008190508160005260206000209050919050565b60006020601f8301049050919050565b600082821b905092915050565b600060088302620008367fffffffffffffffffffffffffffffffffffffffffffffffffffffffffffffffff82620007f7565b620008428683620007f7565b95508019841693508086168417925050509392505050565b6000819050919050565b6000620008856200087f62000879846200046c565b6200085a565b6200046c565b9050919050565b6000819050919050565b620008a18362000864565b620008b9620008b0826200088c565b84845462000804565b825550505050565b600090565b620008d0620008c1565b620008dd81848462000896565b505050565b5b818110156200090557620008f9600082620008c6565b600181019050620008e3565b5050565b601f82111562000954576200091e81620007d2565b6200092984620007e7565b8101602085101562000939578190505b620009516200094885620007e7565b830182620008e2565b50505b505050565b600082821c905092915050565b6000620009796000198460080262000959565b1980831691505092915050565b600062000994838362000966565b9150826002028217905092915050565b620009af8262000763565b67ffffffffffffffff811115620009cb57620009ca620004ff565b5b620009d782546200079d565b620009e482828562000909565b600060209050601f83116001811462000a1c576000841562000a07578287015190505b62000a13858262000986565b86555062000a83565b601f19841662000a2c86620007d2565b60005b8281101562000a565784890151825560018201915060208501945060208101905062000a2f565b8683101562000a76578489015162000a72601f89168262000966565b8355505b6001600288020188555050505b505050505050565b600082825260208201905092915050565b7f56657374696e6757616c6c65743a2062656e6566696369617279206973207a6560008201527f726f206164647265737300000000000000000000000000000000000000000000602082015250565b600062000afa602a8362000a8b565b915062000b078262000a9c565b604082019050919050565b6000602082019050818103600083015262000b2d8162000aeb565b9050919050565b60805160a05160c05160e0516101005161012051615cb262000ba760003960008181610e6c0152818161129f01528181611d42015261227e015260006126ab0152600081816117df01528181611bc601526127b601526000610dec0152600061247f015260006116f70152615cb26000f3fe6080604052600436106102a25760003560e01c8063810ec23b11610165578063b121d483116100cc578063d7b4750c11610085578063d7b4750c14610a56578063d8e159f814610a93578063db06941e14610abe578063e2c41dbc14610ae9578063e985e9c514610af3578063f88e320414610b30578063fbccedae14610b5b576102a9565b8063b121d48314610934578063b88d4fde14610971578063be9a65551461099a578063c87b56dd146109c5578063d4c0ced214610a02578063d547741f14610a2d576102a9565b80639b23b0c91161011e5780639b23b0c9146108105780639c885eb31461084d578063a217fddf14610878578063a22cb465146108a3578063a3f8eace146108cc578063aa0fc51314610909576102a9565b8063810ec23b146106ec57806386d1a69f1461072957806391d148541461074057806395d89b411461077d57806396132521146107a85780639852595c146107d3576102a9565b8063248a9ca3116102095780634e71d92d116101c25780634e71d92d146105da5780636352211e146105f157806365ac43411461062e5780636e02007d1461065957806370a08231146106845780637dc4c2ba146106c1576102a9565b8063248a9ca3146104cc5780632f2ff15d1461050957806334aedecd1461053257806336568abe1461055d57806338af3eed1461058657806342842e0e146105b1576102a9565b80631095941e1161025b5780631095941e146103e45780631096cb791461040d57806319165587146104385780631f89f25e1461046157806323b872dd1461048c57806324600fc3146104b5576102a9565b806301ffc9a7146102ae57806306fdde03146102eb578063081812fc14610316578063095ea7b3146103535780630a17b06b1461037c5780630fb5a6b4146103b9576102a9565b366102a957005b600080fd5b3480156102ba57600080fd5b506102d560048036038101906102d09190614462565b610b86565b6040516102e291906144aa565b60405180910390f35b3480156102f757600080fd5b50610300610bd4565b60405161030d9190614555565b60405180910390f35b34801561032257600080fd5b5061033d600480360381019061033891906145ad565b610c66565b60405161034a919061461b565b60405180910390f35b34801561035f57600080fd5b5061037a60048036038101906103759190614662565b610cac565b005b34801561038857600080fd5b506103a3600480360381019061039e91906146e2565b610dc3565b6040516103b0919061471e565b60405180910390f35b3480156103c557600080fd5b506103ce610de8565b6040516103db919061471e565b60405180910390f35b3480156103f057600080fd5b5061040b600480360381019061040691906145ad565b610e1a565b005b34801561041957600080fd5b50610422611057565b60405161042f919061471e565b60405180910390f35b34801561044457600080fd5b5061045f600480360381019061045a9190614739565b6110a2565b005b34801561046d57600080fd5b50610476611169565b604051610483919061471e565b60405180910390f35b34801561049857600080fd5b506104b360048036038101906104ae9190614766565b6111af565b005b3480156104c157600080fd5b506104ca61120f565b005b3480156104d857600080fd5b506104f360048036038101906104ee91906147ef565b61160b565b604051610500919061482b565b60405180910390f35b34801561051557600080fd5b50610530600480360381019061052b9190614846565b61162b565b005b34801561053e57600080fd5b5061054761164c565b604051610554919061482b565b60405180910390f35b34801561056957600080fd5b50610584600480360381019061057f9190614846565b611670565b005b34801561059257600080fd5b5061059b6116f3565b6040516105a8919061461b565b60405180910390f35b3480156105bd57600080fd5b506105d860048036038101906105d39190614766565b61171b565b005b3480156105e657600080fd5b506105ef61173b565b005b3480156105fd57600080fd5b50610618600480360381019061061391906145ad565b611b00565b604051610625919061461b565b60405180910390f35b34801561063a57600080fd5b50610643611b86565b604051610650919061471e565b60405180910390f35b34801561066557600080fd5b5061066e611bea565b60405161067b919061471e565b60405180910390f35b34801561069057600080fd5b506106ab60048036038101906106a69190614739565b611c37565b6040516106b8919061471e565b60405180910390f35b3480156106cd57600080fd5b506106d6611cee565b6040516106e391906144aa565b60405180910390f35b3480156106f857600080fd5b50610713600480360381019061070e9190614886565b611f59565b604051610720919061471e565b60405180910390f35b34801561073557600080fd5b5061073e611ff9565b005b34801561074c57600080fd5b5061076760048036038101906107629190614846565b612069565b60405161077491906144aa565b60405180910390f35b34801561078957600080fd5b506107926120d4565b60405161079f9190614555565b60405180910390f35b3480156107b457600080fd5b506107bd612166565b6040516107ca919061471e565b60405180910390f35b3480156107df57600080fd5b506107fa60048036038101906107f59190614739565b612170565b604051610807919061471e565b60405180910390f35b34801561081c57600080fd5b5061083760048036038101906108329190614739565b6121b9565b604051610844919061471e565b60405180910390f35b34801561085957600080fd5b5061086261223e565b60405161086f91906144aa565b60405180910390f35b34801561088457600080fd5b5061088d6122a2565b60405161089a919061482b565b60405180910390f35b3480156108af57600080fd5b506108ca60048036038101906108c591906148f2565b6122a9565b005b3480156108d857600080fd5b506108f360048036038101906108ee9190614739565b6122bf565b604051610900919061471e565b60405180910390f35b34801561091557600080fd5b5061091e6122e5565b60405161092b919061471e565b60405180910390f35b34801561094057600080fd5b5061095b60048036038101906109569190614997565b612332565b60405161096891906144aa565b60405180910390f35b34801561097d57600080fd5b5061099860048036038101906109939190614b27565b612419565b005b3480156109a657600080fd5b506109af61247b565b6040516109bc919061471e565b60405180910390f35b3480156109d157600080fd5b506109ec60048036038101906109e791906145ad565b6124ad565b6040516109f99190614555565b60405180910390f35b348015610a0e57600080fd5b50610a1761257d565b604051610a24919061471e565b60405180910390f35b348015610a3957600080fd5b50610a546004803603810190610a4f9190614846565b6125c6565b005b348015610a6257600080fd5b50610a7d6004803603810190610a7891906145ad565b6125e7565b604051610a8a919061461b565b60405180910390f35b348015610a9f57600080fd5b50610aa861266b565b604051610ab5919061471e565b60405180910390f35b348015610aca57600080fd5b50610ad36126cf565b604051610ae0919061471e565b60405180910390f35b610af16127eb565b005b348015610aff57600080fd5b50610b1a6004803603810190610b159190614baa565b612abe565b604051610b2791906144aa565b60405180910390f35b348015610b3c57600080fd5b50610b45612b52565b604051610b52919061482b565b60405180910390f35b348015610b6757600080fd5b50610b70612b76565b604051610b7d919061471e565b60405180910390f35b6000610b9c67a49a7c0f1a3402e560c01b612b98565b610bb067855445d152ff972a60c01b612b98565b610bc467958d880013675c5d60c01b612b98565b610bcd82612b9b565b9050919050565b606060008054610be390614c19565b80601f0160208091040260200160405190810160405280929190818152602001828054610c0f90614c19565b8015610c5c5780601f10610c3157610100808354040283529160200191610c5c565b820191906000526020600020905b815481529060010190602001808311610c3f57829003601f168201915b5050505050905090565b6000610c7182612c15565b6004600083815260200190815260200160002060009054906101000a900473ffffffffffffffffffffffffffffffffffffffff169050919050565b6000610cb782611b00565b90508073ffffffffffffffffffffffffffffffffffffffff168373ffffffffffffffffffffffffffffffffffffffff1603610d27576040517f08c379a0000000000000000000000000000000000000000000000000000000008152600401610d1e90614cbc565b60405180910390fd5b8073ffffffffffffffffffffffffffffffffffffffff16610d46612c60565b73ffffffffffffffffffffffffffffffffffffffff161480610d755750610d7481610d6f612c60565b612abe565b5b610db4576040517f08c379a0000000000000000000000000000000000000000000000000000000008152600401610dab90614d4e565b60405180910390fd5b610dbe8383612c68565b505050565b6000610de1610dd0612166565b47610ddb9190614d9d565b83612d21565b9050919050565b60007f000000000000000000000000000000000000000000000000000000000000000067ffffffffffffffff16905090565b610e2e67afe9d3331757319660c01b612b98565b610e42678c6dff6d2af0998860c01b612b98565b610e5667a21cee3a8f46cc4d60c01b612b98565b610e6a67a1068580a3bd1a5a60c01b612b98565b7f0000000000000000000000000000000000000000000000000000000000000000610ee957610ea3672b995f7b8538d0e360c01b612b98565b610eb76722c11c1224adc30960c01b612b98565b6040517fad1faa7200000000000000000000000000000000000000000000000000000000815260040160405180910390fd5b610efd671e19301997530aa860c01b612b98565b610f1167053f731b6b8b3c3b60c01b612b98565b610f2567e4df74a043d5623260c01b612b98565b610f39673d75a5aab7e1fe3c60c01b612b98565b610f4d673bded0191a7ed45560c01b612b98565b6001600f600083815260200190815260200160002060003373ffffffffffffffffffffffffffffffffffffffff1673ffffffffffffffffffffffffffffffffffffffff16815260200190815260200160002060006101000a81548160ff021916908315150217905550610fca670e63919366fe395960c01b612b98565b610fde6770e0d6f591f66a8b60c01b612b98565b610fe8600a612dbb565b610ffc67b055c9be93892c0760c01b612b98565b6110106796fd437674444f8160c01b612b98565b3373ffffffffffffffffffffffffffffffffffffffff16817f0fc8b6fcb2f497709c22d28a739a7c1af51a838def68b9e27ed2dabec6fc60ea60405160405180910390a350565b600061106d676bf77d94eacc566d60c01b612b98565b611081675f1d1842c9b0f02560c01b612b98565b611095673e213e986771adaa60c01b612b98565b61109d610de8565b905090565b60006110ad826122bf565b905080600860008473ffffffffffffffffffffffffffffffffffffffff1673ffffffffffffffffffffffffffffffffffffffff16815260200190815260200160002060008282546110fe9190614d9d565b925050819055508173ffffffffffffffffffffffffffffffffffffffff167fc0e523490dd523c33b1878c9eb14ff46991e3f5b2cd33710918618f2a39cba1b8260405161114b919061471e565b60405180910390a26111658261115f6116f3565b83612dd1565b5050565b600061117f671ce084ec7871a0b260c01b612b98565b611193671064662d6a42c90860c01b612b98565b6111a7676ac6be8e1324e6fa60c01b612b98565b600b54905090565b6111c06111ba612c60565b82612e57565b6111ff576040517f08c379a00000000000000000000000000000000000000000000000000000000081526004016111f690614e43565b60405180910390fd5b61120a838383612eec565b505050565b61122367aa3b686b6af7df2660c01b612b98565b7f0914bb97ca83e85ef385857d9d418f187ff630589e0c9f44db92976d8e4519cb61124d816131e5565b611261678755002a690a781a60c01b612b98565b61127567deea2e3c7e4502b260c01b612b98565b611289670d9355b64fb475f060c01b612b98565b61129d67cbf3a6c8ccdff89260c01b612b98565b7f000000000000000000000000000000000000000000000000000000000000000015611373576112d7670a0e5b62317d518e60c01b612b98565b6112eb674e8bc9c6d152744060c01b612b98565b6112ff67f874ad21ebb4116660c01b612b98565b61131367d63b180068e39c4360c01b612b98565b61131b611cee565b61135a576040517f08c379a000000000000000000000000000000000000000000000000000000000815260040161135190614ed5565b60405180910390fd5b61136e67a1ed08a67c8498f260c01b612b98565b611388565b61138767033e0c23ec2d291560c01b612b98565b5b61139c67dc893cdcdfdd27eb60c01b612b98565b6113b067ecf19a2b16be928560c01b612b98565b60006113ba61247b565b426113c59190614ef5565b90506113db67ca3ae69059a3997660c01b612b98565b6113ef67bcc674f62cce2bb560c01b612b98565b61140367ed6d3e80330793f760c01b612b98565b61140b610de8565b8167ffffffffffffffff16111561142157600080fd5b6114356770c21d41c460a92860c01b612b98565b611449670e61ea7b06e1d50a60c01b612b98565b61145d67a235efb37924a3d660c01b612b98565b600061146882610dc3565b905061147e67c9e7b9ef3383827860c01b612b98565b61149267091805cefc5ef22260c01b612b98565b60003373ffffffffffffffffffffffffffffffffffffffff16826040516114b890614f5a565b60006040518083038185875af1925050503d80600081146114f5576040519150601f19603f3d011682016040523d82523d6000602084013e6114fa565b606091505b5050905061151267a545bff421481fbd60c01b612b98565b611526673cd5b2842cdcecf760c01b612b98565b806115855761153f678ba6f57adef6b57460c01b612b98565b61155367a7de33404381eef860c01b612b98565b6040517f9af25e5d00000000000000000000000000000000000000000000000000000000815260040160405180910390fd5b611599676148cb3b2fa0864c60c01b612b98565b6115ad6703b937e6507d768d60c01b612b98565b6115c16756d78de6893ef49a60c01b612b98565b813373ffffffffffffffffffffffffffffffffffffffff167fd7d7cc3c005efe228d9482e7be336bc7174fd6097c03fe43d13655005bbd46f760405160405180910390a350505050565b600060066000838152602001908152602001600020600101549050919050565b6116348261160b565b61163d816131e5565b61164783836131f9565b505050565b7f0914bb97ca83e85ef385857d9d418f187ff630589e0c9f44db92976d8e4519cb81565b611678612c60565b73ffffffffffffffffffffffffffffffffffffffff168173ffffffffffffffffffffffffffffffffffffffff16146116e5576040517f08c379a00000000000000000000000000000000000000000000000000000000081526004016116dc90614fe1565b60405180910390fd5b6116ef82826132da565b5050565b60007f0000000000000000000000000000000000000000000000000000000000000000905090565b61173683838360405180602001604052806000815250612419565b505050565b61174f6722e1f967c8098e9b60c01b612b98565b7fef28dcbf06eb73add8f77665c46a6263e719f928f9c34710ec1097573ba6e20c611779816131e5565b61178d67dd694d685252502760c01b612b98565b6117a167f561c99003df35a860c01b612b98565b6117b567073733a21e9689d260c01b612b98565b6117c967cfb85a480744f23a60c01b612b98565b6117dd67bc247d93afd10d9f60c01b612b98565b7f0000000000000000000000000000000000000000000000000000000000000000611806612166565b03611846576040517f08c379a000000000000000000000000000000000000000000000000000000000815260040161183d90615073565b60405180910390fd5b61185a6712740fe0041b7bd160c01b612b98565b61186e6791a36e768e9abfcd60c01b612b98565b61188267386bd759e00cf11d60c01b612b98565b611896674d26059dab91b0bb60c01b612b98565b60006118a0612b76565b10156118e1576040517f08c379a00000000000000000000000000000000000000000000000000000000081526004016118d8906150df565b60405180910390fd5b6118f567ef285ad0bde74fe560c01b612b98565b61190967df04e9d5f689977460c01b612b98565b61191d6729c8f20b5c25e34660c01b612b98565b611925611ff9565b611939673852c01895b152b460c01b612b98565b61194d673b2fd2b871494aac60c01b612b98565b6000611957612166565b905061196d67c0f88e01197bf38e60c01b612b98565b611981671a6feeb2e7c7a36060c01b612b98565b60003373ffffffffffffffffffffffffffffffffffffffff16826040516119a790614f5a565b60006040518083038185875af1925050503d80600081146119e4576040519150601f19603f3d011682016040523d82523d6000602084013e6119e9565b606091505b50509050611a016734cccd0b4464206860c01b612b98565b611a15679f281e2360ccf4ba60c01b612b98565b80611a7457611a2e67b832f39b6fde455760c01b612b98565b611a42672d2b535e51b0c28d60c01b612b98565b6040517f9af25e5d00000000000000000000000000000000000000000000000000000000815260040160405180910390fd5b611a8867c1f33f474ab4528d60c01b612b98565b611a9c67d278960b2e8b808360c01b612b98565b611ab06755756992073d3ce660c01b612b98565b611ab8612166565b3373ffffffffffffffffffffffffffffffffffffffff167fcebf6e87c3f2bd4df41bc6e2e842495680906affd0e429f056fba0989a08537c60405160405180910390a3505050565b600080611b0c836133bc565b9050600073ffffffffffffffffffffffffffffffffffffffff168173ffffffffffffffffffffffffffffffffffffffff1603611b7d576040517f08c379a0000000000000000000000000000000000000000000000000000000008152600401611b749061514b565b60405180910390fd5b80915050919050565b6000611b9c676e06fcb7e04b892360c01b612b98565b611bb06752f0224b33d782a260c01b612b98565b611bc4674ef6c208df4b41a160c01b612b98565b7f0000000000000000000000000000000000000000000000000000000000000000905090565b6000611c0067824b95bf921caeba60c01b612b98565b611c14671642f04e5a36622760c01b612b98565b611c28672dbfbb6f18c350ed60c01b612b98565b611c3260096133f9565b905090565b60008073ffffffffffffffffffffffffffffffffffffffff168273ffffffffffffffffffffffffffffffffffffffff1603611ca7576040517f08c379a0000000000000000000000000000000000000000000000000000000008152600401611c9e906151dd565b60405180910390fd5b600360008373ffffffffffffffffffffffffffffffffffffffff1673ffffffffffffffffffffffffffffffffffffffff168152602001908152602001600020549050919050565b6000611d046750937292f19dfc8d60c01b612b98565b611d18678c6dff6d2af0998860c01b612b98565b611d2c67a21cee3a8f46cc4d60c01b612b98565b611d4067a1068580a3bd1a5a60c01b612b98565b7f0000000000000000000000000000000000000000000000000000000000000000611dbf57611d79672b995f7b8538d0e360c01b612b98565b611d8d6722c11c1224adc30960c01b612b98565b6040517fad1faa7200000000000000000000000000000000000000000000000000000000815260040160405180910390fd5b611dd3671e19301997530aa860c01b612b98565b611de767053f731b6b8b3c3b60c01b612b98565b611dfb67f11341127d3b338760c01b612b98565b611e0f67fc036a94b0b9da4e60c01b612b98565b611e2367557de288767359f060c01b612b98565b611e3767665cd2041ebf36f360c01b612b98565b6000611e43600a6133f9565b9050611e5967ca15dd6c48d5945d60c01b612b98565b611e6d67cb5320167162309c60c01b612b98565b6000611e9b6064611e8d603c600e8054905061340790919063ffffffff16565b61341d90919063ffffffff16565b9050611eb1673d9fe4ae3a7af7ab60c01b612b98565b611ec567c7658a21a8e1e8af60c01b612b98565b808210611f1357611ee067b2e693093a4e38aa60c01b612b98565b611ef46719d4b306f07e292d60c01b612b98565b611f0867b837868e6ba02e0260c01b612b98565b600192505050611f56565b611f276773732e9bbd3e39b060c01b612b98565b611f3b679c1f4b61f1dc661c60c01b612b98565b611f4f672e1a02ee5550c45860c01b612b98565b6000925050505b90565b6000611ff1611f6784612170565b8473ffffffffffffffffffffffffffffffffffffffff166370a08231306040518263ffffffff1660e01b8152600401611fa0919061461b565b602060405180830381865afa158015611fbd573d6000803e3d6000fd5b505050506040513d601f19601f82011682018060405250810190611fe19190615212565b611feb9190614d9d565b83612d21565b905092915050565b6000612003612b76565b905080600760008282546120179190614d9d565b925050819055507fda9d4e5f101b8b9b1c5b76d0c5a9f7923571acfc02376aa076b75a8c080c956b8160405161204d919061471e565b60405180910390a16120666120606116f3565b82613433565b50565b60006006600084815260200190815260200160002060000160008373ffffffffffffffffffffffffffffffffffffffff1673ffffffffffffffffffffffffffffffffffffffff16815260200190815260200160002060009054906101000a900460ff16905092915050565b6060600180546120e390614c19565b80601f016020809104026020016040519081016040528092919081815260200182805461210f90614c19565b801561215c5780601f106121315761010080835404028352916020019161215c565b820191906000526020600020905b81548152906001019060200180831161213f57829003601f168201915b5050505050905090565b6000600754905090565b6000600860008373ffffffffffffffffffffffffffffffffffffffff1673ffffffffffffffffffffffffffffffffffffffff168152602001908152602001600020549050919050565b60006121cf67538e5307a42153a160c01b612b98565b6121e367af5230366f88438960c01b612b98565b6121f767f110b9480dd229df60c01b612b98565b600d60008373ffffffffffffffffffffffffffffffffffffffff1673ffffffffffffffffffffffffffffffffffffffff168152602001908152602001600020549050919050565b600061225467bbf0fa10f2593c6c60c01b612b98565b61226867a62fd9794988fa3e60c01b612b98565b61227c6772fec4d69657953e60c01b612b98565b7f0000000000000000000000000000000000000000000000000000000000000000905090565b6000801b81565b6122bb6122b4612c60565b8383613527565b5050565b60006122ca82612170565b6122d48342611f59565b6122de9190614ef5565b9050919050565b60006122fb675d6ce62e17e86caa60c01b612b98565b61230f677f8c8d6cc21ba67a60c01b612b98565b61232367f21b3f12b57b348160c01b612b98565b61232d600a6133f9565b905090565b6000612348675041246632ad2b6a60c01b612b98565b61235c6748274fc156c7717c60c01b612b98565b61237067b1fef4e6e351613060c01b612b98565b6000336040516020016123839190615287565b6040516020818303038152906040528051906020012090506123af674b19892a3aa1e57060c01b612b98565b6123c36715777d87369ae97f60c01b612b98565b61240f858580806020026020016040519081016040528093929190818152602001838360200280828437600081840152601f19601f820116905080830192505050505050508483613693565b9150509392505050565b61242a612424612c60565b83612e57565b612469576040517f08c379a000000000000000000000000000000000000000000000000000000000815260040161246090614e43565b60405180910390fd5b612475848484846136aa565b50505050565b60007f000000000000000000000000000000000000000000000000000000000000000067ffffffffffffffff16905090565b60606124c367c0bd7a3cf2cf140660c01b612b98565b6124d767ef9bd457eeaa272160c01b612b98565b6124eb679a48426d1d56d85360c01b612b98565b600c80546124f890614c19565b80601f016020809104026020016040519081016040528092919081815260200182805461252490614c19565b80156125715780601f1061254657610100808354040283529160200191612571565b820191906000526020600020905b81548152906001019060200180831161255457829003601f168201915b50505050509050919050565b6000612593679053de0f4b41b56760c01b612b98565b6125a767191bcc48272cff0060c01b612b98565b6125bb67ced6280eee919eec60c01b612b98565b600e80549050905090565b6125cf8261160b565b6125d8816131e5565b6125e283836132da565b505050565b60006125fd674a723eead7f54ce560c01b612b98565b61261167d26f038a02a0e26d60c01b612b98565b61262567a2dd860c3bf742b360c01b612b98565b600e8281548110612639576126386152a2565b5b9060005260206000200160009054906101000a900473ffffffffffffffffffffffffffffffffffffffff169050919050565b600061268167e9f1c5f33f4c428260c01b612b98565b612695673a97ee566d7eb24c60c01b612b98565b6126a967f1b6b6db98c3ca5360c01b612b98565b7f0000000000000000000000000000000000000000000000000000000000000000905090565b60006126e567a7d1f490e2878b5860c01b612b98565b6126f9671c697cfbd29ab15860c01b612b98565b61270d67bb3af73e974fcf4760c01b612b98565b6000612717610de8565b905061272d67d1aada20b9f7c49160c01b612b98565b61274167609215c3e2a2790f60c01b612b98565b600062278d00905061275d67c682fa655d5361db60c01b612b98565b61277167b46db9ac4724fd3660c01b612b98565b6000612786828461341d90919063ffffffff16565b905061279c677b2c0956e687f12260c01b612b98565b6127b06742257a6b9f2713a660c01b612b98565b6127e3817f000000000000000000000000000000000000000000000000000000000000000061341d90919063ffffffff16565b935050505090565b6127ff67b61c690cde676e1a60c01b612b98565b61281367c87486c2b11239c060c01b612b98565b612827675e7cd913415b0b4560c01b612b98565b60006128316126cf565b905061284767dd0ca52ff9d4a45e60c01b612b98565b61285b67bb5f39148221af6060c01b612b98565b600061286760096133f9565b905061287d677c1e58140bbf6fdd60c01b612b98565b612891679a07c3488ca27be960c01b612b98565b8134116128f2576128ac670882cf50b65ad75760c01b612b98565b6128c067df092eced581cfd460c01b612b98565b6040517fcf463cf900000000000000000000000000000000000000000000000000000000815260040160405180910390fd5b612906670892b0f4be95535a60c01b612b98565b61291a672a3a0c98bbf041ee60c01b612b98565b34600d60003373ffffffffffffffffffffffffffffffffffffffff1673ffffffffffffffffffffffffffffffffffffffff1681526020019081526020016000208190555061297267ef31457dcc492def60c01b612b98565b61298667a17284a66376b52d60c01b612b98565b600e339080600181540180825580915050600190039060005260206000200160009091909190916101000a81548173ffffffffffffffffffffffffffffffffffffffff021916908373ffffffffffffffffffffffffffffffffffffffff1602179055506129fd67044457594d7cb5cb60c01b612b98565b612a1167fd71d82b7a7d86ea60c01b612b98565b612a1b3382613706565b612a2f67e168978525f3d15160c01b612b98565b612a4367d7700c1fc4eaace060c01b612b98565b612a4d6009612dbb565b612a61672b41748282de166360c01b612b98565b612a7567c34aefdc8c17f94560c01b612b98565b343373ffffffffffffffffffffffffffffffffffffffff16827fe030e47e27825a2ad1b19e4cf2e70bfbfb3124af275c7727a82b114ba7b29a8560405160405180910390a45050565b6000600560008473ffffffffffffffffffffffffffffffffffffffff1673ffffffffffffffffffffffffffffffffffffffff16815260200190815260200160002060008373ffffffffffffffffffffffffffffffffffffffff1673ffffffffffffffffffffffffffffffffffffffff16815260200190815260200160002060009054906101000a900460ff16905092915050565b7fef28dcbf06eb73add8f77665c46a6263e719f928f9c34710ec1097573ba6e20c81565b6000612b80612166565b612b8942610dc3565b612b939190614ef5565b905090565b50565b60007f7965db0b000000000000000000000000000000000000000000000000000000007bffffffffffffffffffffffffffffffffffffffffffffffffffffffff1916827bffffffffffffffffffffffffffffffffffffffffffffffffffffffff19161480612c0e5750612c0d82613724565b5b9050919050565b612c1e81613806565b612c5d576040517f08c379a0000000000000000000000000000000000000000000000000000000008152600401612c549061514b565b60405180910390fd5b50565b600033905090565b816004600083815260200190815260200160002060006101000a81548173ffffffffffffffffffffffffffffffffffffffff021916908373ffffffffffffffffffffffffffffffffffffffff160217905550808273ffffffffffffffffffffffffffffffffffffffff16612cdb83611b00565b73ffffffffffffffffffffffffffffffffffffffff167f8c5be1e5ebec7d5bd14f71427d1e84f3dd0314c0f7b2291e5b200ac8c7c3b92560405160405180910390a45050565b6000612d2b61247b565b8267ffffffffffffffff161015612d455760009050612db5565b612d4d610de8565b612d5561247b565b612d5f9190614d9d565b8267ffffffffffffffff161115612d7857829050612db5565b612d80610de8565b612d8861247b565b8367ffffffffffffffff16612d9d9190614ef5565b84612da891906152d1565b612db29190615342565b90505b92915050565b6001816000016000828254019250508190555050565b612e528363a9059cbb60e01b8484604051602401612df0929190615373565b604051602081830303815290604052907bffffffffffffffffffffffffffffffffffffffffffffffffffffffff19166020820180517bffffffffffffffffffffffffffffffffffffffffffffffffffffffff8381831617835250505050613847565b505050565b600080612e6383611b00565b90508073ffffffffffffffffffffffffffffffffffffffff168473ffffffffffffffffffffffffffffffffffffffff161480612ea55750612ea48185612abe565b5b80612ee357508373ffffffffffffffffffffffffffffffffffffffff16612ecb84610c66565b73ffffffffffffffffffffffffffffffffffffffff16145b91505092915050565b8273ffffffffffffffffffffffffffffffffffffffff16612f0c82611b00565b73ffffffffffffffffffffffffffffffffffffffff1614612f62576040517f08c379a0000000000000000000000000000000000000000000000000000000008152600401612f599061540e565b60405180910390fd5b600073ffffffffffffffffffffffffffffffffffffffff168273ffffffffffffffffffffffffffffffffffffffff1603612fd1576040517f08c379a0000000000000000000000000000000000000000000000000000000008152600401612fc8906154a0565b60405180910390fd5b612fde838383600161390e565b8273ffffffffffffffffffffffffffffffffffffffff16612ffe82611b00565b73ffffffffffffffffffffffffffffffffffffffff1614613054576040517f08c379a000000000000000000000000000000000000000000000000000000000815260040161304b9061540e565b60405180910390fd5b6004600082815260200190815260200160002060006101000a81549073ffffffffffffffffffffffffffffffffffffffff02191690556001600360008573ffffffffffffffffffffffffffffffffffffffff1673ffffffffffffffffffffffffffffffffffffffff168152602001908152602001600020600082825403925050819055506001600360008473ffffffffffffffffffffffffffffffffffffffff1673ffffffffffffffffffffffffffffffffffffffff16815260200190815260200160002060008282540192505081905550816002600083815260200190815260200160002060006101000a81548173ffffffffffffffffffffffffffffffffffffffff021916908373ffffffffffffffffffffffffffffffffffffffff160217905550808273ffffffffffffffffffffffffffffffffffffffff168473ffffffffffffffffffffffffffffffffffffffff167fddf252ad1be2c89b69c2b068fc378daa952ba7f163c4a11628f55a4df523b3ef60405160405180910390a46131e08383836001613a34565b505050565b6131f6816131f1612c60565b613a3a565b50565b6132038282612069565b6132d65760016006600084815260200190815260200160002060000160008373ffffffffffffffffffffffffffffffffffffffff1673ffffffffffffffffffffffffffffffffffffffff16815260200190815260200160002060006101000a81548160ff02191690831515021790555061327b612c60565b73ffffffffffffffffffffffffffffffffffffffff168173ffffffffffffffffffffffffffffffffffffffff16837f2f8788117e7eff1d82e926ec794901d17c78024a50270940304540a733656f0d60405160405180910390a45b5050565b6132e48282612069565b156133b85760006006600084815260200190815260200160002060000160008373ffffffffffffffffffffffffffffffffffffffff1673ffffffffffffffffffffffffffffffffffffffff16815260200190815260200160002060006101000a81548160ff02191690831515021790555061335d612c60565b73ffffffffffffffffffffffffffffffffffffffff168173ffffffffffffffffffffffffffffffffffffffff16837ff6391f5c32d9c69d2a47ea670b442974b53935d1edc7fd64eb21e047a839171b60405160405180910390a45b5050565b60006002600083815260200190815260200160002060009054906101000a900473ffffffffffffffffffffffffffffffffffffffff169050919050565b600081600001549050919050565b6000818361341591906152d1565b905092915050565b6000818361342b9190615342565b905092915050565b80471015613476576040517f08c379a000000000000000000000000000000000000000000000000000000000815260040161346d9061550c565b60405180910390fd5b60008273ffffffffffffffffffffffffffffffffffffffff168260405161349c90614f5a565b60006040518083038185875af1925050503d80600081146134d9576040519150601f19603f3d011682016040523d82523d6000602084013e6134de565b606091505b5050905080613522576040517f08c379a00000000000000000000000000000000000000000000000000000000081526004016135199061559e565b60405180910390fd5b505050565b8173ffffffffffffffffffffffffffffffffffffffff168373ffffffffffffffffffffffffffffffffffffffff1603613595576040517f08c379a000000000000000000000000000000000000000000000000000000000815260040161358c9061560a565b60405180910390fd5b80600560008573ffffffffffffffffffffffffffffffffffffffff1673ffffffffffffffffffffffffffffffffffffffff16815260200190815260200160002060008473ffffffffffffffffffffffffffffffffffffffff1673ffffffffffffffffffffffffffffffffffffffff16815260200190815260200160002060006101000a81548160ff0219169083151502179055508173ffffffffffffffffffffffffffffffffffffffff168373ffffffffffffffffffffffffffffffffffffffff167f17307eab39ab6107e8899845ad3d59bd9653f200f220920489ca2b5937696c318360405161368691906144aa565b60405180910390a3505050565b6000826136a08584613abf565b1490509392505050565b6136b5848484612eec565b6136c184848484613b15565b613700576040517f08c379a00000000000000000000000000000000000000000000000000000000081526004016136f79061569c565b60405180910390fd5b50505050565b613720828260405180602001604052806000815250613c9c565b5050565b60007f80ac58cd000000000000000000000000000000000000000000000000000000007bffffffffffffffffffffffffffffffffffffffffffffffffffffffff1916827bffffffffffffffffffffffffffffffffffffffffffffffffffffffff191614806137ef57507f5b5e139f000000000000000000000000000000000000000000000000000000007bffffffffffffffffffffffffffffffffffffffffffffffffffffffff1916827bffffffffffffffffffffffffffffffffffffffffffffffffffffffff1916145b806137ff57506137fe82613cf7565b5b9050919050565b60008073ffffffffffffffffffffffffffffffffffffffff16613828836133bc565b73ffffffffffffffffffffffffffffffffffffffff1614159050919050565b60006138a9826040518060400160405280602081526020017f5361666545524332303a206c6f772d6c6576656c2063616c6c206661696c65648152508573ffffffffffffffffffffffffffffffffffffffff16613d619092919063ffffffff16565b905060008151111561390957808060200190518101906138c991906156d1565b613908576040517f08c379a00000000000000000000000000000000000000000000000000000000081526004016138ff90615770565b60405180910390fd5b5b505050565b6001811115613a2e57600073ffffffffffffffffffffffffffffffffffffffff168473ffffffffffffffffffffffffffffffffffffffff16146139a25780600360008673ffffffffffffffffffffffffffffffffffffffff1673ffffffffffffffffffffffffffffffffffffffff168152602001908152602001600020600082825461399a9190614ef5565b925050819055505b600073ffffffffffffffffffffffffffffffffffffffff168373ffffffffffffffffffffffffffffffffffffffff1614613a2d5780600360008573ffffffffffffffffffffffffffffffffffffffff1673ffffffffffffffffffffffffffffffffffffffff1681526020019081526020016000206000828254613a259190614d9d565b925050819055505b5b50505050565b50505050565b613a448282612069565b613abb57613a5181613d79565b613a5f8360001c6020613da6565b604051602001613a70929190615864565b6040516020818303038152906040526040517f08c379a0000000000000000000000000000000000000000000000000000000008152600401613ab29190614555565b60405180910390fd5b5050565b60008082905060005b8451811015613b0a57613af582868381518110613ae857613ae76152a2565b5b6020026020010151613fe2565b91508080613b029061589e565b915050613ac8565b508091505092915050565b6000613b368473ffffffffffffffffffffffffffffffffffffffff1661400d565b15613c8f578373ffffffffffffffffffffffffffffffffffffffff1663150b7a02613b5f612c60565b8786866040518563ffffffff1660e01b8152600401613b81949392919061593b565b6020604051808303816000875af1925050508015613bbd57506040513d601f19601f82011682018060405250810190613bba919061599c565b60015b613c3f573d8060008114613bed576040519150601f19603f3d011682016040523d82523d6000602084013e613bf2565b606091505b506000815103613c37576040517f08c379a0000000000000000000000000000000000000000000000000000000008152600401613c2e9061569c565b60405180910390fd5b805181602001fd5b63150b7a0260e01b7bffffffffffffffffffffffffffffffffffffffffffffffffffffffff1916817bffffffffffffffffffffffffffffffffffffffffffffffffffffffff191614915050613c94565b600190505b949350505050565b613ca68383614030565b613cb36000848484613b15565b613cf2576040517f08c379a0000000000000000000000000000000000000000000000000000000008152600401613ce99061569c565b60405180910390fd5b505050565b60007f01ffc9a7000000000000000000000000000000000000000000000000000000007bffffffffffffffffffffffffffffffffffffffffffffffffffffffff1916827bffffffffffffffffffffffffffffffffffffffffffffffffffffffff1916149050919050565b6060613d70848460008561424d565b90509392505050565b6060613d9f8273ffffffffffffffffffffffffffffffffffffffff16601460ff16613da6565b9050919050565b606060006002836002613db991906152d1565b613dc39190614d9d565b67ffffffffffffffff811115613ddc57613ddb6149fc565b5b6040519080825280601f01601f191660200182016040528015613e0e5781602001600182028036833780820191505090505b5090507f300000000000000000000000000000000000000000000000000000000000000081600081518110613e4657613e456152a2565b5b60200101907effffffffffffffffffffffffffffffffffffffffffffffffffffffffffffff1916908160001a9053507f780000000000000000000000000000000000000000000000000000000000000081600181518110613eaa57613ea96152a2565b5b60200101907effffffffffffffffffffffffffffffffffffffffffffffffffffffffffffff1916908160001a90535060006001846002613eea91906152d1565b613ef49190614d9d565b90505b6001811115613f94577f3031323334353637383961626364656600000000000000000000000000000000600f861660108110613f3657613f356152a2565b5b1a60f81b828281518110613f4d57613f4c6152a2565b5b60200101907effffffffffffffffffffffffffffffffffffffffffffffffffffffffffffff1916908160001a905350600485901c945080613f8d906159c9565b9050613ef7565b5060008414613fd8576040517f08c379a0000000000000000000000000000000000000000000000000000000008152600401613fcf90615a3e565b60405180910390fd5b8091505092915050565b6000818310613ffa57613ff5828461431a565b614005565b614004838361431a565b5b905092915050565b6000808273ffffffffffffffffffffffffffffffffffffffff163b119050919050565b600073ffffffffffffffffffffffffffffffffffffffff168273ffffffffffffffffffffffffffffffffffffffff160361409f576040517f08c379a000000000000000000000000000000000000000000000000000000000815260040161409690615aaa565b60405180910390fd5b6140a881613806565b156140e8576040517f08c379a00000000000000000000000000000000000000000000000000000000081526004016140df90615b16565b60405180910390fd5b6140f660008383600161390e565b6140ff81613806565b1561413f576040517f08c379a000000000000000000000000000000000000000000000000000000000815260040161413690615b16565b60405180910390fd5b6001600360008473ffffffffffffffffffffffffffffffffffffffff1673ffffffffffffffffffffffffffffffffffffffff16815260200190815260200160002060008282540192505081905550816002600083815260200190815260200160002060006101000a81548173ffffffffffffffffffffffffffffffffffffffff021916908373ffffffffffffffffffffffffffffffffffffffff160217905550808273ffffffffffffffffffffffffffffffffffffffff16600073ffffffffffffffffffffffffffffffffffffffff167fddf252ad1be2c89b69c2b068fc378daa952ba7f163c4a11628f55a4df523b3ef60405160405180910390a4614249600083836001613a34565b5050565b606082471015614292576040517f08c379a000000000000000000000000000000000000000000000000000000000815260040161428990615ba8565b60405180910390fd5b6000808673ffffffffffffffffffffffffffffffffffffffff1685876040516142bb9190615bf9565b60006040518083038185875af1925050503d80600081146142f8576040519150601f19603f3d011682016040523d82523d6000602084013e6142fd565b606091505b509150915061430e87838387614331565b92505050949350505050565b600082600052816020526040600020905092915050565b6060831561439357600083510361438b5761434b8561400d565b61438a576040517f08c379a000000000000000000000000000000000000000000000000000000000815260040161438190615c5c565b60405180910390fd5b5b82905061439e565b61439d83836143a6565b5b949350505050565b6000825111156143b95781518083602001fd5b806040517f08c379a00000000000000000000000000000000000000000000000000000000081526004016143ed9190614555565b60405180910390fd5b6000604051905090565b600080fd5b600080fd5b60007fffffffff0000000000000000000000000000000000000000000000000000000082169050919050565b61443f8161440a565b811461444a57600080fd5b50565b60008135905061445c81614436565b92915050565b60006020828403121561447857614477614400565b5b60006144868482850161444d565b91505092915050565b60008115159050919050565b6144a48161448f565b82525050565b60006020820190506144bf600083018461449b565b92915050565b600081519050919050565b600082825260208201905092915050565b60005b838110156144ff5780820151818401526020810190506144e4565b60008484015250505050565b6000601f19601f8301169050919050565b6000614527826144c5565b61453181856144d0565b93506145418185602086016144e1565b61454a8161450b565b840191505092915050565b6000602082019050818103600083015261456f818461451c565b905092915050565b6000819050919050565b61458a81614577565b811461459557600080fd5b50565b6000813590506145a781614581565b92915050565b6000602082840312156145c3576145c2614400565b5b60006145d184828501614598565b91505092915050565b600073ffffffffffffffffffffffffffffffffffffffff82169050919050565b6000614605826145da565b9050919050565b614615816145fa565b82525050565b6000602082019050614630600083018461460c565b92915050565b61463f816145fa565b811461464a57600080fd5b50565b60008135905061465c81614636565b92915050565b6000806040838503121561467957614678614400565b5b60006146878582860161464d565b925050602061469885828601614598565b9150509250929050565b600067ffffffffffffffff82169050919050565b6146bf816146a2565b81146146ca57600080fd5b50565b6000813590506146dc816146b6565b92915050565b6000602082840312156146f8576146f7614400565b5b6000614706848285016146cd565b91505092915050565b61471881614577565b82525050565b6000602082019050614733600083018461470f565b92915050565b60006020828403121561474f5761474e614400565b5b600061475d8482850161464d565b91505092915050565b60008060006060848603121561477f5761477e614400565b5b600061478d8682870161464d565b935050602061479e8682870161464d565b92505060406147af86828701614598565b9150509250925092565b6000819050919050565b6147cc816147b9565b81146147d757600080fd5b50565b6000813590506147e9816147c3565b92915050565b60006020828403121561480557614804614400565b5b6000614813848285016147da565b91505092915050565b614825816147b9565b82525050565b6000602082019050614840600083018461481c565b92915050565b6000806040838503121561485d5761485c614400565b5b600061486b858286016147da565b925050602061487c8582860161464d565b9150509250929050565b6000806040838503121561489d5761489c614400565b5b60006148ab8582860161464d565b92505060206148bc858286016146cd565b9150509250929050565b6148cf8161448f565b81146148da57600080fd5b50565b6000813590506148ec816148c6565b92915050565b6000806040838503121561490957614908614400565b5b60006149178582860161464d565b9250506020614928858286016148dd565b9150509250929050565b600080fd5b600080fd5b600080fd5b60008083601f84011261495757614956614932565b5b8235905067ffffffffffffffff81111561497457614973614937565b5b6020830191508360208202830111156149905761498f61493c565b5b9250929050565b6000806000604084860312156149b0576149af614400565b5b600084013567ffffffffffffffff8111156149ce576149cd614405565b5b6149da86828701614941565b935093505060206149ed868287016147da565b9150509250925092565b600080fd5b7f4e487b7100000000000000000000000000000000000000000000000000000000600052604160045260246000fd5b614a348261450b565b810181811067ffffffffffffffff82111715614a5357614a526149fc565b5b80604052505050565b6000614a666143f6565b9050614a728282614a2b565b919050565b600067ffffffffffffffff821115614a9257614a916149fc565b5b614a9b8261450b565b9050602081019050919050565b82818337600083830152505050565b6000614aca614ac584614a77565b614a5c565b905082815260208101848484011115614ae657614ae56149f7565b5b614af1848285614aa8565b509392505050565b600082601f830112614b0e57614b0d614932565b5b8135614b1e848260208601614ab7565b91505092915050565b60008060008060808587031215614b4157614b40614400565b5b6000614b4f8782880161464d565b9450506020614b608782880161464d565b9350506040614b7187828801614598565b925050606085013567ffffffffffffffff811115614b9257614b91614405565b5b614b9e87828801614af9565b91505092959194509250565b60008060408385031215614bc157614bc0614400565b5b6000614bcf8582860161464d565b9250506020614be08582860161464d565b9150509250929050565b7f4e487b7100000000000000000000000000000000000000000000000000000000600052602260045260246000fd5b60006002820490506001821680614c3157607f821691505b602082108103614c4457614c43614bea565b5b50919050565b7f4552433732313a20617070726f76616c20746f2063757272656e74206f776e6560008201527f7200000000000000000000000000000000000000000000000000000000000000602082015250565b6000614ca66021836144d0565b9150614cb182614c4a565b604082019050919050565b60006020820190508181036000830152614cd581614c99565b9050919050565b7f4552433732313a20617070726f76652063616c6c6572206973206e6f7420746f60008201527f6b656e206f776e6572206f7220617070726f76656420666f7220616c6c000000602082015250565b6000614d38603d836144d0565b9150614d4382614cdc565b604082019050919050565b60006020820190508181036000830152614d6781614d2b565b9050919050565b7f4e487b7100000000000000000000000000000000000000000000000000000000600052601160045260246000fd5b6000614da882614577565b9150614db383614577565b9250828201905080821115614dcb57614dca614d6e565b5b92915050565b7f4552433732313a2063616c6c6572206973206e6f7420746f6b656e206f776e6560008201527f72206f7220617070726f76656400000000000000000000000000000000000000602082015250565b6000614e2d602d836144d0565b9150614e3882614dd1565b604082019050919050565b60006020820190508181036000830152614e5c81614e20565b9050919050565b7f5468657265206973206e6f206d616a6f7269747920617070726f76616c20746f60008201527f2077697468647261770000000000000000000000000000000000000000000000602082015250565b6000614ebf6029836144d0565b9150614eca82614e63565b604082019050919050565b60006020820190508181036000830152614eee81614eb2565b9050919050565b6000614f0082614577565b9150614f0b83614577565b9250828203905081811115614f2357614f22614d6e565b5b92915050565b600081905092915050565b50565b6000614f44600083614f29565b9150614f4f82614f34565b600082019050919050565b6000614f6582614f37565b9150819050919050565b7f416363657373436f6e74726f6c3a2063616e206f6e6c792072656e6f756e636560008201527f20726f6c657320666f722073656c660000000000000000000000000000000000602082015250565b6000614fcb602f836144d0565b9150614fd682614f6f565b604082019050919050565b60006020820190508181036000830152614ffa81614fbe565b9050919050565b7f596f75206861766520636c61696d65642074686520656e7469726520616d6f7560008201527f6e74000000000000000000000000000000000000000000000000000000000000602082015250565b600061505d6022836144d0565b915061506882615001565b604082019050919050565b6000602082019050818103600083015261508c81615050565b9050919050565b7f596f7520646f206e6f7420686176652072656c65617361626c652066756e6473600082015250565b60006150c96020836144d0565b91506150d482615093565b602082019050919050565b600060208201905081810360008301526150f8816150bc565b9050919050565b7f4552433732313a20696e76616c696420746f6b656e2049440000000000000000600082015250565b60006151356018836144d0565b9150615140826150ff565b602082019050919050565b6000602082019050818103600083015261516481615128565b9050919050565b7f4552433732313a2061646472657373207a65726f206973206e6f74206120766160008201527f6c6964206f776e65720000000000000000000000000000000000000000000000602082015250565b60006151c76029836144d0565b91506151d28261516b565b604082019050919050565b600060208201905081810360008301526151f6816151ba565b9050919050565b60008151905061520c81614581565b92915050565b60006020828403121561522857615227614400565b5b6000615236848285016151fd565b91505092915050565b60008160601b9050919050565b60006152578261523f565b9050919050565b60006152698261524c565b9050919050565b61528161527c826145fa565b61525e565b82525050565b60006152938284615270565b60148201915081905092915050565b7f4e487b7100000000000000000000000000000000000000000000000000000000600052603260045260246000fd5b60006152dc82614577565b91506152e783614577565b92508282026152f581614577565b9150828204841483151761530c5761530b614d6e565b5b5092915050565b7f4e487b7100000000000000000000000000000000000000000000000000000000600052601260045260246000fd5b600061534d82614577565b915061535883614577565b92508261536857615367615313565b5b828204905092915050565b6000604082019050615388600083018561460c565b615395602083018461470f565b9392505050565b7f4552433732313a207472616e736665722066726f6d20696e636f72726563742060008201527f6f776e6572000000000000000000000000000000000000000000000000000000602082015250565b60006153f86025836144d0565b91506154038261539c565b604082019050919050565b60006020820190508181036000830152615427816153eb565b9050919050565b7f4552433732313a207472616e7366657220746f20746865207a65726f2061646460008201527f7265737300000000000000000000000000000000000000000000000000000000602082015250565b600061548a6024836144d0565b91506154958261542e565b604082019050919050565b600060208201905081810360008301526154b98161547d565b9050919050565b7f416464726573733a20696e73756666696369656e742062616c616e6365000000600082015250565b60006154f6601d836144d0565b9150615501826154c0565b602082019050919050565b60006020820190508181036000830152615525816154e9565b9050919050565b7f416464726573733a20756e61626c6520746f2073656e642076616c75652c207260008201527f6563697069656e74206d61792068617665207265766572746564000000000000602082015250565b6000615588603a836144d0565b91506155938261552c565b604082019050919050565b600060208201905081810360008301526155b78161557b565b9050919050565b7f4552433732313a20617070726f766520746f2063616c6c657200000000000000600082015250565b60006155f46019836144d0565b91506155ff826155be565b602082019050919050565b60006020820190508181036000830152615623816155e7565b9050919050565b7f4552433732313a207472616e7366657220746f206e6f6e20455243373231526560008201527f63656976657220696d706c656d656e7465720000000000000000000000000000602082015250565b60006156866032836144d0565b91506156918261562a565b604082019050919050565b600060208201905081810360008301526156b581615679565b9050919050565b6000815190506156cb816148c6565b92915050565b6000602082840312156156e7576156e6614400565b5b60006156f5848285016156bc565b91505092915050565b7f5361666545524332303a204552433230206f7065726174696f6e20646964206e60008201527f6f74207375636365656400000000000000000000000000000000000000000000602082015250565b600061575a602a836144d0565b9150615765826156fe565b604082019050919050565b600060208201905081810360008301526157898161574d565b9050919050565b600081905092915050565b7f416363657373436f6e74726f6c3a206163636f756e7420000000000000000000600082015250565b60006157d1601783615790565b91506157dc8261579b565b601782019050919050565b60006157f2826144c5565b6157fc8185615790565b935061580c8185602086016144e1565b80840191505092915050565b7f206973206d697373696e6720726f6c6520000000000000000000000000000000600082015250565b600061584e601183615790565b915061585982615818565b601182019050919050565b600061586f826157c4565b915061587b82856157e7565b915061588682615841565b915061589282846157e7565b91508190509392505050565b60006158a982614577565b91507fffffffffffffffffffffffffffffffffffffffffffffffffffffffffffffffff82036158db576158da614d6e565b5b600182019050919050565b600081519050919050565b600082825260208201905092915050565b600061590d826158e6565b61591781856158f1565b93506159278185602086016144e1565b6159308161450b565b840191505092915050565b6000608082019050615950600083018761460c565b61595d602083018661460c565b61596a604083018561470f565b818103606083015261597c8184615902565b905095945050505050565b60008151905061599681614436565b92915050565b6000602082840312156159b2576159b1614400565b5b60006159c084828501615987565b91505092915050565b60006159d482614577565b9150600082036159e7576159e6614d6e565b5b600182039050919050565b7f537472696e67733a20686578206c656e67746820696e73756666696369656e74600082015250565b6000615a286020836144d0565b9150615a33826159f2565b602082019050919050565b60006020820190508181036000830152615a5781615a1b565b9050919050565b7f4552433732313a206d696e7420746f20746865207a65726f2061646472657373600082015250565b6000615a946020836144d0565b9150615a9f82615a5e565b602082019050919050565b60006020820190508181036000830152615ac381615a87565b9050919050565b7f4552433732313a20746f6b656e20616c7265616479206d696e74656400000000600082015250565b6000615b00601c836144d0565b9150615b0b82615aca565b602082019050919050565b60006020820190508181036000830152615b2f81615af3565b9050919050565b7f416464726573733a20696e73756666696369656e742062616c616e636520666f60008201527f722063616c6c0000000000000000000000000000000000000000000000000000602082015250565b6000615b926026836144d0565b9150615b9d82615b36565b604082019050919050565b60006020820190508181036000830152615bc181615b85565b9050919050565b6000615bd3826158e6565b615bdd8185614f29565b9350615bed8185602086016144e1565b80840191505092915050565b6000615c058284615bc8565b915081905092915050565b7f416464726573733a2063616c6c20746f206e6f6e2d636f6e7472616374000000600082015250565b6000615c46601d836144d0565b9150615c5182615c10565b602082019050919050565b60006020820190508181036000830152615c7581615c39565b905091905056fea264697066735822122036189f62ff70baf15bd2dd837961bdaf1be83eaa7e6c6e1ecfca572746078ad464736f6c63430008110033",
  "linkReferences": {},
  "deployedLinkReferences": {}
}