{
  "_format": "hh-sol-artifact-1",
  "contractName": "FundingContract",
  "sourceName": "contracts/FundingContract.sol",
  "abi": [
    {
      "inputs": [
        {
          "internalType": "uint256",
          "name": "totalFunding",
          "type": "uint256"
        },
        {
          "internalType": "uint256",
          "name": "withdrawalFee",
          "type": "uint256"
        },
        {
          "internalType": "uint256",
          "name": "vestingPeriod",
          "type": "uint256"
        },
        {
          "internalType": "bool",
          "name": "isGroupWithdrawal",
          "type": "bool"
        }
      ],
      "stateMutability": "nonpayable",
      "type": "constructor"
    },
    {
      "inputs": [],
      "name": "FundingContract__NotEnoughETH",
      "type": "error"
    },
    {
      "inputs": [],
      "name": "FundingContract__NotGroupFunding",
      "type": "error"
    },
    {
      "inputs": [],
      "name": "FundingContract__TransferFailed",
      "type": "error"
    },
    {
      "anonymous": false,
      "inputs": [
        {
          "indexed": true,
          "internalType": "address",
          "name": "owner",
          "type": "address"
        },
        {
          "indexed": true,
          "internalType": "address",
          "name": "approved",
          "type": "address"
        },
        {
          "indexed": true,
          "internalType": "uint256",
          "name": "tokenId",
          "type": "uint256"
        }
      ],
      "name": "Approval",
      "type": "event"
    },
    {
      "anonymous": false,
      "inputs": [
        {
          "indexed": true,
          "internalType": "address",
          "name": "owner",
          "type": "address"
        },
        {
          "indexed": true,
          "internalType": "address",
          "name": "operator",
          "type": "address"
        },
        {
          "indexed": false,
          "internalType": "bool",
          "name": "approved",
          "type": "bool"
        }
      ],
      "name": "ApprovalForAll",
      "type": "event"
    },
    {
      "anonymous": false,
      "inputs": [
        {
          "indexed": true,
          "internalType": "address",
          "name": "previousOwner",
          "type": "address"
        },
        {
          "indexed": true,
          "internalType": "address",
          "name": "newOwner",
          "type": "address"
        }
      ],
      "name": "OwnershipTransferred",
      "type": "event"
    },
    {
      "anonymous": false,
      "inputs": [
        {
          "indexed": true,
          "internalType": "address",
          "name": "from",
          "type": "address"
        },
        {
          "indexed": true,
          "internalType": "address",
          "name": "to",
          "type": "address"
        },
        {
          "indexed": true,
          "internalType": "uint256",
          "name": "tokenId",
          "type": "uint256"
        }
      ],
      "name": "Transfer",
      "type": "event"
    },
    {
      "inputs": [
        {
          "internalType": "address",
          "name": "to",
          "type": "address"
        },
        {
          "internalType": "uint256",
          "name": "tokenId",
          "type": "uint256"
        }
      ],
      "name": "approve",
      "outputs": [],
      "stateMutability": "nonpayable",
      "type": "function"
    },
    {
      "inputs": [
        {
          "internalType": "address",
          "name": "owner",
          "type": "address"
        }
      ],
      "name": "balanceOf",
      "outputs": [
        {
          "internalType": "uint256",
          "name": "",
          "type": "uint256"
        }
      ],
      "stateMutability": "view",
      "type": "function"
    },
    {
      "inputs": [],
      "name": "claim",
      "outputs": [],
      "stateMutability": "nonpayable",
      "type": "function"
    },
    {
      "inputs": [],
      "name": "depositFunds",
      "outputs": [],
      "stateMutability": "payable",
      "type": "function"
    },
    {
      "inputs": [
        {
          "internalType": "address",
          "name": "funder",
          "type": "address"
        }
      ],
      "name": "getAddressToAmountFunded",
      "outputs": [
        {
          "internalType": "uint256",
          "name": "",
          "type": "uint256"
        }
      ],
      "stateMutability": "view",
      "type": "function"
    },
    {
      "inputs": [
        {
          "internalType": "uint256",
          "name": "tokenId",
          "type": "uint256"
        }
      ],
      "name": "getApproved",
      "outputs": [
        {
          "internalType": "address",
          "name": "",
          "type": "address"
        }
      ],
      "stateMutability": "view",
      "type": "function"
    },
    {
      "inputs": [
        {
          "internalType": "uint256",
          "name": "index",
          "type": "uint256"
        }
      ],
      "name": "getFunder",
      "outputs": [
        {
          "internalType": "address",
          "name": "",
          "type": "address"
        }
      ],
      "stateMutability": "view",
      "type": "function"
    },
    {
      "inputs": [],
      "name": "getIsGroupWithdrawal",
      "outputs": [
        {
          "internalType": "bool",
          "name": "",
          "type": "bool"
        }
      ],
      "stateMutability": "view",
      "type": "function"
    },
    {
      "inputs": [],
      "name": "getMinimumFundingAmount",
      "outputs": [
        {
          "internalType": "uint256",
          "name": "",
          "type": "uint256"
        }
      ],
      "stateMutability": "view",
      "type": "function"
    },
    {
      "inputs": [],
      "name": "getTotalAmount",
      "outputs": [
        {
          "internalType": "uint256",
          "name": "",
          "type": "uint256"
        }
      ],
      "stateMutability": "view",
      "type": "function"
    },
    {
      "inputs": [],
      "name": "getVestingPeriod",
      "outputs": [
        {
          "internalType": "uint256",
          "name": "",
          "type": "uint256"
        }
      ],
      "stateMutability": "view",
      "type": "function"
    },
    {
      "inputs": [],
      "name": "getWithdrawalFee",
      "outputs": [
        {
          "internalType": "uint256",
          "name": "",
          "type": "uint256"
        }
      ],
      "stateMutability": "view",
      "type": "function"
    },
    {
      "inputs": [
        {
          "internalType": "address",
          "name": "owner",
          "type": "address"
        },
        {
          "internalType": "address",
          "name": "operator",
          "type": "address"
        }
      ],
      "name": "isApprovedForAll",
      "outputs": [
        {
          "internalType": "bool",
          "name": "",
          "type": "bool"
        }
      ],
      "stateMutability": "view",
      "type": "function"
    },
    {
      "inputs": [],
      "name": "name",
      "outputs": [
        {
          "internalType": "string",
          "name": "",
          "type": "string"
        }
      ],
      "stateMutability": "view",
      "type": "function"
    },
    {
      "inputs": [],
      "name": "owner",
      "outputs": [
        {
          "internalType": "address",
          "name": "",
          "type": "address"
        }
      ],
      "stateMutability": "view",
      "type": "function"
    },
    {
      "inputs": [
        {
          "internalType": "uint256",
          "name": "tokenId",
          "type": "uint256"
        }
      ],
      "name": "ownerOf",
      "outputs": [
        {
          "internalType": "address",
          "name": "",
          "type": "address"
        }
      ],
      "stateMutability": "view",
      "type": "function"
    },
    {
      "inputs": [],
      "name": "renounceOwnership",
      "outputs": [],
      "stateMutability": "nonpayable",
      "type": "function"
    },
    {
      "inputs": [
        {
          "internalType": "uint256",
          "name": "tokenId",
          "type": "uint256"
        }
      ],
      "name": "requestForWithdrawal",
      "outputs": [],
      "stateMutability": "nonpayable",
      "type": "function"
    },
    {
      "inputs": [
        {
          "internalType": "address",
          "name": "from",
          "type": "address"
        },
        {
          "internalType": "address",
          "name": "to",
          "type": "address"
        },
        {
          "internalType": "uint256",
          "name": "tokenId",
          "type": "uint256"
        }
      ],
      "name": "safeTransferFrom",
      "outputs": [],
      "stateMutability": "nonpayable",
      "type": "function"
    },
    {
      "inputs": [
        {
          "internalType": "address",
          "name": "from",
          "type": "address"
        },
        {
          "internalType": "address",
          "name": "to",
          "type": "address"
        },
        {
          "internalType": "uint256",
          "name": "tokenId",
          "type": "uint256"
        },
        {
          "internalType": "bytes",
          "name": "data",
          "type": "bytes"
        }
      ],
      "name": "safeTransferFrom",
      "outputs": [],
      "stateMutability": "nonpayable",
      "type": "function"
    },
    {
      "inputs": [
        {
          "internalType": "address",
          "name": "operator",
          "type": "address"
        },
        {
          "internalType": "bool",
          "name": "approved",
          "type": "bool"
        }
      ],
      "name": "setApprovalForAll",
      "outputs": [],
      "stateMutability": "nonpayable",
      "type": "function"
    },
    {
      "inputs": [
        {
          "internalType": "bytes4",
          "name": "interfaceId",
          "type": "bytes4"
        }
      ],
      "name": "supportsInterface",
      "outputs": [
        {
          "internalType": "bool",
          "name": "",
          "type": "bool"
        }
      ],
      "stateMutability": "view",
      "type": "function"
    },
    {
      "inputs": [],
      "name": "symbol",
      "outputs": [
        {
          "internalType": "string",
          "name": "",
          "type": "string"
        }
      ],
      "stateMutability": "view",
      "type": "function"
    },
    {
      "inputs": [
        {
          "internalType": "uint256",
          "name": "tokenId",
          "type": "uint256"
        }
      ],
      "name": "tokenURI",
      "outputs": [
        {
          "internalType": "string",
          "name": "",
          "type": "string"
        }
      ],
      "stateMutability": "view",
      "type": "function"
    },
    {
      "inputs": [
        {
          "internalType": "address",
          "name": "from",
          "type": "address"
        },
        {
          "internalType": "address",
          "name": "to",
          "type": "address"
        },
        {
          "internalType": "uint256",
          "name": "tokenId",
          "type": "uint256"
        }
      ],
      "name": "transferFrom",
      "outputs": [],
      "stateMutability": "nonpayable",
      "type": "function"
    },
    {
      "inputs": [
        {
          "internalType": "address",
          "name": "newOwner",
          "type": "address"
        }
      ],
      "name": "transferOwnership",
      "outputs": [],
      "stateMutability": "nonpayable",
      "type": "function"
    },
    {
      "inputs": [],
      "name": "withdrawFunds",
      "outputs": [],
      "stateMutability": "nonpayable",
      "type": "function"
    },
    {
      "inputs": [],
      "name": "withdrawalCheck",
      "outputs": [
        {
          "internalType": "bool",
          "name": "",
          "type": "bool"
        }
      ],
      "stateMutability": "nonpayable",
      "type": "function"
    },
    {
      "stateMutability": "payable",
      "type": "receive"
    }
  ],
  "bytecode": "0x60806040523480156200001157600080fd5b5060405162001b4138038062001b4183398101604081905262000034916200013f565b6040518060400160405280601481526020017f46756e64696e67436f6e7472616374546f6b656e000000000000000000000000815250604051806040016040528060038152602001621190d560ea1b81525081600090816200009791906200022c565b506001620000a682826200022c565b505050620000c3620000bd620000e960201b60201c565b620000ed565b600993909355600a91909155600b55600c805460ff1916911515919091179055620002f8565b3390565b600680546001600160a01b038381166001600160a01b0319831681179093556040519116919082907f8be0079c531659141344cd1fd0a4f28419497f9722a3daafe3b4186f6b6457e090600090a35050565b600080600080608085870312156200015657600080fd5b845193506020850151925060408501519150606085015180151581146200017c57600080fd5b939692955090935050565b634e487b7160e01b600052604160045260246000fd5b600181811c90821680620001b257607f821691505b602082108103620001d357634e487b7160e01b600052602260045260246000fd5b50919050565b601f8211156200022757600081815260208120601f850160051c81016020861015620002025750805b601f850160051c820191505b8181101562000223578281556001016200020e565b5050505b505050565b81516001600160401b0381111562000248576200024862000187565b62000260816200025984546200019d565b84620001d9565b602080601f8311600181146200029857600084156200027f5750858301515b600019600386901b1c1916600185901b17855562000223565b600085815260208120601f198616915b82811015620002c957888601518255948401946001909101908401620002a8565b5085821015620002e85787850151600019600388901b60f8161c191681555b5050505050600190811b01905550565b61183980620003086000396000f3fe60806040526004361061017b5760003560e01c8063715018a6116100cc578063c87b56dd1161007a578063c87b56dd1461041c578063d7b4750c1461043d578063d8e159f81461045d578063db06941e14610472578063e2c41dbc14610487578063e985e9c51461048f578063f2fde38b146104af57600080fd5b8063715018a6146103675780637dc4c2ba1461037c5780638da5cb5b1461039157806395d89b41146103af5780639c885eb3146103c4578063a22cb465146103dc578063b88d4fde146103fc57600080fd5b806323b872dd1161012957806323b872dd146102b157806324600fc3146102d157806342842e0e146102e65780634e71d92d146103065780636352211e1461031257806365ac43411461033257806370a082311461034757600080fd5b806301ffc9a7146101875780630343fb25146101bc57806306fdde0314610200578063081812fc14610222578063095ea7b31461025a5780631095941e1461027c5780631096cb791461029c57600080fd5b3661018257005b600080fd5b34801561019357600080fd5b506101a76101a236600461130a565b6104cf565b60405190151581526020015b60405180910390f35b3480156101c857600080fd5b506101f26101d7366004611343565b6001600160a01b03166000908152600d602052604090205490565b6040519081526020016101b3565b34801561020c57600080fd5b50610215610521565b6040516101b391906113a4565b34801561022e57600080fd5b5061024261023d3660046113b7565b6105b3565b6040516001600160a01b0390911681526020016101b3565b34801561026657600080fd5b5061027a6102753660046113d0565b6105da565b005b34801561028857600080fd5b5061027a6102973660046113b7565b6106f4565b3480156102a857600080fd5b50600b546101f2565b3480156102bd57600080fd5b5061027a6102cc3660046113fa565b61074c565b3480156102dd57600080fd5b5061027a61077d565b3480156102f257600080fd5b5061027a6103013660046113fa565b610865565b34801561027a57600080fd5b34801561031e57600080fd5b5061024261032d3660046113b7565b610882565b34801561033e57600080fd5b506009546101f2565b34801561035357600080fd5b506101f2610362366004611343565b6108b6565b34801561037357600080fd5b5061027a61093c565b34801561038857600080fd5b506101a761094e565b34801561039d57600080fd5b506006546001600160a01b0316610242565b3480156103bb57600080fd5b506102156109bb565b3480156103d057600080fd5b50600c5460ff166101a7565b3480156103e857600080fd5b5061027a6103f7366004611436565b6109ca565b34801561040857600080fd5b5061027a610417366004611488565b6109d5565b34801561042857600080fd5b506102156104373660046113b7565b50606090565b34801561044957600080fd5b506102426104583660046113b7565b610a0d565b34801561046957600080fd5b50600a546101f2565b34801561047e57600080fd5b506101f2610a3d565b61027a610a5b565b34801561049b57600080fd5b506101a76104aa366004611564565b610afc565b3480156104bb57600080fd5b5061027a6104ca366004611343565b610b2a565b60006001600160e01b031982166380ac58cd60e01b148061050057506001600160e01b03198216635b5e139f60e01b145b8061051b57506301ffc9a760e01b6001600160e01b03198316145b92915050565b60606000805461053090611597565b80601f016020809104026020016040519081016040528092919081815260200182805461055c90611597565b80156105a95780601f1061057e576101008083540402835291602001916105a9565b820191906000526020600020905b81548152906001019060200180831161058c57829003601f168201915b5050505050905090565b60006105be82610ba0565b506000908152600460205260409020546001600160a01b031690565b60006105e582610882565b9050806001600160a01b0316836001600160a01b0316036106575760405162461bcd60e51b815260206004820152602160248201527f4552433732313a20617070726f76616c20746f2063757272656e74206f776e656044820152603960f91b60648201526084015b60405180910390fd5b336001600160a01b038216148061067357506106738133610afc565b6106e55760405162461bcd60e51b815260206004820152603d60248201527f4552433732313a20617070726f76652063616c6c6572206973206e6f7420746f60448201527f6b656e206f776e6572206f7220617070726f76656420666f7220616c6c000000606482015260840161064e565b6106ef8383610bc5565b505050565b600c5460ff166107175760405163568fd53960e11b815260040160405180910390fd5b6000818152600f602090815260408083203384529091529020805460ff19166001179055610749600880546001019055565b50565b6107563382610c33565b6107725760405162461bcd60e51b815260040161064e906115d1565b6106ef838383610c92565b610785610e03565b600c5460ff16156107f65761079861094e565b6107f65760405162461bcd60e51b815260206004820152602960248201527f5468657265206973206e6f206d616a6f7269747920617070726f76616c20746f60448201526820776974686472617760b81b606482015260840161064e565b6040514790600090339083908381818185875af1925050503d806000811461083a576040519150601f19603f3d011682016040523d82523d6000602084013e61083f565b606091505b505090508061086157604051639af25e5d60e01b815260040160405180910390fd5b5050565b6106ef838383604051806020016040528060008152506109d5565b565b60008061088e83610e5d565b90506001600160a01b03811661051b5760405162461bcd60e51b815260040161064e9061161e565b60006001600160a01b0382166109205760405162461bcd60e51b815260206004820152602960248201527f4552433732313a2061646472657373207a65726f206973206e6f7420612076616044820152683634b21037bbb732b960b91b606482015260840161064e565b506001600160a01b031660009081526003602052604090205490565b610944610e03565b6108806000610e78565b600c5460009060ff166109745760405163568fd53960e11b815260040160405180910390fd5b600061097f60085490565b600e549091506000906109a09060649061099a90603c610eca565b90610edd565b90508082106109b25760019250505090565b60009250505090565b60606001805461053090611597565b610861338383610ee9565b6109df3383610c33565b6109fb5760405162461bcd60e51b815260040161064e906115d1565b610a0784848484610fb3565b50505050565b6000600e8281548110610a2257610a22611650565b6000918252602090912001546001600160a01b031692915050565b6000610a56600b54600954610edd90919063ffffffff16565b905090565b6000610a65610a3d565b90506000610a7260075490565b9050813411610a945760405163cf463cf960e01b815260040160405180910390fd5b336000818152600d60205260408120349055600e805460018101825591527fbb7b4a454dc3493923482f07822329ed19e8244eff582cc204f8554c3620c3fd0180546001600160a01b03191682179055610aee9082610fe6565b610861600780546001019055565b6001600160a01b03918216600090815260056020908152604080832093909416825291909152205460ff1690565b610b32610e03565b6001600160a01b038116610b975760405162461bcd60e51b815260206004820152602660248201527f4f776e61626c653a206e6577206f776e657220697320746865207a65726f206160448201526564647265737360d01b606482015260840161064e565b61074981610e78565b610ba981611000565b6107495760405162461bcd60e51b815260040161064e9061161e565b600081815260046020526040902080546001600160a01b0319166001600160a01b0384169081179091558190610bfa82610882565b6001600160a01b03167f8c5be1e5ebec7d5bd14f71427d1e84f3dd0314c0f7b2291e5b200ac8c7c3b92560405160405180910390a45050565b600080610c3f83610882565b9050806001600160a01b0316846001600160a01b03161480610c665750610c668185610afc565b80610c8a5750836001600160a01b0316610c7f846105b3565b6001600160a01b0316145b949350505050565b826001600160a01b0316610ca582610882565b6001600160a01b031614610ccb5760405162461bcd60e51b815260040161064e90611666565b6001600160a01b038216610d2d5760405162461bcd60e51b8152602060048201526024808201527f4552433732313a207472616e7366657220746f20746865207a65726f206164646044820152637265737360e01b606482015260840161064e565b610d3a838383600161101d565b826001600160a01b0316610d4d82610882565b6001600160a01b031614610d735760405162461bcd60e51b815260040161064e90611666565b600081815260046020908152604080832080546001600160a01b03199081169091556001600160a01b0387811680865260038552838620805460001901905590871680865283862080546001019055868652600290945282852080549092168417909155905184937fddf252ad1be2c89b69c2b068fc378daa952ba7f163c4a11628f55a4df523b3ef91a4505050565b6006546001600160a01b031633146108805760405162461bcd60e51b815260206004820181905260248201527f4f776e61626c653a2063616c6c6572206973206e6f7420746865206f776e6572604482015260640161064e565b6000908152600260205260409020546001600160a01b031690565b600680546001600160a01b038381166001600160a01b0319831681179093556040519116919082907f8be0079c531659141344cd1fd0a4f28419497f9722a3daafe3b4186f6b6457e090600090a35050565b6000610ed682846116c1565b9392505050565b6000610ed682846116d8565b816001600160a01b0316836001600160a01b031603610f465760405162461bcd60e51b815260206004820152601960248201527822a9219b99189d1030b8383937bb32903a379031b0b63632b960391b604482015260640161064e565b6001600160a01b03838116600081815260056020908152604080832094871680845294825291829020805460ff191686151590811790915591519182527f17307eab39ab6107e8899845ad3d59bd9653f200f220920489ca2b5937696c31910160405180910390a3505050565b610fbe848484610c92565b610fca848484846110a5565b610a075760405162461bcd60e51b815260040161064e906116fa565b6108618282604051806020016040528060008152506111a6565b60008061100c83610e5d565b6001600160a01b0316141592915050565b6001811115610a07576001600160a01b03841615611063576001600160a01b0384166000908152600360205260408120805483929061105d90849061174c565b90915550505b6001600160a01b03831615610a07576001600160a01b0383166000908152600360205260408120805483929061109a90849061175f565b909155505050505050565b60006001600160a01b0384163b1561119b57604051630a85bd0160e11b81526001600160a01b0385169063150b7a02906110e9903390899088908890600401611772565b6020604051808303816000875af1925050508015611124575060408051601f3d908101601f19168201909252611121918101906117af565b60015b611181573d808015611152576040519150601f19603f3d011682016040523d82523d6000602084013e611157565b606091505b5080516000036111795760405162461bcd60e51b815260040161064e906116fa565b805181602001fd5b6001600160e01b031916630a85bd0160e11b149050610c8a565b506001949350505050565b6111b083836111d9565b6111bd60008484846110a5565b6106ef5760405162461bcd60e51b815260040161064e906116fa565b6001600160a01b03821661122f5760405162461bcd60e51b815260206004820181905260248201527f4552433732313a206d696e7420746f20746865207a65726f2061646472657373604482015260640161064e565b61123881611000565b156112555760405162461bcd60e51b815260040161064e906117cc565b61126360008383600161101d565b61126c81611000565b156112895760405162461bcd60e51b815260040161064e906117cc565b6001600160a01b038216600081815260036020908152604080832080546001019055848352600290915280822080546001600160a01b0319168417905551839291907fddf252ad1be2c89b69c2b068fc378daa952ba7f163c4a11628f55a4df523b3ef908290a45050565b6001600160e01b03198116811461074957600080fd5b60006020828403121561131c57600080fd5b8135610ed6816112f4565b80356001600160a01b038116811461133e57600080fd5b919050565b60006020828403121561135557600080fd5b610ed682611327565b6000815180845260005b8181101561138457602081850181015186830182015201611368565b506000602082860101526020601f19601f83011685010191505092915050565b602081526000610ed6602083018461135e565b6000602082840312156113c957600080fd5b5035919050565b600080604083850312156113e357600080fd5b6113ec83611327565b946020939093013593505050565b60008060006060848603121561140f57600080fd5b61141884611327565b925061142660208501611327565b9150604084013590509250925092565b6000806040838503121561144957600080fd5b61145283611327565b91506020830135801515811461146757600080fd5b809150509250929050565b634e487b7160e01b600052604160045260246000fd5b6000806000806080858703121561149e57600080fd5b6114a785611327565b93506114b560208601611327565b925060408501359150606085013567ffffffffffffffff808211156114d957600080fd5b818701915087601f8301126114ed57600080fd5b8135818111156114ff576114ff611472565b604051601f8201601f19908116603f0116810190838211818310171561152757611527611472565b816040528281528a602084870101111561154057600080fd5b82602086016020830137600060208483010152809550505050505092959194509250565b6000806040838503121561157757600080fd5b61158083611327565b915061158e60208401611327565b90509250929050565b600181811c908216806115ab57607f821691505b6020821081036115cb57634e487b7160e01b600052602260045260246000fd5b50919050565b6020808252602d908201527f4552433732313a2063616c6c6572206973206e6f7420746f6b656e206f776e6560408201526c1c881bdc88185c1c1c9bdd9959609a1b606082015260800190565b602080825260189082015277115490cdcc8c4e881a5b9d985b1a59081d1bdad95b88125160421b604082015260600190565b634e487b7160e01b600052603260045260246000fd5b60208082526025908201527f4552433732313a207472616e736665722066726f6d20696e636f72726563742060408201526437bbb732b960d91b606082015260800190565b634e487b7160e01b600052601160045260246000fd5b808202811582820484141761051b5761051b6116ab565b6000826116f557634e487b7160e01b600052601260045260246000fd5b500490565b60208082526032908201527f4552433732313a207472616e7366657220746f206e6f6e20455243373231526560408201527131b2b4bb32b91034b6b83632b6b2b73a32b960711b606082015260800190565b8181038181111561051b5761051b6116ab565b8082018082111561051b5761051b6116ab565b6001600160a01b03858116825284166020820152604081018390526080606082018190526000906117a59083018461135e565b9695505050505050565b6000602082840312156117c157600080fd5b8151610ed6816112f4565b6020808252601c908201527f4552433732313a20746f6b656e20616c7265616479206d696e7465640000000060408201526060019056fea2646970667358221220599eda65bdcd62a61f847b03f64c19e6f820915df7e86063244c4da937bbcc2f64736f6c63430008110033",
  "linkReferences": {},
  "deployedLinkReferences": {}
}