{
    "contractName": "FundingContract",
    "abi": [
        {
            "inputs": [
                {
                    "internalType": "uint256",
                    "name": "totalFunding",
                    "type": "uint256"
                },
                {
                    "internalType": "uint256",
                    "name": "withdrawalFee",
                    "type": "uint256"
                },
                {
                    "internalType": "bool",
                    "name": "isGroupWithdrawal",
                    "type": "bool"
                },
                {
                    "internalType": "string",
                    "name": "tokenUri",
                    "type": "string"
                },
                {
                    "internalType": "uint64",
                    "name": "startTimestamp",
                    "type": "uint64"
                },
                {
                    "internalType": "uint64",
                    "name": "vestingPeriodInSeconds",
                    "type": "uint64"
                }
            ],
            "stateMutability": "nonpayable",
            "type": "constructor"
        },
        {
            "inputs": [],
            "name": "FundingContract__NotEnoughETH",
            "type": "error"
        },
        {
            "inputs": [],
            "name": "FundingContract__NotGroupFunding",
            "type": "error"
        },
        {
            "inputs": [],
            "name": "FundingContract__TransferFailed",
            "type": "error"
        },
        {
            "anonymous": false,
            "inputs": [
                {
                    "indexed": true,
                    "internalType": "address",
                    "name": "owner",
                    "type": "address"
                },
                {
                    "indexed": true,
                    "internalType": "address",
                    "name": "approved",
                    "type": "address"
                },
                {
                    "indexed": true,
                    "internalType": "uint256",
                    "name": "tokenId",
                    "type": "uint256"
                }
            ],
            "name": "Approval",
            "type": "event"
        },
        {
            "anonymous": false,
            "inputs": [
                {
                    "indexed": true,
                    "internalType": "address",
                    "name": "owner",
                    "type": "address"
                },
                {
                    "indexed": true,
                    "internalType": "address",
                    "name": "operator",
                    "type": "address"
                },
                {
                    "indexed": false,
                    "internalType": "bool",
                    "name": "approved",
                    "type": "bool"
                }
            ],
            "name": "ApprovalForAll",
            "type": "event"
        },
        {
            "anonymous": false,
            "inputs": [
                {
                    "indexed": true,
                    "internalType": "address",
                    "name": "contractor",
                    "type": "address"
                },
                {
                    "indexed": true,
                    "internalType": "uint256",
                    "name": "releasedFunds",
                    "type": "uint256"
                }
            ],
            "name": "ContractorClaimedFunds",
            "type": "event"
        },
        {
            "anonymous": false,
            "inputs": [
                {
                    "indexed": true,
                    "internalType": "address",
                    "name": "token",
                    "type": "address"
                },
                {
                    "indexed": false,
                    "internalType": "uint256",
                    "name": "amount",
                    "type": "uint256"
                }
            ],
            "name": "ERC20Released",
            "type": "event"
        },
        {
            "anonymous": false,
            "inputs": [
                {
                    "indexed": false,
                    "internalType": "uint256",
                    "name": "amount",
                    "type": "uint256"
                }
            ],
            "name": "EtherReleased",
            "type": "event"
        },
        {
            "anonymous": false,
            "inputs": [
                {
                    "indexed": true,
                    "internalType": "uint256",
                    "name": "tokenId",
                    "type": "uint256"
                },
                {
                    "indexed": true,
                    "internalType": "address",
                    "name": "funder",
                    "type": "address"
                },
                {
                    "indexed": true,
                    "internalType": "uint256",
                    "name": "amount",
                    "type": "uint256"
                }
            ],
            "name": "FundsDeposited",
            "type": "event"
        },
        {
            "anonymous": false,
            "inputs": [
                {
                    "indexed": true,
                    "internalType": "address",
                    "name": "withdrawer",
                    "type": "address"
                },
                {
                    "indexed": true,
                    "internalType": "uint256",
                    "name": "withDrawedFunds",
                    "type": "uint256"
                }
            ],
            "name": "FundsWithdrawed",
            "type": "event"
        },
        {
            "anonymous": false,
            "inputs": [
                {
                    "indexed": true,
                    "internalType": "bytes32",
                    "name": "role",
                    "type": "bytes32"
                },
                {
                    "indexed": true,
                    "internalType": "bytes32",
                    "name": "previousAdminRole",
                    "type": "bytes32"
                },
                {
                    "indexed": true,
                    "internalType": "bytes32",
                    "name": "newAdminRole",
                    "type": "bytes32"
                }
            ],
            "name": "RoleAdminChanged",
            "type": "event"
        },
        {
            "anonymous": false,
            "inputs": [
                {
                    "indexed": true,
                    "internalType": "bytes32",
                    "name": "role",
                    "type": "bytes32"
                },
                {
                    "indexed": true,
                    "internalType": "address",
                    "name": "account",
                    "type": "address"
                },
                {
                    "indexed": true,
                    "internalType": "address",
                    "name": "sender",
                    "type": "address"
                }
            ],
            "name": "RoleGranted",
            "type": "event"
        },
        {
            "anonymous": false,
            "inputs": [
                {
                    "indexed": true,
                    "internalType": "bytes32",
                    "name": "role",
                    "type": "bytes32"
                },
                {
                    "indexed": true,
                    "internalType": "address",
                    "name": "account",
                    "type": "address"
                },
                {
                    "indexed": true,
                    "internalType": "address",
                    "name": "sender",
                    "type": "address"
                }
            ],
            "name": "RoleRevoked",
            "type": "event"
        },
        {
            "anonymous": false,
            "inputs": [
                {
                    "indexed": true,
                    "internalType": "address",
                    "name": "from",
                    "type": "address"
                },
                {
                    "indexed": true,
                    "internalType": "address",
                    "name": "to",
                    "type": "address"
                },
                {
                    "indexed": true,
                    "internalType": "uint256",
                    "name": "tokenId",
                    "type": "uint256"
                }
            ],
            "name": "Transfer",
            "type": "event"
        },
        {
            "anonymous": false,
            "inputs": [
                {
                    "indexed": true,
                    "internalType": "uint256",
                    "name": "tokenId",
                    "type": "uint256"
                },
                {
                    "indexed": true,
                    "internalType": "address",
                    "name": "withdrawer",
                    "type": "address"
                }
            ],
            "name": "WithdrawalRequest",
            "type": "event"
        },
        {
            "inputs": [],
            "name": "CONTRACTOR_ROLE",
            "outputs": [
                {
                    "internalType": "bytes32",
                    "name": "",
                    "type": "bytes32"
                }
            ],
            "stateMutability": "view",
            "type": "function"
        },
        {
            "inputs": [],
            "name": "DEFAULT_ADMIN_ROLE",
            "outputs": [
                {
                    "internalType": "bytes32",
                    "name": "",
                    "type": "bytes32"
                }
            ],
            "stateMutability": "view",
            "type": "function"
        },
        {
            "inputs": [],
            "name": "FUNDER_ROLE",
            "outputs": [
                {
                    "internalType": "bytes32",
                    "name": "",
                    "type": "bytes32"
                }
            ],
            "stateMutability": "view",
            "type": "function"
        },
        {
            "inputs": [
                {
                    "internalType": "address",
                    "name": "to",
                    "type": "address"
                },
                {
                    "internalType": "uint256",
                    "name": "tokenId",
                    "type": "uint256"
                }
            ],
            "name": "approve",
            "outputs": [],
            "stateMutability": "nonpayable",
            "type": "function"
        },
        {
            "inputs": [
                {
                    "internalType": "address",
                    "name": "owner",
                    "type": "address"
                }
            ],
            "name": "balanceOf",
            "outputs": [
                {
                    "internalType": "uint256",
                    "name": "",
                    "type": "uint256"
                }
            ],
            "stateMutability": "view",
            "type": "function"
        },
        {
            "inputs": [],
            "name": "beneficiary",
            "outputs": [
                {
                    "internalType": "address",
                    "name": "",
                    "type": "address"
                }
            ],
            "stateMutability": "view",
            "type": "function"
        },
        {
            "inputs": [],
            "name": "claim",
            "outputs": [],
            "stateMutability": "nonpayable",
            "type": "function"
        },
        {
            "inputs": [],
            "name": "depositFunds",
            "outputs": [],
            "stateMutability": "payable",
            "type": "function"
        },
        {
            "inputs": [],
            "name": "duration",
            "outputs": [
                {
                    "internalType": "uint256",
                    "name": "",
                    "type": "uint256"
                }
            ],
            "stateMutability": "view",
            "type": "function"
        },
        {
            "inputs": [
                {
                    "internalType": "address",
                    "name": "funder",
                    "type": "address"
                }
            ],
            "name": "getAmountFundedByAddress",
            "outputs": [
                {
                    "internalType": "uint256",
                    "name": "",
                    "type": "uint256"
                }
            ],
            "stateMutability": "view",
            "type": "function"
        },
        {
            "inputs": [
                {
                    "internalType": "uint256",
                    "name": "tokenId",
                    "type": "uint256"
                }
            ],
            "name": "getApproved",
            "outputs": [
                {
                    "internalType": "address",
                    "name": "",
                    "type": "address"
                }
            ],
            "stateMutability": "view",
            "type": "function"
        },
        {
            "inputs": [
                {
                    "internalType": "uint256",
                    "name": "index",
                    "type": "uint256"
                }
            ],
            "name": "getFunder",
            "outputs": [
                {
                    "internalType": "address",
                    "name": "",
                    "type": "address"
                }
            ],
            "stateMutability": "view",
            "type": "function"
        },
        {
            "inputs": [],
            "name": "getIsGroupWithdrawal",
            "outputs": [
                {
                    "internalType": "bool",
                    "name": "",
                    "type": "bool"
                }
            ],
            "stateMutability": "view",
            "type": "function"
        },
        {
            "inputs": [],
            "name": "getMinimumFundingAmount",
            "outputs": [
                {
                    "internalType": "uint256",
                    "name": "",
                    "type": "uint256"
                }
            ],
            "stateMutability": "view",
            "type": "function"
        },
        {
            "inputs": [
                {
                    "internalType": "bytes32",
                    "name": "role",
                    "type": "bytes32"
                }
            ],
            "name": "getRoleAdmin",
            "outputs": [
                {
                    "internalType": "bytes32",
                    "name": "",
                    "type": "bytes32"
                }
            ],
            "stateMutability": "view",
            "type": "function"
        },
        {
            "inputs": [],
            "name": "getStartTimestamp",
            "outputs": [
                {
                    "internalType": "uint256",
                    "name": "",
                    "type": "uint256"
                }
            ],
            "stateMutability": "view",
            "type": "function"
        },
        {
            "inputs": [],
            "name": "getTokenCounter",
            "outputs": [
                {
                    "internalType": "uint256",
                    "name": "",
                    "type": "uint256"
                }
            ],
            "stateMutability": "view",
            "type": "function"
        },
        {
            "inputs": [],
            "name": "getTotalAmount",
            "outputs": [
                {
                    "internalType": "uint256",
                    "name": "",
                    "type": "uint256"
                }
            ],
            "stateMutability": "view",
            "type": "function"
        },
        {
            "inputs": [],
            "name": "getVestingPeriod",
            "outputs": [
                {
                    "internalType": "uint256",
                    "name": "",
                    "type": "uint256"
                }
            ],
            "stateMutability": "view",
            "type": "function"
        },
        {
            "inputs": [],
            "name": "getWithdrawalFee",
            "outputs": [
                {
                    "internalType": "uint256",
                    "name": "",
                    "type": "uint256"
                }
            ],
            "stateMutability": "view",
            "type": "function"
        },
        {
            "inputs": [],
            "name": "getWithdrawerCounter",
            "outputs": [
                {
                    "internalType": "uint256",
                    "name": "",
                    "type": "uint256"
                }
            ],
            "stateMutability": "view",
            "type": "function"
        },
        {
            "inputs": [
                {
                    "internalType": "bytes32",
                    "name": "role",
                    "type": "bytes32"
                },
                {
                    "internalType": "address",
                    "name": "account",
                    "type": "address"
                }
            ],
            "name": "grantRole",
            "outputs": [],
            "stateMutability": "nonpayable",
            "type": "function"
        },
        {
            "inputs": [
                {
                    "internalType": "bytes32",
                    "name": "role",
                    "type": "bytes32"
                },
                {
                    "internalType": "address",
                    "name": "account",
                    "type": "address"
                }
            ],
            "name": "hasRole",
            "outputs": [
                {
                    "internalType": "bool",
                    "name": "",
                    "type": "bool"
                }
            ],
            "stateMutability": "view",
            "type": "function"
        },
        {
            "inputs": [
                {
                    "internalType": "address",
                    "name": "owner",
                    "type": "address"
                },
                {
                    "internalType": "address",
                    "name": "operator",
                    "type": "address"
                }
            ],
            "name": "isApprovedForAll",
            "outputs": [
                {
                    "internalType": "bool",
                    "name": "",
                    "type": "bool"
                }
            ],
            "stateMutability": "view",
            "type": "function"
        },
        {
            "inputs": [],
            "name": "name",
            "outputs": [
                {
                    "internalType": "string",
                    "name": "",
                    "type": "string"
                }
            ],
            "stateMutability": "view",
            "type": "function"
        },
        {
            "inputs": [
                {
                    "internalType": "uint256",
                    "name": "tokenId",
                    "type": "uint256"
                }
            ],
            "name": "ownerOf",
            "outputs": [
                {
                    "internalType": "address",
                    "name": "",
                    "type": "address"
                }
            ],
            "stateMutability": "view",
            "type": "function"
        },
        {
            "inputs": [
                {
                    "internalType": "address",
                    "name": "token",
                    "type": "address"
                }
            ],
            "name": "releasable",
            "outputs": [
                {
                    "internalType": "uint256",
                    "name": "",
                    "type": "uint256"
                }
            ],
            "stateMutability": "view",
            "type": "function"
        },
        {
            "inputs": [],
            "name": "releasable",
            "outputs": [
                {
                    "internalType": "uint256",
                    "name": "",
                    "type": "uint256"
                }
            ],
            "stateMutability": "view",
            "type": "function"
        },
        {
            "inputs": [
                {
                    "internalType": "address",
                    "name": "token",
                    "type": "address"
                }
            ],
            "name": "release",
            "outputs": [],
            "stateMutability": "nonpayable",
            "type": "function"
        },
        {
            "inputs": [],
            "name": "release",
            "outputs": [],
            "stateMutability": "nonpayable",
            "type": "function"
        },
        {
            "inputs": [],
            "name": "released",
            "outputs": [
                {
                    "internalType": "uint256",
                    "name": "",
                    "type": "uint256"
                }
            ],
            "stateMutability": "view",
            "type": "function"
        },
        {
            "inputs": [
                {
                    "internalType": "address",
                    "name": "token",
                    "type": "address"
                }
            ],
            "name": "released",
            "outputs": [
                {
                    "internalType": "uint256",
                    "name": "",
                    "type": "uint256"
                }
            ],
            "stateMutability": "view",
            "type": "function"
        },
        {
            "inputs": [
                {
                    "internalType": "bytes32",
                    "name": "role",
                    "type": "bytes32"
                },
                {
                    "internalType": "address",
                    "name": "account",
                    "type": "address"
                }
            ],
            "name": "renounceRole",
            "outputs": [],
            "stateMutability": "nonpayable",
            "type": "function"
        },
        {
            "inputs": [
                {
                    "internalType": "uint256",
                    "name": "tokenId",
                    "type": "uint256"
                }
            ],
            "name": "requestForWithdrawal",
            "outputs": [],
            "stateMutability": "nonpayable",
            "type": "function"
        },
        {
            "inputs": [
                {
                    "internalType": "bytes32",
                    "name": "role",
                    "type": "bytes32"
                },
                {
                    "internalType": "address",
                    "name": "account",
                    "type": "address"
                }
            ],
            "name": "revokeRole",
            "outputs": [],
            "stateMutability": "nonpayable",
            "type": "function"
        },
        {
            "inputs": [
                {
                    "internalType": "address",
                    "name": "from",
                    "type": "address"
                },
                {
                    "internalType": "address",
                    "name": "to",
                    "type": "address"
                },
                {
                    "internalType": "uint256",
                    "name": "tokenId",
                    "type": "uint256"
                }
            ],
            "name": "safeTransferFrom",
            "outputs": [],
            "stateMutability": "nonpayable",
            "type": "function"
        },
        {
            "inputs": [
                {
                    "internalType": "address",
                    "name": "from",
                    "type": "address"
                },
                {
                    "internalType": "address",
                    "name": "to",
                    "type": "address"
                },
                {
                    "internalType": "uint256",
                    "name": "tokenId",
                    "type": "uint256"
                },
                {
                    "internalType": "bytes",
                    "name": "data",
                    "type": "bytes"
                }
            ],
            "name": "safeTransferFrom",
            "outputs": [],
            "stateMutability": "nonpayable",
            "type": "function"
        },
        {
            "inputs": [
                {
                    "internalType": "address",
                    "name": "operator",
                    "type": "address"
                },
                {
                    "internalType": "bool",
                    "name": "approved",
                    "type": "bool"
                }
            ],
            "name": "setApprovalForAll",
            "outputs": [],
            "stateMutability": "nonpayable",
            "type": "function"
        },
        {
            "inputs": [],
            "name": "start",
            "outputs": [
                {
                    "internalType": "uint256",
                    "name": "",
                    "type": "uint256"
                }
            ],
            "stateMutability": "view",
            "type": "function"
        },
        {
            "inputs": [
                {
                    "internalType": "bytes4",
                    "name": "interfaceId",
                    "type": "bytes4"
                }
            ],
            "name": "supportsInterface",
            "outputs": [
                {
                    "internalType": "bool",
                    "name": "",
                    "type": "bool"
                }
            ],
            "stateMutability": "view",
            "type": "function"
        },
        {
            "inputs": [],
            "name": "symbol",
            "outputs": [
                {
                    "internalType": "string",
                    "name": "",
                    "type": "string"
                }
            ],
            "stateMutability": "view",
            "type": "function"
        },
        {
            "inputs": [
                {
                    "internalType": "uint256",
                    "name": "",
                    "type": "uint256"
                }
            ],
            "name": "tokenURI",
            "outputs": [
                {
                    "internalType": "string",
                    "name": "",
                    "type": "string"
                }
            ],
            "stateMutability": "view",
            "type": "function"
        },
        {
            "inputs": [
                {
                    "internalType": "address",
                    "name": "from",
                    "type": "address"
                },
                {
                    "internalType": "address",
                    "name": "to",
                    "type": "address"
                },
                {
                    "internalType": "uint256",
                    "name": "tokenId",
                    "type": "uint256"
                }
            ],
            "name": "transferFrom",
            "outputs": [],
            "stateMutability": "nonpayable",
            "type": "function"
        },
        {
            "inputs": [
                {
                    "internalType": "bytes32[]",
                    "name": "proof",
                    "type": "bytes32[]"
                },
                {
                    "internalType": "bytes32",
                    "name": "root",
                    "type": "bytes32"
                }
            ],
            "name": "verifyMerkleTree",
            "outputs": [
                {
                    "internalType": "bool",
                    "name": "",
                    "type": "bool"
                }
            ],
            "stateMutability": "view",
            "type": "function"
        },
        {
            "inputs": [
                {
                    "internalType": "uint64",
                    "name": "timestamp",
                    "type": "uint64"
                }
            ],
            "name": "vestedAmount",
            "outputs": [
                {
                    "internalType": "uint256",
                    "name": "",
                    "type": "uint256"
                }
            ],
            "stateMutability": "view",
            "type": "function"
        },
        {
            "inputs": [
                {
                    "internalType": "address",
                    "name": "token",
                    "type": "address"
                },
                {
                    "internalType": "uint64",
                    "name": "timestamp",
                    "type": "uint64"
                }
            ],
            "name": "vestedAmount",
            "outputs": [
                {
                    "internalType": "uint256",
                    "name": "",
                    "type": "uint256"
                }
            ],
            "stateMutability": "view",
            "type": "function"
        },
        {
            "inputs": [],
            "name": "withdrawFunds",
            "outputs": [],
            "stateMutability": "nonpayable",
            "type": "function"
        },
        {
            "inputs": [],
            "name": "withdrawalCheck",
            "outputs": [
                {
                    "internalType": "bool",
                    "name": "",
                    "type": "bool"
                }
            ],
            "stateMutability": "nonpayable",
            "type": "function"
        },
        {
            "stateMutability": "payable",
            "type": "receive"
        }
    ],
    "bytecode": "6101406040523480156200001257600080fd5b506040516200324038038062003240833981016040819052620000359162000254565b3382826040518060400160405280601481526020017f46756e64696e67436f6e7472616374546f6b656e000000000000000000000000815250604051806040016040528060038152602001621190d560ea1b81525081600090816200009b919062000408565b506001620000aa828262000408565b5050506001600160a01b0383166200011b5760405162461bcd60e51b815260206004820152602a60248201527f56657374696e6757616c6c65743a2062656e6566696369617279206973207a65604482015269726f206164647265737360b01b606482015260840160405180910390fd5b6001600160a01b039092166080526001600160401b0390811660a05290811660c05260e0879052610100869052841515610120528216600b55600c62000162848262000408565b50620001706000336200017c565b505050505050620004d4565b60008281526006602090815260408083206001600160a01b038516845290915290205460ff166200021d5760008281526006602090815260408083206001600160a01b03851684529091529020805460ff19166001179055620001dc3390565b6001600160a01b0316816001600160a01b0316837f2f8788117e7eff1d82e926ec794901d17c78024a50270940304540a733656f0d60405160405180910390a45b5050565b634e487b7160e01b600052604160045260246000fd5b80516001600160401b03811681146200024f57600080fd5b919050565b60008060008060008060c087890312156200026e57600080fd5b865195506020808801519550604088015180151581146200028e57600080fd5b60608901519095506001600160401b0380821115620002ac57600080fd5b818a0191508a601f830112620002c157600080fd5b815181811115620002d657620002d662000221565b604051601f8201601f19908116603f0116810190838211818310171562000301576200030162000221565b816040528281528d868487010111156200031a57600080fd5b600093505b828410156200033e57848401860151818501870152928501926200031f565b60008684830101528098505050505050506200035d6080880162000237565b91506200036d60a0880162000237565b90509295509295509295565b600181811c908216806200038e57607f821691505b602082108103620003af57634e487b7160e01b600052602260045260246000fd5b50919050565b601f8211156200040357600081815260208120601f850160051c81016020861015620003de5750805b601f850160051c820191505b81811015620003ff57828155600101620003ea565b5050505b505050565b81516001600160401b0381111562000424576200042462000221565b6200043c8162000435845462000379565b84620003b5565b602080601f8311600181146200047457600084156200045b5750858301515b600019600386901b1c1916600185901b178555620003ff565b600085815260208120601f198616915b82811015620004a55788860151825594840194600190910190840162000484565b5085821015620004c45787850151600019600388901b60f8161c191681555b5050505050600190811b01905550565b60805160a05160c05160e0516101005161012051612ceb62000555600039600081816106d901528181610b3001528181610ce401526111380152600061082b01526000818161057101528181610f32015261154801526000610b0b015260006114180152600081816104e901528181610c5e01526112ac0152612ceb6000f3fe6080604052600436106102975760003560e01c8063810ec23b1161015a578063b121d483116100c1578063d8e159f81161007a578063d8e159f81461081c578063db06941e1461084f578063e2c41dbc14610864578063e985e9c51461086c578063f88e3204146108b5578063fbccedae146108e957600080fd5b8063b121d48314610767578063b88d4fde14610787578063be9a6555146107a7578063c87b56dd146107bc578063d547741f146107dc578063d7b4750c146107fc57600080fd5b80639b23b0c9116101135780639b23b0c9146106945780639c885eb3146106ca578063a217fddf146106fd578063a22cb46514610712578063a3f8eace14610732578063aa0fc5131461075257600080fd5b8063810ec23b146105df57806386d1a69f146105ff57806391d148541461061457806395d89b411461063457806396132521146106495780639852595c1461065e57600080fd5b8063248a9ca3116101fe5780634e71d92d116101b75780634e71d92d1461052d5780636352211e1461054257806365ac4341146105625780636e02007d1461059557806370a08231146105aa5780637dc4c2ba146105ca57600080fd5b8063248a9ca3146104365780632f2ff15d1461046657806334aedecd1461048657806336568abe146104ba57806338af3eed146104da57806342842e0e1461050d57600080fd5b80631095941e116102505780631095941e146103975780631096cb79146103b757806319165587146103cc5780631f89f25e146103ec57806323b872dd1461040157806324600fc31461042157600080fd5b806301ffc9a7146102a357806306fdde03146102d8578063081812fc146102fa578063095ea7b3146103325780630a17b06b146103545780630fb5a6b41461038257600080fd5b3661029e57005b600080fd5b3480156102af57600080fd5b506102c36102be366004612620565b6108fe565b60405190151581526020015b60405180910390f35b3480156102e457600080fd5b506102ed61090f565b6040516102cf919061268d565b34801561030657600080fd5b5061031a6103153660046126a0565b6109a1565b6040516001600160a01b0390911681526020016102cf565b34801561033e57600080fd5b5061035261034d3660046126d5565b6109c8565b005b34801561036057600080fd5b5061037461036f366004612717565b610ae2565b6040519081526020016102cf565b34801561038e57600080fd5b50610374610b00565b3480156103a357600080fd5b506103526103b23660046126a0565b610b2e565b3480156103c357600080fd5b50610374610bce565b3480156103d857600080fd5b506103526103e7366004612732565b610bdd565b3480156103f857600080fd5b50600b54610374565b34801561040d57600080fd5b5061035261041c36600461274d565b610c87565b34801561042d57600080fd5b50610352610cb8565b34801561044257600080fd5b506103746104513660046126a0565b60009081526006602052604090206001015490565b34801561047257600080fd5b50610352610481366004612789565b610e4c565b34801561049257600080fd5b506103747f0914bb97ca83e85ef385857d9d418f187ff630589e0c9f44db92976d8e4519cb81565b3480156104c657600080fd5b506103526104d5366004612789565b610e71565b3480156104e657600080fd5b507f000000000000000000000000000000000000000000000000000000000000000061031a565b34801561051957600080fd5b5061035261052836600461274d565b610eeb565b34801561053957600080fd5b50610352610f06565b34801561054e57600080fd5b5061031a61055d3660046126a0565b611043565b34801561056e57600080fd5b507f0000000000000000000000000000000000000000000000000000000000000000610374565b3480156105a157600080fd5b506103746110a3565b3480156105b657600080fd5b506103746105c5366004612732565b6110ae565b3480156105d657600080fd5b506102c3611134565b3480156105eb57600080fd5b506103746105fa3660046127b5565b6111bb565b34801561060b57600080fd5b50610352611251565b34801561062057600080fd5b506102c361062f366004612789565b6112d4565b34801561064057600080fd5b506102ed6112ff565b34801561065557600080fd5b50600754610374565b34801561066a57600080fd5b50610374610679366004612732565b6001600160a01b031660009081526008602052604090205490565b3480156106a057600080fd5b506103746106af366004612732565b6001600160a01b03166000908152600d602052604090205490565b3480156106d657600080fd5b507f00000000000000000000000000000000000000000000000000000000000000006102c3565b34801561070957600080fd5b50610374600081565b34801561071e57600080fd5b5061035261072d3660046127ed565b61130e565b34801561073e57600080fd5b5061037461074d366004612732565b611319565b34801561075e57600080fd5b50610374611346565b34801561077357600080fd5b506102c3610782366004612824565b611351565b34801561079357600080fd5b506103526107a23660046128b5565b6113d5565b3480156107b357600080fd5b5061037461140d565b3480156107c857600080fd5b506102ed6107d73660046126a0565b61143b565b3480156107e857600080fd5b506103526107f7366004612789565b6114cf565b34801561080857600080fd5b5061031a6108173660046126a0565b6114f4565b34801561082857600080fd5b507f0000000000000000000000000000000000000000000000000000000000000000610374565b34801561085b57600080fd5b50610374611524565b610352611575565b34801561087857600080fd5b506102c3610887366004612991565b6001600160a01b03918216600090815260056020908152604080832093909416825291909152205460ff1690565b3480156108c157600080fd5b506103747fef28dcbf06eb73add8f77665c46a6263e719f928f9c34710ec1097573ba6e20c81565b3480156108f557600080fd5b50610374611649565b600061090982611667565b92915050565b60606000805461091e906129bb565b80601f016020809104026020016040519081016040528092919081815260200182805461094a906129bb565b80156109975780601f1061096c57610100808354040283529160200191610997565b820191906000526020600020905b81548152906001019060200180831161097a57829003601f168201915b5050505050905090565b60006109ac8261168c565b506000908152600460205260409020546001600160a01b031690565b60006109d382611043565b9050806001600160a01b0316836001600160a01b031603610a455760405162461bcd60e51b815260206004820152602160248201527f4552433732313a20617070726f76616c20746f2063757272656e74206f776e656044820152603960f91b60648201526084015b60405180910390fd5b336001600160a01b0382161480610a615750610a618133610887565b610ad35760405162461bcd60e51b815260206004820152603d60248201527f4552433732313a20617070726f76652063616c6c6572206973206e6f7420746f60448201527f6b656e206f776e6572206f7220617070726f76656420666f7220616c6c0000006064820152608401610a3c565b610add83836116eb565b505050565b6000610909610af060075490565b610afa9047612a0b565b83611759565b67ffffffffffffffff7f00000000000000000000000000000000000000000000000000000000000000001690565b7f0000000000000000000000000000000000000000000000000000000000000000610b6c5760405163568fd53960e11b815260040160405180910390fd5b6000818152600f602090815260408083203384529091529020805460ff19166001179055610b9e600a80546001019055565b604051339082907f0fc8b6fcb2f497709c22d28a739a7c1af51a838def68b9e27ed2dabec6fc60ea90600090a350565b6000610bd8610b00565b905090565b6000610be882611319565b6001600160a01b038316600090815260086020526040812080549293508392909190610c15908490612a0b565b90915550506040518181526001600160a01b038316907fc0e523490dd523c33b1878c9eb14ff46991e3f5b2cd33710918618f2a39cba1b9060200160405180910390a2610c83827f0000000000000000000000000000000000000000000000000000000000000000836117ed565b5050565b610c91338261183f565b610cad5760405162461bcd60e51b8152600401610a3c90612a1e565b610add8383836118be565b7f0914bb97ca83e85ef385857d9d418f187ff630589e0c9f44db92976d8e4519cb610ce281611a2f565b7f000000000000000000000000000000000000000000000000000000000000000015610d6e57610d10611134565b610d6e5760405162461bcd60e51b815260206004820152602960248201527f5468657265206973206e6f206d616a6f7269747920617070726f76616c20746f60448201526820776974686472617760b81b6064820152608401610a3c565b6000610d7861140d565b610d829042612a6b565b9050610d8c610b00565b8167ffffffffffffffff161115610da257600080fd5b6000610dad82610ae2565b604051909150600090339083908381818185875af1925050503d8060008114610df2576040519150601f19603f3d011682016040523d82523d6000602084013e610df7565b606091505b5050905080610e1957604051639af25e5d60e01b815260040160405180910390fd5b604051829033907fd7d7cc3c005efe228d9482e7be336bc7174fd6097c03fe43d13655005bbd46f790600090a350505050565b600082815260066020526040902060010154610e6781611a2f565b610add8383611a39565b6001600160a01b0381163314610ee15760405162461bcd60e51b815260206004820152602f60248201527f416363657373436f6e74726f6c3a2063616e206f6e6c792072656e6f756e636560448201526e103937b632b9903337b91039b2b63360891b6064820152608401610a3c565b610c838282611abf565b610add838383604051806020016040528060008152506113d5565b7fef28dcbf06eb73add8f77665c46a6263e719f928f9c34710ec1097573ba6e20c610f3081611a2f565b7f0000000000000000000000000000000000000000000000000000000000000000610f5a60075490565b03610fb25760405162461bcd60e51b815260206004820152602260248201527f596f75206861766520636c61696d65642074686520656e7469726520616d6f756044820152611b9d60f21b6064820152608401610a3c565b6000610fbc611649565b101561100a5760405162461bcd60e51b815260206004820181905260248201527f596f7520646f206e6f7420686176652072656c65617361626c652066756e64736044820152606401610a3c565b611012611251565b60075460405133907fcebf6e87c3f2bd4df41bc6e2e842495680906affd0e429f056fba0989a08537c90600090a350565b6000818152600260205260408120546001600160a01b0316806109095760405162461bcd60e51b8152602060048201526018602482015277115490cdcc8c4e881a5b9d985b1a59081d1bdad95b88125160421b6044820152606401610a3c565b6000610bd860095490565b60006001600160a01b0382166111185760405162461bcd60e51b815260206004820152602960248201527f4552433732313a2061646472657373207a65726f206973206e6f7420612076616044820152683634b21037bbb732b960b91b6064820152608401610a3c565b506001600160a01b031660009081526003602052604090205490565b60007f00000000000000000000000000000000000000000000000000000000000000006111745760405163568fd53960e11b815260040160405180910390fd5b600061117f600a5490565b600e549091506000906111a09060649061119a90603c611b26565b90611b32565b90508082106111b25760019250505090565b60009250505090565b6001600160a01b03821660009081526008602052604081205461124a906040516370a0823160e01b81523060048201526001600160a01b038616906370a0823190602401602060405180830381865afa15801561121c573d6000803e3d6000fd5b505050506040513d601f19601f820116820180604052508101906112409190612a7e565b610afa9190612a0b565b9392505050565b600061125b611649565b9050806007600082825461126f9190612a0b565b90915550506040518181527fda9d4e5f101b8b9b1c5b76d0c5a9f7923571acfc02376aa076b75a8c080c956b9060200160405180910390a16112d17f000000000000000000000000000000000000000000000000000000000000000082611b3e565b50565b60009182526006602090815260408084206001600160a01b0393909316845291905290205460ff1690565b60606001805461091e906129bb565b610c83338383611c57565b6001600160a01b03811660009081526008602052604081205461133c83426111bb565b6109099190612a6b565b6000610bd8600a5490565b6040516bffffffffffffffffffffffff193360601b16602082015260009081906034016040516020818303038152906040528051906020012090506113cc858580806020026020016040519081016040528093929190818152602001838360200280828437600092019190915250879250859150611d259050565b95945050505050565b6113df338361183f565b6113fb5760405162461bcd60e51b8152600401610a3c90612a1e565b61140784848484611d3b565b50505050565b67ffffffffffffffff7f00000000000000000000000000000000000000000000000000000000000000001690565b6060600c805461144a906129bb565b80601f0160208091040260200160405190810160405280929190818152602001828054611476906129bb565b80156114c35780601f10611498576101008083540402835291602001916114c3565b820191906000526020600020905b8154815290600101906020018083116114a657829003601f168201915b50505050509050919050565b6000828152600660205260409020600101546114ea81611a2f565b610add8383611abf565b6000600e828154811061150957611509612a97565b6000918252602090912001546001600160a01b031692915050565b60008061152f610b00565b905062278d0060006115418383611b32565b905061156d7f000000000000000000000000000000000000000000000000000000000000000082611b32565b935050505090565b600061157f611524565b9050600061158c60095490565b90508134116115ae5760405163cf463cf960e01b815260040160405180910390fd5b336000818152600d60205260408120349055600e805460018101825591527fbb7b4a454dc3493923482f07822329ed19e8244eff582cc204f8554c3620c3fd0180546001600160a01b031916821790556116089082611d6e565b611616600980546001019055565b6040513490339083907fe030e47e27825a2ad1b19e4cf2e70bfbfb3124af275c7727a82b114ba7b29a8590600090a45050565b600061165460075490565b61165d42610ae2565b610bd89190612a6b565b60006001600160e01b03198216637965db0b60e01b1480610909575061090982611d88565b6000818152600260205260409020546001600160a01b03166112d15760405162461bcd60e51b8152602060048201526018602482015277115490cdcc8c4e881a5b9d985b1a59081d1bdad95b88125160421b6044820152606401610a3c565b600081815260046020526040902080546001600160a01b0319166001600160a01b038416908117909155819061172082611043565b6001600160a01b03167f8c5be1e5ebec7d5bd14f71427d1e84f3dd0314c0f7b2291e5b200ac8c7c3b92560405160405180910390a45050565b600061176361140d565b8267ffffffffffffffff16101561177c57506000610909565b611784610b00565b61178c61140d565b6117969190612a0b565b8267ffffffffffffffff1611156117ae575081610909565b6117b6610b00565b6117be61140d565b6117d29067ffffffffffffffff8516612a6b565b6117dc9085612aad565b6117e69190612ac4565b9050610909565b604080516001600160a01b038416602482015260448082018490528251808303909101815260649091019091526020810180516001600160e01b031663a9059cbb60e01b179052610add908490611dd8565b60008061184b83611043565b9050806001600160a01b0316846001600160a01b0316148061189257506001600160a01b0380821660009081526005602090815260408083209388168352929052205460ff165b806118b65750836001600160a01b03166118ab846109a1565b6001600160a01b0316145b949350505050565b826001600160a01b03166118d182611043565b6001600160a01b0316146118f75760405162461bcd60e51b8152600401610a3c90612ae6565b6001600160a01b0382166119595760405162461bcd60e51b8152602060048201526024808201527f4552433732313a207472616e7366657220746f20746865207a65726f206164646044820152637265737360e01b6064820152608401610a3c565b6119668383836001611eaa565b826001600160a01b031661197982611043565b6001600160a01b03161461199f5760405162461bcd60e51b8152600401610a3c90612ae6565b600081815260046020908152604080832080546001600160a01b03199081169091556001600160a01b0387811680865260038552838620805460001901905590871680865283862080546001019055868652600290945282852080549092168417909155905184937fddf252ad1be2c89b69c2b068fc378daa952ba7f163c4a11628f55a4df523b3ef91a4505050565b6112d18133611f32565b611a4382826112d4565b610c835760008281526006602090815260408083206001600160a01b03851684529091529020805460ff19166001179055611a7b3390565b6001600160a01b0316816001600160a01b0316837f2f8788117e7eff1d82e926ec794901d17c78024a50270940304540a733656f0d60405160405180910390a45050565b611ac982826112d4565b15610c835760008281526006602090815260408083206001600160a01b0385168085529252808320805460ff1916905551339285917ff6391f5c32d9c69d2a47ea670b442974b53935d1edc7fd64eb21e047a839171b9190a45050565b600061124a8284612aad565b600061124a8284612ac4565b80471015611b8e5760405162461bcd60e51b815260206004820152601d60248201527f416464726573733a20696e73756666696369656e742062616c616e63650000006044820152606401610a3c565b6000826001600160a01b03168260405160006040518083038185875af1925050503d8060008114611bdb576040519150601f19603f3d011682016040523d82523d6000602084013e611be0565b606091505b5050905080610add5760405162461bcd60e51b815260206004820152603a60248201527f416464726573733a20756e61626c6520746f2073656e642076616c75652c207260448201527f6563697069656e74206d617920686176652072657665727465640000000000006064820152608401610a3c565b816001600160a01b0316836001600160a01b031603611cb85760405162461bcd60e51b815260206004820152601960248201527f4552433732313a20617070726f766520746f2063616c6c6572000000000000006044820152606401610a3c565b6001600160a01b03838116600081815260056020908152604080832094871680845294825291829020805460ff191686151590811790915591519182527f17307eab39ab6107e8899845ad3d59bd9653f200f220920489ca2b5937696c31910160405180910390a3505050565b600082611d328584611f8b565b14949350505050565b611d468484846118be565b611d5284848484611fd8565b6114075760405162461bcd60e51b8152600401610a3c90612b2b565b610c838282604051806020016040528060008152506120d9565b60006001600160e01b031982166380ac58cd60e01b1480611db957506001600160e01b03198216635b5e139f60e01b145b8061090957506301ffc9a760e01b6001600160e01b0319831614610909565b6000611e2d826040518060400160405280602081526020017f5361666545524332303a206c6f772d6c6576656c2063616c6c206661696c6564815250856001600160a01b031661210c9092919063ffffffff16565b805190915015610add5780806020019051810190611e4b9190612b7d565b610add5760405162461bcd60e51b815260206004820152602a60248201527f5361666545524332303a204552433230206f7065726174696f6e20646964206e6044820152691bdd081cdd58d8d9595960b21b6064820152608401610a3c565b6001811115611407576001600160a01b03841615611ef0576001600160a01b03841660009081526003602052604081208054839290611eea908490612a6b565b90915550505b6001600160a01b03831615611407576001600160a01b03831660009081526003602052604081208054839290611f27908490612a0b565b909155505050505050565b611f3c82826112d4565b610c8357611f498161211b565b611f5483602061212d565b604051602001611f65929190612b9a565b60408051601f198184030181529082905262461bcd60e51b8252610a3c9160040161268d565b600081815b8451811015611fd057611fbc82868381518110611faf57611faf612a97565b60200260200101516122c9565b915080611fc881612c0f565b915050611f90565b509392505050565b60006001600160a01b0384163b156120ce57604051630a85bd0160e11b81526001600160a01b0385169063150b7a029061201c903390899088908890600401612c28565b6020604051808303816000875af1925050508015612057575060408051601f3d908101601f1916820190925261205491810190612c65565b60015b6120b4573d808015612085576040519150601f19603f3d011682016040523d82523d6000602084013e61208a565b606091505b5080516000036120ac5760405162461bcd60e51b8152600401610a3c90612b2b565b805181602001fd5b6001600160e01b031916630a85bd0160e11b1490506118b6565b506001949350505050565b6120e383836122f8565b6120f06000848484611fd8565b610add5760405162461bcd60e51b8152600401610a3c90612b2b565b60606118b68484600085612491565b60606109096001600160a01b03831660145b6060600061213c836002612aad565b612147906002612a0b565b67ffffffffffffffff81111561215f5761215f61289f565b6040519080825280601f01601f191660200182016040528015612189576020820181803683370190505b509050600360fc1b816000815181106121a4576121a4612a97565b60200101906001600160f81b031916908160001a905350600f60fb1b816001815181106121d3576121d3612a97565b60200101906001600160f81b031916908160001a90535060006121f7846002612aad565b612202906001612a0b565b90505b600181111561227a576f181899199a1a9b1b9c1cb0b131b232b360811b85600f166010811061223657612236612a97565b1a60f81b82828151811061224c5761224c612a97565b60200101906001600160f81b031916908160001a90535060049490941c9361227381612c82565b9050612205565b50831561124a5760405162461bcd60e51b815260206004820181905260248201527f537472696e67733a20686578206c656e67746820696e73756666696369656e746044820152606401610a3c565b60008183106122e557600082815260208490526040902061124a565b600083815260208390526040902061124a565b6001600160a01b03821661234e5760405162461bcd60e51b815260206004820181905260248201527f4552433732313a206d696e7420746f20746865207a65726f20616464726573736044820152606401610a3c565b6000818152600260205260409020546001600160a01b0316156123b35760405162461bcd60e51b815260206004820152601c60248201527f4552433732313a20746f6b656e20616c7265616479206d696e746564000000006044820152606401610a3c565b6123c1600083836001611eaa565b6000818152600260205260409020546001600160a01b0316156124265760405162461bcd60e51b815260206004820152601c60248201527f4552433732313a20746f6b656e20616c7265616479206d696e746564000000006044820152606401610a3c565b6001600160a01b038216600081815260036020908152604080832080546001019055848352600290915280822080546001600160a01b0319168417905551839291907fddf252ad1be2c89b69c2b068fc378daa952ba7f163c4a11628f55a4df523b3ef908290a45050565b6060824710156124f25760405162461bcd60e51b815260206004820152602660248201527f416464726573733a20696e73756666696369656e742062616c616e636520666f6044820152651c8818d85b1b60d21b6064820152608401610a3c565b600080866001600160a01b0316858760405161250e9190612c99565b60006040518083038185875af1925050503d806000811461254b576040519150601f19603f3d011682016040523d82523d6000602084013e612550565b606091505b50915091506125618783838761256c565b979650505050505050565b606083156125db5782516000036125d4576001600160a01b0385163b6125d45760405162461bcd60e51b815260206004820152601d60248201527f416464726573733a2063616c6c20746f206e6f6e2d636f6e74726163740000006044820152606401610a3c565b50816118b6565b6118b683838151156125f05781518083602001fd5b8060405162461bcd60e51b8152600401610a3c919061268d565b6001600160e01b0319811681146112d157600080fd5b60006020828403121561263257600080fd5b813561124a8161260a565b60005b83811015612658578181015183820152602001612640565b50506000910152565b6000815180845261267981602086016020860161263d565b601f01601f19169290920160200192915050565b60208152600061124a6020830184612661565b6000602082840312156126b257600080fd5b5035919050565b80356001600160a01b03811681146126d057600080fd5b919050565b600080604083850312156126e857600080fd5b6126f1836126b9565b946020939093013593505050565b803567ffffffffffffffff811681146126d057600080fd5b60006020828403121561272957600080fd5b61124a826126ff565b60006020828403121561274457600080fd5b61124a826126b9565b60008060006060848603121561276257600080fd5b61276b846126b9565b9250612779602085016126b9565b9150604084013590509250925092565b6000806040838503121561279c57600080fd5b823591506127ac602084016126b9565b90509250929050565b600080604083850312156127c857600080fd5b6127d1836126b9565b91506127ac602084016126ff565b80151581146112d157600080fd5b6000806040838503121561280057600080fd5b612809836126b9565b91506020830135612819816127df565b809150509250929050565b60008060006040848603121561283957600080fd5b833567ffffffffffffffff8082111561285157600080fd5b818601915086601f83011261286557600080fd5b81358181111561287457600080fd5b8760208260051b850101111561288957600080fd5b6020928301989097509590910135949350505050565b634e487b7160e01b600052604160045260246000fd5b600080600080608085870312156128cb57600080fd5b6128d4856126b9565b93506128e2602086016126b9565b925060408501359150606085013567ffffffffffffffff8082111561290657600080fd5b818701915087601f83011261291a57600080fd5b81358181111561292c5761292c61289f565b604051601f8201601f19908116603f011681019083821181831017156129545761295461289f565b816040528281528a602084870101111561296d57600080fd5b82602086016020830137600060208483010152809550505050505092959194509250565b600080604083850312156129a457600080fd5b6129ad836126b9565b91506127ac602084016126b9565b600181811c908216806129cf57607f821691505b6020821081036129ef57634e487b7160e01b600052602260045260246000fd5b50919050565b634e487b7160e01b600052601160045260246000fd5b80820180821115610909576109096129f5565b6020808252602d908201527f4552433732313a2063616c6c6572206973206e6f7420746f6b656e206f776e6560408201526c1c881bdc88185c1c1c9bdd9959609a1b606082015260800190565b81810381811115610909576109096129f5565b600060208284031215612a9057600080fd5b5051919050565b634e487b7160e01b600052603260045260246000fd5b8082028115828204841417610909576109096129f5565b600082612ae157634e487b7160e01b600052601260045260246000fd5b500490565b60208082526025908201527f4552433732313a207472616e736665722066726f6d20696e636f72726563742060408201526437bbb732b960d91b606082015260800190565b60208082526032908201527f4552433732313a207472616e7366657220746f206e6f6e20455243373231526560408201527131b2b4bb32b91034b6b83632b6b2b73a32b960711b606082015260800190565b600060208284031215612b8f57600080fd5b815161124a816127df565b7f416363657373436f6e74726f6c3a206163636f756e7420000000000000000000815260008351612bd281601785016020880161263d565b7001034b99036b4b9b9b4b733903937b6329607d1b6017918401918201528351612c0381602884016020880161263d565b01602801949350505050565b600060018201612c2157612c216129f5565b5060010190565b6001600160a01b0385811682528416602082015260408101839052608060608201819052600090612c5b90830184612661565b9695505050505050565b600060208284031215612c7757600080fd5b815161124a8161260a565b600081612c9157612c916129f5565b506000190190565b60008251612cab81846020870161263d565b919091019291505056fea26469706673582212205ea312f8aeaf96f1a4d04d53a3bd6e81980e1c28b7da37797a5a3b0c4eec819d64736f6c63430008110033",
    "sourcePath": "/Users/mohdziyad/Desktop/PGF-Factory/contracts/FundingContract.sol",
    "compiler": {
        "name": "solc",
        "version": "0.8.17+commit.8df45f5f"
    },
    "functionHashes": {
        "CONTRACTOR_ROLE()": "f88e3204",
        "DEFAULT_ADMIN_ROLE()": "a217fddf",
        "FUNDER_ROLE()": "34aedecd",
        "approve(address,uint256)": "095ea7b3",
        "balanceOf(address)": "70a08231",
        "beneficiary()": "38af3eed",
        "claim()": "4e71d92d",
        "depositFunds()": "e2c41dbc",
        "duration()": "0fb5a6b4",
        "getAmountFundedByAddress(address)": "9b23b0c9",
        "getApproved(uint256)": "081812fc",
        "getFunder(uint256)": "d7b4750c",
        "getIsGroupWithdrawal()": "9c885eb3",
        "getMinimumFundingAmount()": "db06941e",
        "getRoleAdmin(bytes32)": "248a9ca3",
        "getStartTimestamp()": "1f89f25e",
        "getTokenCounter()": "6e02007d",
        "getTotalAmount()": "65ac4341",
        "getVestingPeriod()": "1096cb79",
        "getWithdrawalFee()": "d8e159f8",
        "getWithdrawerCounter()": "aa0fc513",
        "grantRole(bytes32,address)": "2f2ff15d",
        "hasRole(bytes32,address)": "91d14854",
        "isApprovedForAll(address,address)": "e985e9c5",
        "name()": "06fdde03",
        "ownerOf(uint256)": "6352211e",
        "releasable()": "fbccedae",
        "releasable(address)": "a3f8eace",
        "release()": "86d1a69f",
        "release(address)": "19165587",
        "released()": "96132521",
        "released(address)": "9852595c",
        "renounceRole(bytes32,address)": "36568abe",
        "requestForWithdrawal(uint256)": "1095941e",
        "revokeRole(bytes32,address)": "d547741f",
        "safeTransferFrom(address,address,uint256)": "42842e0e",
        "safeTransferFrom(address,address,uint256,bytes)": "b88d4fde",
        "setApprovalForAll(address,bool)": "a22cb465",
        "start()": "be9a6555",
        "supportsInterface(bytes4)": "01ffc9a7",
        "symbol()": "95d89b41",
        "tokenURI(uint256)": "c87b56dd",
        "transferFrom(address,address,uint256)": "23b872dd",
        "verifyMerkleTree(bytes32[],bytes32)": "b121d483",
        "vestedAmount(address,uint64)": "810ec23b",
        "vestedAmount(uint64)": "0a17b06b",
        "withdrawFunds()": "24600fc3",
        "withdrawalCheck()": "7dc4c2ba"
    },
    "gasEstimates": {
        "creation": {
            "codeDepositCost": "2299800",
            "executionCost": "infinite",
            "totalCost": "infinite"
        },
        "external": {
            "CONTRACTOR_ROLE()": "327",
            "DEFAULT_ADMIN_ROLE()": "284",
            "FUNDER_ROLE()": "285",
            "approve(address,uint256)": "infinite",
            "balanceOf(address)": "2722",
            "beneficiary()": "infinite",
            "claim()": "infinite",
            "depositFunds()": "infinite",
            "duration()": "infinite",
            "getAmountFundedByAddress(address)": "2582",
            "getApproved(uint256)": "4815",
            "getFunder(uint256)": "4774",
            "getIsGroupWithdrawal()": "infinite",
            "getMinimumFundingAmount()": "infinite",
            "getRoleAdmin(bytes32)": "2490",
            "getStartTimestamp()": "2404",
            "getTokenCounter()": "2441",
            "getTotalAmount()": "infinite",
            "getVestingPeriod()": "infinite",
            "getWithdrawalFee()": "infinite",
            "getWithdrawerCounter()": "2485",
            "grantRole(bytes32,address)": "infinite",
            "hasRole(bytes32,address)": "2744",
            "isApprovedForAll(address,address)": "infinite",
            "name()": "infinite",
            "ownerOf(uint256)": "2605",
            "releasable()": "infinite",
            "releasable(address)": "infinite",
            "release()": "infinite",
            "release(address)": "infinite",
            "released()": "2426",
            "released(address)": "2693",
            "renounceRole(bytes32,address)": "29113",
            "requestForWithdrawal(uint256)": "infinite",
            "revokeRole(bytes32,address)": "infinite",
            "safeTransferFrom(address,address,uint256)": "infinite",
            "safeTransferFrom(address,address,uint256,bytes)": "infinite",
            "setApprovalForAll(address,bool)": "26823",
            "start()": "infinite",
            "supportsInterface(bytes4)": "infinite",
            "symbol()": "infinite",
            "tokenURI(uint256)": "infinite",
            "transferFrom(address,address,uint256)": "infinite",
            "verifyMerkleTree(bytes32[],bytes32)": "infinite",
            "vestedAmount(address,uint64)": "infinite",
            "vestedAmount(uint64)": "infinite",
            "withdrawFunds()": "infinite",
            "withdrawalCheck()": "infinite"
        }
    }
}