{
  "_format": "hh-sol-artifact-1",
  "contractName": "VestingWallet",
  "sourceName": "@openzeppelin/contracts/finance/VestingWallet.sol",
  "abi": [
    {
      "inputs": [
        {
          "internalType": "address",
          "name": "beneficiaryAddress",
          "type": "address"
        },
        {
          "internalType": "uint64",
          "name": "startTimestamp",
          "type": "uint64"
        },
        {
          "internalType": "uint64",
          "name": "durationSeconds",
          "type": "uint64"
        }
      ],
      "stateMutability": "payable",
      "type": "constructor"
    },
    {
      "anonymous": false,
      "inputs": [
        {
          "indexed": true,
          "internalType": "address",
          "name": "token",
          "type": "address"
        },
        {
          "indexed": false,
          "internalType": "uint256",
          "name": "amount",
          "type": "uint256"
        }
      ],
      "name": "ERC20Released",
      "type": "event"
    },
    {
      "anonymous": false,
      "inputs": [
        {
          "indexed": false,
          "internalType": "uint256",
          "name": "amount",
          "type": "uint256"
        }
      ],
      "name": "EtherReleased",
      "type": "event"
    },
    {
      "inputs": [],
      "name": "beneficiary",
      "outputs": [
        {
          "internalType": "address",
          "name": "",
          "type": "address"
        }
      ],
      "stateMutability": "view",
      "type": "function"
    },
    {
      "inputs": [],
      "name": "duration",
      "outputs": [
        {
          "internalType": "uint256",
          "name": "",
          "type": "uint256"
        }
      ],
      "stateMutability": "view",
      "type": "function"
    },
    {
      "inputs": [
        {
          "internalType": "address",
          "name": "token",
          "type": "address"
        }
      ],
      "name": "releasable",
      "outputs": [
        {
          "internalType": "uint256",
          "name": "",
          "type": "uint256"
        }
      ],
      "stateMutability": "view",
      "type": "function"
    },
    {
      "inputs": [],
      "name": "releasable",
      "outputs": [
        {
          "internalType": "uint256",
          "name": "",
          "type": "uint256"
        }
      ],
      "stateMutability": "view",
      "type": "function"
    },
    {
      "inputs": [
        {
          "internalType": "address",
          "name": "token",
          "type": "address"
        }
      ],
      "name": "release",
      "outputs": [],
      "stateMutability": "nonpayable",
      "type": "function"
    },
    {
      "inputs": [],
      "name": "release",
      "outputs": [],
      "stateMutability": "nonpayable",
      "type": "function"
    },
    {
      "inputs": [],
      "name": "released",
      "outputs": [
        {
          "internalType": "uint256",
          "name": "",
          "type": "uint256"
        }
      ],
      "stateMutability": "view",
      "type": "function"
    },
    {
      "inputs": [
        {
          "internalType": "address",
          "name": "token",
          "type": "address"
        }
      ],
      "name": "released",
      "outputs": [
        {
          "internalType": "uint256",
          "name": "",
          "type": "uint256"
        }
      ],
      "stateMutability": "view",
      "type": "function"
    },
    {
      "inputs": [],
      "name": "start",
      "outputs": [
        {
          "internalType": "uint256",
          "name": "",
          "type": "uint256"
        }
      ],
      "stateMutability": "view",
      "type": "function"
    },
    {
      "inputs": [
        {
          "internalType": "uint64",
          "name": "timestamp",
          "type": "uint64"
        }
      ],
      "name": "vestedAmount",
      "outputs": [
        {
          "internalType": "uint256",
          "name": "",
          "type": "uint256"
        }
      ],
      "stateMutability": "view",
      "type": "function"
    },
    {
      "inputs": [
        {
          "internalType": "address",
          "name": "token",
          "type": "address"
        },
        {
          "internalType": "uint64",
          "name": "timestamp",
          "type": "uint64"
        }
      ],
      "name": "vestedAmount",
      "outputs": [
        {
          "internalType": "uint256",
          "name": "",
          "type": "uint256"
        }
      ],
      "stateMutability": "view",
      "type": "function"
    },
    {
      "stateMutability": "payable",
      "type": "receive"
    }
  ],
  "bytecode": "0x60e0604052604051610c0a380380610c0a833981016040819052610022916100d0565b6001600160a01b03831661008f5760405162461bcd60e51b815260206004820152602a60248201527f56657374696e6757616c6c65743a2062656e6566696369617279206973207a65604482015269726f206164647265737360b01b606482015260840160405180910390fd5b6001600160a01b039092166080526001600160401b0390811660a0521660c052610121565b80516001600160401b03811681146100cb57600080fd5b919050565b6000806000606084860312156100e557600080fd5b83516001600160a01b03811681146100fc57600080fd5b925061010a602085016100b4565b9150610118604085016100b4565b90509250925092565b60805160a05160c051610aba610150600039600061021501526000610421015260006102cb0152610aba6000f3fe6080604052600436106100905760003560e01c80630a17b06b1461009c5780630fb5a6b4146100cf57806319165587146100e457806338af3eed14610106578063810ec23b1461013357806386d1a69f1461015357806396132521146101685780639852595c1461017d578063a3f8eace1461019d578063be9a6555146101bd578063fbccedae146101d257600080fd5b3661009757005b600080fd5b3480156100a857600080fd5b506100bc6100b73660046108e1565b6101e7565b6040519081526020015b60405180910390f35b3480156100db57600080fd5b506100bc61020b565b3480156100f057600080fd5b506101046100ff366004610913565b610238565b005b34801561011257600080fd5b5061011b6102c9565b6040516001600160a01b0390911681526020016100c6565b34801561013f57600080fd5b506100bc61014e36600461092e565b6102ed565b34801561015f57600080fd5b50610104610374565b34801561017457600080fd5b506000546100bc565b34801561018957600080fd5b506100bc610198366004610913565b6103dd565b3480156101a957600080fd5b506100bc6101b8366004610913565b6103f8565b3480156101c957600080fd5b506100bc610417565b3480156101de57600080fd5b506100bc610444565b60006102056101f560005490565b6101ff9047610977565b83610460565b92915050565b6001600160401b037f00000000000000000000000000000000000000000000000000000000000000001690565b6000610243826103f8565b6001600160a01b038316600090815260016020526040812080549293508392909190610270908490610977565b90915550506040518181526001600160a01b038316907fc0e523490dd523c33b1878c9eb14ff46991e3f5b2cd33710918618f2a39cba1b9060200160405180910390a26102c5826102bf6102c9565b836104f1565b5050565b7f000000000000000000000000000000000000000000000000000000000000000090565b600061036d6102fb846103dd565b6040516370a0823160e01b81523060048201526001600160a01b038616906370a0823190602401602060405180830381865afa15801561033f573d6000803e3d6000fd5b505050506040513d601f19601f82011682018060405250810190610363919061098a565b6101ff9190610977565b9392505050565b600061037e610444565b9050806000808282546103919190610977565b90915550506040518181527fda9d4e5f101b8b9b1c5b76d0c5a9f7923571acfc02376aa076b75a8c080c956b9060200160405180910390a16103da6103d46102c9565b82610548565b50565b6001600160a01b031660009081526001602052604090205490565b6000610403826103dd565b61040d83426102ed565b61020591906109a3565b6001600160401b037f00000000000000000000000000000000000000000000000000000000000000001690565b60008054610451426101e7565b61045b91906109a3565b905090565b600061046a610417565b826001600160401b0316101561048257506000610205565b61048a61020b565b610492610417565b61049c9190610977565b826001600160401b031611156104b3575081610205565b6104bb61020b565b6104c3610417565b6104d6906001600160401b0385166109a3565b6104e090856109b6565b6104ea91906109cd565b9050610205565b604080516001600160a01b038416602482015260448082018490528251808303909101815260649091019091526020810180516001600160e01b031663a9059cbb60e01b179052610543908490610663565b505050565b8047101561059d5760405162461bcd60e51b815260206004820152601d60248201527f416464726573733a20696e73756666696369656e742062616c616e636500000060448201526064015b60405180910390fd5b6000826001600160a01b03168260405160006040518083038185875af1925050503d80600081146105ea576040519150601f19603f3d011682016040523d82523d6000602084013e6105ef565b606091505b50509050806105435760405162461bcd60e51b815260206004820152603a60248201527f416464726573733a20756e61626c6520746f2073656e642076616c75652c20726044820152791958da5c1a595b9d081b585e481a185d99481c995d995c9d195960321b6064820152608401610594565b60006106b8826040518060400160405280602081526020017f5361666545524332303a206c6f772d6c6576656c2063616c6c206661696c6564815250856001600160a01b03166107359092919063ffffffff16565b80519091501561054357808060200190518101906106d691906109ef565b6105435760405162461bcd60e51b815260206004820152602a60248201527f5361666545524332303a204552433230206f7065726174696f6e20646964206e6044820152691bdd081cdd58d8d9595960b21b6064820152608401610594565b6060610744848460008561074c565b949350505050565b6060824710156107ad5760405162461bcd60e51b815260206004820152602660248201527f416464726573733a20696e73756666696369656e742062616c616e636520666f6044820152651c8818d85b1b60d21b6064820152608401610594565b600080866001600160a01b031685876040516107c99190610a35565b60006040518083038185875af1925050503d8060008114610806576040519150601f19603f3d011682016040523d82523d6000602084013e61080b565b606091505b509150915061081c87838387610827565b979650505050505050565b6060831561089657825160000361088f576001600160a01b0385163b61088f5760405162461bcd60e51b815260206004820152601d60248201527f416464726573733a2063616c6c20746f206e6f6e2d636f6e74726163740000006044820152606401610594565b5081610744565b61074483838151156108ab5781518083602001fd5b8060405162461bcd60e51b81526004016105949190610a51565b80356001600160401b03811681146108dc57600080fd5b919050565b6000602082840312156108f357600080fd5b61036d826108c5565b80356001600160a01b03811681146108dc57600080fd5b60006020828403121561092557600080fd5b61036d826108fc565b6000806040838503121561094157600080fd5b61094a836108fc565b9150610958602084016108c5565b90509250929050565b634e487b7160e01b600052601160045260246000fd5b8082018082111561020557610205610961565b60006020828403121561099c57600080fd5b5051919050565b8181038181111561020557610205610961565b808202811582820484141761020557610205610961565b6000826109ea57634e487b7160e01b600052601260045260246000fd5b500490565b600060208284031215610a0157600080fd5b8151801515811461036d57600080fd5b60005b83811015610a2c578181015183820152602001610a14565b50506000910152565b60008251610a47818460208701610a11565b9190910192915050565b6020815260008251806020840152610a70816040850160208701610a11565b601f01601f1916919091016040019291505056fea264697066735822122070392ce5b52b59c578e037b4a3b58fe8711dd1ed27191fb96e7eae51328a510c64736f6c63430008110033",
  "linkReferences": {},
  "deployedLinkReferences": {}
}