{
  "_format": "hh-sol-artifact-1",
  "contractName": "VestingWallet",
  "sourceName": "@openzeppelin/contracts/finance/VestingWallet.sol",
  "abi": [
    {
      "inputs": [
        {
          "internalType": "address",
          "name": "beneficiaryAddress",
          "type": "address"
        },
        {
          "internalType": "uint64",
          "name": "startTimestamp",
          "type": "uint64"
        },
        {
          "internalType": "uint64",
          "name": "durationSeconds",
          "type": "uint64"
        }
      ],
      "stateMutability": "payable",
      "type": "constructor"
    },
    {
      "anonymous": false,
      "inputs": [
        {
          "indexed": true,
          "internalType": "address",
          "name": "token",
          "type": "address"
        },
        {
          "indexed": false,
          "internalType": "uint256",
          "name": "amount",
          "type": "uint256"
        }
      ],
      "name": "ERC20Released",
      "type": "event"
    },
    {
      "anonymous": false,
      "inputs": [
        {
          "indexed": false,
          "internalType": "uint256",
          "name": "amount",
          "type": "uint256"
        }
      ],
      "name": "EtherReleased",
      "type": "event"
    },
    {
      "inputs": [],
      "name": "beneficiary",
      "outputs": [
        {
          "internalType": "address",
          "name": "",
          "type": "address"
        }
      ],
      "stateMutability": "view",
      "type": "function"
    },
    {
      "inputs": [],
      "name": "duration",
      "outputs": [
        {
          "internalType": "uint256",
          "name": "",
          "type": "uint256"
        }
      ],
      "stateMutability": "view",
      "type": "function"
    },
    {
      "inputs": [
        {
          "internalType": "address",
          "name": "token",
          "type": "address"
        }
      ],
      "name": "releasable",
      "outputs": [
        {
          "internalType": "uint256",
          "name": "",
          "type": "uint256"
        }
      ],
      "stateMutability": "view",
      "type": "function"
    },
    {
      "inputs": [],
      "name": "releasable",
      "outputs": [
        {
          "internalType": "uint256",
          "name": "",
          "type": "uint256"
        }
      ],
      "stateMutability": "view",
      "type": "function"
    },
    {
      "inputs": [
        {
          "internalType": "address",
          "name": "token",
          "type": "address"
        }
      ],
      "name": "release",
      "outputs": [],
      "stateMutability": "nonpayable",
      "type": "function"
    },
    {
      "inputs": [],
      "name": "release",
      "outputs": [],
      "stateMutability": "nonpayable",
      "type": "function"
    },
    {
      "inputs": [],
      "name": "released",
      "outputs": [
        {
          "internalType": "uint256",
          "name": "",
          "type": "uint256"
        }
      ],
      "stateMutability": "view",
      "type": "function"
    },
    {
      "inputs": [
        {
          "internalType": "address",
          "name": "token",
          "type": "address"
        }
      ],
      "name": "released",
      "outputs": [
        {
          "internalType": "uint256",
          "name": "",
          "type": "uint256"
        }
      ],
      "stateMutability": "view",
      "type": "function"
    },
    {
      "inputs": [],
      "name": "start",
      "outputs": [
        {
          "internalType": "uint256",
          "name": "",
          "type": "uint256"
        }
      ],
      "stateMutability": "view",
      "type": "function"
    },
    {
      "inputs": [
        {
          "internalType": "uint64",
          "name": "timestamp",
          "type": "uint64"
        }
      ],
      "name": "vestedAmount",
      "outputs": [
        {
          "internalType": "uint256",
          "name": "",
          "type": "uint256"
        }
      ],
      "stateMutability": "view",
      "type": "function"
    },
    {
      "inputs": [
        {
          "internalType": "address",
          "name": "token",
          "type": "address"
        },
        {
          "internalType": "uint64",
          "name": "timestamp",
          "type": "uint64"
        }
      ],
      "name": "vestedAmount",
      "outputs": [
        {
          "internalType": "uint256",
          "name": "",
          "type": "uint256"
        }
      ],
      "stateMutability": "view",
      "type": "function"
    },
    {
      "stateMutability": "payable",
      "type": "receive"
    }
  ],
  "bytecode": "0x60e06040526040516200152e3803806200152e8339818101604052810190620000299190620001bf565b600073ffffffffffffffffffffffffffffffffffffffff168373ffffffffffffffffffffffffffffffffffffffff16036200009b576040517f08c379a00000000000000000000000000000000000000000000000000000000081526004016200009290620002a2565b60405180910390fd5b8273ffffffffffffffffffffffffffffffffffffffff1660808173ffffffffffffffffffffffffffffffffffffffff16815250508167ffffffffffffffff1660a08167ffffffffffffffff16815250508067ffffffffffffffff1660c08167ffffffffffffffff1681525050505050620002c4565b600080fd5b600073ffffffffffffffffffffffffffffffffffffffff82169050919050565b6000620001428262000115565b9050919050565b620001548162000135565b81146200016057600080fd5b50565b600081519050620001748162000149565b92915050565b600067ffffffffffffffff82169050919050565b62000199816200017a565b8114620001a557600080fd5b50565b600081519050620001b9816200018e565b92915050565b600080600060608486031215620001db57620001da62000110565b5b6000620001eb8682870162000163565b9350506020620001fe86828701620001a8565b92505060406200021186828701620001a8565b9150509250925092565b600082825260208201905092915050565b7f56657374696e6757616c6c65743a2062656e6566696369617279206973207a6560008201527f726f206164647265737300000000000000000000000000000000000000000000602082015250565b60006200028a602a836200021b565b915062000297826200022c565b604082019050919050565b60006020820190508181036000830152620002bd816200027b565b9050919050565b60805160a05160c05161123a620002f460003960006102d001526000610578015260006103c9015261123a6000f3fe6080604052600436106100905760003560e01c80630a17b06b1461009c5780630fb5a6b4146100d9578063191655871461010457806338af3eed1461012d578063810ec23b1461015857806386d1a69f1461019557806396132521146101ac5780639852595c146101d7578063a3f8eace14610214578063be9a655514610251578063fbccedae1461027c57610097565b3661009757005b600080fd5b3480156100a857600080fd5b506100c360048036038101906100be9190610ab5565b6102a7565b6040516100d09190610afb565b60405180910390f35b3480156100e557600080fd5b506100ee6102cc565b6040516100fb9190610afb565b60405180910390f35b34801561011057600080fd5b5061012b60048036038101906101269190610b74565b6102fe565b005b34801561013957600080fd5b506101426103c5565b60405161014f9190610bb0565b60405180910390f35b34801561016457600080fd5b5061017f600480360381019061017a9190610bcb565b6103ed565b60405161018c9190610afb565b60405180910390f35b3480156101a157600080fd5b506101aa61048d565b005b3480156101b857600080fd5b506101c16104fc565b6040516101ce9190610afb565b60405180910390f35b3480156101e357600080fd5b506101fe60048036038101906101f99190610b74565b610505565b60405161020b9190610afb565b60405180910390f35b34801561022057600080fd5b5061023b60048036038101906102369190610b74565b61054e565b6040516102489190610afb565b60405180910390f35b34801561025d57600080fd5b50610266610574565b6040516102739190610afb565b60405180910390f35b34801561028857600080fd5b506102916105a6565b60405161029e9190610afb565b60405180910390f35b60006102c56102b46104fc565b476102bf9190610c3a565b836105c8565b9050919050565b60007f000000000000000000000000000000000000000000000000000000000000000067ffffffffffffffff16905090565b60006103098261054e565b905080600160008473ffffffffffffffffffffffffffffffffffffffff1673ffffffffffffffffffffffffffffffffffffffff168152602001908152602001600020600082825461035a9190610c3a565b925050819055508173ffffffffffffffffffffffffffffffffffffffff167fc0e523490dd523c33b1878c9eb14ff46991e3f5b2cd33710918618f2a39cba1b826040516103a79190610afb565b60405180910390a26103c1826103bb6103c5565b83610662565b5050565b60007f0000000000000000000000000000000000000000000000000000000000000000905090565b60006104856103fb84610505565b8473ffffffffffffffffffffffffffffffffffffffff166370a08231306040518263ffffffff1660e01b81526004016104349190610bb0565b602060405180830381865afa158015610451573d6000803e3d6000fd5b505050506040513d601f19601f820116820180604052508101906104759190610c9a565b61047f9190610c3a565b836105c8565b905092915050565b60006104976105a6565b9050806000808282546104aa9190610c3a565b925050819055507fda9d4e5f101b8b9b1c5b76d0c5a9f7923571acfc02376aa076b75a8c080c956b816040516104e09190610afb565b60405180910390a16104f96104f36103c5565b826106e8565b50565b60008054905090565b6000600160008373ffffffffffffffffffffffffffffffffffffffff1673ffffffffffffffffffffffffffffffffffffffff168152602001908152602001600020549050919050565b600061055982610505565b61056383426103ed565b61056d9190610cc7565b9050919050565b60007f000000000000000000000000000000000000000000000000000000000000000067ffffffffffffffff16905090565b60006105b06104fc565b6105b9426102a7565b6105c39190610cc7565b905090565b60006105d2610574565b8267ffffffffffffffff1610156105ec576000905061065c565b6105f46102cc565b6105fc610574565b6106069190610c3a565b8267ffffffffffffffff16111561061f5782905061065c565b6106276102cc565b61062f610574565b8367ffffffffffffffff166106449190610cc7565b8461064f9190610cfb565b6106599190610d6c565b90505b92915050565b6106e38363a9059cbb60e01b8484604051602401610681929190610d9d565b604051602081830303815290604052907bffffffffffffffffffffffffffffffffffffffffffffffffffffffff19166020820180517bffffffffffffffffffffffffffffffffffffffffffffffffffffffff83818316178352505050506107dc565b505050565b8047101561072b576040517f08c379a000000000000000000000000000000000000000000000000000000000815260040161072290610e23565b60405180910390fd5b60008273ffffffffffffffffffffffffffffffffffffffff168260405161075190610e74565b60006040518083038185875af1925050503d806000811461078e576040519150601f19603f3d011682016040523d82523d6000602084013e610793565b606091505b50509050806107d7576040517f08c379a00000000000000000000000000000000000000000000000000000000081526004016107ce90610efb565b60405180910390fd5b505050565b600061083e826040518060400160405280602081526020017f5361666545524332303a206c6f772d6c6576656c2063616c6c206661696c65648152508573ffffffffffffffffffffffffffffffffffffffff166108a39092919063ffffffff16565b905060008151111561089e578080602001905181019061085e9190610f53565b61089d576040517f08c379a000000000000000000000000000000000000000000000000000000000815260040161089490610ff2565b60405180910390fd5b5b505050565b60606108b284846000856108bb565b90509392505050565b606082471015610900576040517f08c379a00000000000000000000000000000000000000000000000000000000081526004016108f790611084565b60405180910390fd5b6000808673ffffffffffffffffffffffffffffffffffffffff168587604051610929919061110a565b60006040518083038185875af1925050503d8060008114610966576040519150601f19603f3d011682016040523d82523d6000602084013e61096b565b606091505b509150915061097c87838387610988565b92505050949350505050565b606083156109ea5760008351036109e2576109a2856109fd565b6109e1576040517f08c379a00000000000000000000000000000000000000000000000000000000081526004016109d89061116d565b60405180910390fd5b5b8290506109f5565b6109f48383610a20565b5b949350505050565b6000808273ffffffffffffffffffffffffffffffffffffffff163b119050919050565b600082511115610a335781518083602001fd5b806040517f08c379a0000000000000000000000000000000000000000000000000000000008152600401610a6791906111e2565b60405180910390fd5b600080fd5b600067ffffffffffffffff82169050919050565b610a9281610a75565b8114610a9d57600080fd5b50565b600081359050610aaf81610a89565b92915050565b600060208284031215610acb57610aca610a70565b5b6000610ad984828501610aa0565b91505092915050565b6000819050919050565b610af581610ae2565b82525050565b6000602082019050610b106000830184610aec565b92915050565b600073ffffffffffffffffffffffffffffffffffffffff82169050919050565b6000610b4182610b16565b9050919050565b610b5181610b36565b8114610b5c57600080fd5b50565b600081359050610b6e81610b48565b92915050565b600060208284031215610b8a57610b89610a70565b5b6000610b9884828501610b5f565b91505092915050565b610baa81610b36565b82525050565b6000602082019050610bc56000830184610ba1565b92915050565b60008060408385031215610be257610be1610a70565b5b6000610bf085828601610b5f565b9250506020610c0185828601610aa0565b9150509250929050565b7f4e487b7100000000000000000000000000000000000000000000000000000000600052601160045260246000fd5b6000610c4582610ae2565b9150610c5083610ae2565b9250828201905080821115610c6857610c67610c0b565b5b92915050565b610c7781610ae2565b8114610c8257600080fd5b50565b600081519050610c9481610c6e565b92915050565b600060208284031215610cb057610caf610a70565b5b6000610cbe84828501610c85565b91505092915050565b6000610cd282610ae2565b9150610cdd83610ae2565b9250828203905081811115610cf557610cf4610c0b565b5b92915050565b6000610d0682610ae2565b9150610d1183610ae2565b9250828202610d1f81610ae2565b91508282048414831517610d3657610d35610c0b565b5b5092915050565b7f4e487b7100000000000000000000000000000000000000000000000000000000600052601260045260246000fd5b6000610d7782610ae2565b9150610d8283610ae2565b925082610d9257610d91610d3d565b5b828204905092915050565b6000604082019050610db26000830185610ba1565b610dbf6020830184610aec565b9392505050565b600082825260208201905092915050565b7f416464726573733a20696e73756666696369656e742062616c616e6365000000600082015250565b6000610e0d601d83610dc6565b9150610e1882610dd7565b602082019050919050565b60006020820190508181036000830152610e3c81610e00565b9050919050565b600081905092915050565b50565b6000610e5e600083610e43565b9150610e6982610e4e565b600082019050919050565b6000610e7f82610e51565b9150819050919050565b7f416464726573733a20756e61626c6520746f2073656e642076616c75652c207260008201527f6563697069656e74206d61792068617665207265766572746564000000000000602082015250565b6000610ee5603a83610dc6565b9150610ef082610e89565b604082019050919050565b60006020820190508181036000830152610f1481610ed8565b9050919050565b60008115159050919050565b610f3081610f1b565b8114610f3b57600080fd5b50565b600081519050610f4d81610f27565b92915050565b600060208284031215610f6957610f68610a70565b5b6000610f7784828501610f3e565b91505092915050565b7f5361666545524332303a204552433230206f7065726174696f6e20646964206e60008201527f6f74207375636365656400000000000000000000000000000000000000000000602082015250565b6000610fdc602a83610dc6565b9150610fe782610f80565b604082019050919050565b6000602082019050818103600083015261100b81610fcf565b9050919050565b7f416464726573733a20696e73756666696369656e742062616c616e636520666f60008201527f722063616c6c0000000000000000000000000000000000000000000000000000602082015250565b600061106e602683610dc6565b915061107982611012565b604082019050919050565b6000602082019050818103600083015261109d81611061565b9050919050565b600081519050919050565b60005b838110156110cd5780820151818401526020810190506110b2565b60008484015250505050565b60006110e4826110a4565b6110ee8185610e43565b93506110fe8185602086016110af565b80840191505092915050565b600061111682846110d9565b915081905092915050565b7f416464726573733a2063616c6c20746f206e6f6e2d636f6e7472616374000000600082015250565b6000611157601d83610dc6565b915061116282611121565b602082019050919050565b600060208201905081810360008301526111868161114a565b9050919050565b600081519050919050565b6000601f19601f8301169050919050565b60006111b48261118d565b6111be8185610dc6565b93506111ce8185602086016110af565b6111d781611198565b840191505092915050565b600060208201905081810360008301526111fc81846111a9565b90509291505056fea2646970667358221220a9cf279bcdb6d711566332e07a44c752f476814d505e260988a15996f90629a964736f6c63430008110033",
  "linkReferences": {},
  "deployedLinkReferences": {}
}