{
  "_format": "hh-sol-artifact-1",
  "contractName": "PGFFactory",
  "sourceName": "contracts/PGFFactory.sol",
  "abi": [
    {
      "anonymous": false,
      "inputs": [
        {
          "indexed": false,
          "internalType": "address",
          "name": "previousAdmin",
          "type": "address"
        },
        {
          "indexed": false,
          "internalType": "address",
          "name": "newAdmin",
          "type": "address"
        }
      ],
      "name": "AdminChanged",
      "type": "event"
    },
    {
      "anonymous": false,
      "inputs": [
        {
          "indexed": true,
          "internalType": "address",
          "name": "beacon",
          "type": "address"
        }
      ],
      "name": "BeaconUpgraded",
      "type": "event"
    },
    {
      "anonymous": false,
      "inputs": [
        {
          "indexed": true,
          "internalType": "uint256",
          "name": "newCreationFee",
          "type": "uint256"
        }
      ],
      "name": "CreationFeeChanged",
      "type": "event"
    },
    {
      "anonymous": false,
      "inputs": [
        {
          "indexed": true,
          "internalType": "address",
          "name": "contractAddress",
          "type": "address"
        },
        {
          "indexed": true,
          "internalType": "uint256",
          "name": "totalFunding",
          "type": "uint256"
        },
        {
          "indexed": true,
          "internalType": "uint256",
          "name": "vestingPeriod",
          "type": "uint256"
        },
        {
          "indexed": false,
          "internalType": "uint256",
          "name": "withdrawalFee",
          "type": "uint256"
        }
      ],
      "name": "FundingCreated",
      "type": "event"
    },
    {
      "anonymous": false,
      "inputs": [
        {
          "indexed": false,
          "internalType": "uint8",
          "name": "version",
          "type": "uint8"
        }
      ],
      "name": "Initialized",
      "type": "event"
    },
    {
      "anonymous": false,
      "inputs": [
        {
          "indexed": true,
          "internalType": "address",
          "name": "newPayoutAddress",
          "type": "address"
        }
      ],
      "name": "PayoutAddressChanged",
      "type": "event"
    },
    {
      "anonymous": false,
      "inputs": [
        {
          "indexed": true,
          "internalType": "bytes32",
          "name": "role",
          "type": "bytes32"
        },
        {
          "indexed": true,
          "internalType": "bytes32",
          "name": "previousAdminRole",
          "type": "bytes32"
        },
        {
          "indexed": true,
          "internalType": "bytes32",
          "name": "newAdminRole",
          "type": "bytes32"
        }
      ],
      "name": "RoleAdminChanged",
      "type": "event"
    },
    {
      "anonymous": false,
      "inputs": [
        {
          "indexed": true,
          "internalType": "bytes32",
          "name": "role",
          "type": "bytes32"
        },
        {
          "indexed": true,
          "internalType": "address",
          "name": "account",
          "type": "address"
        },
        {
          "indexed": true,
          "internalType": "address",
          "name": "sender",
          "type": "address"
        }
      ],
      "name": "RoleGranted",
      "type": "event"
    },
    {
      "anonymous": false,
      "inputs": [
        {
          "indexed": true,
          "internalType": "bytes32",
          "name": "role",
          "type": "bytes32"
        },
        {
          "indexed": true,
          "internalType": "address",
          "name": "account",
          "type": "address"
        },
        {
          "indexed": true,
          "internalType": "address",
          "name": "sender",
          "type": "address"
        }
      ],
      "name": "RoleRevoked",
      "type": "event"
    },
    {
      "anonymous": false,
      "inputs": [
        {
          "indexed": true,
          "internalType": "address",
          "name": "implementation",
          "type": "address"
        }
      ],
      "name": "Upgraded",
      "type": "event"
    },
    {
      "anonymous": false,
      "inputs": [
        {
          "indexed": true,
          "internalType": "address",
          "name": "payoutAddress",
          "type": "address"
        },
        {
          "indexed": true,
          "internalType": "uint256",
          "name": "amount",
          "type": "uint256"
        }
      ],
      "name": "Withdrawed",
      "type": "event"
    },
    {
      "inputs": [],
      "name": "CREATIONFEE_ROLE",
      "outputs": [
        {
          "internalType": "bytes32",
          "name": "",
          "type": "bytes32"
        }
      ],
      "stateMutability": "view",
      "type": "function"
    },
    {
      "inputs": [],
      "name": "DEFAULT_ADMIN_ROLE",
      "outputs": [
        {
          "internalType": "bytes32",
          "name": "",
          "type": "bytes32"
        }
      ],
      "stateMutability": "view",
      "type": "function"
    },
    {
      "inputs": [],
      "name": "PAYOUTADDRESS_ROLE",
      "outputs": [
        {
          "internalType": "bytes32",
          "name": "",
          "type": "bytes32"
        }
      ],
      "stateMutability": "view",
      "type": "function"
    },
    {
      "inputs": [
        {
          "internalType": "uint256",
          "name": "_totalFunding",
          "type": "uint256"
        },
        {
          "internalType": "uint256",
          "name": "_withdrawalFee",
          "type": "uint256"
        },
        {
          "internalType": "bool",
          "name": "_isGroupWithdrawal",
          "type": "bool"
        },
        {
          "internalType": "string",
          "name": "_tokenUri",
          "type": "string"
        },
        {
          "internalType": "uint64",
          "name": "_startTimestamp",
          "type": "uint64"
        },
        {
          "internalType": "uint64",
          "name": "_vestingPeriodInSeconds",
          "type": "uint64"
        }
      ],
      "name": "createFunding",
      "outputs": [],
      "stateMutability": "payable",
      "type": "function"
    },
    {
      "inputs": [
        {
          "internalType": "uint256",
          "name": "_fundingId",
          "type": "uint256"
        }
      ],
      "name": "getAddress",
      "outputs": [
        {
          "internalType": "address",
          "name": "",
          "type": "address"
        }
      ],
      "stateMutability": "view",
      "type": "function"
    },
    {
      "inputs": [
        {
          "internalType": "bytes32",
          "name": "role",
          "type": "bytes32"
        }
      ],
      "name": "getRoleAdmin",
      "outputs": [
        {
          "internalType": "bytes32",
          "name": "",
          "type": "bytes32"
        }
      ],
      "stateMutability": "view",
      "type": "function"
    },
    {
      "inputs": [
        {
          "internalType": "bytes32",
          "name": "role",
          "type": "bytes32"
        },
        {
          "internalType": "uint256",
          "name": "index",
          "type": "uint256"
        }
      ],
      "name": "getRoleMember",
      "outputs": [
        {
          "internalType": "address",
          "name": "",
          "type": "address"
        }
      ],
      "stateMutability": "view",
      "type": "function"
    },
    {
      "inputs": [
        {
          "internalType": "bytes32",
          "name": "role",
          "type": "bytes32"
        }
      ],
      "name": "getRoleMemberCount",
      "outputs": [
        {
          "internalType": "uint256",
          "name": "",
          "type": "uint256"
        }
      ],
      "stateMutability": "view",
      "type": "function"
    },
    {
      "inputs": [
        {
          "internalType": "bytes32",
          "name": "role",
          "type": "bytes32"
        },
        {
          "internalType": "address",
          "name": "account",
          "type": "address"
        }
      ],
      "name": "grantRole",
      "outputs": [],
      "stateMutability": "nonpayable",
      "type": "function"
    },
    {
      "inputs": [
        {
          "internalType": "bytes32",
          "name": "role",
          "type": "bytes32"
        },
        {
          "internalType": "address",
          "name": "account",
          "type": "address"
        }
      ],
      "name": "hasRole",
      "outputs": [
        {
          "internalType": "bool",
          "name": "",
          "type": "bool"
        }
      ],
      "stateMutability": "view",
      "type": "function"
    },
    {
      "inputs": [
        {
          "internalType": "uint256",
          "name": "_creationFee",
          "type": "uint256"
        },
        {
          "internalType": "address",
          "name": "_payoutAddress",
          "type": "address"
        }
      ],
      "name": "initialize",
      "outputs": [],
      "stateMutability": "nonpayable",
      "type": "function"
    },
    {
      "inputs": [],
      "name": "proxiableUUID",
      "outputs": [
        {
          "internalType": "bytes32",
          "name": "",
          "type": "bytes32"
        }
      ],
      "stateMutability": "view",
      "type": "function"
    },
    {
      "inputs": [
        {
          "internalType": "bytes32",
          "name": "role",
          "type": "bytes32"
        },
        {
          "internalType": "address",
          "name": "account",
          "type": "address"
        }
      ],
      "name": "renounceRole",
      "outputs": [],
      "stateMutability": "nonpayable",
      "type": "function"
    },
    {
      "inputs": [
        {
          "internalType": "bytes32",
          "name": "role",
          "type": "bytes32"
        },
        {
          "internalType": "address",
          "name": "account",
          "type": "address"
        }
      ],
      "name": "revokeRole",
      "outputs": [],
      "stateMutability": "nonpayable",
      "type": "function"
    },
    {
      "inputs": [],
      "name": "s_contractBalance",
      "outputs": [
        {
          "internalType": "uint256",
          "name": "",
          "type": "uint256"
        }
      ],
      "stateMutability": "view",
      "type": "function"
    },
    {
      "inputs": [],
      "name": "s_creationFee",
      "outputs": [
        {
          "internalType": "uint256",
          "name": "",
          "type": "uint256"
        }
      ],
      "stateMutability": "view",
      "type": "function"
    },
    {
      "inputs": [],
      "name": "s_fundingId",
      "outputs": [
        {
          "internalType": "uint256",
          "name": "",
          "type": "uint256"
        }
      ],
      "stateMutability": "view",
      "type": "function"
    },
    {
      "inputs": [],
      "name": "s_payoutAddress",
      "outputs": [
        {
          "internalType": "address",
          "name": "",
          "type": "address"
        }
      ],
      "stateMutability": "view",
      "type": "function"
    },
    {
      "inputs": [
        {
          "internalType": "uint256",
          "name": "_creationFee",
          "type": "uint256"
        }
      ],
      "name": "setCreationFee",
      "outputs": [],
      "stateMutability": "nonpayable",
      "type": "function"
    },
    {
      "inputs": [
        {
          "internalType": "address",
          "name": "_payoutAddress",
          "type": "address"
        }
      ],
      "name": "setPayoutAddress",
      "outputs": [],
      "stateMutability": "nonpayable",
      "type": "function"
    },
    {
      "inputs": [
        {
          "internalType": "bytes4",
          "name": "interfaceId",
          "type": "bytes4"
        }
      ],
      "name": "supportsInterface",
      "outputs": [
        {
          "internalType": "bool",
          "name": "",
          "type": "bool"
        }
      ],
      "stateMutability": "view",
      "type": "function"
    },
    {
      "inputs": [
        {
          "internalType": "address",
          "name": "newImplementation",
          "type": "address"
        }
      ],
      "name": "upgradeTo",
      "outputs": [],
      "stateMutability": "nonpayable",
      "type": "function"
    },
    {
      "inputs": [
        {
          "internalType": "address",
          "name": "newImplementation",
          "type": "address"
        },
        {
          "internalType": "bytes",
          "name": "data",
          "type": "bytes"
        }
      ],
      "name": "upgradeToAndCall",
      "outputs": [],
      "stateMutability": "payable",
      "type": "function"
    },
    {
      "inputs": [],
      "name": "withdraw",
      "outputs": [],
      "stateMutability": "nonpayable",
      "type": "function"
    }
  ],
  "bytecode": "0x60a06040523060805234801561001457600080fd5b50608051614ee761004c600039600081816106b3015281816106f601528181610888015281816108cb015261094c0152614ee76000f3fe608060405260043610620001675760003560e01c80639010d07c11620000c5578063b93f9b0a1162000078578063b93f9b0a1462000407578063c5e97dd71462000442578063ca15c873146200045b578063d547741f1462000480578063da35a26f14620004a5578063ddc490ef14620004ca57600080fd5b80639010d07c146200033257806391d1485414620003575780639faeebd0146200037c578063a217fddf1462000395578063a465aa8814620003ac578063b7d8622514620003e257600080fd5b80633659cfe6116200011e5780633659cfe614620002965780633ccfd60b14620002bb5780634f1ef28614620002d357806352d1902d14620002ea5780635926a6b414620003025780637d1ef8c8146200031b57600080fd5b806301ffc9a7146200016c5780631d4718e614620001a6578063248a9ca314620001e25780632f2ff15d146200022557806333ea51a8146200024c57806336568abe1462000271575b600080fd5b3480156200017957600080fd5b50620001916200018b3660046200176f565b62000500565b60405190151581526020015b60405180910390f35b348015620001b357600080fd5b5061016054620001c9906001600160a01b031681565b6040516001600160a01b0390911681526020016200019d565b348015620001ef57600080fd5b5062000216620002013660046200179b565b60009081526065602052604090206001015490565b6040519081526020016200019d565b3480156200023257600080fd5b506200024a62000244366004620017d2565b6200052e565b005b3480156200025957600080fd5b506200024a6200026b36600462001801565b6200055c565b3480156200027e57600080fd5b506200024a62000290366004620017d2565b62000627565b348015620002a357600080fd5b506200024a620002b536600462001801565b620006a9565b348015620002c857600080fd5b506200024a6200077d565b6200024a620002e4366004620018b1565b6200087e565b348015620002f757600080fd5b50620002166200093f565b3480156200030f57600080fd5b50620002166101615481565b6200024a6200032c36600462001931565b620009f0565b3480156200033f57600080fd5b50620001c962000351366004620019d6565b62000b5e565b3480156200036457600080fd5b506200019162000376366004620017d2565b62000b7f565b3480156200038957600080fd5b506200021661015f5481565b348015620003a257600080fd5b5062000216600081565b348015620003b957600080fd5b50620002167fe52b516296e3e9bcbfa19b643b4121ced2583c73a88061a902874f43b47e19bc81565b348015620003ef57600080fd5b506200024a620004013660046200179b565b62000baa565b3480156200041457600080fd5b50620001c9620004263660046200179b565b600090815261016260205260409020546001600160a01b031690565b3480156200044f57600080fd5b50620002166101635481565b3480156200046857600080fd5b50620002166200047a3660046200179b565b62000c0b565b3480156200048d57600080fd5b506200024a6200049f366004620017d2565b62000c24565b348015620004b257600080fd5b506200024a620004c4366004620017d2565b62000c4d565b348015620004d757600080fd5b50620002167fc2d029cf524959bb85323c198b4987efbf030ca3846804983133f9ad924acd0981565b60006001600160e01b03198216635a05180f60e01b1480620005285750620005288262000d94565b92915050565b6000828152606560205260409020600101546200054b8162000dcb565b62000557838362000dd7565b505050565b7fe52b516296e3e9bcbfa19b643b4121ced2583c73a88061a902874f43b47e19bc620005888162000dcb565b6001600160a01b038216620005db5760405162461bcd60e51b8152602060048201526014602482015273416464726573732063616e74206265207a65726f60601b60448201526064015b60405180910390fd5b61016080546001600160a01b0319166001600160a01b0384169081179091556040517f90789b797e56b4b4a2e6d1b0314f3d6e97d13098db43d6cb694dc1961a764dea90600090a25050565b6001600160a01b0381163314620006995760405162461bcd60e51b815260206004820152602f60248201527f416363657373436f6e74726f6c3a2063616e206f6e6c792072656e6f756e636560448201526e103937b632b9903337b91039b2b63360891b6064820152608401620005d2565b620006a5828262000dfd565b5050565b6001600160a01b037f0000000000000000000000000000000000000000000000000000000000000000163003620006f45760405162461bcd60e51b8152600401620005d290620019f9565b7f00000000000000000000000000000000000000000000000000000000000000006001600160a01b03166200072862000e23565b6001600160a01b031614620007515760405162461bcd60e51b8152600401620005d29062001a45565b6200075c8162000e40565b604080516000808252602082019092526200077a9183919062000e4d565b50565b6200078762000fc5565b61016054610163546040516001600160a01b0390921691600090839083908381818185875af1925050503d8060008114620007df576040519150601f19603f3d011682016040523d82523d6000602084013e620007e4565b606091505b5050905080620008325760405162461bcd60e51b815260206004820152601860248201527715da5d1a191c985dc81b9bdd081cdd58d8d95cdcd99d5b1b60421b6044820152606401620005d2565b600061016381905560405183916001600160a01b038616917f6cca423c6ffc06e62a0acc433965e074b11c28479b0449250ce3ff65ac9e39fe9190a35050506200087c600160c955565b565b6001600160a01b037f0000000000000000000000000000000000000000000000000000000000000000163003620008c95760405162461bcd60e51b8152600401620005d290620019f9565b7f00000000000000000000000000000000000000000000000000000000000000006001600160a01b0316620008fd62000e23565b6001600160a01b031614620009265760405162461bcd60e51b8152600401620005d29062001a45565b620009318262000e40565b620006a58282600162000e4d565b6000306001600160a01b037f00000000000000000000000000000000000000000000000000000000000000001614620009dc5760405162461bcd60e51b815260206004820152603860248201527f555550535570677261646561626c653a206d757374206e6f742062652063616c6044820152771b1959081d1a1c9bdd59da0819195b1959d85d1958d85b1b60421b6064820152608401620005d2565b5060008051602062004e6b83398151915290565b61015f5434101562000a635760405162461bcd60e51b815260206004820152603560248201527f45746865722073656e742073686f756c6420626520657175616c206f72206d6f6044820152747265207468616e206372656174696f6e206665657360581b6064820152608401620005d2565b600086868686868660405162000a799062001761565b62000a8a9695949392919062001ae5565b604051809103906000f08015801562000aa7573d6000803e3d6000fd5b50610161805460009081526101626020526040812080546001600160a01b0319166001600160a01b038516179055815492935062000ae58362001b47565b919050555034610163600082825462000aff919062001b63565b92505081905550816001600160401b031687826001600160a01b03167f6ca0ec3fed271d8510ec145b359d6599483fb259ffddf66cd5987074e2a1993f8960405162000b4d91815260200190565b60405180910390a450505050505050565b600082815260976020526040812062000b78908362001020565b9392505050565b60009182526065602090815260408084206001600160a01b0393909316845291905290205460ff1690565b7fc2d029cf524959bb85323c198b4987efbf030ca3846804983133f9ad924acd0962000bd68162000dcb565b61015f82905560405182907fb472bc245cc56131a253d64c0fd5cf333aaacde67bf4571c077aa32150256e2190600090a25050565b600081815260976020526040812062000528906200102e565b60008281526065602052604090206001015462000c418162000dcb565b62000557838362000dfd565b600054610100900460ff161580801562000c6e5750600054600160ff909116105b8062000c8a5750303b15801562000c8a575060005460ff166001145b62000cef5760405162461bcd60e51b815260206004820152602e60248201527f496e697469616c697a61626c653a20636f6e747261637420697320616c72656160448201526d191e481a5b9a5d1a585b1a5e995960921b6064820152608401620005d2565b6000805460ff19166001179055801562000d13576000805461ff0019166101001790555b61015f83905561016080546001600160a01b0319166001600160a01b038416179055600061016181905562000d49903362000dd7565b801562000557576000805461ff0019169055604051600181527f7f26b83ff96e1f2b6a682f133852f6798a09c465da95921460cefb38474024989060200160405180910390a1505050565b60006001600160e01b03198216637965db0b60e01b14806200052857506301ffc9a760e01b6001600160e01b031983161462000528565b6200077a813362001039565b62000de382826200109d565b600082815260976020526040902062000557908262001127565b62000e0982826200113e565b6000828152609760205260409020620005579082620011a8565b60008051602062004e6b833981519152546001600160a01b031690565b6000620006a58162000dcb565b7f4910fdfa16fed3260ed0e7147f7cc6da11a60208b5b9406d12a635614ffd91435460ff161562000e83576200055783620011bf565b826001600160a01b03166352d1902d6040518163ffffffff1660e01b8152600401602060405180830381865afa92505050801562000ee0575060408051601f3d908101601f1916820190925262000edd9181019062001b79565b60015b62000f455760405162461bcd60e51b815260206004820152602e60248201527f45524331393637557067726164653a206e657720696d706c656d656e7461746960448201526d6f6e206973206e6f74205555505360901b6064820152608401620005d2565b60008051602062004e6b833981519152811462000fb75760405162461bcd60e51b815260206004820152602960248201527f45524331393637557067726164653a20756e737570706f727465642070726f786044820152681a58589b195555525160ba1b6064820152608401620005d2565b50620005578383836200125e565b600260c95403620010195760405162461bcd60e51b815260206004820152601f60248201527f5265656e7472616e637947756172643a207265656e7472616e742063616c6c006044820152606401620005d2565b600260c955565b600062000b7883836200128f565b600062000528825490565b62001045828262000b7f565b620006a5576200105581620012bc565b62001062836020620012cf565b6040516020016200107592919062001b93565b60408051601f198184030181529082905262461bcd60e51b8252620005d29160040162001c06565b620010a9828262000b7f565b620006a55760008281526065602090815260408083206001600160a01b03851684529091529020805460ff19166001179055620010e33390565b6001600160a01b0316816001600160a01b0316837f2f8788117e7eff1d82e926ec794901d17c78024a50270940304540a733656f0d60405160405180910390a45050565b600062000b78836001600160a01b03841662001488565b6200114a828262000b7f565b15620006a55760008281526065602090815260408083206001600160a01b0385168085529252808320805460ff1916905551339285917ff6391f5c32d9c69d2a47ea670b442974b53935d1edc7fd64eb21e047a839171b9190a45050565b600062000b78836001600160a01b038416620014da565b6001600160a01b0381163b6200122e5760405162461bcd60e51b815260206004820152602d60248201527f455243313936373a206e657720696d706c656d656e746174696f6e206973206e60448201526c1bdd08184818dbdb9d1c9858dd609a1b6064820152608401620005d2565b60008051602062004e6b83398151915280546001600160a01b0319166001600160a01b0392909216919091179055565b6200126983620015de565b600082511180620012775750805b15620005575762001289838362001620565b50505050565b6000826000018281548110620012a957620012a962001c1b565b9060005260206000200154905092915050565b6060620005286001600160a01b03831660145b60606000620012e083600262001c31565b620012ed90600262001b63565b6001600160401b038111156200130757620013076200181f565b6040519080825280601f01601f19166020018201604052801562001332576020820181803683370190505b509050600360fc1b8160008151811062001350576200135062001c1b565b60200101906001600160f81b031916908160001a905350600f60fb1b8160018151811062001382576200138262001c1b565b60200101906001600160f81b031916908160001a9053506000620013a884600262001c31565b620013b590600162001b63565b90505b600181111562001437576f181899199a1a9b1b9c1cb0b131b232b360811b85600f1660108110620013ed57620013ed62001c1b565b1a60f81b82828151811062001406576200140662001c1b565b60200101906001600160f81b031916908160001a90535060049490941c936200142f8162001c4b565b9050620013b8565b50831562000b785760405162461bcd60e51b815260206004820181905260248201527f537472696e67733a20686578206c656e67746820696e73756666696369656e746044820152606401620005d2565b6000818152600183016020526040812054620014d15750815460018181018455600084815260208082209093018490558454848252828601909352604090209190915562000528565b50600062000528565b60008181526001830160205260408120548015620015d35760006200150160018362001c65565b8554909150600090620015179060019062001c65565b9050818114620015835760008660000182815481106200153b576200153b62001c1b565b906000526020600020015490508087600001848154811062001561576200156162001c1b565b6000918252602080832090910192909255918252600188019052604090208390555b855486908062001597576200159762001c7b565b60019003818190600052602060002001600090559055856001016000868152602001908152602001600020600090556001935050505062000528565b600091505062000528565b620015e981620011bf565b6040516001600160a01b038216907fbc7cd75a20ee27fd9adebab32041f755214dbc6bffa90cc0225b39da2e5c2d3b90600090a250565b60606001600160a01b0383163b6200168a5760405162461bcd60e51b815260206004820152602660248201527f416464726573733a2064656c65676174652063616c6c20746f206e6f6e2d636f6044820152651b9d1c9858dd60d21b6064820152608401620005d2565b600080846001600160a01b031684604051620016a7919062001c91565b600060405180830381855af49150503d8060008114620016e4576040519150601f19603f3d011682016040523d82523d6000602084013e620016e9565b606091505b509150915062001714828260405180606001604052806027815260200162004e8b602791396200171d565b95945050505050565b606083156200172e57508162000b78565b62000b788383815115620017455781518083602001fd5b8060405162461bcd60e51b8152600401620005d2919062001c06565b6131bb8062001cb083390190565b6000602082840312156200178257600080fd5b81356001600160e01b03198116811462000b7857600080fd5b600060208284031215620017ae57600080fd5b5035919050565b80356001600160a01b0381168114620017cd57600080fd5b919050565b60008060408385031215620017e657600080fd5b82359150620017f860208401620017b5565b90509250929050565b6000602082840312156200181457600080fd5b62000b7882620017b5565b634e487b7160e01b600052604160045260246000fd5b60006001600160401b03808411156200185257620018526200181f565b604051601f8501601f19908116603f011681019082821181831017156200187d576200187d6200181f565b816040528093508581528686860111156200189757600080fd5b858560208301376000602087830101525050509392505050565b60008060408385031215620018c557600080fd5b620018d083620017b5565b915060208301356001600160401b03811115620018ec57600080fd5b8301601f81018513620018fe57600080fd5b6200190f8582356020840162001835565b9150509250929050565b80356001600160401b0381168114620017cd57600080fd5b60008060008060008060c087890312156200194b57600080fd5b8635955060208701359450604087013580151581146200196a57600080fd5b935060608701356001600160401b038111156200198657600080fd5b8701601f810189136200199857600080fd5b620019a98982356020840162001835565b935050620019ba6080880162001919565b9150620019ca60a0880162001919565b90509295509295509295565b60008060408385031215620019ea57600080fd5b50508035926020909101359150565b6020808252602c908201527f46756e6374696f6e206d7573742062652063616c6c6564207468726f7567682060408201526b19195b1959d85d1958d85b1b60a21b606082015260800190565b6020808252602c908201527f46756e6374696f6e206d7573742062652063616c6c6564207468726f7567682060408201526b6163746976652070726f787960a01b606082015260800190565b60005b8381101562001aae57818101518382015260200162001a94565b50506000910152565b6000815180845262001ad181602086016020860162001a91565b601f01601f19169290920160200192915050565b868152856020820152841515604082015260c06060820152600062001b0e60c083018662001ab7565b6001600160401b0394851660808401529290931660a09091015295945050505050565b634e487b7160e01b600052601160045260246000fd5b60006001820162001b5c5762001b5c62001b31565b5060010190565b8082018082111562000528576200052862001b31565b60006020828403121562001b8c57600080fd5b5051919050565b76020b1b1b2b9b9a1b7b73a3937b61d1030b1b1b7bab73a1604d1b81526000835162001bc781601785016020880162001a91565b7001034b99036b4b9b9b4b733903937b6329607d1b601791840191820152835162001bfa81602884016020880162001a91565b01602801949350505050565b60208152600062000b78602083018462001ab7565b634e487b7160e01b600052603260045260246000fd5b808202811582820484141762000528576200052862001b31565b60008162001c5d5762001c5d62001b31565b506000190190565b8181038181111562000528576200052862001b31565b634e487b7160e01b600052603160045260246000fd5b6000825162001ca581846020870162001a91565b919091019291505056fe6101406040523480156200001257600080fd5b50604051620031bb380380620031bb833981016040819052620000359162000254565b3382826040518060400160405280601481526020017f46756e64696e67436f6e7472616374546f6b656e000000000000000000000000815250604051806040016040528060038152602001621190d560ea1b81525081600090816200009b919062000408565b506001620000aa828262000408565b5050506001600160a01b0383166200011b5760405162461bcd60e51b815260206004820152602a60248201527f56657374696e6757616c6c65743a2062656e6566696369617279206973207a65604482015269726f206164647265737360b01b606482015260840160405180910390fd5b6001600160a01b039092166080526001600160401b0390811660a05290811660c05260e0879052610100869052841515610120528216600b55600c62000162848262000408565b50620001706000336200017c565b505050505050620004d4565b60008281526006602090815260408083206001600160a01b038516845290915290205460ff166200021d5760008281526006602090815260408083206001600160a01b03851684529091529020805460ff19166001179055620001dc3390565b6001600160a01b0316816001600160a01b0316837f2f8788117e7eff1d82e926ec794901d17c78024a50270940304540a733656f0d60405160405180910390a45b5050565b634e487b7160e01b600052604160045260246000fd5b80516001600160401b03811681146200024f57600080fd5b919050565b60008060008060008060c087890312156200026e57600080fd5b865195506020808801519550604088015180151581146200028e57600080fd5b60608901519095506001600160401b0380821115620002ac57600080fd5b818a0191508a601f830112620002c157600080fd5b815181811115620002d657620002d662000221565b604051601f8201601f19908116603f0116810190838211818310171562000301576200030162000221565b816040528281528d868487010111156200031a57600080fd5b600093505b828410156200033e57848401860151818501870152928501926200031f565b60008684830101528098505050505050506200035d6080880162000237565b91506200036d60a0880162000237565b90509295509295509295565b600181811c908216806200038e57607f821691505b602082108103620003af57634e487b7160e01b600052602260045260246000fd5b50919050565b601f8211156200040357600081815260208120601f850160051c81016020861015620003de5750805b601f850160051c820191505b81811015620003ff57828155600101620003ea565b5050505b505050565b81516001600160401b0381111562000424576200042462000221565b6200043c8162000435845462000379565b84620003b5565b602080601f8311600181146200047457600084156200045b5750858301515b600019600386901b1c1916600185901b178555620003ff565b600085815260208120601f198616915b82811015620004a55788860151825594840194600190910190840162000484565b5085821015620004c45787850151600019600388901b60f8161c191681555b5050505050600190811b01905550565b60805160a05160c05160e0516101005161012051612c7462000547600039600081816106ce01528181610b1001528181610cab01526110ff0152600061083501526000818161056901528181610f2501526114ee01526000610aeb015260006113be01526000610ebc0152612c746000f3fe6080604052600436106102ad5760003560e01c8063810ec23b11610165578063b121d483116100cc578063d7b4750c11610085578063d7b4750c14610806578063d8e159f814610826578063db06941e14610859578063e2c41dbc1461086e578063e985e9c514610876578063f88e320414610896578063fbccedae146108ca57600080fd5b8063b121d4831461075c578063b88d4fde1461077c578063be9a65551461079c578063c87b56dd146107b1578063d4c0ced2146107d1578063d547741f146107e657600080fd5b80639b23b0c91161011e5780639b23b0c9146106895780639c885eb3146106bf578063a217fddf146106f2578063a22cb46514610707578063a3f8eace14610727578063aa0fc5131461074757600080fd5b8063810ec23b146105ea57806386d1a69f1461060a57806391d148541461061f57806395d89b411461063f57806396132521146106545780639852595c1461066957600080fd5b8063248a9ca3116102145780634e71d92d116101cd5780634e71d92d146105255780636352211e1461053a57806365ac43411461055a5780636e02007d1461058d5780636f9fb98a146105a257806370a08231146105b55780637dc4c2ba146105d557600080fd5b8063248a9ca31461044c5780632f2ff15d1461047c57806334aedecd1461049c57806336568abe146104d057806338af3eed146104f057806342842e0e1461050557600080fd5b80631095941e116102665780631095941e146103ad5780631096cb79146103cd57806319165587146103e25780631f89f25e1461040257806323b872dd1461041757806324600fc31461043757600080fd5b806301ffc9a7146102b957806306fdde03146102ee578063081812fc14610310578063095ea7b3146103485780630a17b06b1461036a5780630fb5a6b41461039857600080fd5b366102b457005b600080fd5b3480156102c557600080fd5b506102d96102d4366004612549565b6108df565b60405190151581526020015b60405180910390f35b3480156102fa57600080fd5b506103036108f0565b6040516102e591906125b6565b34801561031c57600080fd5b5061033061032b3660046125c9565b610982565b6040516001600160a01b0390911681526020016102e5565b34801561035457600080fd5b506103686103633660046125fe565b6109a9565b005b34801561037657600080fd5b5061038a61038536600461263f565b610ac3565b6040519081526020016102e5565b3480156103a457600080fd5b5061038a610ae1565b3480156103b957600080fd5b506103686103c83660046125c9565b610b0e565b3480156103d957600080fd5b5061038a610bae565b3480156103ee57600080fd5b506103686103fd36600461265a565b610bbd565b34801561040e57600080fd5b50600b5461038a565b34801561042357600080fd5b50610368610432366004612675565b610c4e565b34801561044357600080fd5b50610368610c7f565b34801561045857600080fd5b5061038a6104673660046125c9565b60009081526006602052604090206001015490565b34801561048857600080fd5b506103686104973660046126b1565b610e1b565b3480156104a857600080fd5b5061038a7f0914bb97ca83e85ef385857d9d418f187ff630589e0c9f44db92976d8e4519cb81565b3480156104dc57600080fd5b506103686104eb3660046126b1565b610e40565b3480156104fc57600080fd5b50610330610eba565b34801561051157600080fd5b50610368610520366004612675565b610ede565b34801561053157600080fd5b50610368610ef9565b34801561054657600080fd5b506103306105553660046125c9565b611036565b34801561056657600080fd5b507f000000000000000000000000000000000000000000000000000000000000000061038a565b34801561059957600080fd5b5061038a61106a565b3480156105ae57600080fd5b504761038a565b3480156105c157600080fd5b5061038a6105d036600461265a565b611075565b3480156105e157600080fd5b506102d96110fb565b3480156105f657600080fd5b5061038a6106053660046126dd565b611182565b34801561061657600080fd5b50610368611209565b34801561062b57600080fd5b506102d961063a3660046126b1565b611273565b34801561064b57600080fd5b5061030361129e565b34801561066057600080fd5b5060075461038a565b34801561067557600080fd5b5061038a61068436600461265a565b6112ad565b34801561069557600080fd5b5061038a6106a436600461265a565b6001600160a01b03166000908152600d602052604090205490565b3480156106cb57600080fd5b507f00000000000000000000000000000000000000000000000000000000000000006102d9565b3480156106fe57600080fd5b5061038a600081565b34801561071357600080fd5b50610368610722366004612715565b6112c8565b34801561073357600080fd5b5061038a61074236600461265a565b6112d3565b34801561075357600080fd5b5061038a6112f2565b34801561076857600080fd5b506102d961077736600461274c565b6112fd565b34801561078857600080fd5b506103686107973660046127dc565b61137c565b3480156107a857600080fd5b5061038a6113b4565b3480156107bd57600080fd5b506103036107cc3660046125c9565b6113e1565b3480156107dd57600080fd5b50600e5461038a565b3480156107f257600080fd5b506103686108013660046126b1565b611475565b34801561081257600080fd5b506103306108213660046125c9565b61149a565b34801561083257600080fd5b507f000000000000000000000000000000000000000000000000000000000000000061038a565b34801561086557600080fd5b5061038a6114ca565b61036861151b565b34801561088257600080fd5b506102d96108913660046128b7565b6115ef565b3480156108a257600080fd5b5061038a7fef28dcbf06eb73add8f77665c46a6263e719f928f9c34710ec1097573ba6e20c81565b3480156108d657600080fd5b5061038a61161d565b60006108ea8261163b565b92915050565b6060600080546108ff906128e1565b80601f016020809104026020016040519081016040528092919081815260200182805461092b906128e1565b80156109785780601f1061094d57610100808354040283529160200191610978565b820191906000526020600020905b81548152906001019060200180831161095b57829003601f168201915b5050505050905090565b600061098d82611660565b506000908152600460205260409020546001600160a01b031690565b60006109b482611036565b9050806001600160a01b0316836001600160a01b031603610a265760405162461bcd60e51b815260206004820152602160248201527f4552433732313a20617070726f76616c20746f2063757272656e74206f776e656044820152603960f91b60648201526084015b60405180910390fd5b336001600160a01b0382161480610a425750610a4281336115ef565b610ab45760405162461bcd60e51b815260206004820152603d60248201527f4552433732313a20617070726f76652063616c6c6572206973206e6f7420746f60448201527f6b656e206f776e6572206f7220617070726f76656420666f7220616c6c0000006064820152608401610a1d565b610abe8383611685565b505050565b60006108ea610ad160075490565b610adb9047612931565b836116f3565b6001600160401b037f00000000000000000000000000000000000000000000000000000000000000001690565b7f0000000000000000000000000000000000000000000000000000000000000000610b4c5760405163568fd53960e11b815260040160405180910390fd5b6000818152600f602090815260408083203384529091529020805460ff19166001179055610b7e600a80546001019055565b604051339082907f0fc8b6fcb2f497709c22d28a739a7c1af51a838def68b9e27ed2dabec6fc60ea90600090a350565b6000610bb8610ae1565b905090565b6000610bc8826112d3565b6001600160a01b038316600090815260086020526040812080549293508392909190610bf5908490612931565b90915550506040518181526001600160a01b038316907fc0e523490dd523c33b1878c9eb14ff46991e3f5b2cd33710918618f2a39cba1b9060200160405180910390a2610c4a82610c44610eba565b83611784565b5050565b610c5833826117d6565b610c745760405162461bcd60e51b8152600401610a1d90612944565b610abe838383611835565b7f0914bb97ca83e85ef385857d9d418f187ff630589e0c9f44db92976d8e4519cb610ca9816119a6565b7f000000000000000000000000000000000000000000000000000000000000000015610d3557610cd76110fb565b610d355760405162461bcd60e51b815260206004820152602960248201527f5468657265206973206e6f206d616a6f7269747920617070726f76616c20746f60448201526820776974686472617760b81b6064820152608401610a1d565b6000610d3f6113b4565b610d499042612991565b9050610d53610ae1565b816001600160401b03161115610d6857600080fd5b6000610d7261161d565b610d7c9047612991565b604051909150600090339083908381818185875af1925050503d8060008114610dc1576040519150601f19603f3d011682016040523d82523d6000602084013e610dc6565b606091505b5050905080610de857604051639af25e5d60e01b815260040160405180910390fd5b604051829033907fd7d7cc3c005efe228d9482e7be336bc7174fd6097c03fe43d13655005bbd46f790600090a350505050565b600082815260066020526040902060010154610e36816119a6565b610abe83836119b0565b6001600160a01b0381163314610eb05760405162461bcd60e51b815260206004820152602f60248201527f416363657373436f6e74726f6c3a2063616e206f6e6c792072656e6f756e636560448201526e103937b632b9903337b91039b2b63360891b6064820152608401610a1d565b610c4a8282611a36565b7f000000000000000000000000000000000000000000000000000000000000000090565b610abe8383836040518060200160405280600081525061137c565b7fef28dcbf06eb73add8f77665c46a6263e719f928f9c34710ec1097573ba6e20c610f23816119a6565b7f0000000000000000000000000000000000000000000000000000000000000000610f4d60075490565b03610fa55760405162461bcd60e51b815260206004820152602260248201527f596f75206861766520636c61696d65642074686520656e7469726520616d6f756044820152611b9d60f21b6064820152608401610a1d565b6000610faf61161d565b1015610ffd5760405162461bcd60e51b815260206004820181905260248201527f596f7520646f206e6f7420686176652072656c65617361626c652066756e64736044820152606401610a1d565b611005611209565b60075460405133907fcebf6e87c3f2bd4df41bc6e2e842495680906affd0e429f056fba0989a08537c90600090a350565b60008061104283611a9d565b90506001600160a01b0381166108ea5760405162461bcd60e51b8152600401610a1d906129a4565b6000610bb860095490565b60006001600160a01b0382166110df5760405162461bcd60e51b815260206004820152602960248201527f4552433732313a2061646472657373207a65726f206973206e6f7420612076616044820152683634b21037bbb732b960b91b6064820152608401610a1d565b506001600160a01b031660009081526003602052604090205490565b60007f000000000000000000000000000000000000000000000000000000000000000061113b5760405163568fd53960e11b815260040160405180910390fd5b6000611146600a5490565b600e549091506000906111679060649061116190603c611ab8565b90611ac4565b90508082106111795760019250505090565b60009250505090565b6000611202611190846112ad565b6040516370a0823160e01b81523060048201526001600160a01b038616906370a0823190602401602060405180830381865afa1580156111d4573d6000803e3d6000fd5b505050506040513d601f19601f820116820180604052508101906111f891906129d6565b610adb9190612931565b9392505050565b600061121361161d565b905080600760008282546112279190612931565b90915550506040518181527fda9d4e5f101b8b9b1c5b76d0c5a9f7923571acfc02376aa076b75a8c080c956b9060200160405180910390a161127061126a610eba565b82611ad0565b50565b60009182526006602090815260408084206001600160a01b0393909316845291905290205460ff1690565b6060600180546108ff906128e1565b6001600160a01b031660009081526008602052604090205490565b610c4a338383611be6565b60006112de826112ad565b6112e88342611182565b6108ea9190612991565b6000610bb8600a5490565b6040516001600160601b03193360601b1660208201526000908190603401604051602081830303815290604052805190602001209050611373858580806020026020016040519081016040528093929190818152602001838360200280828437600092019190915250879250859150611cb09050565b95945050505050565b61138633836117d6565b6113a25760405162461bcd60e51b8152600401610a1d90612944565b6113ae84848484611cc6565b50505050565b6001600160401b037f00000000000000000000000000000000000000000000000000000000000000001690565b6060600c80546113f0906128e1565b80601f016020809104026020016040519081016040528092919081815260200182805461141c906128e1565b80156114695780601f1061143e57610100808354040283529160200191611469565b820191906000526020600020905b81548152906001019060200180831161144c57829003601f168201915b50505050509050919050565b600082815260066020526040902060010154611490816119a6565b610abe8383611a36565b6000600e82815481106114af576114af6129ef565b6000918252602090912001546001600160a01b031692915050565b6000806114d5610ae1565b905062278d0060006114e78383611ac4565b90506115137f000000000000000000000000000000000000000000000000000000000000000082611ac4565b935050505090565b60006115256114ca565b9050600061153260095490565b90508134116115545760405163cf463cf960e01b815260040160405180910390fd5b336000818152600d60205260408120349055600e805460018101825591527fbb7b4a454dc3493923482f07822329ed19e8244eff582cc204f8554c3620c3fd0180546001600160a01b031916821790556115ae9082611cf9565b6115bc600980546001019055565b6040513490339083907fe030e47e27825a2ad1b19e4cf2e70bfbfb3124af275c7727a82b114ba7b29a8590600090a45050565b6001600160a01b03918216600090815260056020908152604080832093909416825291909152205460ff1690565b600061162860075490565b61163142610ac3565b610bb89190612991565b60006001600160e01b03198216637965db0b60e01b14806108ea57506108ea82611d13565b61166981611d63565b6112705760405162461bcd60e51b8152600401610a1d906129a4565b600081815260046020526040902080546001600160a01b0319166001600160a01b03841690811790915581906116ba82611036565b6001600160a01b03167f8c5be1e5ebec7d5bd14f71427d1e84f3dd0314c0f7b2291e5b200ac8c7c3b92560405160405180910390a45050565b60006116fd6113b4565b826001600160401b03161015611715575060006108ea565b61171d610ae1565b6117256113b4565b61172f9190612931565b826001600160401b031611156117465750816108ea565b61174e610ae1565b6117566113b4565b611769906001600160401b038516612991565b6117739085612a05565b61177d9190612a1c565b90506108ea565b604080516001600160a01b038416602482015260448082018490528251808303909101815260649091019091526020810180516001600160e01b031663a9059cbb60e01b179052610abe908490611d80565b6000806117e283611036565b9050806001600160a01b0316846001600160a01b03161480611809575061180981856115ef565b8061182d5750836001600160a01b031661182284610982565b6001600160a01b0316145b949350505050565b826001600160a01b031661184882611036565b6001600160a01b03161461186e5760405162461bcd60e51b8152600401610a1d90612a3e565b6001600160a01b0382166118d05760405162461bcd60e51b8152602060048201526024808201527f4552433732313a207472616e7366657220746f20746865207a65726f206164646044820152637265737360e01b6064820152608401610a1d565b6118dd8383836001611e52565b826001600160a01b03166118f082611036565b6001600160a01b0316146119165760405162461bcd60e51b8152600401610a1d90612a3e565b600081815260046020908152604080832080546001600160a01b03199081169091556001600160a01b0387811680865260038552838620805460001901905590871680865283862080546001019055868652600290945282852080549092168417909155905184937fddf252ad1be2c89b69c2b068fc378daa952ba7f163c4a11628f55a4df523b3ef91a4505050565b6112708133611eda565b6119ba8282611273565b610c4a5760008281526006602090815260408083206001600160a01b03851684529091529020805460ff191660011790556119f23390565b6001600160a01b0316816001600160a01b0316837f2f8788117e7eff1d82e926ec794901d17c78024a50270940304540a733656f0d60405160405180910390a45050565b611a408282611273565b15610c4a5760008281526006602090815260408083206001600160a01b0385168085529252808320805460ff1916905551339285917ff6391f5c32d9c69d2a47ea670b442974b53935d1edc7fd64eb21e047a839171b9190a45050565b6000908152600260205260409020546001600160a01b031690565b60006112028284612a05565b60006112028284612a1c565b80471015611b205760405162461bcd60e51b815260206004820152601d60248201527f416464726573733a20696e73756666696369656e742062616c616e63650000006044820152606401610a1d565b6000826001600160a01b03168260405160006040518083038185875af1925050503d8060008114611b6d576040519150601f19603f3d011682016040523d82523d6000602084013e611b72565b606091505b5050905080610abe5760405162461bcd60e51b815260206004820152603a60248201527f416464726573733a20756e61626c6520746f2073656e642076616c75652c20726044820152791958da5c1a595b9d081b585e481a185d99481c995d995c9d195960321b6064820152608401610a1d565b816001600160a01b0316836001600160a01b031603611c435760405162461bcd60e51b815260206004820152601960248201527822a9219b99189d1030b8383937bb32903a379031b0b63632b960391b6044820152606401610a1d565b6001600160a01b03838116600081815260056020908152604080832094871680845294825291829020805460ff191686151590811790915591519182527f17307eab39ab6107e8899845ad3d59bd9653f200f220920489ca2b5937696c31910160405180910390a3505050565b600082611cbd8584611f33565b14949350505050565b611cd1848484611835565b611cdd84848484611f80565b6113ae5760405162461bcd60e51b8152600401610a1d90612a83565b610c4a828260405180602001604052806000815250612081565b60006001600160e01b031982166380ac58cd60e01b1480611d4457506001600160e01b03198216635b5e139f60e01b145b806108ea57506301ffc9a760e01b6001600160e01b03198316146108ea565b600080611d6f83611a9d565b6001600160a01b0316141592915050565b6000611dd5826040518060400160405280602081526020017f5361666545524332303a206c6f772d6c6576656c2063616c6c206661696c6564815250856001600160a01b03166120b49092919063ffffffff16565b805190915015610abe5780806020019051810190611df39190612ad5565b610abe5760405162461bcd60e51b815260206004820152602a60248201527f5361666545524332303a204552433230206f7065726174696f6e20646964206e6044820152691bdd081cdd58d8d9595960b21b6064820152608401610a1d565b60018111156113ae576001600160a01b03841615611e98576001600160a01b03841660009081526003602052604081208054839290611e92908490612991565b90915550505b6001600160a01b038316156113ae576001600160a01b03831660009081526003602052604081208054839290611ecf908490612931565b909155505050505050565b611ee48282611273565b610c4a57611ef1816120c3565b611efc8360206120d5565b604051602001611f0d929190612af2565b60408051601f198184030181529082905262461bcd60e51b8252610a1d916004016125b6565b600081815b8451811015611f7857611f6482868381518110611f5757611f576129ef565b6020026020010151612270565b915080611f7081612b61565b915050611f38565b509392505050565b60006001600160a01b0384163b1561207657604051630a85bd0160e11b81526001600160a01b0385169063150b7a0290611fc4903390899088908890600401612b7a565b6020604051808303816000875af1925050508015611fff575060408051601f3d908101601f19168201909252611ffc91810190612bb7565b60015b61205c573d80801561202d576040519150601f19603f3d011682016040523d82523d6000602084013e612032565b606091505b5080516000036120545760405162461bcd60e51b8152600401610a1d90612a83565b805181602001fd5b6001600160e01b031916630a85bd0160e11b14905061182d565b506001949350505050565b61208b838361229f565b6120986000848484611f80565b610abe5760405162461bcd60e51b8152600401610a1d90612a83565b606061182d84846000856123ba565b60606108ea6001600160a01b03831660145b606060006120e4836002612a05565b6120ef906002612931565b6001600160401b03811115612106576121066127c6565b6040519080825280601f01601f191660200182016040528015612130576020820181803683370190505b509050600360fc1b8160008151811061214b5761214b6129ef565b60200101906001600160f81b031916908160001a905350600f60fb1b8160018151811061217a5761217a6129ef565b60200101906001600160f81b031916908160001a905350600061219e846002612a05565b6121a9906001612931565b90505b6001811115612221576f181899199a1a9b1b9c1cb0b131b232b360811b85600f16601081106121dd576121dd6129ef565b1a60f81b8282815181106121f3576121f36129ef565b60200101906001600160f81b031916908160001a90535060049490941c9361221a81612bd4565b90506121ac565b5083156112025760405162461bcd60e51b815260206004820181905260248201527f537472696e67733a20686578206c656e67746820696e73756666696369656e746044820152606401610a1d565b600081831061228c576000828152602084905260409020611202565b6000838152602083905260409020611202565b6001600160a01b0382166122f55760405162461bcd60e51b815260206004820181905260248201527f4552433732313a206d696e7420746f20746865207a65726f20616464726573736044820152606401610a1d565b6122fe81611d63565b1561231b5760405162461bcd60e51b8152600401610a1d90612beb565b612329600083836001611e52565b61233281611d63565b1561234f5760405162461bcd60e51b8152600401610a1d90612beb565b6001600160a01b038216600081815260036020908152604080832080546001019055848352600290915280822080546001600160a01b0319168417905551839291907fddf252ad1be2c89b69c2b068fc378daa952ba7f163c4a11628f55a4df523b3ef908290a45050565b60608247101561241b5760405162461bcd60e51b815260206004820152602660248201527f416464726573733a20696e73756666696369656e742062616c616e636520666f6044820152651c8818d85b1b60d21b6064820152608401610a1d565b600080866001600160a01b031685876040516124379190612c22565b60006040518083038185875af1925050503d8060008114612474576040519150601f19603f3d011682016040523d82523d6000602084013e612479565b606091505b509150915061248a87838387612495565b979650505050505050565b606083156125045782516000036124fd576001600160a01b0385163b6124fd5760405162461bcd60e51b815260206004820152601d60248201527f416464726573733a2063616c6c20746f206e6f6e2d636f6e74726163740000006044820152606401610a1d565b508161182d565b61182d83838151156125195781518083602001fd5b8060405162461bcd60e51b8152600401610a1d91906125b6565b6001600160e01b03198116811461127057600080fd5b60006020828403121561255b57600080fd5b813561120281612533565b60005b83811015612581578181015183820152602001612569565b50506000910152565b600081518084526125a2816020860160208601612566565b601f01601f19169290920160200192915050565b602081526000611202602083018461258a565b6000602082840312156125db57600080fd5b5035919050565b80356001600160a01b03811681146125f957600080fd5b919050565b6000806040838503121561261157600080fd5b61261a836125e2565b946020939093013593505050565b80356001600160401b03811681146125f957600080fd5b60006020828403121561265157600080fd5b61120282612628565b60006020828403121561266c57600080fd5b611202826125e2565b60008060006060848603121561268a57600080fd5b612693846125e2565b92506126a1602085016125e2565b9150604084013590509250925092565b600080604083850312156126c457600080fd5b823591506126d4602084016125e2565b90509250929050565b600080604083850312156126f057600080fd5b6126f9836125e2565b91506126d460208401612628565b801515811461127057600080fd5b6000806040838503121561272857600080fd5b612731836125e2565b9150602083013561274181612707565b809150509250929050565b60008060006040848603121561276157600080fd5b83356001600160401b038082111561277857600080fd5b818601915086601f83011261278c57600080fd5b81358181111561279b57600080fd5b8760208260051b85010111156127b057600080fd5b6020928301989097509590910135949350505050565b634e487b7160e01b600052604160045260246000fd5b600080600080608085870312156127f257600080fd5b6127fb856125e2565b9350612809602086016125e2565b92506040850135915060608501356001600160401b038082111561282c57600080fd5b818701915087601f83011261284057600080fd5b813581811115612852576128526127c6565b604051601f8201601f19908116603f0116810190838211818310171561287a5761287a6127c6565b816040528281528a602084870101111561289357600080fd5b82602086016020830137600060208483010152809550505050505092959194509250565b600080604083850312156128ca57600080fd5b6128d3836125e2565b91506126d4602084016125e2565b600181811c908216806128f557607f821691505b60208210810361291557634e487b7160e01b600052602260045260246000fd5b50919050565b634e487b7160e01b600052601160045260246000fd5b808201808211156108ea576108ea61291b565b6020808252602d908201527f4552433732313a2063616c6c6572206973206e6f7420746f6b656e206f776e6560408201526c1c881bdc88185c1c1c9bdd9959609a1b606082015260800190565b818103818111156108ea576108ea61291b565b602080825260189082015277115490cdcc8c4e881a5b9d985b1a59081d1bdad95b88125160421b604082015260600190565b6000602082840312156129e857600080fd5b5051919050565b634e487b7160e01b600052603260045260246000fd5b80820281158282048414176108ea576108ea61291b565b600082612a3957634e487b7160e01b600052601260045260246000fd5b500490565b60208082526025908201527f4552433732313a207472616e736665722066726f6d20696e636f72726563742060408201526437bbb732b960d91b606082015260800190565b60208082526032908201527f4552433732313a207472616e7366657220746f206e6f6e20455243373231526560408201527131b2b4bb32b91034b6b83632b6b2b73a32b960711b606082015260800190565b600060208284031215612ae757600080fd5b815161120281612707565b76020b1b1b2b9b9a1b7b73a3937b61d1030b1b1b7bab73a1604d1b815260008351612b24816017850160208801612566565b7001034b99036b4b9b9b4b733903937b6329607d1b6017918401918201528351612b55816028840160208801612566565b01602801949350505050565b600060018201612b7357612b7361291b565b5060010190565b6001600160a01b0385811682528416602082015260408101839052608060608201819052600090612bad9083018461258a565b9695505050505050565b600060208284031215612bc957600080fd5b815161120281612533565b600081612be357612be361291b565b506000190190565b6020808252601c908201527f4552433732313a20746f6b656e20616c7265616479206d696e74656400000000604082015260600190565b60008251612c34818460208701612566565b919091019291505056fea26469706673582212206c999fbb722ad6e55855938a35f614bf8c43708572ebb37caa92fe65f71c4b1864736f6c63430008110033360894a13ba1a3210667c828492db98dca3e2076cc3735a920a3ca505d382bbc416464726573733a206c6f772d6c6576656c2064656c65676174652063616c6c206661696c6564a2646970667358221220f1ba2fca217d66d7c13b9a6244bc8b3858fd31449b3b6dfc4a1b2bfadf8c1bfe64736f6c63430008110033",
  "linkReferences": {},
  "deployedLinkReferences": {}
}