{
  "_format": "hh-sol-artifact-1",
  "contractName": "PGFFactory",
  "sourceName": "contracts/PGFFactory.sol",
  "abi": [
    {
      "anonymous": false,
      "inputs": [
        {
          "indexed": false,
          "internalType": "address",
          "name": "previousAdmin",
          "type": "address"
        },
        {
          "indexed": false,
          "internalType": "address",
          "name": "newAdmin",
          "type": "address"
        }
      ],
      "name": "AdminChanged",
      "type": "event"
    },
    {
      "anonymous": false,
      "inputs": [
        {
          "indexed": true,
          "internalType": "address",
          "name": "beacon",
          "type": "address"
        }
      ],
      "name": "BeaconUpgraded",
      "type": "event"
    },
    {
      "anonymous": false,
      "inputs": [
        {
          "indexed": true,
          "internalType": "uint256",
          "name": "newCreationFee",
          "type": "uint256"
        }
      ],
      "name": "CreationFeeChanged",
      "type": "event"
    },
    {
      "anonymous": false,
      "inputs": [
        {
          "indexed": true,
          "internalType": "address",
          "name": "contractAddress",
          "type": "address"
        },
        {
          "indexed": true,
          "internalType": "uint256",
          "name": "totalFunding",
          "type": "uint256"
        },
        {
          "indexed": true,
          "internalType": "uint256",
          "name": "vestingPeriod",
          "type": "uint256"
        },
        {
          "indexed": false,
          "internalType": "uint256",
          "name": "withdrawalFee",
          "type": "uint256"
        }
      ],
      "name": "FundingCreated",
      "type": "event"
    },
    {
      "anonymous": false,
      "inputs": [
        {
          "indexed": false,
          "internalType": "uint8",
          "name": "version",
          "type": "uint8"
        }
      ],
      "name": "Initialized",
      "type": "event"
    },
    {
      "anonymous": false,
      "inputs": [
        {
          "indexed": true,
          "internalType": "address",
          "name": "newPayoutAddress",
          "type": "address"
        }
      ],
      "name": "PayoutAddressChanged",
      "type": "event"
    },
    {
      "anonymous": false,
      "inputs": [
        {
          "indexed": true,
          "internalType": "bytes32",
          "name": "role",
          "type": "bytes32"
        },
        {
          "indexed": true,
          "internalType": "bytes32",
          "name": "previousAdminRole",
          "type": "bytes32"
        },
        {
          "indexed": true,
          "internalType": "bytes32",
          "name": "newAdminRole",
          "type": "bytes32"
        }
      ],
      "name": "RoleAdminChanged",
      "type": "event"
    },
    {
      "anonymous": false,
      "inputs": [
        {
          "indexed": true,
          "internalType": "bytes32",
          "name": "role",
          "type": "bytes32"
        },
        {
          "indexed": true,
          "internalType": "address",
          "name": "account",
          "type": "address"
        },
        {
          "indexed": true,
          "internalType": "address",
          "name": "sender",
          "type": "address"
        }
      ],
      "name": "RoleGranted",
      "type": "event"
    },
    {
      "anonymous": false,
      "inputs": [
        {
          "indexed": true,
          "internalType": "bytes32",
          "name": "role",
          "type": "bytes32"
        },
        {
          "indexed": true,
          "internalType": "address",
          "name": "account",
          "type": "address"
        },
        {
          "indexed": true,
          "internalType": "address",
          "name": "sender",
          "type": "address"
        }
      ],
      "name": "RoleRevoked",
      "type": "event"
    },
    {
      "anonymous": false,
      "inputs": [
        {
          "indexed": true,
          "internalType": "address",
          "name": "implementation",
          "type": "address"
        }
      ],
      "name": "Upgraded",
      "type": "event"
    },
    {
      "anonymous": false,
      "inputs": [
        {
          "indexed": true,
          "internalType": "address",
          "name": "payoutAddress",
          "type": "address"
        },
        {
          "indexed": true,
          "internalType": "uint256",
          "name": "amount",
          "type": "uint256"
        }
      ],
      "name": "Withdrawed",
      "type": "event"
    },
    {
      "inputs": [],
      "name": "CREATIONFEE_ROLE",
      "outputs": [
        {
          "internalType": "bytes32",
          "name": "",
          "type": "bytes32"
        }
      ],
      "stateMutability": "view",
      "type": "function"
    },
    {
      "inputs": [],
      "name": "DEFAULT_ADMIN_ROLE",
      "outputs": [
        {
          "internalType": "bytes32",
          "name": "",
          "type": "bytes32"
        }
      ],
      "stateMutability": "view",
      "type": "function"
    },
    {
      "inputs": [],
      "name": "PAYOUTADDRESS_ROLE",
      "outputs": [
        {
          "internalType": "bytes32",
          "name": "",
          "type": "bytes32"
        }
      ],
      "stateMutability": "view",
      "type": "function"
    },
    {
      "inputs": [
        {
          "internalType": "uint256",
          "name": "_totalFunding",
          "type": "uint256"
        },
        {
          "internalType": "uint256",
          "name": "_withdrawalFee",
          "type": "uint256"
        },
        {
          "internalType": "uint256",
          "name": "_vestingPeriod",
          "type": "uint256"
        },
        {
          "internalType": "bool",
          "name": "_isGroupWithdrawal",
          "type": "bool"
        }
      ],
      "name": "createFunding",
      "outputs": [],
      "stateMutability": "payable",
      "type": "function"
    },
    {
      "inputs": [
        {
          "internalType": "uint256",
          "name": "_fundingId",
          "type": "uint256"
        }
      ],
      "name": "getAddress",
      "outputs": [
        {
          "internalType": "address",
          "name": "",
          "type": "address"
        }
      ],
      "stateMutability": "view",
      "type": "function"
    },
    {
      "inputs": [
        {
          "internalType": "bytes32",
          "name": "role",
          "type": "bytes32"
        }
      ],
      "name": "getRoleAdmin",
      "outputs": [
        {
          "internalType": "bytes32",
          "name": "",
          "type": "bytes32"
        }
      ],
      "stateMutability": "view",
      "type": "function"
    },
    {
      "inputs": [
        {
          "internalType": "bytes32",
          "name": "role",
          "type": "bytes32"
        },
        {
          "internalType": "uint256",
          "name": "index",
          "type": "uint256"
        }
      ],
      "name": "getRoleMember",
      "outputs": [
        {
          "internalType": "address",
          "name": "",
          "type": "address"
        }
      ],
      "stateMutability": "view",
      "type": "function"
    },
    {
      "inputs": [
        {
          "internalType": "bytes32",
          "name": "role",
          "type": "bytes32"
        }
      ],
      "name": "getRoleMemberCount",
      "outputs": [
        {
          "internalType": "uint256",
          "name": "",
          "type": "uint256"
        }
      ],
      "stateMutability": "view",
      "type": "function"
    },
    {
      "inputs": [
        {
          "internalType": "bytes32",
          "name": "role",
          "type": "bytes32"
        },
        {
          "internalType": "address",
          "name": "account",
          "type": "address"
        }
      ],
      "name": "grantRole",
      "outputs": [],
      "stateMutability": "nonpayable",
      "type": "function"
    },
    {
      "inputs": [
        {
          "internalType": "bytes32",
          "name": "role",
          "type": "bytes32"
        },
        {
          "internalType": "address",
          "name": "account",
          "type": "address"
        }
      ],
      "name": "hasRole",
      "outputs": [
        {
          "internalType": "bool",
          "name": "",
          "type": "bool"
        }
      ],
      "stateMutability": "view",
      "type": "function"
    },
    {
      "inputs": [
        {
          "internalType": "uint256",
          "name": "_creationFee",
          "type": "uint256"
        },
        {
          "internalType": "address",
          "name": "_payoutAddress",
          "type": "address"
        }
      ],
      "name": "initialize",
      "outputs": [],
      "stateMutability": "nonpayable",
      "type": "function"
    },
    {
      "inputs": [],
      "name": "proxiableUUID",
      "outputs": [
        {
          "internalType": "bytes32",
          "name": "",
          "type": "bytes32"
        }
      ],
      "stateMutability": "view",
      "type": "function"
    },
    {
      "inputs": [
        {
          "internalType": "bytes32",
          "name": "role",
          "type": "bytes32"
        },
        {
          "internalType": "address",
          "name": "account",
          "type": "address"
        }
      ],
      "name": "renounceRole",
      "outputs": [],
      "stateMutability": "nonpayable",
      "type": "function"
    },
    {
      "inputs": [
        {
          "internalType": "bytes32",
          "name": "role",
          "type": "bytes32"
        },
        {
          "internalType": "address",
          "name": "account",
          "type": "address"
        }
      ],
      "name": "revokeRole",
      "outputs": [],
      "stateMutability": "nonpayable",
      "type": "function"
    },
    {
      "inputs": [],
      "name": "s_contractBalance",
      "outputs": [
        {
          "internalType": "uint256",
          "name": "",
          "type": "uint256"
        }
      ],
      "stateMutability": "view",
      "type": "function"
    },
    {
      "inputs": [],
      "name": "s_creationFee",
      "outputs": [
        {
          "internalType": "uint256",
          "name": "",
          "type": "uint256"
        }
      ],
      "stateMutability": "view",
      "type": "function"
    },
    {
      "inputs": [],
      "name": "s_fundingId",
      "outputs": [
        {
          "internalType": "uint256",
          "name": "",
          "type": "uint256"
        }
      ],
      "stateMutability": "view",
      "type": "function"
    },
    {
      "inputs": [],
      "name": "s_payoutAddress",
      "outputs": [
        {
          "internalType": "address",
          "name": "",
          "type": "address"
        }
      ],
      "stateMutability": "view",
      "type": "function"
    },
    {
      "inputs": [
        {
          "internalType": "uint256",
          "name": "_creationFee",
          "type": "uint256"
        }
      ],
      "name": "setCreationFee",
      "outputs": [],
      "stateMutability": "nonpayable",
      "type": "function"
    },
    {
      "inputs": [
        {
          "internalType": "address",
          "name": "_payoutAddress",
          "type": "address"
        }
      ],
      "name": "setPayoutAddress",
      "outputs": [],
      "stateMutability": "nonpayable",
      "type": "function"
    },
    {
      "inputs": [
        {
          "internalType": "bytes4",
          "name": "interfaceId",
          "type": "bytes4"
        }
      ],
      "name": "supportsInterface",
      "outputs": [
        {
          "internalType": "bool",
          "name": "",
          "type": "bool"
        }
      ],
      "stateMutability": "view",
      "type": "function"
    },
    {
      "inputs": [
        {
          "internalType": "address",
          "name": "newImplementation",
          "type": "address"
        }
      ],
      "name": "upgradeTo",
      "outputs": [],
      "stateMutability": "nonpayable",
      "type": "function"
    },
    {
      "inputs": [
        {
          "internalType": "address",
          "name": "newImplementation",
          "type": "address"
        },
        {
          "internalType": "bytes",
          "name": "data",
          "type": "bytes"
        }
      ],
      "name": "upgradeToAndCall",
      "outputs": [],
      "stateMutability": "payable",
      "type": "function"
    },
    {
      "inputs": [],
      "name": "withdraw",
      "outputs": [],
      "stateMutability": "nonpayable",
      "type": "function"
    }
  ],
  "bytecode": "0x60a06040523060805234801561001457600080fd5b5060805161378561004c600039600081816106b3015281816106f601528181610888015281816108cb015261094c01526137856000f3fe608060405260043610620001675760003560e01c80639010d07c11620000c5578063b93f9b0a1162000078578063b93f9b0a1462000407578063c5e97dd71462000442578063ca15c873146200045b578063d547741f1462000480578063da35a26f14620004a5578063ddc490ef14620004ca57600080fd5b80639010d07c146200033257806391d1485414620003575780639faeebd0146200037c578063a217fddf1462000395578063a465aa8814620003ac578063b7d8622514620003e257600080fd5b80633659cfe6116200011e5780633659cfe614620002965780633ccfd60b14620002bb5780634f1ef28614620002d357806352d1902d14620002ea5780635926a6b414620003025780637c9c3c28146200031b57600080fd5b806301ffc9a7146200016c5780631d4718e614620001a6578063248a9ca314620001e25780632f2ff15d146200022557806333ea51a8146200024c57806336568abe1462000271575b600080fd5b3480156200017957600080fd5b50620001916200018b3660046200176c565b62000500565b60405190151581526020015b60405180910390f35b348015620001b357600080fd5b5061016054620001c9906001600160a01b031681565b6040516001600160a01b0390911681526020016200019d565b348015620001ef57600080fd5b50620002166200020136600462001798565b60009081526065602052604090206001015490565b6040519081526020016200019d565b3480156200023257600080fd5b506200024a62000244366004620017cf565b6200052e565b005b3480156200025957600080fd5b506200024a6200026b366004620017fe565b6200055c565b3480156200027e57600080fd5b506200024a62000290366004620017cf565b62000627565b348015620002a357600080fd5b506200024a620002b5366004620017fe565b620006a9565b348015620002c857600080fd5b506200024a6200077d565b6200024a620002e436600462001832565b6200087e565b348015620002f757600080fd5b50620002166200093f565b3480156200030f57600080fd5b50620002166101615481565b6200024a6200032c36600462001900565b620009f0565b3480156200033f57600080fd5b50620001c96200035136600462001948565b62000b5a565b3480156200036457600080fd5b506200019162000376366004620017cf565b62000b7b565b3480156200038957600080fd5b506200021661015f5481565b348015620003a257600080fd5b5062000216600081565b348015620003b957600080fd5b50620002167fe52b516296e3e9bcbfa19b643b4121ced2583c73a88061a902874f43b47e19bc81565b348015620003ef57600080fd5b506200024a6200040136600462001798565b62000ba6565b3480156200041457600080fd5b50620001c96200042636600462001798565b600090815261016260205260409020546001600160a01b031690565b3480156200044f57600080fd5b50620002166101635481565b3480156200046857600080fd5b50620002166200047a36600462001798565b62000c07565b3480156200048d57600080fd5b506200024a6200049f366004620017cf565b62000c20565b348015620004b257600080fd5b506200024a620004c4366004620017cf565b62000c49565b348015620004d757600080fd5b50620002167fc2d029cf524959bb85323c198b4987efbf030ca3846804983133f9ad924acd0981565b60006001600160e01b03198216635a05180f60e01b1480620005285750620005288262000d90565b92915050565b6000828152606560205260409020600101546200054b8162000dc7565b62000557838362000dd3565b505050565b7fe52b516296e3e9bcbfa19b643b4121ced2583c73a88061a902874f43b47e19bc620005888162000dc7565b6001600160a01b038216620005db5760405162461bcd60e51b8152602060048201526014602482015273416464726573732063616e74206265207a65726f60601b60448201526064015b60405180910390fd5b61016080546001600160a01b0319166001600160a01b0384169081179091556040517f90789b797e56b4b4a2e6d1b0314f3d6e97d13098db43d6cb694dc1961a764dea90600090a25050565b6001600160a01b0381163314620006995760405162461bcd60e51b815260206004820152602f60248201527f416363657373436f6e74726f6c3a2063616e206f6e6c792072656e6f756e636560448201526e103937b632b9903337b91039b2b63360891b6064820152608401620005d2565b620006a5828262000df9565b5050565b6001600160a01b037f0000000000000000000000000000000000000000000000000000000000000000163003620006f45760405162461bcd60e51b8152600401620005d2906200196b565b7f00000000000000000000000000000000000000000000000000000000000000006001600160a01b03166200072862000e1f565b6001600160a01b031614620007515760405162461bcd60e51b8152600401620005d290620019b7565b6200075c8162000e3c565b604080516000808252602082019092526200077a9183919062000e49565b50565b6200078762000fc1565b61016054610163546040516001600160a01b0390921691600090839083908381818185875af1925050503d8060008114620007df576040519150601f19603f3d011682016040523d82523d6000602084013e620007e4565b606091505b5050905080620008325760405162461bcd60e51b815260206004820152601860248201527715da5d1a191c985dc81b9bdd081cdd58d8d95cdcd99d5b1b60421b6044820152606401620005d2565b600061016381905560405183916001600160a01b038616917f6cca423c6ffc06e62a0acc433965e074b11c28479b0449250ce3ff65ac9e39fe9190a35050506200087c600160c955565b565b6001600160a01b037f0000000000000000000000000000000000000000000000000000000000000000163003620008c95760405162461bcd60e51b8152600401620005d2906200196b565b7f00000000000000000000000000000000000000000000000000000000000000006001600160a01b0316620008fd62000e1f565b6001600160a01b031614620009265760405162461bcd60e51b8152600401620005d290620019b7565b620009318262000e3c565b620006a58282600162000e49565b6000306001600160a01b037f00000000000000000000000000000000000000000000000000000000000000001614620009dc5760405162461bcd60e51b815260206004820152603860248201527f555550535570677261646561626c653a206d757374206e6f742062652063616c6044820152771b1959081d1a1c9bdd59da0819195b1959d85d1958d85b1b60421b6064820152608401620005d2565b506000805160206200370983398151915290565b61015f5434101562000a635760405162461bcd60e51b815260206004820152603560248201527f45746865722073656e742073686f756c6420626520657175616c206f72206d6f6044820152747265207468616e206372656174696f6e206665657360581b6064820152608401620005d2565b60008484848460405162000a77906200175e565b9384526020840192909252604083015215156060820152608001604051809103906000f08015801562000aae573d6000803e3d6000fd5b50610161805460009081526101626020526040812080546001600160a01b0319166001600160a01b038516179055815492935062000aec8362001a19565b919050555034610163600082825462000b06919062001a35565b925050819055508285826001600160a01b03167f6ca0ec3fed271d8510ec145b359d6599483fb259ffddf66cd5987074e2a1993f8760405162000b4b91815260200190565b60405180910390a45050505050565b600082815260976020526040812062000b7490836200101c565b9392505050565b60009182526065602090815260408084206001600160a01b0393909316845291905290205460ff1690565b7fc2d029cf524959bb85323c198b4987efbf030ca3846804983133f9ad924acd0962000bd28162000dc7565b61015f82905560405182907fb472bc245cc56131a253d64c0fd5cf333aaacde67bf4571c077aa32150256e2190600090a25050565b600081815260976020526040812062000528906200102a565b60008281526065602052604090206001015462000c3d8162000dc7565b62000557838362000df9565b600054610100900460ff161580801562000c6a5750600054600160ff909116105b8062000c865750303b15801562000c86575060005460ff166001145b62000ceb5760405162461bcd60e51b815260206004820152602e60248201527f496e697469616c697a61626c653a20636f6e747261637420697320616c72656160448201526d191e481a5b9a5d1a585b1a5e995960921b6064820152608401620005d2565b6000805460ff19166001179055801562000d0f576000805461ff0019166101001790555b61015f83905561016080546001600160a01b0319166001600160a01b038416179055600061016181905562000d45903362000dd3565b801562000557576000805461ff0019169055604051600181527f7f26b83ff96e1f2b6a682f133852f6798a09c465da95921460cefb38474024989060200160405180910390a1505050565b60006001600160e01b03198216637965db0b60e01b14806200052857506301ffc9a760e01b6001600160e01b031983161462000528565b6200077a813362001035565b62000ddf828262001099565b600082815260976020526040902062000557908262001123565b62000e0582826200113a565b6000828152609760205260409020620005579082620011a4565b60008051602062003709833981519152546001600160a01b031690565b6000620006a58162000dc7565b7f4910fdfa16fed3260ed0e7147f7cc6da11a60208b5b9406d12a635614ffd91435460ff161562000e7f576200055783620011bb565b826001600160a01b03166352d1902d6040518163ffffffff1660e01b8152600401602060405180830381865afa92505050801562000edc575060408051601f3d908101601f1916820190925262000ed99181019062001a4b565b60015b62000f415760405162461bcd60e51b815260206004820152602e60248201527f45524331393637557067726164653a206e657720696d706c656d656e7461746960448201526d6f6e206973206e6f74205555505360901b6064820152608401620005d2565b60008051602062003709833981519152811462000fb35760405162461bcd60e51b815260206004820152602960248201527f45524331393637557067726164653a20756e737570706f727465642070726f786044820152681a58589b195555525160ba1b6064820152608401620005d2565b50620005578383836200125a565b600260c95403620010155760405162461bcd60e51b815260206004820152601f60248201527f5265656e7472616e637947756172643a207265656e7472616e742063616c6c006044820152606401620005d2565b600260c955565b600062000b7483836200128b565b600062000528825490565b62001041828262000b7b565b620006a5576200105181620012b8565b6200105e836020620012cb565b6040516020016200107192919062001a8b565b60408051601f198184030181529082905262461bcd60e51b8252620005d29160040162001afe565b620010a5828262000b7b565b620006a55760008281526065602090815260408083206001600160a01b03851684529091529020805460ff19166001179055620010df3390565b6001600160a01b0316816001600160a01b0316837f2f8788117e7eff1d82e926ec794901d17c78024a50270940304540a733656f0d60405160405180910390a45050565b600062000b74836001600160a01b03841662001485565b62001146828262000b7b565b15620006a55760008281526065602090815260408083206001600160a01b0385168085529252808320805460ff1916905551339285917ff6391f5c32d9c69d2a47ea670b442974b53935d1edc7fd64eb21e047a839171b9190a45050565b600062000b74836001600160a01b038416620014d7565b6001600160a01b0381163b6200122a5760405162461bcd60e51b815260206004820152602d60248201527f455243313936373a206e657720696d706c656d656e746174696f6e206973206e60448201526c1bdd08184818dbdb9d1c9858dd609a1b6064820152608401620005d2565b6000805160206200370983398151915280546001600160a01b0319166001600160a01b0392909216919091179055565b6200126583620015db565b600082511180620012735750805b1562000557576200128583836200161d565b50505050565b6000826000018281548110620012a557620012a562001b33565b9060005260206000200154905092915050565b6060620005286001600160a01b03831660145b60606000620012dc83600262001b49565b620012e990600262001a35565b67ffffffffffffffff8111156200130457620013046200181c565b6040519080825280601f01601f1916602001820160405280156200132f576020820181803683370190505b509050600360fc1b816000815181106200134d576200134d62001b33565b60200101906001600160f81b031916908160001a905350600f60fb1b816001815181106200137f576200137f62001b33565b60200101906001600160f81b031916908160001a9053506000620013a584600262001b49565b620013b290600162001a35565b90505b600181111562001434576f181899199a1a9b1b9c1cb0b131b232b360811b85600f1660108110620013ea57620013ea62001b33565b1a60f81b82828151811062001403576200140362001b33565b60200101906001600160f81b031916908160001a90535060049490941c936200142c8162001b63565b9050620013b5565b50831562000b745760405162461bcd60e51b815260206004820181905260248201527f537472696e67733a20686578206c656e67746820696e73756666696369656e746044820152606401620005d2565b6000818152600183016020526040812054620014ce5750815460018181018455600084815260208082209093018490558454848252828601909352604090209190915562000528565b50600062000528565b60008181526001830160205260408120548015620015d0576000620014fe60018362001b7d565b8554909150600090620015149060019062001b7d565b90508181146200158057600086600001828154811062001538576200153862001b33565b90600052602060002001549050808760000184815481106200155e576200155e62001b33565b6000918252602080832090910192909255918252600188019052604090208390555b855486908062001594576200159462001b93565b60019003818190600052602060002001600090559055856001016000868152602001908152602001600020600090556001935050505062000528565b600091505062000528565b620015e681620011bb565b6040516001600160a01b038216907fbc7cd75a20ee27fd9adebab32041f755214dbc6bffa90cc0225b39da2e5c2d3b90600090a250565b60606001600160a01b0383163b620016875760405162461bcd60e51b815260206004820152602660248201527f416464726573733a2064656c65676174652063616c6c20746f206e6f6e2d636f6044820152651b9d1c9858dd60d21b6064820152608401620005d2565b600080846001600160a01b031684604051620016a4919062001ba9565b600060405180830381855af49150503d8060008114620016e1576040519150601f19603f3d011682016040523d82523d6000602084013e620016e6565b606091505b509150915062001711828260405180606001604052806027815260200162003729602791396200171a565b95945050505050565b606083156200172b57508162000b74565b62000b748383815115620017425781518083602001fd5b8060405162461bcd60e51b8152600401620005d2919062001afe565b611b418062001bc883390190565b6000602082840312156200177f57600080fd5b81356001600160e01b03198116811462000b7457600080fd5b600060208284031215620017ab57600080fd5b5035919050565b80356001600160a01b0381168114620017ca57600080fd5b919050565b60008060408385031215620017e357600080fd5b82359150620017f560208401620017b2565b90509250929050565b6000602082840312156200181157600080fd5b62000b7482620017b2565b634e487b7160e01b600052604160045260246000fd5b600080604083850312156200184657600080fd5b6200185183620017b2565b9150602083013567ffffffffffffffff808211156200186f57600080fd5b818501915085601f8301126200188457600080fd5b8135818111156200189957620018996200181c565b604051601f8201601f19908116603f01168101908382118183101715620018c457620018c46200181c565b81604052828152886020848701011115620018de57600080fd5b8260208601602083013760006020848301015280955050505050509250929050565b600080600080608085870312156200191757600080fd5b843593506020850135925060408501359150606085013580151581146200193d57600080fd5b939692955090935050565b600080604083850312156200195c57600080fd5b50508035926020909101359150565b6020808252602c908201527f46756e6374696f6e206d7573742062652063616c6c6564207468726f7567682060408201526b19195b1959d85d1958d85b1b60a21b606082015260800190565b6020808252602c908201527f46756e6374696f6e206d7573742062652063616c6c6564207468726f7567682060408201526b6163746976652070726f787960a01b606082015260800190565b634e487b7160e01b600052601160045260246000fd5b60006001820162001a2e5762001a2e62001a03565b5060010190565b8082018082111562000528576200052862001a03565b60006020828403121562001a5e57600080fd5b5051919050565b60005b8381101562001a8257818101518382015260200162001a68565b50506000910152565b76020b1b1b2b9b9a1b7b73a3937b61d1030b1b1b7bab73a1604d1b81526000835162001abf81601785016020880162001a65565b7001034b99036b4b9b9b4b733903937b6329607d1b601791840191820152835162001af281602884016020880162001a65565b01602801949350505050565b602081526000825180602084015262001b1f81604085016020870162001a65565b601f01601f19169190910160400192915050565b634e487b7160e01b600052603260045260246000fd5b808202811582820484141762000528576200052862001a03565b60008162001b755762001b7562001a03565b506000190190565b8181038181111562000528576200052862001a03565b634e487b7160e01b600052603160045260246000fd5b6000825162001bbd81846020870162001a65565b919091019291505056fe60806040523480156200001157600080fd5b5060405162001b4138038062001b4183398101604081905262000034916200013f565b6040518060400160405280601481526020017f46756e64696e67436f6e7472616374546f6b656e000000000000000000000000815250604051806040016040528060038152602001621190d560ea1b81525081600090816200009791906200022c565b506001620000a682826200022c565b505050620000c3620000bd620000e960201b60201c565b620000ed565b600993909355600a91909155600b55600c805460ff1916911515919091179055620002f8565b3390565b600680546001600160a01b038381166001600160a01b0319831681179093556040519116919082907f8be0079c531659141344cd1fd0a4f28419497f9722a3daafe3b4186f6b6457e090600090a35050565b600080600080608085870312156200015657600080fd5b845193506020850151925060408501519150606085015180151581146200017c57600080fd5b939692955090935050565b634e487b7160e01b600052604160045260246000fd5b600181811c90821680620001b257607f821691505b602082108103620001d357634e487b7160e01b600052602260045260246000fd5b50919050565b601f8211156200022757600081815260208120601f850160051c81016020861015620002025750805b601f850160051c820191505b8181101562000223578281556001016200020e565b5050505b505050565b81516001600160401b0381111562000248576200024862000187565b62000260816200025984546200019d565b84620001d9565b602080601f8311600181146200029857600084156200027f5750858301515b600019600386901b1c1916600185901b17855562000223565b600085815260208120601f198616915b82811015620002c957888601518255948401946001909101908401620002a8565b5085821015620002e85787850151600019600388901b60f8161c191681555b5050505050600190811b01905550565b61183980620003086000396000f3fe60806040526004361061017b5760003560e01c8063715018a6116100cc578063c87b56dd1161007a578063c87b56dd1461041c578063d7b4750c1461043d578063d8e159f81461045d578063db06941e14610472578063e2c41dbc14610487578063e985e9c51461048f578063f2fde38b146104af57600080fd5b8063715018a6146103675780637dc4c2ba1461037c5780638da5cb5b1461039157806395d89b41146103af5780639c885eb3146103c4578063a22cb465146103dc578063b88d4fde146103fc57600080fd5b806323b872dd1161012957806323b872dd146102b157806324600fc3146102d157806342842e0e146102e65780634e71d92d146103065780636352211e1461031257806365ac43411461033257806370a082311461034757600080fd5b806301ffc9a7146101875780630343fb25146101bc57806306fdde0314610200578063081812fc14610222578063095ea7b31461025a5780631095941e1461027c5780631096cb791461029c57600080fd5b3661018257005b600080fd5b34801561019357600080fd5b506101a76101a236600461130a565b6104cf565b60405190151581526020015b60405180910390f35b3480156101c857600080fd5b506101f26101d7366004611343565b6001600160a01b03166000908152600d602052604090205490565b6040519081526020016101b3565b34801561020c57600080fd5b50610215610521565b6040516101b391906113a4565b34801561022e57600080fd5b5061024261023d3660046113b7565b6105b3565b6040516001600160a01b0390911681526020016101b3565b34801561026657600080fd5b5061027a6102753660046113d0565b6105da565b005b34801561028857600080fd5b5061027a6102973660046113b7565b6106f4565b3480156102a857600080fd5b50600b546101f2565b3480156102bd57600080fd5b5061027a6102cc3660046113fa565b61074c565b3480156102dd57600080fd5b5061027a61077d565b3480156102f257600080fd5b5061027a6103013660046113fa565b610865565b34801561027a57600080fd5b34801561031e57600080fd5b5061024261032d3660046113b7565b610882565b34801561033e57600080fd5b506009546101f2565b34801561035357600080fd5b506101f2610362366004611343565b6108b6565b34801561037357600080fd5b5061027a61093c565b34801561038857600080fd5b506101a761094e565b34801561039d57600080fd5b506006546001600160a01b0316610242565b3480156103bb57600080fd5b506102156109bb565b3480156103d057600080fd5b50600c5460ff166101a7565b3480156103e857600080fd5b5061027a6103f7366004611436565b6109ca565b34801561040857600080fd5b5061027a610417366004611488565b6109d5565b34801561042857600080fd5b506102156104373660046113b7565b50606090565b34801561044957600080fd5b506102426104583660046113b7565b610a0d565b34801561046957600080fd5b50600a546101f2565b34801561047e57600080fd5b506101f2610a3d565b61027a610a5b565b34801561049b57600080fd5b506101a76104aa366004611564565b610afc565b3480156104bb57600080fd5b5061027a6104ca366004611343565b610b2a565b60006001600160e01b031982166380ac58cd60e01b148061050057506001600160e01b03198216635b5e139f60e01b145b8061051b57506301ffc9a760e01b6001600160e01b03198316145b92915050565b60606000805461053090611597565b80601f016020809104026020016040519081016040528092919081815260200182805461055c90611597565b80156105a95780601f1061057e576101008083540402835291602001916105a9565b820191906000526020600020905b81548152906001019060200180831161058c57829003601f168201915b5050505050905090565b60006105be82610ba0565b506000908152600460205260409020546001600160a01b031690565b60006105e582610882565b9050806001600160a01b0316836001600160a01b0316036106575760405162461bcd60e51b815260206004820152602160248201527f4552433732313a20617070726f76616c20746f2063757272656e74206f776e656044820152603960f91b60648201526084015b60405180910390fd5b336001600160a01b038216148061067357506106738133610afc565b6106e55760405162461bcd60e51b815260206004820152603d60248201527f4552433732313a20617070726f76652063616c6c6572206973206e6f7420746f60448201527f6b656e206f776e6572206f7220617070726f76656420666f7220616c6c000000606482015260840161064e565b6106ef8383610bc5565b505050565b600c5460ff166107175760405163568fd53960e11b815260040160405180910390fd5b6000818152600f602090815260408083203384529091529020805460ff19166001179055610749600880546001019055565b50565b6107563382610c33565b6107725760405162461bcd60e51b815260040161064e906115d1565b6106ef838383610c92565b610785610e03565b600c5460ff16156107f65761079861094e565b6107f65760405162461bcd60e51b815260206004820152602960248201527f5468657265206973206e6f206d616a6f7269747920617070726f76616c20746f60448201526820776974686472617760b81b606482015260840161064e565b6040514790600090339083908381818185875af1925050503d806000811461083a576040519150601f19603f3d011682016040523d82523d6000602084013e61083f565b606091505b505090508061086157604051639af25e5d60e01b815260040160405180910390fd5b5050565b6106ef838383604051806020016040528060008152506109d5565b565b60008061088e83610e5d565b90506001600160a01b03811661051b5760405162461bcd60e51b815260040161064e9061161e565b60006001600160a01b0382166109205760405162461bcd60e51b815260206004820152602960248201527f4552433732313a2061646472657373207a65726f206973206e6f7420612076616044820152683634b21037bbb732b960b91b606482015260840161064e565b506001600160a01b031660009081526003602052604090205490565b610944610e03565b6108806000610e78565b600c5460009060ff166109745760405163568fd53960e11b815260040160405180910390fd5b600061097f60085490565b600e549091506000906109a09060649061099a90603c610eca565b90610edd565b90508082106109b25760019250505090565b60009250505090565b60606001805461053090611597565b610861338383610ee9565b6109df3383610c33565b6109fb5760405162461bcd60e51b815260040161064e906115d1565b610a0784848484610fb3565b50505050565b6000600e8281548110610a2257610a22611650565b6000918252602090912001546001600160a01b031692915050565b6000610a56600b54600954610edd90919063ffffffff16565b905090565b6000610a65610a3d565b90506000610a7260075490565b9050813411610a945760405163cf463cf960e01b815260040160405180910390fd5b336000818152600d60205260408120349055600e805460018101825591527fbb7b4a454dc3493923482f07822329ed19e8244eff582cc204f8554c3620c3fd0180546001600160a01b03191682179055610aee9082610fe6565b610861600780546001019055565b6001600160a01b03918216600090815260056020908152604080832093909416825291909152205460ff1690565b610b32610e03565b6001600160a01b038116610b975760405162461bcd60e51b815260206004820152602660248201527f4f776e61626c653a206e6577206f776e657220697320746865207a65726f206160448201526564647265737360d01b606482015260840161064e565b61074981610e78565b610ba981611000565b6107495760405162461bcd60e51b815260040161064e9061161e565b600081815260046020526040902080546001600160a01b0319166001600160a01b0384169081179091558190610bfa82610882565b6001600160a01b03167f8c5be1e5ebec7d5bd14f71427d1e84f3dd0314c0f7b2291e5b200ac8c7c3b92560405160405180910390a45050565b600080610c3f83610882565b9050806001600160a01b0316846001600160a01b03161480610c665750610c668185610afc565b80610c8a5750836001600160a01b0316610c7f846105b3565b6001600160a01b0316145b949350505050565b826001600160a01b0316610ca582610882565b6001600160a01b031614610ccb5760405162461bcd60e51b815260040161064e90611666565b6001600160a01b038216610d2d5760405162461bcd60e51b8152602060048201526024808201527f4552433732313a207472616e7366657220746f20746865207a65726f206164646044820152637265737360e01b606482015260840161064e565b610d3a838383600161101d565b826001600160a01b0316610d4d82610882565b6001600160a01b031614610d735760405162461bcd60e51b815260040161064e90611666565b600081815260046020908152604080832080546001600160a01b03199081169091556001600160a01b0387811680865260038552838620805460001901905590871680865283862080546001019055868652600290945282852080549092168417909155905184937fddf252ad1be2c89b69c2b068fc378daa952ba7f163c4a11628f55a4df523b3ef91a4505050565b6006546001600160a01b031633146108805760405162461bcd60e51b815260206004820181905260248201527f4f776e61626c653a2063616c6c6572206973206e6f7420746865206f776e6572604482015260640161064e565b6000908152600260205260409020546001600160a01b031690565b600680546001600160a01b038381166001600160a01b0319831681179093556040519116919082907f8be0079c531659141344cd1fd0a4f28419497f9722a3daafe3b4186f6b6457e090600090a35050565b6000610ed682846116c1565b9392505050565b6000610ed682846116d8565b816001600160a01b0316836001600160a01b031603610f465760405162461bcd60e51b815260206004820152601960248201527822a9219b99189d1030b8383937bb32903a379031b0b63632b960391b604482015260640161064e565b6001600160a01b03838116600081815260056020908152604080832094871680845294825291829020805460ff191686151590811790915591519182527f17307eab39ab6107e8899845ad3d59bd9653f200f220920489ca2b5937696c31910160405180910390a3505050565b610fbe848484610c92565b610fca848484846110a5565b610a075760405162461bcd60e51b815260040161064e906116fa565b6108618282604051806020016040528060008152506111a6565b60008061100c83610e5d565b6001600160a01b0316141592915050565b6001811115610a07576001600160a01b03841615611063576001600160a01b0384166000908152600360205260408120805483929061105d90849061174c565b90915550505b6001600160a01b03831615610a07576001600160a01b0383166000908152600360205260408120805483929061109a90849061175f565b909155505050505050565b60006001600160a01b0384163b1561119b57604051630a85bd0160e11b81526001600160a01b0385169063150b7a02906110e9903390899088908890600401611772565b6020604051808303816000875af1925050508015611124575060408051601f3d908101601f19168201909252611121918101906117af565b60015b611181573d808015611152576040519150601f19603f3d011682016040523d82523d6000602084013e611157565b606091505b5080516000036111795760405162461bcd60e51b815260040161064e906116fa565b805181602001fd5b6001600160e01b031916630a85bd0160e11b149050610c8a565b506001949350505050565b6111b083836111d9565b6111bd60008484846110a5565b6106ef5760405162461bcd60e51b815260040161064e906116fa565b6001600160a01b03821661122f5760405162461bcd60e51b815260206004820181905260248201527f4552433732313a206d696e7420746f20746865207a65726f2061646472657373604482015260640161064e565b61123881611000565b156112555760405162461bcd60e51b815260040161064e906117cc565b61126360008383600161101d565b61126c81611000565b156112895760405162461bcd60e51b815260040161064e906117cc565b6001600160a01b038216600081815260036020908152604080832080546001019055848352600290915280822080546001600160a01b0319168417905551839291907fddf252ad1be2c89b69c2b068fc378daa952ba7f163c4a11628f55a4df523b3ef908290a45050565b6001600160e01b03198116811461074957600080fd5b60006020828403121561131c57600080fd5b8135610ed6816112f4565b80356001600160a01b038116811461133e57600080fd5b919050565b60006020828403121561135557600080fd5b610ed682611327565b6000815180845260005b8181101561138457602081850181015186830182015201611368565b506000602082860101526020601f19601f83011685010191505092915050565b602081526000610ed6602083018461135e565b6000602082840312156113c957600080fd5b5035919050565b600080604083850312156113e357600080fd5b6113ec83611327565b946020939093013593505050565b60008060006060848603121561140f57600080fd5b61141884611327565b925061142660208501611327565b9150604084013590509250925092565b6000806040838503121561144957600080fd5b61145283611327565b91506020830135801515811461146757600080fd5b809150509250929050565b634e487b7160e01b600052604160045260246000fd5b6000806000806080858703121561149e57600080fd5b6114a785611327565b93506114b560208601611327565b925060408501359150606085013567ffffffffffffffff808211156114d957600080fd5b818701915087601f8301126114ed57600080fd5b8135818111156114ff576114ff611472565b604051601f8201601f19908116603f0116810190838211818310171561152757611527611472565b816040528281528a602084870101111561154057600080fd5b82602086016020830137600060208483010152809550505050505092959194509250565b6000806040838503121561157757600080fd5b61158083611327565b915061158e60208401611327565b90509250929050565b600181811c908216806115ab57607f821691505b6020821081036115cb57634e487b7160e01b600052602260045260246000fd5b50919050565b6020808252602d908201527f4552433732313a2063616c6c6572206973206e6f7420746f6b656e206f776e6560408201526c1c881bdc88185c1c1c9bdd9959609a1b606082015260800190565b602080825260189082015277115490cdcc8c4e881a5b9d985b1a59081d1bdad95b88125160421b604082015260600190565b634e487b7160e01b600052603260045260246000fd5b60208082526025908201527f4552433732313a207472616e736665722066726f6d20696e636f72726563742060408201526437bbb732b960d91b606082015260800190565b634e487b7160e01b600052601160045260246000fd5b808202811582820484141761051b5761051b6116ab565b6000826116f557634e487b7160e01b600052601260045260246000fd5b500490565b60208082526032908201527f4552433732313a207472616e7366657220746f206e6f6e20455243373231526560408201527131b2b4bb32b91034b6b83632b6b2b73a32b960711b606082015260800190565b8181038181111561051b5761051b6116ab565b8082018082111561051b5761051b6116ab565b6001600160a01b03858116825284166020820152604081018390526080606082018190526000906117a59083018461135e565b9695505050505050565b6000602082840312156117c157600080fd5b8151610ed6816112f4565b6020808252601c908201527f4552433732313a20746f6b656e20616c7265616479206d696e7465640000000060408201526060019056fea2646970667358221220599eda65bdcd62a61f847b03f64c19e6f820915df7e86063244c4da937bbcc2f64736f6c63430008110033360894a13ba1a3210667c828492db98dca3e2076cc3735a920a3ca505d382bbc416464726573733a206c6f772d6c6576656c2064656c65676174652063616c6c206661696c6564a2646970667358221220c609ec04c54ac4029a127e2fa61ad05ff15b3e9a4616ac36a4266cd534adeee664736f6c63430008110033",
  "linkReferences": {},
  "deployedLinkReferences": {}
}